{
	"contracts/Sabai Vesting.sol": {
		"SabaiVesting": {
			"abi": [
				{
					"inputs": [
						{
							"internalType": "address",
							"name": "token_",
							"type": "address"
						}
					],
					"stateMutability": "nonpayable",
					"type": "constructor"
				},
				{
					"anonymous": false,
					"inputs": [
						{
							"indexed": true,
							"internalType": "address",
							"name": "previousOwner",
							"type": "address"
						},
						{
							"indexed": true,
							"internalType": "address",
							"name": "newOwner",
							"type": "address"
						}
					],
					"name": "OwnershipTransferred",
					"type": "event"
				},
				{
					"anonymous": false,
					"inputs": [
						{
							"indexed": false,
							"internalType": "uint256",
							"name": "amount",
							"type": "uint256"
						}
					],
					"name": "Released",
					"type": "event"
				},
				{
					"anonymous": false,
					"inputs": [],
					"name": "Revoked",
					"type": "event"
				},
				{
					"stateMutability": "payable",
					"type": "fallback"
				},
				{
					"inputs": [
						{
							"internalType": "address",
							"name": "holder",
							"type": "address"
						}
					],
					"name": "computeNextVestingScheduleIdForHolder",
					"outputs": [
						{
							"internalType": "bytes32",
							"name": "",
							"type": "bytes32"
						}
					],
					"stateMutability": "view",
					"type": "function"
				},
				{
					"inputs": [
						{
							"internalType": "bytes32",
							"name": "vestingScheduleId",
							"type": "bytes32"
						}
					],
					"name": "computeReleasableAmount",
					"outputs": [
						{
							"internalType": "uint256",
							"name": "",
							"type": "uint256"
						}
					],
					"stateMutability": "view",
					"type": "function"
				},
				{
					"inputs": [
						{
							"internalType": "address",
							"name": "holder",
							"type": "address"
						},
						{
							"internalType": "uint256",
							"name": "index",
							"type": "uint256"
						}
					],
					"name": "computeVestingScheduleIdForAddressAndIndex",
					"outputs": [
						{
							"internalType": "bytes32",
							"name": "",
							"type": "bytes32"
						}
					],
					"stateMutability": "pure",
					"type": "function"
				},
				{
					"inputs": [
						{
							"internalType": "address",
							"name": "_beneficiary",
							"type": "address"
						},
						{
							"internalType": "uint256",
							"name": "_start",
							"type": "uint256"
						},
						{
							"internalType": "uint256",
							"name": "_cliff",
							"type": "uint256"
						},
						{
							"internalType": "uint256",
							"name": "_duration",
							"type": "uint256"
						},
						{
							"internalType": "uint256",
							"name": "_slicePeriodSeconds",
							"type": "uint256"
						},
						{
							"internalType": "bool",
							"name": "_revocable",
							"type": "bool"
						},
						{
							"internalType": "uint256",
							"name": "_amount",
							"type": "uint256"
						}
					],
					"name": "createVestingSchedule",
					"outputs": [],
					"stateMutability": "nonpayable",
					"type": "function"
				},
				{
					"inputs": [
						{
							"components": [
								{
									"internalType": "address",
									"name": "beneficiary",
									"type": "address"
								},
								{
									"internalType": "uint256",
									"name": "cliff",
									"type": "uint256"
								},
								{
									"internalType": "uint256",
									"name": "start",
									"type": "uint256"
								},
								{
									"internalType": "uint256",
									"name": "duration",
									"type": "uint256"
								},
								{
									"internalType": "uint256",
									"name": "slicePeriodSeconds",
									"type": "uint256"
								},
								{
									"internalType": "bool",
									"name": "revocable",
									"type": "bool"
								},
								{
									"internalType": "uint256",
									"name": "amount",
									"type": "uint256"
								}
							],
							"internalType": "struct SabaiVesting.VestingScheduleMany[]",
							"name": "_schedules",
							"type": "tuple[]"
						}
					],
					"name": "createVestingScheduleMany",
					"outputs": [],
					"stateMutability": "nonpayable",
					"type": "function"
				},
				{
					"inputs": [
						{
							"internalType": "address",
							"name": "holder",
							"type": "address"
						}
					],
					"name": "getLastVestingScheduleForHolder",
					"outputs": [
						{
							"components": [
								{
									"internalType": "bool",
									"name": "initialized",
									"type": "bool"
								},
								{
									"internalType": "address",
									"name": "beneficiary",
									"type": "address"
								},
								{
									"internalType": "uint256",
									"name": "cliff",
									"type": "uint256"
								},
								{
									"internalType": "uint256",
									"name": "start",
									"type": "uint256"
								},
								{
									"internalType": "uint256",
									"name": "duration",
									"type": "uint256"
								},
								{
									"internalType": "uint256",
									"name": "slicePeriodSeconds",
									"type": "uint256"
								},
								{
									"internalType": "bool",
									"name": "revocable",
									"type": "bool"
								},
								{
									"internalType": "uint256",
									"name": "amountTotal",
									"type": "uint256"
								},
								{
									"internalType": "uint256",
									"name": "released",
									"type": "uint256"
								},
								{
									"internalType": "bool",
									"name": "revoked",
									"type": "bool"
								}
							],
							"internalType": "struct SabaiVesting.VestingSchedule",
							"name": "",
							"type": "tuple"
						}
					],
					"stateMutability": "view",
					"type": "function"
				},
				{
					"inputs": [],
					"name": "getToken",
					"outputs": [
						{
							"internalType": "address",
							"name": "",
							"type": "address"
						}
					],
					"stateMutability": "view",
					"type": "function"
				},
				{
					"inputs": [
						{
							"internalType": "uint256",
							"name": "index",
							"type": "uint256"
						}
					],
					"name": "getVestingIdAtIndex",
					"outputs": [
						{
							"internalType": "bytes32",
							"name": "",
							"type": "bytes32"
						}
					],
					"stateMutability": "view",
					"type": "function"
				},
				{
					"inputs": [
						{
							"internalType": "bytes32",
							"name": "vestingScheduleId",
							"type": "bytes32"
						}
					],
					"name": "getVestingSchedule",
					"outputs": [
						{
							"components": [
								{
									"internalType": "bool",
									"name": "initialized",
									"type": "bool"
								},
								{
									"internalType": "address",
									"name": "beneficiary",
									"type": "address"
								},
								{
									"internalType": "uint256",
									"name": "cliff",
									"type": "uint256"
								},
								{
									"internalType": "uint256",
									"name": "start",
									"type": "uint256"
								},
								{
									"internalType": "uint256",
									"name": "duration",
									"type": "uint256"
								},
								{
									"internalType": "uint256",
									"name": "slicePeriodSeconds",
									"type": "uint256"
								},
								{
									"internalType": "bool",
									"name": "revocable",
									"type": "bool"
								},
								{
									"internalType": "uint256",
									"name": "amountTotal",
									"type": "uint256"
								},
								{
									"internalType": "uint256",
									"name": "released",
									"type": "uint256"
								},
								{
									"internalType": "bool",
									"name": "revoked",
									"type": "bool"
								}
							],
							"internalType": "struct SabaiVesting.VestingSchedule",
							"name": "",
							"type": "tuple"
						}
					],
					"stateMutability": "view",
					"type": "function"
				},
				{
					"inputs": [
						{
							"internalType": "address",
							"name": "holder",
							"type": "address"
						},
						{
							"internalType": "uint256",
							"name": "index",
							"type": "uint256"
						}
					],
					"name": "getVestingScheduleByAddressAndIndex",
					"outputs": [
						{
							"components": [
								{
									"internalType": "bool",
									"name": "initialized",
									"type": "bool"
								},
								{
									"internalType": "address",
									"name": "beneficiary",
									"type": "address"
								},
								{
									"internalType": "uint256",
									"name": "cliff",
									"type": "uint256"
								},
								{
									"internalType": "uint256",
									"name": "start",
									"type": "uint256"
								},
								{
									"internalType": "uint256",
									"name": "duration",
									"type": "uint256"
								},
								{
									"internalType": "uint256",
									"name": "slicePeriodSeconds",
									"type": "uint256"
								},
								{
									"internalType": "bool",
									"name": "revocable",
									"type": "bool"
								},
								{
									"internalType": "uint256",
									"name": "amountTotal",
									"type": "uint256"
								},
								{
									"internalType": "uint256",
									"name": "released",
									"type": "uint256"
								},
								{
									"internalType": "bool",
									"name": "revoked",
									"type": "bool"
								}
							],
							"internalType": "struct SabaiVesting.VestingSchedule",
							"name": "",
							"type": "tuple"
						}
					],
					"stateMutability": "view",
					"type": "function"
				},
				{
					"inputs": [],
					"name": "getVestingSchedulesCount",
					"outputs": [
						{
							"internalType": "uint256",
							"name": "",
							"type": "uint256"
						}
					],
					"stateMutability": "view",
					"type": "function"
				},
				{
					"inputs": [
						{
							"internalType": "address",
							"name": "_beneficiary",
							"type": "address"
						}
					],
					"name": "getVestingSchedulesCountByBeneficiary",
					"outputs": [
						{
							"internalType": "uint256",
							"name": "",
							"type": "uint256"
						}
					],
					"stateMutability": "view",
					"type": "function"
				},
				{
					"inputs": [],
					"name": "getVestingSchedulesTotalAmount",
					"outputs": [
						{
							"internalType": "uint256",
							"name": "",
							"type": "uint256"
						}
					],
					"stateMutability": "view",
					"type": "function"
				},
				{
					"inputs": [],
					"name": "getWithdrawableAmount",
					"outputs": [
						{
							"internalType": "uint256",
							"name": "",
							"type": "uint256"
						}
					],
					"stateMutability": "view",
					"type": "function"
				},
				{
					"inputs": [],
					"name": "owner",
					"outputs": [
						{
							"internalType": "address",
							"name": "",
							"type": "address"
						}
					],
					"stateMutability": "view",
					"type": "function"
				},
				{
					"inputs": [
						{
							"internalType": "bytes32",
							"name": "vestingScheduleId",
							"type": "bytes32"
						},
						{
							"internalType": "uint256",
							"name": "amount",
							"type": "uint256"
						}
					],
					"name": "release",
					"outputs": [],
					"stateMutability": "nonpayable",
					"type": "function"
				},
				{
					"inputs": [],
					"name": "renounceOwnership",
					"outputs": [],
					"stateMutability": "nonpayable",
					"type": "function"
				},
				{
					"inputs": [
						{
							"internalType": "bytes32",
							"name": "vestingScheduleId",
							"type": "bytes32"
						}
					],
					"name": "revoke",
					"outputs": [],
					"stateMutability": "nonpayable",
					"type": "function"
				},
				{
					"inputs": [
						{
							"internalType": "address",
							"name": "newOwner",
							"type": "address"
						}
					],
					"name": "transferOwnership",
					"outputs": [],
					"stateMutability": "nonpayable",
					"type": "function"
				},
				{
					"inputs": [
						{
							"internalType": "uint256",
							"name": "amount",
							"type": "uint256"
						}
					],
					"name": "withdraw",
					"outputs": [],
					"stateMutability": "nonpayable",
					"type": "function"
				},
				{
					"stateMutability": "payable",
					"type": "receive"
				}
			],
			"devdoc": {
				"kind": "dev",
				"methods": {
					"computeNextVestingScheduleIdForHolder(address)": {
						"details": "Computes the next vesting schedule identifier for a given holder address."
					},
					"computeReleasableAmount(bytes32)": {
						"returns": {
							"_0": "the vested amount"
						}
					},
					"computeVestingScheduleIdForAddressAndIndex(address,uint256)": {
						"details": "Computes the vesting schedule identifier for an address and an index."
					},
					"constructor": {
						"details": "Creates a vesting contract.",
						"params": {
							"token_": "address of the ERC20 token contract"
						}
					},
					"createVestingSchedule(address,uint256,uint256,uint256,uint256,bool,uint256)": {
						"params": {
							"_amount": "total amount of tokens to be released at the end of the vesting",
							"_beneficiary": "address of the beneficiary to whom vested tokens are transferred",
							"_cliff": "duration in seconds of the cliff in which tokens will begin to vest",
							"_duration": "duration in seconds of the period in which the tokens will vest",
							"_revocable": "whether the vesting is revocable or not",
							"_slicePeriodSeconds": "duration of a slice period for the vesting in seconds",
							"_start": "start time of the vesting period"
						}
					},
					"getLastVestingScheduleForHolder(address)": {
						"details": "Returns the last vesting schedule for a given holder address."
					},
					"getToken()": {
						"details": "Returns the address of the ERC20 token managed by the vesting contract."
					},
					"getVestingIdAtIndex(uint256)": {
						"details": "Returns the vesting schedule id at the given index.",
						"returns": {
							"_0": "the vesting id"
						}
					},
					"getVestingSchedule(bytes32)": {
						"returns": {
							"_0": "the vesting schedule structure information"
						}
					},
					"getVestingScheduleByAddressAndIndex(address,uint256)": {
						"returns": {
							"_0": "the vesting schedule structure information"
						}
					},
					"getVestingSchedulesCount()": {
						"details": "Returns the number of vesting schedules managed by this contract.",
						"returns": {
							"_0": "the number of vesting schedules"
						}
					},
					"getVestingSchedulesCountByBeneficiary(address)": {
						"details": "Returns the number of vesting schedules associated to a beneficiary.",
						"returns": {
							"_0": "the number of vesting schedules"
						}
					},
					"getVestingSchedulesTotalAmount()": {
						"returns": {
							"_0": "the total amount of vesting schedules"
						}
					},
					"getWithdrawableAmount()": {
						"details": "Returns the amount of tokens that can be withdrawn by the owner.",
						"returns": {
							"_0": "the amount of tokens"
						}
					},
					"owner()": {
						"details": "Returns the address of the current owner."
					},
					"release(bytes32,uint256)": {
						"params": {
							"amount": "the amount to release",
							"vestingScheduleId": "the vesting schedule identifier"
						}
					},
					"renounceOwnership()": {
						"details": "Leaves the contract without owner. It will not be possible to call `onlyOwner` functions anymore. Can only be called by the current owner. NOTE: Renouncing ownership will leave the contract without an owner, thereby removing any functionality that is only available to the owner."
					},
					"revoke(bytes32)": {
						"params": {
							"vestingScheduleId": "the vesting schedule identifier"
						}
					},
					"transferOwnership(address)": {
						"details": "Transfers ownership of the contract to a new account (`newOwner`). Can only be called by the current owner."
					},
					"withdraw(uint256)": {
						"params": {
							"amount": "the amount to withdraw"
						}
					}
				},
				"title": "Sabai Vesting contract",
				"version": 1
			},
			"evm": {
				"assembly": "    /* \"contracts/Sabai Vesting.sol\":450:15127  contract SabaiVesting is Ownable, ReentrancyGuard{... */\n  mstore(0x40, 0xa0)\n    /* \"contracts/Sabai Vesting.sol\":2390:2499  constructor(address token_) {... */\n  callvalue\n  dup1\n  iszero\n  tag_1\n  jumpi\n  0x00\n  dup1\n  revert\ntag_1:\n  pop\n  mload(0x40)\n  sub(codesize, bytecodeSize)\n  dup1\n  bytecodeSize\n  dup4\n  codecopy\n  dup2\n  dup2\n  add\n  0x40\n  mstore\n  dup2\n  add\n  swap1\n  tag_2\n  swap2\n  swap1\n  tag_3\n  jump\t// in\ntag_2:\n    /* \"@openzeppelin/contracts/access/Ownable.sol\":936:968  _transferOwnership(_msgSender()) */\n  tag_8\n    /* \"@openzeppelin/contracts/access/Ownable.sol\":955:967  _msgSender() */\n  tag_9\n    /* \"@openzeppelin/contracts/access/Ownable.sol\":955:965  _msgSender */\n  shl(0x20, tag_10)\n    /* \"@openzeppelin/contracts/access/Ownable.sol\":955:967  _msgSender() */\n  0x20\n  shr\n  jump\t// in\ntag_9:\n    /* \"@openzeppelin/contracts/access/Ownable.sol\":936:954  _transferOwnership */\n  shl(0x20, tag_11)\n    /* \"@openzeppelin/contracts/access/Ownable.sol\":936:968  _transferOwnership(_msgSender()) */\n  0x20\n  shr\n  jump\t// in\ntag_8:\n    /* \"@openzeppelin/contracts/security/ReentrancyGuard.sol\":1716:1717  1 */\n  0x01\n    /* \"@openzeppelin/contracts/security/ReentrancyGuard.sol\":1821:1828  _status */\n  dup1\n    /* \"@openzeppelin/contracts/security/ReentrancyGuard.sol\":1821:1843  _status = _NOT_ENTERED */\n  dup2\n  swap1\n  sstore\n  pop\n    /* \"contracts/Sabai Vesting.sol\":2454:2457  0x0 */\n  0x00\n    /* \"contracts/Sabai Vesting.sol\":2436:2458  token_ != address(0x0) */\n  0xffffffffffffffffffffffffffffffffffffffff\n  and\n    /* \"contracts/Sabai Vesting.sol\":2436:2442  token_ */\n  dup2\n    /* \"contracts/Sabai Vesting.sol\":2436:2458  token_ != address(0x0) */\n  0xffffffffffffffffffffffffffffffffffffffff\n  and\n  sub\n    /* \"contracts/Sabai Vesting.sol\":2428:2459  require(token_ != address(0x0)) */\n  tag_14\n  jumpi\n  0x00\n  dup1\n  revert\ntag_14:\n    /* \"contracts/Sabai Vesting.sol\":2485:2491  token_ */\n  dup1\n    /* \"contracts/Sabai Vesting.sol\":2469:2492  _token = IERC20(token_) */\n  0xffffffffffffffffffffffffffffffffffffffff\n  and\n  0x80\n  dup2\n  0xffffffffffffffffffffffffffffffffffffffff\n  and\n  dup2\n  mstore\n  pop\n  pop\n    /* \"contracts/Sabai Vesting.sol\":2390:2499  constructor(address token_) {... */\n  pop\n    /* \"contracts/Sabai Vesting.sol\":450:15127  contract SabaiVesting is Ownable, ReentrancyGuard{... */\n  jump(tag_15)\n    /* \"@openzeppelin/contracts/utils/Context.sol\":640:736  function _msgSender() internal view virtual returns (address) {... */\ntag_10:\n    /* \"@openzeppelin/contracts/utils/Context.sol\":693:700  address */\n  0x00\n    /* \"@openzeppelin/contracts/utils/Context.sol\":719:729  msg.sender */\n  caller\n    /* \"@openzeppelin/contracts/utils/Context.sol\":712:729  return msg.sender */\n  swap1\n  pop\n    /* \"@openzeppelin/contracts/utils/Context.sol\":640:736  function _msgSender() internal view virtual returns (address) {... */\n  swap1\n  jump\t// out\n    /* \"@openzeppelin/contracts/access/Ownable.sol\":2433:2620  function _transferOwnership(address newOwner) internal virtual {... */\ntag_11:\n    /* \"@openzeppelin/contracts/access/Ownable.sol\":2506:2522  address oldOwner */\n  0x00\n    /* \"@openzeppelin/contracts/access/Ownable.sol\":2525:2531  _owner */\n  dup1\n  0x00\n  swap1\n  sload\n  swap1\n  0x0100\n  exp\n  swap1\n  div\n  0xffffffffffffffffffffffffffffffffffffffff\n  and\n    /* \"@openzeppelin/contracts/access/Ownable.sol\":2506:2531  address oldOwner = _owner */\n  swap1\n  pop\n    /* \"@openzeppelin/contracts/access/Ownable.sol\":2550:2558  newOwner */\n  dup2\n    /* \"@openzeppelin/contracts/access/Ownable.sol\":2541:2547  _owner */\n  0x00\n  dup1\n    /* \"@openzeppelin/contracts/access/Ownable.sol\":2541:2558  _owner = newOwner */\n  0x0100\n  exp\n  dup2\n  sload\n  dup2\n  0xffffffffffffffffffffffffffffffffffffffff\n  mul\n  not\n  and\n  swap1\n  dup4\n  0xffffffffffffffffffffffffffffffffffffffff\n  and\n  mul\n  or\n  swap1\n  sstore\n  pop\n    /* \"@openzeppelin/contracts/access/Ownable.sol\":2604:2612  newOwner */\n  dup2\n    /* \"@openzeppelin/contracts/access/Ownable.sol\":2573:2613  OwnershipTransferred(oldOwner, newOwner) */\n  0xffffffffffffffffffffffffffffffffffffffff\n  and\n    /* \"@openzeppelin/contracts/access/Ownable.sol\":2594:2602  oldOwner */\n  dup2\n    /* \"@openzeppelin/contracts/access/Ownable.sol\":2573:2613  OwnershipTransferred(oldOwner, newOwner) */\n  0xffffffffffffffffffffffffffffffffffffffff\n  and\n  0x8be0079c531659141344cd1fd0a4f28419497f9722a3daafe3b4186f6b6457e0\n  mload(0x40)\n  mload(0x40)\n  dup1\n  swap2\n  sub\n  swap1\n  log3\n    /* \"@openzeppelin/contracts/access/Ownable.sol\":2496:2620  {... */\n  pop\n    /* \"@openzeppelin/contracts/access/Ownable.sol\":2433:2620  function _transferOwnership(address newOwner) internal virtual {... */\n  pop\n  jump\t// out\n    /* \"#utility.yul\":88:205   */\ntag_19:\n    /* \"#utility.yul\":197:198   */\n  0x00\n    /* \"#utility.yul\":194:195   */\n  dup1\n    /* \"#utility.yul\":187:199   */\n  revert\n    /* \"#utility.yul\":334:460   */\ntag_21:\n    /* \"#utility.yul\":371:378   */\n  0x00\n    /* \"#utility.yul\":411:453   */\n  0xffffffffffffffffffffffffffffffffffffffff\n    /* \"#utility.yul\":404:409   */\n  dup3\n    /* \"#utility.yul\":400:454   */\n  and\n    /* \"#utility.yul\":389:454   */\n  swap1\n  pop\n    /* \"#utility.yul\":334:460   */\n  swap2\n  swap1\n  pop\n  jump\t// out\n    /* \"#utility.yul\":466:562   */\ntag_22:\n    /* \"#utility.yul\":503:510   */\n  0x00\n    /* \"#utility.yul\":532:556   */\n  tag_31\n    /* \"#utility.yul\":550:555   */\n  dup3\n    /* \"#utility.yul\":532:556   */\n  tag_21\n  jump\t// in\ntag_31:\n    /* \"#utility.yul\":521:556   */\n  swap1\n  pop\n    /* \"#utility.yul\":466:562   */\n  swap2\n  swap1\n  pop\n  jump\t// out\n    /* \"#utility.yul\":568:690   */\ntag_23:\n    /* \"#utility.yul\":641:665   */\n  tag_33\n    /* \"#utility.yul\":659:664   */\n  dup2\n    /* \"#utility.yul\":641:665   */\n  tag_22\n  jump\t// in\ntag_33:\n    /* \"#utility.yul\":634:639   */\n  dup2\n    /* \"#utility.yul\":631:666   */\n  eq\n    /* \"#utility.yul\":621:684   */\n  tag_34\n  jumpi\n    /* \"#utility.yul\":680:681   */\n  0x00\n    /* \"#utility.yul\":677:678   */\n  dup1\n    /* \"#utility.yul\":670:682   */\n  revert\n    /* \"#utility.yul\":621:684   */\ntag_34:\n    /* \"#utility.yul\":568:690   */\n  pop\n  jump\t// out\n    /* \"#utility.yul\":696:839   */\ntag_24:\n    /* \"#utility.yul\":753:758   */\n  0x00\n    /* \"#utility.yul\":784:790   */\n  dup2\n    /* \"#utility.yul\":778:791   */\n  mload\n    /* \"#utility.yul\":769:791   */\n  swap1\n  pop\n    /* \"#utility.yul\":800:833   */\n  tag_36\n    /* \"#utility.yul\":827:832   */\n  dup2\n    /* \"#utility.yul\":800:833   */\n  tag_23\n  jump\t// in\ntag_36:\n    /* \"#utility.yul\":696:839   */\n  swap3\n  swap2\n  pop\n  pop\n  jump\t// out\n    /* \"#utility.yul\":845:1196   */\ntag_3:\n    /* \"#utility.yul\":915:921   */\n  0x00\n    /* \"#utility.yul\":964:966   */\n  0x20\n    /* \"#utility.yul\":952:961   */\n  dup3\n    /* \"#utility.yul\":943:950   */\n  dup5\n    /* \"#utility.yul\":939:962   */\n  sub\n    /* \"#utility.yul\":935:967   */\n  slt\n    /* \"#utility.yul\":932:1051   */\n  iszero\n  tag_38\n  jumpi\n    /* \"#utility.yul\":970:1049   */\n  tag_39\n  tag_19\n  jump\t// in\ntag_39:\n    /* \"#utility.yul\":932:1051   */\ntag_38:\n    /* \"#utility.yul\":1090:1091   */\n  0x00\n    /* \"#utility.yul\":1115:1179   */\n  tag_40\n    /* \"#utility.yul\":1171:1178   */\n  dup5\n    /* \"#utility.yul\":1162:1168   */\n  dup3\n    /* \"#utility.yul\":1151:1160   */\n  dup6\n    /* \"#utility.yul\":1147:1169   */\n  add\n    /* \"#utility.yul\":1115:1179   */\n  tag_24\n  jump\t// in\ntag_40:\n    /* \"#utility.yul\":1105:1179   */\n  swap2\n  pop\n    /* \"#utility.yul\":1061:1189   */\n  pop\n    /* \"#utility.yul\":845:1196   */\n  swap3\n  swap2\n  pop\n  pop\n  jump\t// out\n    /* \"contracts/Sabai Vesting.sol\":450:15127  contract SabaiVesting is Ownable, ReentrancyGuard{... */\ntag_15:\n  mload(0x80)\n  codecopy(0x00, dataOffset(sub_0), dataSize(sub_0))\n  0x00\n  assignImmutable(\"0xb70eb531a2699953285ebb78c39578cbdac86304682453a46c4a672d055c8600\")\n  return(0x00, dataSize(sub_0))\nstop\n\nsub_0: assembly {\n        /* \"contracts/Sabai Vesting.sol\":450:15127  contract SabaiVesting is Ownable, ReentrancyGuard{... */\n      mstore(0x40, 0x80)\n      jumpi(tag_1, lt(calldatasize, 0x04))\n      shr(0xe0, calldataload(0x00))\n      dup1\n      0x8af104da\n      gt\n      tag_23\n      jumpi\n      dup1\n      0xea1bb3d5\n      gt\n      tag_24\n      jumpi\n      dup1\n      0xea1bb3d5\n      eq\n      tag_18\n      jumpi\n      dup1\n      0xf2fde38b\n      eq\n      tag_19\n      jumpi\n      dup1\n      0xf51321d7\n      eq\n      tag_20\n      jumpi\n      dup1\n      0xf7c469f0\n      eq\n      tag_21\n      jumpi\n      dup1\n      0xf9079b37\n      eq\n      tag_22\n      jumpi\n      jump(tag_2)\n    tag_24:\n      dup1\n      0x8af104da\n      eq\n      tag_13\n      jumpi\n      dup1\n      0x8da5cb5b\n      eq\n      tag_14\n      jumpi\n      dup1\n      0x90be10cc\n      eq\n      tag_15\n      jumpi\n      dup1\n      0x9ef346b4\n      eq\n      tag_16\n      jumpi\n      dup1\n      0xb75c7dc6\n      eq\n      tag_17\n      jumpi\n      jump(tag_2)\n    tag_23:\n      dup1\n      0x5a7bb69a\n      gt\n      tag_25\n      jumpi\n      dup1\n      0x5a7bb69a\n      eq\n      tag_8\n      jumpi\n      dup1\n      0x5d69f805\n      eq\n      tag_9\n      jumpi\n      dup1\n      0x66afd8ef\n      eq\n      tag_10\n      jumpi\n      dup1\n      0x715018a6\n      eq\n      tag_11\n      jumpi\n      dup1\n      0x7e913dc6\n      eq\n      tag_12\n      jumpi\n      jump(tag_2)\n    tag_25:\n      dup1\n      0x13083617\n      eq\n      tag_3\n      jumpi\n      dup1\n      0x17e289e9\n      eq\n      tag_4\n      jumpi\n      dup1\n      0x21df0da7\n      eq\n      tag_5\n      jumpi\n      dup1\n      0x2e1a7d4d\n      eq\n      tag_6\n      jumpi\n      dup1\n      0x48deb471\n      eq\n      tag_7\n      jumpi\n      jump(tag_2)\n    tag_1:\n      jumpi(tag_2, calldatasize)\n      stop\n    tag_2:\n      stop\n        /* \"contracts/Sabai Vesting.sol\":11626:11764  function getVestingSchedulesCount()... */\n    tag_3:\n      callvalue\n      dup1\n      iszero\n      tag_30\n      jumpi\n      0x00\n      dup1\n      revert\n    tag_30:\n      pop\n      tag_31\n      tag_32\n      jump\t// in\n    tag_31:\n      mload(0x40)\n      tag_33\n      swap2\n      swap1\n      tag_34\n      jump\t// in\n    tag_33:\n      mload(0x40)\n      dup1\n      swap2\n      sub\n      swap1\n      return\n        /* \"contracts/Sabai Vesting.sol\":4736:6109  function createVestingSchedule(... */\n    tag_4:\n      callvalue\n      dup1\n      iszero\n      tag_35\n      jumpi\n      0x00\n      dup1\n      revert\n    tag_35:\n      pop\n      tag_36\n      0x04\n      dup1\n      calldatasize\n      sub\n      dup2\n      add\n      swap1\n      tag_37\n      swap2\n      swap1\n      tag_38\n      jump\t// in\n    tag_37:\n      tag_39\n      jump\t// in\n    tag_36:\n      stop\n        /* \"contracts/Sabai Vesting.sol\":3995:4096  function getToken()... */\n    tag_5:\n      callvalue\n      dup1\n      iszero\n      tag_40\n      jumpi\n      0x00\n      dup1\n      revert\n    tag_40:\n      pop\n      tag_41\n      tag_42\n      jump\t// in\n    tag_41:\n      mload(0x40)\n      tag_43\n      swap2\n      swap1\n      tag_44\n      jump\t// in\n    tag_43:\n      mload(0x40)\n      dup1\n      swap2\n      sub\n      swap1\n      return\n        /* \"contracts/Sabai Vesting.sol\":10058:10302  function withdraw(uint256 amount)... */\n    tag_6:\n      callvalue\n      dup1\n      iszero\n      tag_45\n      jumpi\n      0x00\n      dup1\n      revert\n    tag_45:\n      pop\n      tag_46\n      0x04\n      dup1\n      calldatasize\n      sub\n      dup2\n      add\n      swap1\n      tag_47\n      swap2\n      swap1\n      tag_48\n      jump\t// in\n    tag_47:\n      tag_49\n      jump\t// in\n    tag_46:\n      stop\n        /* \"contracts/Sabai Vesting.sol\":3756:3891  function getVestingSchedulesTotalAmount()... */\n    tag_7:\n      callvalue\n      dup1\n      iszero\n      tag_50\n      jumpi\n      0x00\n      dup1\n      revert\n    tag_50:\n      pop\n      tag_51\n      tag_52\n      jump\t// in\n    tag_51:\n      mload(0x40)\n      tag_53\n      swap2\n      swap1\n      tag_34\n      jump\t// in\n    tag_53:\n      mload(0x40)\n      dup1\n      swap2\n      sub\n      swap1\n      return\n        /* \"contracts/Sabai Vesting.sol\":2717:2885  function getVestingSchedulesCountByBeneficiary(address _beneficiary)... */\n    tag_8:\n      callvalue\n      dup1\n      iszero\n      tag_54\n      jumpi\n      0x00\n      dup1\n      revert\n    tag_54:\n      pop\n      tag_55\n      0x04\n      dup1\n      calldatasize\n      sub\n      dup2\n      add\n      swap1\n      tag_56\n      swap2\n      swap1\n      tag_57\n      jump\t// in\n    tag_56:\n      tag_58\n      jump\t// in\n    tag_55:\n      mload(0x40)\n      tag_59\n      swap2\n      swap1\n      tag_34\n      jump\t// in\n    tag_59:\n      mload(0x40)\n      dup1\n      swap2\n      sub\n      swap1\n      return\n        /* \"contracts/Sabai Vesting.sol\":7358:9087  function createVestingScheduleMany(VestingScheduleMany[] memory _schedules)... */\n    tag_9:\n      callvalue\n      dup1\n      iszero\n      tag_60\n      jumpi\n      0x00\n      dup1\n      revert\n    tag_60:\n      pop\n      tag_61\n      0x04\n      dup1\n      calldatasize\n      sub\n      dup2\n      add\n      swap1\n      tag_62\n      swap2\n      swap1\n      tag_63\n      jump\t// in\n    tag_62:\n      tag_64\n      jump\t// in\n    tag_61:\n      stop\n        /* \"contracts/Sabai Vesting.sol\":10475:11482  function release(... */\n    tag_10:\n      callvalue\n      dup1\n      iszero\n      tag_65\n      jumpi\n      0x00\n      dup1\n      revert\n    tag_65:\n      pop\n      tag_66\n      0x04\n      dup1\n      calldatasize\n      sub\n      dup2\n      add\n      swap1\n      tag_67\n      swap2\n      swap1\n      tag_68\n      jump\t// in\n    tag_67:\n      tag_69\n      jump\t// in\n    tag_66:\n      stop\n        /* \"@openzeppelin/contracts/access/Ownable.sol\":1831:1932  function renounceOwnership() public virtual onlyOwner {... */\n    tag_11:\n      callvalue\n      dup1\n      iszero\n      tag_70\n      jumpi\n      0x00\n      dup1\n      revert\n    tag_70:\n      pop\n      tag_71\n      tag_72\n      jump\t// in\n    tag_71:\n      stop\n        /* \"contracts/Sabai Vesting.sol\":13295:13544  function getLastVestingScheduleForHolder(address holder)... */\n    tag_12:\n      callvalue\n      dup1\n      iszero\n      tag_73\n      jumpi\n      0x00\n      dup1\n      revert\n    tag_73:\n      pop\n      tag_74\n      0x04\n      dup1\n      calldatasize\n      sub\n      dup2\n      add\n      swap1\n      tag_75\n      swap2\n      swap1\n      tag_57\n      jump\t// in\n    tag_75:\n      tag_76\n      jump\t// in\n    tag_74:\n      mload(0x40)\n      tag_77\n      swap2\n      swap1\n      tag_78\n      jump\t// in\n    tag_77:\n      mload(0x40)\n      dup1\n      swap2\n      sub\n      swap1\n      return\n        /* \"contracts/Sabai Vesting.sol\":13646:13847  function computeVestingScheduleIdForAddressAndIndex(address holder, uint256 index)... */\n    tag_13:\n      callvalue\n      dup1\n      iszero\n      tag_79\n      jumpi\n      0x00\n      dup1\n      revert\n    tag_79:\n      pop\n      tag_80\n      0x04\n      dup1\n      calldatasize\n      sub\n      dup2\n      add\n      swap1\n      tag_81\n      swap2\n      swap1\n      tag_82\n      jump\t// in\n    tag_81:\n      tag_83\n      jump\t// in\n    tag_80:\n      mload(0x40)\n      tag_84\n      swap2\n      swap1\n      tag_85\n      jump\t// in\n    tag_84:\n      mload(0x40)\n      dup1\n      swap2\n      sub\n      swap1\n      return\n        /* \"@openzeppelin/contracts/access/Ownable.sol\":1201:1286  function owner() public view virtual returns (address) {... */\n    tag_14:\n      callvalue\n      dup1\n      iszero\n      tag_86\n      jumpi\n      0x00\n      dup1\n      revert\n    tag_86:\n      pop\n      tag_87\n      tag_88\n      jump\t// in\n    tag_87:\n      mload(0x40)\n      tag_89\n      swap2\n      swap1\n      tag_44\n      jump\t// in\n    tag_89:\n      mload(0x40)\n      dup1\n      swap2\n      sub\n      swap1\n      return\n        /* \"contracts/Sabai Vesting.sol\":12704:12877  function getWithdrawableAmount()... */\n    tag_15:\n      callvalue\n      dup1\n      iszero\n      tag_90\n      jumpi\n      0x00\n      dup1\n      revert\n    tag_90:\n      pop\n      tag_91\n      tag_92\n      jump\t// in\n    tag_91:\n      mload(0x40)\n      tag_93\n      swap2\n      swap1\n      tag_34\n      jump\t// in\n    tag_93:\n      mload(0x40)\n      dup1\n      swap2\n      sub\n      swap1\n      return\n        /* \"contracts/Sabai Vesting.sol\":12391:12572  function getVestingSchedule(bytes32 vestingScheduleId)... */\n    tag_16:\n      callvalue\n      dup1\n      iszero\n      tag_94\n      jumpi\n      0x00\n      dup1\n      revert\n    tag_94:\n      pop\n      tag_95\n      0x04\n      dup1\n      calldatasize\n      sub\n      dup2\n      add\n      swap1\n      tag_96\n      swap2\n      swap1\n      tag_97\n      jump\t// in\n    tag_96:\n      tag_98\n      jump\t// in\n    tag_95:\n      mload(0x40)\n      tag_99\n      swap2\n      swap1\n      tag_78\n      jump\t// in\n    tag_99:\n      mload(0x40)\n      dup1\n      swap2\n      sub\n      swap1\n      return\n        /* \"contracts/Sabai Vesting.sol\":9236:9937  function revoke(bytes32 vestingScheduleId)... */\n    tag_17:\n      callvalue\n      dup1\n      iszero\n      tag_100\n      jumpi\n      0x00\n      dup1\n      revert\n    tag_100:\n      pop\n      tag_101\n      0x04\n      dup1\n      calldatasize\n      sub\n      dup2\n      add\n      swap1\n      tag_102\n      swap2\n      swap1\n      tag_97\n      jump\t// in\n    tag_102:\n      tag_103\n      jump\t// in\n    tag_101:\n      stop\n        /* \"contracts/Sabai Vesting.sol\":11911:12234  function computeReleasableAmount(bytes32 vestingScheduleId)... */\n    tag_18:\n      callvalue\n      dup1\n      iszero\n      tag_104\n      jumpi\n      0x00\n      dup1\n      revert\n    tag_104:\n      pop\n      tag_105\n      0x04\n      dup1\n      calldatasize\n      sub\n      dup2\n      add\n      swap1\n      tag_106\n      swap2\n      swap1\n      tag_97\n      jump\t// in\n    tag_106:\n      tag_107\n      jump\t// in\n    tag_105:\n      mload(0x40)\n      tag_108\n      swap2\n      swap1\n      tag_34\n      jump\t// in\n    tag_108:\n      mload(0x40)\n      dup1\n      swap2\n      sub\n      swap1\n      return\n        /* \"@openzeppelin/contracts/access/Ownable.sol\":2081:2279  function transferOwnership(address newOwner) public virtual onlyOwner {... */\n    tag_19:\n      callvalue\n      dup1\n      iszero\n      tag_109\n      jumpi\n      0x00\n      dup1\n      revert\n    tag_109:\n      pop\n      tag_110\n      0x04\n      dup1\n      calldatasize\n      sub\n      dup2\n      add\n      swap1\n      tag_111\n      swap2\n      swap1\n      tag_57\n      jump\t// in\n    tag_111:\n      tag_112\n      jump\t// in\n    tag_110:\n      stop\n        /* \"contracts/Sabai Vesting.sol\":3387:3621  function getVestingScheduleByAddressAndIndex(address holder, uint256 index)... */\n    tag_20:\n      callvalue\n      dup1\n      iszero\n      tag_113\n      jumpi\n      0x00\n      dup1\n      revert\n    tag_113:\n      pop\n      tag_114\n      0x04\n      dup1\n      calldatasize\n      sub\n      dup2\n      add\n      swap1\n      tag_115\n      swap2\n      swap1\n      tag_82\n      jump\t// in\n    tag_115:\n      tag_116\n      jump\t// in\n    tag_114:\n      mload(0x40)\n      tag_117\n      swap2\n      swap1\n      tag_78\n      jump\t// in\n    tag_117:\n      mload(0x40)\n      dup1\n      swap2\n      sub\n      swap1\n      return\n        /* \"contracts/Sabai Vesting.sol\":12983:13201  function computeNextVestingScheduleIdForHolder(address holder)... */\n    tag_21:\n      callvalue\n      dup1\n      iszero\n      tag_118\n      jumpi\n      0x00\n      dup1\n      revert\n    tag_118:\n      pop\n      tag_119\n      0x04\n      dup1\n      calldatasize\n      sub\n      dup2\n      add\n      swap1\n      tag_120\n      swap2\n      swap1\n      tag_57\n      jump\t// in\n    tag_120:\n      tag_121\n      jump\t// in\n    tag_119:\n      mload(0x40)\n      tag_122\n      swap2\n      swap1\n      tag_85\n      jump\t// in\n    tag_122:\n      mload(0x40)\n      dup1\n      swap2\n      sub\n      swap1\n      return\n        /* \"contracts/Sabai Vesting.sol\":2998:3224  function getVestingIdAtIndex(uint256 index)... */\n    tag_22:\n      callvalue\n      dup1\n      iszero\n      tag_123\n      jumpi\n      0x00\n      dup1\n      revert\n    tag_123:\n      pop\n      tag_124\n      0x04\n      dup1\n      calldatasize\n      sub\n      dup2\n      add\n      swap1\n      tag_125\n      swap2\n      swap1\n      tag_48\n      jump\t// in\n    tag_125:\n      tag_126\n      jump\t// in\n    tag_124:\n      mload(0x40)\n      tag_127\n      swap2\n      swap1\n      tag_85\n      jump\t// in\n    tag_127:\n      mload(0x40)\n      dup1\n      swap2\n      sub\n      swap1\n      return\n        /* \"contracts/Sabai Vesting.sol\":11626:11764  function getVestingSchedulesCount()... */\n    tag_32:\n        /* \"contracts/Sabai Vesting.sol\":11706:11713  uint256 */\n      0x00\n        /* \"contracts/Sabai Vesting.sol\":11731:11750  vestingSchedulesIds */\n      0x02\n        /* \"contracts/Sabai Vesting.sol\":11731:11757  vestingSchedulesIds.length */\n      dup1\n      sload\n      swap1\n      pop\n        /* \"contracts/Sabai Vesting.sol\":11724:11757  return vestingSchedulesIds.length */\n      swap1\n      pop\n        /* \"contracts/Sabai Vesting.sol\":11626:11764  function getVestingSchedulesCount()... */\n      swap1\n      jump\t// out\n        /* \"contracts/Sabai Vesting.sol\":4736:6109  function createVestingSchedule(... */\n    tag_39:\n        /* \"@openzeppelin/contracts/access/Ownable.sol\":1094:1107  _checkOwner() */\n      tag_130\n        /* \"@openzeppelin/contracts/access/Ownable.sol\":1094:1105  _checkOwner */\n      tag_131\n        /* \"@openzeppelin/contracts/access/Ownable.sol\":1094:1107  _checkOwner() */\n      jump\t// in\n    tag_130:\n        /* \"contracts/Sabai Vesting.sol\":5060:5067  _amount */\n      dup1\n        /* \"contracts/Sabai Vesting.sol\":5028:5032  this */\n      address\n        /* \"contracts/Sabai Vesting.sol\":5028:5054  this.getWithdrawableAmount */\n      0xffffffffffffffffffffffffffffffffffffffff\n      and\n      0x90be10cc\n        /* \"contracts/Sabai Vesting.sol\":5028:5056  this.getWithdrawableAmount() */\n      mload(0x40)\n      dup2\n      0xffffffff\n      and\n      0xe0\n      shl\n      dup2\n      mstore\n      0x04\n      add\n      0x20\n      mload(0x40)\n      dup1\n      dup4\n      sub\n      dup2\n      dup7\n      gas\n      staticcall\n      iszero\n      dup1\n      iszero\n      tag_134\n      jumpi\n      returndatasize\n      0x00\n      dup1\n      returndatacopy\n      revert(0x00, returndatasize)\n    tag_134:\n      pop\n      pop\n      pop\n      pop\n      mload(0x40)\n      returndatasize\n      not(0x1f)\n      0x1f\n      dup3\n      add\n      and\n      dup3\n      add\n      dup1\n      0x40\n      mstore\n      pop\n      dup2\n      add\n      swap1\n      tag_135\n      swap2\n      swap1\n      tag_136\n      jump\t// in\n    tag_135:\n        /* \"contracts/Sabai Vesting.sol\":5028:5067  this.getWithdrawableAmount() >= _amount */\n      lt\n      iszero\n        /* \"contracts/Sabai Vesting.sol\":5007:5167  require(... */\n      tag_137\n      jumpi\n      mload(0x40)\n      0x08c379a000000000000000000000000000000000000000000000000000000000\n      dup2\n      mstore\n      0x04\n      add\n      tag_138\n      swap1\n      tag_139\n      jump\t// in\n    tag_138:\n      mload(0x40)\n      dup1\n      swap2\n      sub\n      swap1\n      revert\n    tag_137:\n        /* \"contracts/Sabai Vesting.sol\":5197:5198  0 */\n      0x00\n        /* \"contracts/Sabai Vesting.sol\":5185:5194  _duration */\n      dup5\n        /* \"contracts/Sabai Vesting.sol\":5185:5198  _duration > 0 */\n      gt\n        /* \"contracts/Sabai Vesting.sol\":5177:5237  require(_duration > 0, \"TokenVesting: duration must be > 0\") */\n      tag_140\n      jumpi\n      mload(0x40)\n      0x08c379a000000000000000000000000000000000000000000000000000000000\n      dup2\n      mstore\n      0x04\n      add\n      tag_141\n      swap1\n      tag_142\n      jump\t// in\n    tag_141:\n      mload(0x40)\n      dup1\n      swap2\n      sub\n      swap1\n      revert\n    tag_140:\n        /* \"contracts/Sabai Vesting.sol\":5265:5266  0 */\n      0x00\n        /* \"contracts/Sabai Vesting.sol\":5255:5262  _amount */\n      dup2\n        /* \"contracts/Sabai Vesting.sol\":5255:5266  _amount > 0 */\n      gt\n        /* \"contracts/Sabai Vesting.sol\":5247:5303  require(_amount > 0, \"TokenVesting: amount must be > 0\") */\n      tag_143\n      jumpi\n      mload(0x40)\n      0x08c379a000000000000000000000000000000000000000000000000000000000\n      dup2\n      mstore\n      0x04\n      add\n      tag_144\n      swap1\n      tag_145\n      jump\t// in\n    tag_144:\n      mload(0x40)\n      dup1\n      swap2\n      sub\n      swap1\n      revert\n    tag_143:\n        /* \"contracts/Sabai Vesting.sol\":5344:5345  1 */\n      0x01\n        /* \"contracts/Sabai Vesting.sol\":5321:5340  _slicePeriodSeconds */\n      dup4\n        /* \"contracts/Sabai Vesting.sol\":5321:5345  _slicePeriodSeconds >= 1 */\n      lt\n      iszero\n        /* \"contracts/Sabai Vesting.sol\":5313:5395  require(_slicePeriodSeconds >= 1, \"TokenVesting: slicePeriodSeconds must be >= 1\") */\n      tag_146\n      jumpi\n      mload(0x40)\n      0x08c379a000000000000000000000000000000000000000000000000000000000\n      dup2\n      mstore\n      0x04\n      add\n      tag_147\n      swap1\n      tag_148\n      jump\t// in\n    tag_147:\n      mload(0x40)\n      dup1\n      swap2\n      sub\n      swap1\n      revert\n    tag_146:\n        /* \"contracts/Sabai Vesting.sol\":5405:5430  bytes32 vestingScheduleId */\n      0x00\n        /* \"contracts/Sabai Vesting.sol\":5433:5437  this */\n      address\n        /* \"contracts/Sabai Vesting.sol\":5433:5475  this.computeNextVestingScheduleIdForHolder */\n      0xffffffffffffffffffffffffffffffffffffffff\n      and\n      0xf7c469f0\n        /* \"contracts/Sabai Vesting.sol\":5476:5488  _beneficiary */\n      dup10\n        /* \"contracts/Sabai Vesting.sol\":5433:5489  this.computeNextVestingScheduleIdForHolder(_beneficiary) */\n      mload(0x40)\n      dup3\n      0xffffffff\n      and\n      0xe0\n      shl\n      dup2\n      mstore\n      0x04\n      add\n      tag_149\n      swap2\n      swap1\n      tag_44\n      jump\t// in\n    tag_149:\n      0x20\n      mload(0x40)\n      dup1\n      dup4\n      sub\n      dup2\n      dup7\n      gas\n      staticcall\n      iszero\n      dup1\n      iszero\n      tag_151\n      jumpi\n      returndatasize\n      0x00\n      dup1\n      returndatacopy\n      revert(0x00, returndatasize)\n    tag_151:\n      pop\n      pop\n      pop\n      pop\n      mload(0x40)\n      returndatasize\n      not(0x1f)\n      0x1f\n      dup3\n      add\n      and\n      dup3\n      add\n      dup1\n      0x40\n      mstore\n      pop\n      dup2\n      add\n      swap1\n      tag_152\n      swap2\n      swap1\n      tag_153\n      jump\t// in\n    tag_152:\n        /* \"contracts/Sabai Vesting.sol\":5405:5489  bytes32 vestingScheduleId = this.computeNextVestingScheduleIdForHolder(_beneficiary) */\n      swap1\n      pop\n        /* \"contracts/Sabai Vesting.sol\":5499:5512  uint256 cliff */\n      0x00\n        /* \"contracts/Sabai Vesting.sol\":5515:5533  _start.add(_cliff) */\n      tag_154\n        /* \"contracts/Sabai Vesting.sol\":5526:5532  _cliff */\n      dup8\n        /* \"contracts/Sabai Vesting.sol\":5515:5521  _start */\n      dup10\n        /* \"contracts/Sabai Vesting.sol\":5515:5525  _start.add */\n      tag_155\n      swap1\n        /* \"contracts/Sabai Vesting.sol\":5515:5533  _start.add(_cliff) */\n      swap2\n      swap1\n      0xffffffff\n      and\n      jump\t// in\n    tag_154:\n        /* \"contracts/Sabai Vesting.sol\":5499:5533  uint256 cliff = _start.add(_cliff) */\n      swap1\n      pop\n        /* \"contracts/Sabai Vesting.sol\":5581:5824  VestingSchedule(... */\n      mload(0x40)\n      dup1\n      0x0140\n      add\n      0x40\n      mstore\n      dup1\n        /* \"contracts/Sabai Vesting.sol\":5610:5614  true */\n      0x01\n        /* \"contracts/Sabai Vesting.sol\":5581:5824  VestingSchedule(... */\n      iszero\n      iszero\n      dup2\n      mstore\n      0x20\n      add\n        /* \"contracts/Sabai Vesting.sol\":5628:5640  _beneficiary */\n      dup11\n        /* \"contracts/Sabai Vesting.sol\":5581:5824  VestingSchedule(... */\n      0xffffffffffffffffffffffffffffffffffffffff\n      and\n      dup2\n      mstore\n      0x20\n      add\n        /* \"contracts/Sabai Vesting.sol\":5654:5659  cliff */\n      dup3\n        /* \"contracts/Sabai Vesting.sol\":5581:5824  VestingSchedule(... */\n      dup2\n      mstore\n      0x20\n      add\n        /* \"contracts/Sabai Vesting.sol\":5673:5679  _start */\n      dup10\n        /* \"contracts/Sabai Vesting.sol\":5581:5824  VestingSchedule(... */\n      dup2\n      mstore\n      0x20\n      add\n        /* \"contracts/Sabai Vesting.sol\":5693:5702  _duration */\n      dup8\n        /* \"contracts/Sabai Vesting.sol\":5581:5824  VestingSchedule(... */\n      dup2\n      mstore\n      0x20\n      add\n        /* \"contracts/Sabai Vesting.sol\":5716:5735  _slicePeriodSeconds */\n      dup7\n        /* \"contracts/Sabai Vesting.sol\":5581:5824  VestingSchedule(... */\n      dup2\n      mstore\n      0x20\n      add\n        /* \"contracts/Sabai Vesting.sol\":5749:5759  _revocable */\n      dup6\n        /* \"contracts/Sabai Vesting.sol\":5581:5824  VestingSchedule(... */\n      iszero\n      iszero\n      dup2\n      mstore\n      0x20\n      add\n        /* \"contracts/Sabai Vesting.sol\":5773:5780  _amount */\n      dup5\n        /* \"contracts/Sabai Vesting.sol\":5581:5824  VestingSchedule(... */\n      dup2\n      mstore\n      0x20\n      add\n        /* \"contracts/Sabai Vesting.sol\":5794:5795  0 */\n      0x00\n        /* \"contracts/Sabai Vesting.sol\":5581:5824  VestingSchedule(... */\n      dup2\n      mstore\n      0x20\n      add\n        /* \"contracts/Sabai Vesting.sol\":5809:5814  false */\n      0x00\n        /* \"contracts/Sabai Vesting.sol\":5581:5824  VestingSchedule(... */\n      iszero\n      iszero\n      dup2\n      mstore\n      pop\n        /* \"contracts/Sabai Vesting.sol\":5543:5559  vestingSchedules */\n      0x03\n        /* \"contracts/Sabai Vesting.sol\":5543:5578  vestingSchedules[vestingScheduleId] */\n      0x00\n        /* \"contracts/Sabai Vesting.sol\":5560:5577  vestingScheduleId */\n      dup5\n        /* \"contracts/Sabai Vesting.sol\":5543:5578  vestingSchedules[vestingScheduleId] */\n      dup2\n      mstore\n      0x20\n      add\n      swap1\n      dup2\n      mstore\n      0x20\n      add\n      0x00\n      keccak256\n        /* \"contracts/Sabai Vesting.sol\":5543:5824  vestingSchedules[vestingScheduleId] = VestingSchedule(... */\n      0x00\n      dup3\n      add\n      mload\n      dup2\n      0x00\n      add\n      exp(0x0100, 0x00)\n      dup2\n      sload\n      dup2\n      0xff\n      mul\n      not\n      and\n      swap1\n      dup4\n      iszero\n      iszero\n      mul\n      or\n      swap1\n      sstore\n      pop\n      0x20\n      dup3\n      add\n      mload\n      dup2\n      0x00\n      add\n      exp(0x0100, 0x01)\n      dup2\n      sload\n      dup2\n      0xffffffffffffffffffffffffffffffffffffffff\n      mul\n      not\n      and\n      swap1\n      dup4\n      0xffffffffffffffffffffffffffffffffffffffff\n      and\n      mul\n      or\n      swap1\n      sstore\n      pop\n      0x40\n      dup3\n      add\n      mload\n      dup2\n      0x01\n      add\n      sstore\n      0x60\n      dup3\n      add\n      mload\n      dup2\n      0x02\n      add\n      sstore\n      0x80\n      dup3\n      add\n      mload\n      dup2\n      0x03\n      add\n      sstore\n      0xa0\n      dup3\n      add\n      mload\n      dup2\n      0x04\n      add\n      sstore\n      0xc0\n      dup3\n      add\n      mload\n      dup2\n      0x05\n      add\n      exp(0x0100, 0x00)\n      dup2\n      sload\n      dup2\n      0xff\n      mul\n      not\n      and\n      swap1\n      dup4\n      iszero\n      iszero\n      mul\n      or\n      swap1\n      sstore\n      pop\n      0xe0\n      dup3\n      add\n      mload\n      dup2\n      0x06\n      add\n      sstore\n      0x0100\n      dup3\n      add\n      mload\n      dup2\n      0x07\n      add\n      sstore\n      0x0120\n      dup3\n      add\n      mload\n      dup2\n      0x08\n      add\n      exp(0x0100, 0x00)\n      dup2\n      sload\n      dup2\n      0xff\n      mul\n      not\n      and\n      swap1\n      dup4\n      iszero\n      iszero\n      mul\n      or\n      swap1\n      sstore\n      pop\n      swap1\n      pop\n      pop\n        /* \"contracts/Sabai Vesting.sol\":5864:5904  vestingSchedulesTotalAmount.add(_amount) */\n      tag_156\n        /* \"contracts/Sabai Vesting.sol\":5896:5903  _amount */\n      dup4\n        /* \"contracts/Sabai Vesting.sol\":5864:5891  vestingSchedulesTotalAmount */\n      sload(0x04)\n        /* \"contracts/Sabai Vesting.sol\":5864:5895  vestingSchedulesTotalAmount.add */\n      tag_155\n      swap1\n        /* \"contracts/Sabai Vesting.sol\":5864:5904  vestingSchedulesTotalAmount.add(_amount) */\n      swap2\n      swap1\n      0xffffffff\n      and\n      jump\t// in\n    tag_156:\n        /* \"contracts/Sabai Vesting.sol\":5834:5861  vestingSchedulesTotalAmount */\n      0x04\n        /* \"contracts/Sabai Vesting.sol\":5834:5904  vestingSchedulesTotalAmount = vestingSchedulesTotalAmount.add(_amount) */\n      dup2\n      swap1\n      sstore\n      pop\n        /* \"contracts/Sabai Vesting.sol\":5914:5933  vestingSchedulesIds */\n      0x02\n        /* \"contracts/Sabai Vesting.sol\":5939:5956  vestingScheduleId */\n      dup3\n        /* \"contracts/Sabai Vesting.sol\":5914:5957  vestingSchedulesIds.push(vestingScheduleId) */\n      swap1\n      dup1\n      0x01\n      dup2\n      sload\n      add\n      dup1\n      dup3\n      sstore\n      dup1\n      swap2\n      pop\n      pop\n      0x01\n      swap1\n      sub\n      swap1\n      0x00\n      mstore\n      keccak256(0x00, 0x20)\n      add\n      0x00\n      swap1\n      swap2\n      swap1\n      swap2\n      swap1\n      swap2\n      pop\n      sstore\n        /* \"contracts/Sabai Vesting.sol\":5967:5994  uint256 currentVestingCount */\n      0x00\n        /* \"contracts/Sabai Vesting.sol\":5997:6016  holdersVestingCount */\n      0x05\n        /* \"contracts/Sabai Vesting.sol\":5997:6030  holdersVestingCount[_beneficiary] */\n      0x00\n        /* \"contracts/Sabai Vesting.sol\":6017:6029  _beneficiary */\n      dup12\n        /* \"contracts/Sabai Vesting.sol\":5997:6030  holdersVestingCount[_beneficiary] */\n      0xffffffffffffffffffffffffffffffffffffffff\n      and\n      0xffffffffffffffffffffffffffffffffffffffff\n      and\n      dup2\n      mstore\n      0x20\n      add\n      swap1\n      dup2\n      mstore\n      0x20\n      add\n      0x00\n      keccak256\n      sload\n        /* \"contracts/Sabai Vesting.sol\":5967:6030  uint256 currentVestingCount = holdersVestingCount[_beneficiary] */\n      swap1\n      pop\n        /* \"contracts/Sabai Vesting.sol\":6076:6102  currentVestingCount.add(1) */\n      tag_158\n        /* \"contracts/Sabai Vesting.sol\":6100:6101  1 */\n      0x01\n        /* \"contracts/Sabai Vesting.sol\":6076:6095  currentVestingCount */\n      dup3\n        /* \"contracts/Sabai Vesting.sol\":6076:6099  currentVestingCount.add */\n      tag_155\n      swap1\n        /* \"contracts/Sabai Vesting.sol\":6076:6102  currentVestingCount.add(1) */\n      swap2\n      swap1\n      0xffffffff\n      and\n      jump\t// in\n    tag_158:\n        /* \"contracts/Sabai Vesting.sol\":6040:6059  holdersVestingCount */\n      0x05\n        /* \"contracts/Sabai Vesting.sol\":6040:6073  holdersVestingCount[_beneficiary] */\n      0x00\n        /* \"contracts/Sabai Vesting.sol\":6060:6072  _beneficiary */\n      dup13\n        /* \"contracts/Sabai Vesting.sol\":6040:6073  holdersVestingCount[_beneficiary] */\n      0xffffffffffffffffffffffffffffffffffffffff\n      and\n      0xffffffffffffffffffffffffffffffffffffffff\n      and\n      dup2\n      mstore\n      0x20\n      add\n      swap1\n      dup2\n      mstore\n      0x20\n      add\n      0x00\n      keccak256\n        /* \"contracts/Sabai Vesting.sol\":6040:6102  holdersVestingCount[_beneficiary] = currentVestingCount.add(1) */\n      dup2\n      swap1\n      sstore\n      pop\n        /* \"contracts/Sabai Vesting.sol\":4997:6109  {... */\n      pop\n      pop\n      pop\n        /* \"contracts/Sabai Vesting.sol\":4736:6109  function createVestingSchedule(... */\n      pop\n      pop\n      pop\n      pop\n      pop\n      pop\n      pop\n      jump\t// out\n        /* \"contracts/Sabai Vesting.sol\":3995:4096  function getToken()... */\n    tag_42:\n        /* \"contracts/Sabai Vesting.sol\":4049:4056  address */\n      0x00\n        /* \"contracts/Sabai Vesting.sol\":4082:4088  _token */\n      immutable(\"0xb70eb531a2699953285ebb78c39578cbdac86304682453a46c4a672d055c8600\")\n        /* \"contracts/Sabai Vesting.sol\":4067:4089  return address(_token) */\n      swap1\n      pop\n        /* \"contracts/Sabai Vesting.sol\":3995:4096  function getToken()... */\n      swap1\n      jump\t// out\n        /* \"contracts/Sabai Vesting.sol\":10058:10302  function withdraw(uint256 amount)... */\n    tag_49:\n        /* \"@openzeppelin/contracts/security/ReentrancyGuard.sol\":2261:2282  _nonReentrantBefore() */\n      tag_161\n        /* \"@openzeppelin/contracts/security/ReentrancyGuard.sol\":2261:2280  _nonReentrantBefore */\n      tag_162\n        /* \"@openzeppelin/contracts/security/ReentrancyGuard.sol\":2261:2282  _nonReentrantBefore() */\n      jump\t// in\n    tag_161:\n        /* \"@openzeppelin/contracts/access/Ownable.sol\":1094:1107  _checkOwner() */\n      tag_164\n        /* \"@openzeppelin/contracts/access/Ownable.sol\":1094:1105  _checkOwner */\n      tag_131\n        /* \"@openzeppelin/contracts/access/Ownable.sol\":1094:1107  _checkOwner() */\n      jump\t// in\n    tag_164:\n        /* \"contracts/Sabai Vesting.sol\":10195:10201  amount */\n      dup1\n        /* \"contracts/Sabai Vesting.sol\":10163:10167  this */\n      address\n        /* \"contracts/Sabai Vesting.sol\":10163:10189  this.getWithdrawableAmount */\n      0xffffffffffffffffffffffffffffffffffffffff\n      and\n      0x90be10cc\n        /* \"contracts/Sabai Vesting.sol\":10163:10191  this.getWithdrawableAmount() */\n      mload(0x40)\n      dup2\n      0xffffffff\n      and\n      0xe0\n      shl\n      dup2\n      mstore\n      0x04\n      add\n      0x20\n      mload(0x40)\n      dup1\n      dup4\n      sub\n      dup2\n      dup7\n      gas\n      staticcall\n      iszero\n      dup1\n      iszero\n      tag_167\n      jumpi\n      returndatasize\n      0x00\n      dup1\n      returndatacopy\n      revert(0x00, returndatasize)\n    tag_167:\n      pop\n      pop\n      pop\n      pop\n      mload(0x40)\n      returndatasize\n      not(0x1f)\n      0x1f\n      dup3\n      add\n      and\n      dup3\n      add\n      dup1\n      0x40\n      mstore\n      pop\n      dup2\n      add\n      swap1\n      tag_168\n      swap2\n      swap1\n      tag_136\n      jump\t// in\n    tag_168:\n        /* \"contracts/Sabai Vesting.sol\":10163:10201  this.getWithdrawableAmount() >= amount */\n      lt\n      iszero\n        /* \"contracts/Sabai Vesting.sol\":10155:10249  require(this.getWithdrawableAmount() >= amount, \"TokenVesting: not enough withdrawable funds\") */\n      tag_169\n      jumpi\n      mload(0x40)\n      0x08c379a000000000000000000000000000000000000000000000000000000000\n      dup2\n      mstore\n      0x04\n      add\n      tag_170\n      swap1\n      tag_171\n      jump\t// in\n    tag_170:\n      mload(0x40)\n      dup1\n      swap2\n      sub\n      swap1\n      revert\n    tag_169:\n        /* \"contracts/Sabai Vesting.sol\":10259:10295  _token.safeTransfer(owner(), amount) */\n      tag_172\n        /* \"contracts/Sabai Vesting.sol\":10279:10286  owner() */\n      tag_173\n        /* \"contracts/Sabai Vesting.sol\":10279:10284  owner */\n      tag_88\n        /* \"contracts/Sabai Vesting.sol\":10279:10286  owner() */\n      jump\t// in\n    tag_173:\n        /* \"contracts/Sabai Vesting.sol\":10288:10294  amount */\n      dup3\n        /* \"contracts/Sabai Vesting.sol\":10259:10265  _token */\n      immutable(\"0xb70eb531a2699953285ebb78c39578cbdac86304682453a46c4a672d055c8600\")\n        /* \"contracts/Sabai Vesting.sol\":10259:10278  _token.safeTransfer */\n      0xffffffffffffffffffffffffffffffffffffffff\n      and\n      tag_174\n      swap1\n        /* \"contracts/Sabai Vesting.sol\":10259:10295  _token.safeTransfer(owner(), amount) */\n      swap3\n      swap2\n      swap1\n      0xffffffff\n      and\n      jump\t// in\n    tag_172:\n        /* \"@openzeppelin/contracts/security/ReentrancyGuard.sol\":2303:2323  _nonReentrantAfter() */\n      tag_175\n        /* \"@openzeppelin/contracts/security/ReentrancyGuard.sol\":2303:2321  _nonReentrantAfter */\n      tag_176\n        /* \"@openzeppelin/contracts/security/ReentrancyGuard.sol\":2303:2323  _nonReentrantAfter() */\n      jump\t// in\n    tag_175:\n        /* \"contracts/Sabai Vesting.sol\":10058:10302  function withdraw(uint256 amount)... */\n      pop\n      jump\t// out\n        /* \"contracts/Sabai Vesting.sol\":3756:3891  function getVestingSchedulesTotalAmount()... */\n    tag_52:\n        /* \"contracts/Sabai Vesting.sol\":3832:3839  uint256 */\n      0x00\n        /* \"contracts/Sabai Vesting.sol\":3857:3884  vestingSchedulesTotalAmount */\n      sload(0x04)\n        /* \"contracts/Sabai Vesting.sol\":3850:3884  return vestingSchedulesTotalAmount */\n      swap1\n      pop\n        /* \"contracts/Sabai Vesting.sol\":3756:3891  function getVestingSchedulesTotalAmount()... */\n      swap1\n      jump\t// out\n        /* \"contracts/Sabai Vesting.sol\":2717:2885  function getVestingSchedulesCountByBeneficiary(address _beneficiary)... */\n    tag_58:\n        /* \"contracts/Sabai Vesting.sol\":2820:2827  uint256 */\n      0x00\n        /* \"contracts/Sabai Vesting.sol\":2845:2864  holdersVestingCount */\n      0x05\n        /* \"contracts/Sabai Vesting.sol\":2845:2878  holdersVestingCount[_beneficiary] */\n      0x00\n        /* \"contracts/Sabai Vesting.sol\":2865:2877  _beneficiary */\n      dup4\n        /* \"contracts/Sabai Vesting.sol\":2845:2878  holdersVestingCount[_beneficiary] */\n      0xffffffffffffffffffffffffffffffffffffffff\n      and\n      0xffffffffffffffffffffffffffffffffffffffff\n      and\n      dup2\n      mstore\n      0x20\n      add\n      swap1\n      dup2\n      mstore\n      0x20\n      add\n      0x00\n      keccak256\n      sload\n        /* \"contracts/Sabai Vesting.sol\":2838:2878  return holdersVestingCount[_beneficiary] */\n      swap1\n      pop\n        /* \"contracts/Sabai Vesting.sol\":2717:2885  function getVestingSchedulesCountByBeneficiary(address _beneficiary)... */\n      swap2\n      swap1\n      pop\n      jump\t// out\n        /* \"contracts/Sabai Vesting.sol\":7358:9087  function createVestingScheduleMany(VestingScheduleMany[] memory _schedules)... */\n    tag_64:\n        /* \"@openzeppelin/contracts/access/Ownable.sol\":1094:1107  _checkOwner() */\n      tag_180\n        /* \"@openzeppelin/contracts/access/Ownable.sol\":1094:1105  _checkOwner */\n      tag_131\n        /* \"@openzeppelin/contracts/access/Ownable.sol\":1094:1107  _checkOwner() */\n      jump\t// in\n    tag_180:\n        /* \"contracts/Sabai Vesting.sol\":7482:7491  uint256 i */\n      0x00\n        /* \"contracts/Sabai Vesting.sol\":7477:8010  for (uint256 i=0; i<_schedules.length; i++) {... */\n    tag_182:\n        /* \"contracts/Sabai Vesting.sol\":7497:7507  _schedules */\n      dup2\n        /* \"contracts/Sabai Vesting.sol\":7497:7514  _schedules.length */\n      mload\n        /* \"contracts/Sabai Vesting.sol\":7495:7496  i */\n      dup2\n        /* \"contracts/Sabai Vesting.sol\":7495:7514  i<_schedules.length */\n      lt\n        /* \"contracts/Sabai Vesting.sol\":7477:8010  for (uint256 i=0; i<_schedules.length; i++) {... */\n      iszero\n      tag_183\n      jumpi\n        /* \"contracts/Sabai Vesting.sol\":7592:7602  _schedules */\n      dup2\n        /* \"contracts/Sabai Vesting.sol\":7603:7604  i */\n      dup2\n        /* \"contracts/Sabai Vesting.sol\":7592:7605  _schedules[i] */\n      dup2\n      mload\n      dup2\n      lt\n      tag_185\n      jumpi\n      tag_186\n      tag_187\n      jump\t// in\n    tag_186:\n    tag_185:\n      0x20\n      mul\n      0x20\n      add\n      add\n      mload\n        /* \"contracts/Sabai Vesting.sol\":7592:7612  _schedules[i].amount */\n      0xc0\n      add\n      mload\n        /* \"contracts/Sabai Vesting.sol\":7560:7564  this */\n      address\n        /* \"contracts/Sabai Vesting.sol\":7560:7586  this.getWithdrawableAmount */\n      0xffffffffffffffffffffffffffffffffffffffff\n      and\n      0x90be10cc\n        /* \"contracts/Sabai Vesting.sol\":7560:7588  this.getWithdrawableAmount() */\n      mload(0x40)\n      dup2\n      0xffffffff\n      and\n      0xe0\n      shl\n      dup2\n      mstore\n      0x04\n      add\n      0x20\n      mload(0x40)\n      dup1\n      dup4\n      sub\n      dup2\n      dup7\n      gas\n      staticcall\n      iszero\n      dup1\n      iszero\n      tag_189\n      jumpi\n      returndatasize\n      0x00\n      dup1\n      returndatacopy\n      revert(0x00, returndatasize)\n    tag_189:\n      pop\n      pop\n      pop\n      pop\n      mload(0x40)\n      returndatasize\n      not(0x1f)\n      0x1f\n      dup3\n      add\n      and\n      dup3\n      add\n      dup1\n      0x40\n      mstore\n      pop\n      dup2\n      add\n      swap1\n      tag_190\n      swap2\n      swap1\n      tag_136\n      jump\t// in\n    tag_190:\n        /* \"contracts/Sabai Vesting.sol\":7560:7612  this.getWithdrawableAmount() >= _schedules[i].amount */\n      lt\n      iszero\n        /* \"contracts/Sabai Vesting.sol\":7535:7720  require(... */\n      tag_191\n      jumpi\n      mload(0x40)\n      0x08c379a000000000000000000000000000000000000000000000000000000000\n      dup2\n      mstore\n      0x04\n      add\n      tag_192\n      swap1\n      tag_139\n      jump\t// in\n    tag_192:\n      mload(0x40)\n      dup1\n      swap2\n      sub\n      swap1\n      revert\n    tag_191:\n        /* \"contracts/Sabai Vesting.sol\":7767:7768  0 */\n      0x00\n        /* \"contracts/Sabai Vesting.sol\":7742:7752  _schedules */\n      dup3\n        /* \"contracts/Sabai Vesting.sol\":7753:7754  i */\n      dup3\n        /* \"contracts/Sabai Vesting.sol\":7742:7755  _schedules[i] */\n      dup2\n      mload\n      dup2\n      lt\n      tag_193\n      jumpi\n      tag_194\n      tag_187\n      jump\t// in\n    tag_194:\n    tag_193:\n      0x20\n      mul\n      0x20\n      add\n      add\n      mload\n        /* \"contracts/Sabai Vesting.sol\":7742:7764  _schedules[i].duration */\n      0x60\n      add\n      mload\n        /* \"contracts/Sabai Vesting.sol\":7742:7768  _schedules[i].duration > 0 */\n      gt\n        /* \"contracts/Sabai Vesting.sol\":7734:7807  require(_schedules[i].duration > 0, \"TokenVesting: duration must be > 0\") */\n      tag_195\n      jumpi\n      mload(0x40)\n      0x08c379a000000000000000000000000000000000000000000000000000000000\n      dup2\n      mstore\n      0x04\n      add\n      tag_196\n      swap1\n      tag_142\n      jump\t// in\n    tag_196:\n      mload(0x40)\n      dup1\n      swap2\n      sub\n      swap1\n      revert\n    tag_195:\n        /* \"contracts/Sabai Vesting.sol\":7852:7853  0 */\n      0x00\n        /* \"contracts/Sabai Vesting.sol\":7829:7839  _schedules */\n      dup3\n        /* \"contracts/Sabai Vesting.sol\":7840:7841  i */\n      dup3\n        /* \"contracts/Sabai Vesting.sol\":7829:7842  _schedules[i] */\n      dup2\n      mload\n      dup2\n      lt\n      tag_197\n      jumpi\n      tag_198\n      tag_187\n      jump\t// in\n    tag_198:\n    tag_197:\n      0x20\n      mul\n      0x20\n      add\n      add\n      mload\n        /* \"contracts/Sabai Vesting.sol\":7829:7849  _schedules[i].amount */\n      0xc0\n      add\n      mload\n        /* \"contracts/Sabai Vesting.sol\":7829:7853  _schedules[i].amount > 0 */\n      gt\n        /* \"contracts/Sabai Vesting.sol\":7821:7890  require(_schedules[i].amount > 0, \"TokenVesting: amount must be > 0\") */\n      tag_199\n      jumpi\n      mload(0x40)\n      0x08c379a000000000000000000000000000000000000000000000000000000000\n      dup2\n      mstore\n      0x04\n      add\n      tag_200\n      swap1\n      tag_145\n      jump\t// in\n    tag_200:\n      mload(0x40)\n      dup1\n      swap2\n      sub\n      swap1\n      revert\n    tag_199:\n        /* \"contracts/Sabai Vesting.sol\":7948:7949  1 */\n      0x01\n        /* \"contracts/Sabai Vesting.sol\":7912:7922  _schedules */\n      dup3\n        /* \"contracts/Sabai Vesting.sol\":7923:7924  i */\n      dup3\n        /* \"contracts/Sabai Vesting.sol\":7912:7925  _schedules[i] */\n      dup2\n      mload\n      dup2\n      lt\n      tag_201\n      jumpi\n      tag_202\n      tag_187\n      jump\t// in\n    tag_202:\n    tag_201:\n      0x20\n      mul\n      0x20\n      add\n      add\n      mload\n        /* \"contracts/Sabai Vesting.sol\":7912:7944  _schedules[i].slicePeriodSeconds */\n      0x80\n      add\n      mload\n        /* \"contracts/Sabai Vesting.sol\":7912:7949  _schedules[i].slicePeriodSeconds >= 1 */\n      lt\n      iszero\n        /* \"contracts/Sabai Vesting.sol\":7904:7999  require(_schedules[i].slicePeriodSeconds >= 1, \"TokenVesting: slicePeriodSeconds must be >= 1\") */\n      tag_203\n      jumpi\n      mload(0x40)\n      0x08c379a000000000000000000000000000000000000000000000000000000000\n      dup2\n      mstore\n      0x04\n      add\n      tag_204\n      swap1\n      tag_148\n      jump\t// in\n    tag_204:\n      mload(0x40)\n      dup1\n      swap2\n      sub\n      swap1\n      revert\n    tag_203:\n        /* \"contracts/Sabai Vesting.sol\":7516:7519  i++ */\n      dup1\n      dup1\n      tag_205\n      swap1\n      tag_206\n      jump\t// in\n    tag_205:\n      swap2\n      pop\n      pop\n        /* \"contracts/Sabai Vesting.sol\":7477:8010  for (uint256 i=0; i<_schedules.length; i++) {... */\n      jump(tag_182)\n    tag_183:\n      pop\n        /* \"contracts/Sabai Vesting.sol\":8024:8033  uint256 i */\n      0x00\n        /* \"contracts/Sabai Vesting.sol\":8019:9081  for (uint256 i=0; i<_schedules.length; i++) {... */\n    tag_207:\n        /* \"contracts/Sabai Vesting.sol\":8039:8049  _schedules */\n      dup2\n        /* \"contracts/Sabai Vesting.sol\":8039:8056  _schedules.length */\n      mload\n        /* \"contracts/Sabai Vesting.sol\":8037:8038  i */\n      dup2\n        /* \"contracts/Sabai Vesting.sol\":8037:8056  i<_schedules.length */\n      lt\n        /* \"contracts/Sabai Vesting.sol\":8019:9081  for (uint256 i=0; i<_schedules.length; i++) {... */\n      iszero\n      tag_208\n      jumpi\n        /* \"contracts/Sabai Vesting.sol\":8081:8106  bytes32 vestingScheduleId */\n      0x00\n        /* \"contracts/Sabai Vesting.sol\":8109:8113  this */\n      address\n        /* \"contracts/Sabai Vesting.sol\":8109:8151  this.computeNextVestingScheduleIdForHolder */\n      0xffffffffffffffffffffffffffffffffffffffff\n      and\n      0xf7c469f0\n        /* \"contracts/Sabai Vesting.sol\":8152:8162  _schedules */\n      dup5\n        /* \"contracts/Sabai Vesting.sol\":8163:8164  i */\n      dup5\n        /* \"contracts/Sabai Vesting.sol\":8152:8165  _schedules[i] */\n      dup2\n      mload\n      dup2\n      lt\n      tag_210\n      jumpi\n      tag_211\n      tag_187\n      jump\t// in\n    tag_211:\n    tag_210:\n      0x20\n      mul\n      0x20\n      add\n      add\n      mload\n        /* \"contracts/Sabai Vesting.sol\":8152:8177  _schedules[i].beneficiary */\n      0x00\n      add\n      mload\n        /* \"contracts/Sabai Vesting.sol\":8109:8178  this.computeNextVestingScheduleIdForHolder(_schedules[i].beneficiary) */\n      mload(0x40)\n      dup3\n      0xffffffff\n      and\n      0xe0\n      shl\n      dup2\n      mstore\n      0x04\n      add\n      tag_212\n      swap2\n      swap1\n      tag_44\n      jump\t// in\n    tag_212:\n      0x20\n      mload(0x40)\n      dup1\n      dup4\n      sub\n      dup2\n      dup7\n      gas\n      staticcall\n      iszero\n      dup1\n      iszero\n      tag_214\n      jumpi\n      returndatasize\n      0x00\n      dup1\n      returndatacopy\n      revert(0x00, returndatasize)\n    tag_214:\n      pop\n      pop\n      pop\n      pop\n      mload(0x40)\n      returndatasize\n      not(0x1f)\n      0x1f\n      dup3\n      add\n      and\n      dup3\n      add\n      dup1\n      0x40\n      mstore\n      pop\n      dup2\n      add\n      swap1\n      tag_215\n      swap2\n      swap1\n      tag_153\n      jump\t// in\n    tag_215:\n        /* \"contracts/Sabai Vesting.sol\":8081:8178  bytes32 vestingScheduleId = this.computeNextVestingScheduleIdForHolder(_schedules[i].beneficiary) */\n      swap1\n      pop\n        /* \"contracts/Sabai Vesting.sol\":8196:8209  uint256 cliff */\n      0x00\n        /* \"contracts/Sabai Vesting.sol\":8212:8256  _schedules[i].start.add(_schedules[i].cliff) */\n      tag_216\n        /* \"contracts/Sabai Vesting.sol\":8236:8246  _schedules */\n      dup5\n        /* \"contracts/Sabai Vesting.sol\":8247:8248  i */\n      dup5\n        /* \"contracts/Sabai Vesting.sol\":8236:8249  _schedules[i] */\n      dup2\n      mload\n      dup2\n      lt\n      tag_217\n      jumpi\n      tag_218\n      tag_187\n      jump\t// in\n    tag_218:\n    tag_217:\n      0x20\n      mul\n      0x20\n      add\n      add\n      mload\n        /* \"contracts/Sabai Vesting.sol\":8236:8255  _schedules[i].cliff */\n      0x20\n      add\n      mload\n        /* \"contracts/Sabai Vesting.sol\":8212:8222  _schedules */\n      dup6\n        /* \"contracts/Sabai Vesting.sol\":8223:8224  i */\n      dup6\n        /* \"contracts/Sabai Vesting.sol\":8212:8225  _schedules[i] */\n      dup2\n      mload\n      dup2\n      lt\n      tag_219\n      jumpi\n      tag_220\n      tag_187\n      jump\t// in\n    tag_220:\n    tag_219:\n      0x20\n      mul\n      0x20\n      add\n      add\n      mload\n        /* \"contracts/Sabai Vesting.sol\":8212:8231  _schedules[i].start */\n      0x40\n      add\n      mload\n        /* \"contracts/Sabai Vesting.sol\":8212:8235  _schedules[i].start.add */\n      tag_155\n      swap1\n        /* \"contracts/Sabai Vesting.sol\":8212:8256  _schedules[i].start.add(_schedules[i].cliff) */\n      swap2\n      swap1\n      0xffffffff\n      and\n      jump\t// in\n    tag_216:\n        /* \"contracts/Sabai Vesting.sol\":8196:8256  uint256 cliff = _schedules[i].start.add(_schedules[i].cliff) */\n      swap1\n      pop\n        /* \"contracts/Sabai Vesting.sol\":8312:8721  VestingSchedule(... */\n      mload(0x40)\n      dup1\n      0x0140\n      add\n      0x40\n      mstore\n      dup1\n        /* \"contracts/Sabai Vesting.sol\":8349:8353  true */\n      0x01\n        /* \"contracts/Sabai Vesting.sol\":8312:8721  VestingSchedule(... */\n      iszero\n      iszero\n      dup2\n      mstore\n      0x20\n      add\n        /* \"contracts/Sabai Vesting.sol\":8375:8385  _schedules */\n      dup6\n        /* \"contracts/Sabai Vesting.sol\":8386:8387  i */\n      dup6\n        /* \"contracts/Sabai Vesting.sol\":8375:8388  _schedules[i] */\n      dup2\n      mload\n      dup2\n      lt\n      tag_221\n      jumpi\n      tag_222\n      tag_187\n      jump\t// in\n    tag_222:\n    tag_221:\n      0x20\n      mul\n      0x20\n      add\n      add\n      mload\n        /* \"contracts/Sabai Vesting.sol\":8375:8400  _schedules[i].beneficiary */\n      0x00\n      add\n      mload\n        /* \"contracts/Sabai Vesting.sol\":8312:8721  VestingSchedule(... */\n      0xffffffffffffffffffffffffffffffffffffffff\n      and\n      dup2\n      mstore\n      0x20\n      add\n        /* \"contracts/Sabai Vesting.sol\":8422:8427  cliff */\n      dup3\n        /* \"contracts/Sabai Vesting.sol\":8312:8721  VestingSchedule(... */\n      dup2\n      mstore\n      0x20\n      add\n        /* \"contracts/Sabai Vesting.sol\":8449:8459  _schedules */\n      dup6\n        /* \"contracts/Sabai Vesting.sol\":8460:8461  i */\n      dup6\n        /* \"contracts/Sabai Vesting.sol\":8449:8462  _schedules[i] */\n      dup2\n      mload\n      dup2\n      lt\n      tag_223\n      jumpi\n      tag_224\n      tag_187\n      jump\t// in\n    tag_224:\n    tag_223:\n      0x20\n      mul\n      0x20\n      add\n      add\n      mload\n        /* \"contracts/Sabai Vesting.sol\":8449:8468  _schedules[i].start */\n      0x40\n      add\n      mload\n        /* \"contracts/Sabai Vesting.sol\":8312:8721  VestingSchedule(... */\n      dup2\n      mstore\n      0x20\n      add\n        /* \"contracts/Sabai Vesting.sol\":8490:8500  _schedules */\n      dup6\n        /* \"contracts/Sabai Vesting.sol\":8501:8502  i */\n      dup6\n        /* \"contracts/Sabai Vesting.sol\":8490:8503  _schedules[i] */\n      dup2\n      mload\n      dup2\n      lt\n      tag_225\n      jumpi\n      tag_226\n      tag_187\n      jump\t// in\n    tag_226:\n    tag_225:\n      0x20\n      mul\n      0x20\n      add\n      add\n      mload\n        /* \"contracts/Sabai Vesting.sol\":8490:8512  _schedules[i].duration */\n      0x60\n      add\n      mload\n        /* \"contracts/Sabai Vesting.sol\":8312:8721  VestingSchedule(... */\n      dup2\n      mstore\n      0x20\n      add\n        /* \"contracts/Sabai Vesting.sol\":8534:8544  _schedules */\n      dup6\n        /* \"contracts/Sabai Vesting.sol\":8545:8546  i */\n      dup6\n        /* \"contracts/Sabai Vesting.sol\":8534:8547  _schedules[i] */\n      dup2\n      mload\n      dup2\n      lt\n      tag_227\n      jumpi\n      tag_228\n      tag_187\n      jump\t// in\n    tag_228:\n    tag_227:\n      0x20\n      mul\n      0x20\n      add\n      add\n      mload\n        /* \"contracts/Sabai Vesting.sol\":8534:8566  _schedules[i].slicePeriodSeconds */\n      0x80\n      add\n      mload\n        /* \"contracts/Sabai Vesting.sol\":8312:8721  VestingSchedule(... */\n      dup2\n      mstore\n      0x20\n      add\n        /* \"contracts/Sabai Vesting.sol\":8588:8598  _schedules */\n      dup6\n        /* \"contracts/Sabai Vesting.sol\":8599:8600  i */\n      dup6\n        /* \"contracts/Sabai Vesting.sol\":8588:8601  _schedules[i] */\n      dup2\n      mload\n      dup2\n      lt\n      tag_229\n      jumpi\n      tag_230\n      tag_187\n      jump\t// in\n    tag_230:\n    tag_229:\n      0x20\n      mul\n      0x20\n      add\n      add\n      mload\n        /* \"contracts/Sabai Vesting.sol\":8588:8611  _schedules[i].revocable */\n      0xa0\n      add\n      mload\n        /* \"contracts/Sabai Vesting.sol\":8312:8721  VestingSchedule(... */\n      iszero\n      iszero\n      dup2\n      mstore\n      0x20\n      add\n        /* \"contracts/Sabai Vesting.sol\":8633:8643  _schedules */\n      dup6\n        /* \"contracts/Sabai Vesting.sol\":8644:8645  i */\n      dup6\n        /* \"contracts/Sabai Vesting.sol\":8633:8646  _schedules[i] */\n      dup2\n      mload\n      dup2\n      lt\n      tag_231\n      jumpi\n      tag_232\n      tag_187\n      jump\t// in\n    tag_232:\n    tag_231:\n      0x20\n      mul\n      0x20\n      add\n      add\n      mload\n        /* \"contracts/Sabai Vesting.sol\":8633:8653  _schedules[i].amount */\n      0xc0\n      add\n      mload\n        /* \"contracts/Sabai Vesting.sol\":8312:8721  VestingSchedule(... */\n      dup2\n      mstore\n      0x20\n      add\n        /* \"contracts/Sabai Vesting.sol\":8675:8676  0 */\n      0x00\n        /* \"contracts/Sabai Vesting.sol\":8312:8721  VestingSchedule(... */\n      dup2\n      mstore\n      0x20\n      add\n        /* \"contracts/Sabai Vesting.sol\":8698:8703  false */\n      0x00\n        /* \"contracts/Sabai Vesting.sol\":8312:8721  VestingSchedule(... */\n      iszero\n      iszero\n      dup2\n      mstore\n      pop\n        /* \"contracts/Sabai Vesting.sol\":8274:8290  vestingSchedules */\n      0x03\n        /* \"contracts/Sabai Vesting.sol\":8274:8309  vestingSchedules[vestingScheduleId] */\n      0x00\n        /* \"contracts/Sabai Vesting.sol\":8291:8308  vestingScheduleId */\n      dup5\n        /* \"contracts/Sabai Vesting.sol\":8274:8309  vestingSchedules[vestingScheduleId] */\n      dup2\n      mstore\n      0x20\n      add\n      swap1\n      dup2\n      mstore\n      0x20\n      add\n      0x00\n      keccak256\n        /* \"contracts/Sabai Vesting.sol\":8274:8721  vestingSchedules[vestingScheduleId] = VestingSchedule(... */\n      0x00\n      dup3\n      add\n      mload\n      dup2\n      0x00\n      add\n      exp(0x0100, 0x00)\n      dup2\n      sload\n      dup2\n      0xff\n      mul\n      not\n      and\n      swap1\n      dup4\n      iszero\n      iszero\n      mul\n      or\n      swap1\n      sstore\n      pop\n      0x20\n      dup3\n      add\n      mload\n      dup2\n      0x00\n      add\n      exp(0x0100, 0x01)\n      dup2\n      sload\n      dup2\n      0xffffffffffffffffffffffffffffffffffffffff\n      mul\n      not\n      and\n      swap1\n      dup4\n      0xffffffffffffffffffffffffffffffffffffffff\n      and\n      mul\n      or\n      swap1\n      sstore\n      pop\n      0x40\n      dup3\n      add\n      mload\n      dup2\n      0x01\n      add\n      sstore\n      0x60\n      dup3\n      add\n      mload\n      dup2\n      0x02\n      add\n      sstore\n      0x80\n      dup3\n      add\n      mload\n      dup2\n      0x03\n      add\n      sstore\n      0xa0\n      dup3\n      add\n      mload\n      dup2\n      0x04\n      add\n      sstore\n      0xc0\n      dup3\n      add\n      mload\n      dup2\n      0x05\n      add\n      exp(0x0100, 0x00)\n      dup2\n      sload\n      dup2\n      0xff\n      mul\n      not\n      and\n      swap1\n      dup4\n      iszero\n      iszero\n      mul\n      or\n      swap1\n      sstore\n      pop\n      0xe0\n      dup3\n      add\n      mload\n      dup2\n      0x06\n      add\n      sstore\n      0x0100\n      dup3\n      add\n      mload\n      dup2\n      0x07\n      add\n      sstore\n      0x0120\n      dup3\n      add\n      mload\n      dup2\n      0x08\n      add\n      exp(0x0100, 0x00)\n      dup2\n      sload\n      dup2\n      0xff\n      mul\n      not\n      and\n      swap1\n      dup4\n      iszero\n      iszero\n      mul\n      or\n      swap1\n      sstore\n      pop\n      swap1\n      pop\n      pop\n        /* \"contracts/Sabai Vesting.sol\":8769:8822  vestingSchedulesTotalAmount.add(_schedules[i].amount) */\n      tag_233\n        /* \"contracts/Sabai Vesting.sol\":8801:8811  _schedules */\n      dup5\n        /* \"contracts/Sabai Vesting.sol\":8812:8813  i */\n      dup5\n        /* \"contracts/Sabai Vesting.sol\":8801:8814  _schedules[i] */\n      dup2\n      mload\n      dup2\n      lt\n      tag_234\n      jumpi\n      tag_235\n      tag_187\n      jump\t// in\n    tag_235:\n    tag_234:\n      0x20\n      mul\n      0x20\n      add\n      add\n      mload\n        /* \"contracts/Sabai Vesting.sol\":8801:8821  _schedules[i].amount */\n      0xc0\n      add\n      mload\n        /* \"contracts/Sabai Vesting.sol\":8769:8796  vestingSchedulesTotalAmount */\n      sload(0x04)\n        /* \"contracts/Sabai Vesting.sol\":8769:8800  vestingSchedulesTotalAmount.add */\n      tag_155\n      swap1\n        /* \"contracts/Sabai Vesting.sol\":8769:8822  vestingSchedulesTotalAmount.add(_schedules[i].amount) */\n      swap2\n      swap1\n      0xffffffff\n      and\n      jump\t// in\n    tag_233:\n        /* \"contracts/Sabai Vesting.sol\":8739:8766  vestingSchedulesTotalAmount */\n      0x04\n        /* \"contracts/Sabai Vesting.sol\":8739:8822  vestingSchedulesTotalAmount = vestingSchedulesTotalAmount.add(_schedules[i].amount) */\n      dup2\n      swap1\n      sstore\n      pop\n        /* \"contracts/Sabai Vesting.sol\":8840:8859  vestingSchedulesIds */\n      0x02\n        /* \"contracts/Sabai Vesting.sol\":8865:8882  vestingScheduleId */\n      dup3\n        /* \"contracts/Sabai Vesting.sol\":8840:8883  vestingSchedulesIds.push(vestingScheduleId) */\n      swap1\n      dup1\n      0x01\n      dup2\n      sload\n      add\n      dup1\n      dup3\n      sstore\n      dup1\n      swap2\n      pop\n      pop\n      0x01\n      swap1\n      sub\n      swap1\n      0x00\n      mstore\n      keccak256(0x00, 0x20)\n      add\n      0x00\n      swap1\n      swap2\n      swap1\n      swap2\n      swap1\n      swap2\n      pop\n      sstore\n        /* \"contracts/Sabai Vesting.sol\":8901:8928  uint256 currentVestingCount */\n      0x00\n        /* \"contracts/Sabai Vesting.sol\":8931:8950  holdersVestingCount */\n      0x05\n        /* \"contracts/Sabai Vesting.sol\":8931:8977  holdersVestingCount[_schedules[i].beneficiary] */\n      0x00\n        /* \"contracts/Sabai Vesting.sol\":8951:8961  _schedules */\n      dup7\n        /* \"contracts/Sabai Vesting.sol\":8962:8963  i */\n      dup7\n        /* \"contracts/Sabai Vesting.sol\":8951:8964  _schedules[i] */\n      dup2\n      mload\n      dup2\n      lt\n      tag_237\n      jumpi\n      tag_238\n      tag_187\n      jump\t// in\n    tag_238:\n    tag_237:\n      0x20\n      mul\n      0x20\n      add\n      add\n      mload\n        /* \"contracts/Sabai Vesting.sol\":8951:8976  _schedules[i].beneficiary */\n      0x00\n      add\n      mload\n        /* \"contracts/Sabai Vesting.sol\":8931:8977  holdersVestingCount[_schedules[i].beneficiary] */\n      0xffffffffffffffffffffffffffffffffffffffff\n      and\n      0xffffffffffffffffffffffffffffffffffffffff\n      and\n      dup2\n      mstore\n      0x20\n      add\n      swap1\n      dup2\n      mstore\n      0x20\n      add\n      0x00\n      keccak256\n      sload\n        /* \"contracts/Sabai Vesting.sol\":8901:8977  uint256 currentVestingCount = holdersVestingCount[_schedules[i].beneficiary] */\n      swap1\n      pop\n        /* \"contracts/Sabai Vesting.sol\":9044:9070  currentVestingCount.add(1) */\n      tag_239\n        /* \"contracts/Sabai Vesting.sol\":9068:9069  1 */\n      0x01\n        /* \"contracts/Sabai Vesting.sol\":9044:9063  currentVestingCount */\n      dup3\n        /* \"contracts/Sabai Vesting.sol\":9044:9067  currentVestingCount.add */\n      tag_155\n      swap1\n        /* \"contracts/Sabai Vesting.sol\":9044:9070  currentVestingCount.add(1) */\n      swap2\n      swap1\n      0xffffffff\n      and\n      jump\t// in\n    tag_239:\n        /* \"contracts/Sabai Vesting.sol\":8995:9014  holdersVestingCount */\n      0x05\n        /* \"contracts/Sabai Vesting.sol\":8995:9041  holdersVestingCount[_schedules[i].beneficiary] */\n      0x00\n        /* \"contracts/Sabai Vesting.sol\":9015:9025  _schedules */\n      dup8\n        /* \"contracts/Sabai Vesting.sol\":9026:9027  i */\n      dup8\n        /* \"contracts/Sabai Vesting.sol\":9015:9028  _schedules[i] */\n      dup2\n      mload\n      dup2\n      lt\n      tag_240\n      jumpi\n      tag_241\n      tag_187\n      jump\t// in\n    tag_241:\n    tag_240:\n      0x20\n      mul\n      0x20\n      add\n      add\n      mload\n        /* \"contracts/Sabai Vesting.sol\":9015:9040  _schedules[i].beneficiary */\n      0x00\n      add\n      mload\n        /* \"contracts/Sabai Vesting.sol\":8995:9041  holdersVestingCount[_schedules[i].beneficiary] */\n      0xffffffffffffffffffffffffffffffffffffffff\n      and\n      0xffffffffffffffffffffffffffffffffffffffff\n      and\n      dup2\n      mstore\n      0x20\n      add\n      swap1\n      dup2\n      mstore\n      0x20\n      add\n      0x00\n      keccak256\n        /* \"contracts/Sabai Vesting.sol\":8995:9070  holdersVestingCount[_schedules[i].beneficiary] = currentVestingCount.add(1) */\n      dup2\n      swap1\n      sstore\n      pop\n        /* \"contracts/Sabai Vesting.sol\":8063:9081  {... */\n      pop\n      pop\n      pop\n        /* \"contracts/Sabai Vesting.sol\":8058:8061  i++ */\n      dup1\n      dup1\n      tag_242\n      swap1\n      tag_206\n      jump\t// in\n    tag_242:\n      swap2\n      pop\n      pop\n        /* \"contracts/Sabai Vesting.sol\":8019:9081  for (uint256 i=0; i<_schedules.length; i++) {... */\n      jump(tag_207)\n    tag_208:\n      pop\n        /* \"contracts/Sabai Vesting.sol\":7358:9087  function createVestingScheduleMany(VestingScheduleMany[] memory _schedules)... */\n      pop\n      jump\t// out\n        /* \"contracts/Sabai Vesting.sol\":10475:11482  function release(... */\n    tag_69:\n        /* \"@openzeppelin/contracts/security/ReentrancyGuard.sol\":2261:2282  _nonReentrantBefore() */\n      tag_244\n        /* \"@openzeppelin/contracts/security/ReentrancyGuard.sol\":2261:2280  _nonReentrantBefore */\n      tag_162\n        /* \"@openzeppelin/contracts/security/ReentrancyGuard.sol\":2261:2282  _nonReentrantBefore() */\n      jump\t// in\n    tag_244:\n        /* \"contracts/Sabai Vesting.sol\":10633:10650  vestingScheduleId */\n      dup2\n        /* \"contracts/Sabai Vesting.sol\":2177:2181  true */\n      0x01\n        /* \"contracts/Sabai Vesting.sol\":2126:2181  vestingSchedules[vestingScheduleId].initialized == true */\n      iszero\n      iszero\n        /* \"contracts/Sabai Vesting.sol\":2126:2142  vestingSchedules */\n      0x03\n        /* \"contracts/Sabai Vesting.sol\":2126:2161  vestingSchedules[vestingScheduleId] */\n      0x00\n        /* \"contracts/Sabai Vesting.sol\":2143:2160  vestingScheduleId */\n      dup4\n        /* \"contracts/Sabai Vesting.sol\":2126:2161  vestingSchedules[vestingScheduleId] */\n      dup2\n      mstore\n      0x20\n      add\n      swap1\n      dup2\n      mstore\n      0x20\n      add\n      0x00\n      keccak256\n        /* \"contracts/Sabai Vesting.sol\":2126:2173  vestingSchedules[vestingScheduleId].initialized */\n      0x00\n      add\n      0x00\n      swap1\n      sload\n      swap1\n      0x0100\n      exp\n      swap1\n      div\n      0xff\n      and\n        /* \"contracts/Sabai Vesting.sol\":2126:2181  vestingSchedules[vestingScheduleId].initialized == true */\n      iszero\n      iszero\n      eq\n        /* \"contracts/Sabai Vesting.sol\":2118:2182  require(vestingSchedules[vestingScheduleId].initialized == true) */\n      tag_246\n      jumpi\n      0x00\n      dup1\n      revert\n    tag_246:\n        /* \"contracts/Sabai Vesting.sol\":2247:2252  false */\n      0x00\n        /* \"contracts/Sabai Vesting.sol\":2200:2252  vestingSchedules[vestingScheduleId].revoked == false */\n      iszero\n      iszero\n        /* \"contracts/Sabai Vesting.sol\":2200:2216  vestingSchedules */\n      0x03\n        /* \"contracts/Sabai Vesting.sol\":2200:2235  vestingSchedules[vestingScheduleId] */\n      0x00\n        /* \"contracts/Sabai Vesting.sol\":2217:2234  vestingScheduleId */\n      dup4\n        /* \"contracts/Sabai Vesting.sol\":2200:2235  vestingSchedules[vestingScheduleId] */\n      dup2\n      mstore\n      0x20\n      add\n      swap1\n      dup2\n      mstore\n      0x20\n      add\n      0x00\n      keccak256\n        /* \"contracts/Sabai Vesting.sol\":2200:2243  vestingSchedules[vestingScheduleId].revoked */\n      0x08\n      add\n      0x00\n      swap1\n      sload\n      swap1\n      0x0100\n      exp\n      swap1\n      div\n      0xff\n      and\n        /* \"contracts/Sabai Vesting.sol\":2200:2252  vestingSchedules[vestingScheduleId].revoked == false */\n      iszero\n      iszero\n      eq\n        /* \"contracts/Sabai Vesting.sol\":2192:2253  require(vestingSchedules[vestingScheduleId].revoked == false) */\n      tag_247\n      jumpi\n      0x00\n      dup1\n      revert\n    tag_247:\n        /* \"contracts/Sabai Vesting.sol\":10661:10700  VestingSchedule storage vestingSchedule */\n      0x00\n        /* \"contracts/Sabai Vesting.sol\":10703:10719  vestingSchedules */\n      0x03\n        /* \"contracts/Sabai Vesting.sol\":10703:10738  vestingSchedules[vestingScheduleId] */\n      0x00\n        /* \"contracts/Sabai Vesting.sol\":10720:10737  vestingScheduleId */\n      dup6\n        /* \"contracts/Sabai Vesting.sol\":10703:10738  vestingSchedules[vestingScheduleId] */\n      dup2\n      mstore\n      0x20\n      add\n      swap1\n      dup2\n      mstore\n      0x20\n      add\n      0x00\n      keccak256\n        /* \"contracts/Sabai Vesting.sol\":10661:10738  VestingSchedule storage vestingSchedule = vestingSchedules[vestingScheduleId] */\n      swap1\n      pop\n        /* \"contracts/Sabai Vesting.sol\":10748:10766  bool isBeneficiary */\n      0x00\n        /* \"contracts/Sabai Vesting.sol\":10783:10798  vestingSchedule */\n      dup2\n        /* \"contracts/Sabai Vesting.sol\":10783:10810  vestingSchedule.beneficiary */\n      0x00\n      add\n      0x01\n      swap1\n      sload\n      swap1\n      0x0100\n      exp\n      swap1\n      div\n      0xffffffffffffffffffffffffffffffffffffffff\n      and\n        /* \"contracts/Sabai Vesting.sol\":10769:10810  msg.sender == vestingSchedule.beneficiary */\n      0xffffffffffffffffffffffffffffffffffffffff\n      and\n        /* \"contracts/Sabai Vesting.sol\":10769:10779  msg.sender */\n      caller\n        /* \"contracts/Sabai Vesting.sol\":10769:10810  msg.sender == vestingSchedule.beneficiary */\n      0xffffffffffffffffffffffffffffffffffffffff\n      and\n      eq\n        /* \"contracts/Sabai Vesting.sol\":10748:10810  bool isBeneficiary = msg.sender == vestingSchedule.beneficiary */\n      swap1\n      pop\n        /* \"contracts/Sabai Vesting.sol\":10820:10832  bool isOwner */\n      0x00\n        /* \"contracts/Sabai Vesting.sol\":10849:10856  owner() */\n      tag_249\n        /* \"contracts/Sabai Vesting.sol\":10849:10854  owner */\n      tag_88\n        /* \"contracts/Sabai Vesting.sol\":10849:10856  owner() */\n      jump\t// in\n    tag_249:\n        /* \"contracts/Sabai Vesting.sol\":10835:10856  msg.sender == owner() */\n      0xffffffffffffffffffffffffffffffffffffffff\n      and\n        /* \"contracts/Sabai Vesting.sol\":10835:10845  msg.sender */\n      caller\n        /* \"contracts/Sabai Vesting.sol\":10835:10856  msg.sender == owner() */\n      0xffffffffffffffffffffffffffffffffffffffff\n      and\n      eq\n        /* \"contracts/Sabai Vesting.sol\":10820:10856  bool isOwner = msg.sender == owner() */\n      swap1\n      pop\n        /* \"contracts/Sabai Vesting.sol\":10887:10900  isBeneficiary */\n      dup2\n        /* \"contracts/Sabai Vesting.sol\":10887:10911  isBeneficiary || isOwner */\n      dup1\n      tag_250\n      jumpi\n      pop\n        /* \"contracts/Sabai Vesting.sol\":10904:10911  isOwner */\n      dup1\n        /* \"contracts/Sabai Vesting.sol\":10887:10911  isBeneficiary || isOwner */\n    tag_250:\n        /* \"contracts/Sabai Vesting.sol\":10866:11003  require(... */\n      tag_251\n      jumpi\n      mload(0x40)\n      0x08c379a000000000000000000000000000000000000000000000000000000000\n      dup2\n      mstore\n      0x04\n      add\n      tag_252\n      swap1\n      tag_253\n      jump\t// in\n    tag_252:\n      mload(0x40)\n      dup1\n      swap2\n      sub\n      swap1\n      revert\n    tag_251:\n        /* \"contracts/Sabai Vesting.sol\":11013:11033  uint256 vestedAmount */\n      0x00\n        /* \"contracts/Sabai Vesting.sol\":11036:11077  _computeReleasableAmount(vestingSchedule) */\n      tag_254\n        /* \"contracts/Sabai Vesting.sol\":11061:11076  vestingSchedule */\n      dup5\n        /* \"contracts/Sabai Vesting.sol\":11036:11077  _computeReleasableAmount(vestingSchedule) */\n      mload(0x40)\n      dup1\n      0x0140\n      add\n      0x40\n      mstore\n      swap1\n      dup2\n      0x00\n      dup3\n      add\n      0x00\n      swap1\n      sload\n      swap1\n      0x0100\n      exp\n      swap1\n      div\n      0xff\n      and\n      iszero\n      iszero\n      iszero\n      iszero\n      dup2\n      mstore\n      0x20\n      add\n      0x00\n      dup3\n      add\n      0x01\n      swap1\n      sload\n      swap1\n      0x0100\n      exp\n      swap1\n      div\n      0xffffffffffffffffffffffffffffffffffffffff\n      and\n      0xffffffffffffffffffffffffffffffffffffffff\n      and\n      0xffffffffffffffffffffffffffffffffffffffff\n      and\n      dup2\n      mstore\n      0x20\n      add\n      0x01\n      dup3\n      add\n      sload\n      dup2\n      mstore\n      0x20\n      add\n      0x02\n      dup3\n      add\n      sload\n      dup2\n      mstore\n      0x20\n      add\n      0x03\n      dup3\n      add\n      sload\n      dup2\n      mstore\n      0x20\n      add\n      0x04\n      dup3\n      add\n      sload\n      dup2\n      mstore\n      0x20\n      add\n      0x05\n      dup3\n      add\n      0x00\n      swap1\n      sload\n      swap1\n      0x0100\n      exp\n      swap1\n      div\n      0xff\n      and\n      iszero\n      iszero\n      iszero\n      iszero\n      dup2\n      mstore\n      0x20\n      add\n      0x06\n      dup3\n      add\n      sload\n      dup2\n      mstore\n      0x20\n      add\n      0x07\n      dup3\n      add\n      sload\n      dup2\n      mstore\n      0x20\n      add\n      0x08\n      dup3\n      add\n      0x00\n      swap1\n      sload\n      swap1\n      0x0100\n      exp\n      swap1\n      div\n      0xff\n      and\n      iszero\n      iszero\n      iszero\n      iszero\n      dup2\n      mstore\n      pop\n      pop\n        /* \"contracts/Sabai Vesting.sol\":11036:11060  _computeReleasableAmount */\n      tag_255\n        /* \"contracts/Sabai Vesting.sol\":11036:11077  _computeReleasableAmount(vestingSchedule) */\n      jump\t// in\n    tag_254:\n        /* \"contracts/Sabai Vesting.sol\":11013:11077  uint256 vestedAmount = _computeReleasableAmount(vestingSchedule) */\n      swap1\n      pop\n        /* \"contracts/Sabai Vesting.sol\":11111:11117  amount */\n      dup6\n        /* \"contracts/Sabai Vesting.sol\":11095:11107  vestedAmount */\n      dup2\n        /* \"contracts/Sabai Vesting.sol\":11095:11117  vestedAmount >= amount */\n      lt\n      iszero\n        /* \"contracts/Sabai Vesting.sol\":11087:11183  require(vestedAmount >= amount, \"TokenVesting: cannot release tokens, not enough vested tokens\") */\n      tag_256\n      jumpi\n      mload(0x40)\n      0x08c379a000000000000000000000000000000000000000000000000000000000\n      dup2\n      mstore\n      0x04\n      add\n      tag_257\n      swap1\n      tag_258\n      jump\t// in\n    tag_257:\n      mload(0x40)\n      dup1\n      swap2\n      sub\n      swap1\n      revert\n    tag_256:\n        /* \"contracts/Sabai Vesting.sol\":11220:11256  vestingSchedule.released.add(amount) */\n      tag_259\n        /* \"contracts/Sabai Vesting.sol\":11249:11255  amount */\n      dup7\n        /* \"contracts/Sabai Vesting.sol\":11220:11235  vestingSchedule */\n      dup6\n        /* \"contracts/Sabai Vesting.sol\":11220:11244  vestingSchedule.released */\n      0x07\n      add\n      sload\n        /* \"contracts/Sabai Vesting.sol\":11220:11248  vestingSchedule.released.add */\n      tag_155\n      swap1\n        /* \"contracts/Sabai Vesting.sol\":11220:11256  vestingSchedule.released.add(amount) */\n      swap2\n      swap1\n      0xffffffff\n      and\n      jump\t// in\n    tag_259:\n        /* \"contracts/Sabai Vesting.sol\":11193:11208  vestingSchedule */\n      dup5\n        /* \"contracts/Sabai Vesting.sol\":11193:11217  vestingSchedule.released */\n      0x07\n      add\n        /* \"contracts/Sabai Vesting.sol\":11193:11256  vestingSchedule.released = vestingSchedule.released.add(amount) */\n      dup2\n      swap1\n      sstore\n      pop\n        /* \"contracts/Sabai Vesting.sol\":11266:11300  address payable beneficiaryPayable */\n      0x00\n        /* \"contracts/Sabai Vesting.sol\":11311:11326  vestingSchedule */\n      dup5\n        /* \"contracts/Sabai Vesting.sol\":11311:11338  vestingSchedule.beneficiary */\n      0x00\n      add\n      0x01\n      swap1\n      sload\n      swap1\n      0x0100\n      exp\n      swap1\n      div\n      0xffffffffffffffffffffffffffffffffffffffff\n      and\n        /* \"contracts/Sabai Vesting.sol\":11266:11339  address payable beneficiaryPayable = payable(vestingSchedule.beneficiary) */\n      swap1\n      pop\n        /* \"contracts/Sabai Vesting.sol\":11379:11418  vestingSchedulesTotalAmount.sub(amount) */\n      tag_260\n        /* \"contracts/Sabai Vesting.sol\":11411:11417  amount */\n      dup8\n        /* \"contracts/Sabai Vesting.sol\":11379:11406  vestingSchedulesTotalAmount */\n      sload(0x04)\n        /* \"contracts/Sabai Vesting.sol\":11379:11410  vestingSchedulesTotalAmount.sub */\n      tag_261\n      swap1\n        /* \"contracts/Sabai Vesting.sol\":11379:11418  vestingSchedulesTotalAmount.sub(amount) */\n      swap2\n      swap1\n      0xffffffff\n      and\n      jump\t// in\n    tag_260:\n        /* \"contracts/Sabai Vesting.sol\":11349:11376  vestingSchedulesTotalAmount */\n      0x04\n        /* \"contracts/Sabai Vesting.sol\":11349:11418  vestingSchedulesTotalAmount = vestingSchedulesTotalAmount.sub(amount) */\n      dup2\n      swap1\n      sstore\n      pop\n        /* \"contracts/Sabai Vesting.sol\":11428:11475  _token.safeTransfer(beneficiaryPayable, amount) */\n      tag_262\n        /* \"contracts/Sabai Vesting.sol\":11448:11466  beneficiaryPayable */\n      dup2\n        /* \"contracts/Sabai Vesting.sol\":11468:11474  amount */\n      dup9\n        /* \"contracts/Sabai Vesting.sol\":11428:11434  _token */\n      immutable(\"0xb70eb531a2699953285ebb78c39578cbdac86304682453a46c4a672d055c8600\")\n        /* \"contracts/Sabai Vesting.sol\":11428:11447  _token.safeTransfer */\n      0xffffffffffffffffffffffffffffffffffffffff\n      and\n      tag_174\n      swap1\n        /* \"contracts/Sabai Vesting.sol\":11428:11475  _token.safeTransfer(beneficiaryPayable, amount) */\n      swap3\n      swap2\n      swap1\n      0xffffffff\n      and\n      jump\t// in\n    tag_262:\n        /* \"contracts/Sabai Vesting.sol\":10651:11482  {... */\n      pop\n      pop\n      pop\n      pop\n      pop\n        /* \"@openzeppelin/contracts/security/ReentrancyGuard.sol\":2292:2293  _ */\n      pop\n        /* \"@openzeppelin/contracts/security/ReentrancyGuard.sol\":2303:2323  _nonReentrantAfter() */\n      tag_263\n        /* \"@openzeppelin/contracts/security/ReentrancyGuard.sol\":2303:2321  _nonReentrantAfter */\n      tag_176\n        /* \"@openzeppelin/contracts/security/ReentrancyGuard.sol\":2303:2323  _nonReentrantAfter() */\n      jump\t// in\n    tag_263:\n        /* \"contracts/Sabai Vesting.sol\":10475:11482  function release(... */\n      pop\n      pop\n      jump\t// out\n        /* \"@openzeppelin/contracts/access/Ownable.sol\":1831:1932  function renounceOwnership() public virtual onlyOwner {... */\n    tag_72:\n        /* \"@openzeppelin/contracts/access/Ownable.sol\":1094:1107  _checkOwner() */\n      tag_265\n        /* \"@openzeppelin/contracts/access/Ownable.sol\":1094:1105  _checkOwner */\n      tag_131\n        /* \"@openzeppelin/contracts/access/Ownable.sol\":1094:1107  _checkOwner() */\n      jump\t// in\n    tag_265:\n        /* \"@openzeppelin/contracts/access/Ownable.sol\":1895:1925  _transferOwnership(address(0)) */\n      tag_267\n        /* \"@openzeppelin/contracts/access/Ownable.sol\":1922:1923  0 */\n      0x00\n        /* \"@openzeppelin/contracts/access/Ownable.sol\":1895:1913  _transferOwnership */\n      tag_268\n        /* \"@openzeppelin/contracts/access/Ownable.sol\":1895:1925  _transferOwnership(address(0)) */\n      jump\t// in\n    tag_267:\n        /* \"@openzeppelin/contracts/access/Ownable.sol\":1831:1932  function renounceOwnership() public virtual onlyOwner {... */\n      jump\t// out\n        /* \"contracts/Sabai Vesting.sol\":13295:13544  function getLastVestingScheduleForHolder(address holder)... */\n    tag_76:\n        /* \"contracts/Sabai Vesting.sol\":13396:13418  VestingSchedule memory */\n      tag_269\n      tag_270\n      jump\t// in\n    tag_269:\n        /* \"contracts/Sabai Vesting.sol\":13436:13452  vestingSchedules */\n      0x03\n        /* \"contracts/Sabai Vesting.sol\":13436:13537  vestingSchedules[computeVestingScheduleIdForAddressAndIndex(holder, holdersVestingCount[holder] - 1)] */\n      0x00\n        /* \"contracts/Sabai Vesting.sol\":13453:13536  computeVestingScheduleIdForAddressAndIndex(holder, holdersVestingCount[holder] - 1) */\n      tag_272\n        /* \"contracts/Sabai Vesting.sol\":13496:13502  holder */\n      dup5\n        /* \"contracts/Sabai Vesting.sol\":13534:13535  1 */\n      0x01\n        /* \"contracts/Sabai Vesting.sol\":13504:13523  holdersVestingCount */\n      0x05\n        /* \"contracts/Sabai Vesting.sol\":13504:13531  holdersVestingCount[holder] */\n      0x00\n        /* \"contracts/Sabai Vesting.sol\":13524:13530  holder */\n      dup9\n        /* \"contracts/Sabai Vesting.sol\":13504:13531  holdersVestingCount[holder] */\n      0xffffffffffffffffffffffffffffffffffffffff\n      and\n      0xffffffffffffffffffffffffffffffffffffffff\n      and\n      dup2\n      mstore\n      0x20\n      add\n      swap1\n      dup2\n      mstore\n      0x20\n      add\n      0x00\n      keccak256\n      sload\n        /* \"contracts/Sabai Vesting.sol\":13504:13535  holdersVestingCount[holder] - 1 */\n      tag_273\n      swap2\n      swap1\n      tag_274\n      jump\t// in\n    tag_273:\n        /* \"contracts/Sabai Vesting.sol\":13453:13495  computeVestingScheduleIdForAddressAndIndex */\n      tag_83\n        /* \"contracts/Sabai Vesting.sol\":13453:13536  computeVestingScheduleIdForAddressAndIndex(holder, holdersVestingCount[holder] - 1) */\n      jump\t// in\n    tag_272:\n        /* \"contracts/Sabai Vesting.sol\":13436:13537  vestingSchedules[computeVestingScheduleIdForAddressAndIndex(holder, holdersVestingCount[holder] - 1)] */\n      dup2\n      mstore\n      0x20\n      add\n      swap1\n      dup2\n      mstore\n      0x20\n      add\n      0x00\n      keccak256\n        /* \"contracts/Sabai Vesting.sol\":13429:13537  return vestingSchedules[computeVestingScheduleIdForAddressAndIndex(holder, holdersVestingCount[holder] - 1)] */\n      mload(0x40)\n      dup1\n      0x0140\n      add\n      0x40\n      mstore\n      swap1\n      dup2\n      0x00\n      dup3\n      add\n      0x00\n      swap1\n      sload\n      swap1\n      0x0100\n      exp\n      swap1\n      div\n      0xff\n      and\n      iszero\n      iszero\n      iszero\n      iszero\n      dup2\n      mstore\n      0x20\n      add\n      0x00\n      dup3\n      add\n      0x01\n      swap1\n      sload\n      swap1\n      0x0100\n      exp\n      swap1\n      div\n      0xffffffffffffffffffffffffffffffffffffffff\n      and\n      0xffffffffffffffffffffffffffffffffffffffff\n      and\n      0xffffffffffffffffffffffffffffffffffffffff\n      and\n      dup2\n      mstore\n      0x20\n      add\n      0x01\n      dup3\n      add\n      sload\n      dup2\n      mstore\n      0x20\n      add\n      0x02\n      dup3\n      add\n      sload\n      dup2\n      mstore\n      0x20\n      add\n      0x03\n      dup3\n      add\n      sload\n      dup2\n      mstore\n      0x20\n      add\n      0x04\n      dup3\n      add\n      sload\n      dup2\n      mstore\n      0x20\n      add\n      0x05\n      dup3\n      add\n      0x00\n      swap1\n      sload\n      swap1\n      0x0100\n      exp\n      swap1\n      div\n      0xff\n      and\n      iszero\n      iszero\n      iszero\n      iszero\n      dup2\n      mstore\n      0x20\n      add\n      0x06\n      dup3\n      add\n      sload\n      dup2\n      mstore\n      0x20\n      add\n      0x07\n      dup3\n      add\n      sload\n      dup2\n      mstore\n      0x20\n      add\n      0x08\n      dup3\n      add\n      0x00\n      swap1\n      sload\n      swap1\n      0x0100\n      exp\n      swap1\n      div\n      0xff\n      and\n      iszero\n      iszero\n      iszero\n      iszero\n      dup2\n      mstore\n      pop\n      pop\n      swap1\n      pop\n        /* \"contracts/Sabai Vesting.sol\":13295:13544  function getLastVestingScheduleForHolder(address holder)... */\n      swap2\n      swap1\n      pop\n      jump\t// out\n        /* \"contracts/Sabai Vesting.sol\":13646:13847  function computeVestingScheduleIdForAddressAndIndex(address holder, uint256 index)... */\n    tag_83:\n        /* \"contracts/Sabai Vesting.sol\":13773:13780  bytes32 */\n      0x00\n        /* \"contracts/Sabai Vesting.sol\":13825:13831  holder */\n      dup3\n        /* \"contracts/Sabai Vesting.sol\":13833:13838  index */\n      dup3\n        /* \"contracts/Sabai Vesting.sol\":13808:13839  abi.encodePacked(holder, index) */\n      add(0x20, mload(0x40))\n      tag_276\n      swap3\n      swap2\n      swap1\n      tag_277\n      jump\t// in\n    tag_276:\n      mload(0x40)\n      0x20\n      dup2\n      dup4\n      sub\n      sub\n      dup2\n      mstore\n      swap1\n      0x40\n      mstore\n        /* \"contracts/Sabai Vesting.sol\":13798:13840  keccak256(abi.encodePacked(holder, index)) */\n      dup1\n      mload\n      swap1\n      0x20\n      add\n      keccak256\n        /* \"contracts/Sabai Vesting.sol\":13791:13840  return keccak256(abi.encodePacked(holder, index)) */\n      swap1\n      pop\n        /* \"contracts/Sabai Vesting.sol\":13646:13847  function computeVestingScheduleIdForAddressAndIndex(address holder, uint256 index)... */\n      swap3\n      swap2\n      pop\n      pop\n      jump\t// out\n        /* \"@openzeppelin/contracts/access/Ownable.sol\":1201:1286  function owner() public view virtual returns (address) {... */\n    tag_88:\n        /* \"@openzeppelin/contracts/access/Ownable.sol\":1247:1254  address */\n      0x00\n        /* \"@openzeppelin/contracts/access/Ownable.sol\":1273:1279  _owner */\n      dup1\n      0x00\n      swap1\n      sload\n      swap1\n      0x0100\n      exp\n      swap1\n      div\n      0xffffffffffffffffffffffffffffffffffffffff\n      and\n        /* \"@openzeppelin/contracts/access/Ownable.sol\":1266:1279  return _owner */\n      swap1\n      pop\n        /* \"@openzeppelin/contracts/access/Ownable.sol\":1201:1286  function owner() public view virtual returns (address) {... */\n      swap1\n      jump\t// out\n        /* \"contracts/Sabai Vesting.sol\":12704:12877  function getWithdrawableAmount()... */\n    tag_92:\n        /* \"contracts/Sabai Vesting.sol\":12781:12788  uint256 */\n      0x00\n        /* \"contracts/Sabai Vesting.sol\":12806:12870  _token.balanceOf(address(this)).sub(vestingSchedulesTotalAmount) */\n      tag_280\n        /* \"contracts/Sabai Vesting.sol\":12842:12869  vestingSchedulesTotalAmount */\n      sload(0x04)\n        /* \"contracts/Sabai Vesting.sol\":12806:12812  _token */\n      immutable(\"0xb70eb531a2699953285ebb78c39578cbdac86304682453a46c4a672d055c8600\")\n        /* \"contracts/Sabai Vesting.sol\":12806:12822  _token.balanceOf */\n      0xffffffffffffffffffffffffffffffffffffffff\n      and\n      0x70a08231\n        /* \"contracts/Sabai Vesting.sol\":12831:12835  this */\n      address\n        /* \"contracts/Sabai Vesting.sol\":12806:12837  _token.balanceOf(address(this)) */\n      mload(0x40)\n      dup3\n      0xffffffff\n      and\n      0xe0\n      shl\n      dup2\n      mstore\n      0x04\n      add\n      tag_281\n      swap2\n      swap1\n      tag_44\n      jump\t// in\n    tag_281:\n      0x20\n      mload(0x40)\n      dup1\n      dup4\n      sub\n      dup2\n      dup7\n      gas\n      staticcall\n      iszero\n      dup1\n      iszero\n      tag_283\n      jumpi\n      returndatasize\n      0x00\n      dup1\n      returndatacopy\n      revert(0x00, returndatasize)\n    tag_283:\n      pop\n      pop\n      pop\n      pop\n      mload(0x40)\n      returndatasize\n      not(0x1f)\n      0x1f\n      dup3\n      add\n      and\n      dup3\n      add\n      dup1\n      0x40\n      mstore\n      pop\n      dup2\n      add\n      swap1\n      tag_284\n      swap2\n      swap1\n      tag_136\n      jump\t// in\n    tag_284:\n        /* \"contracts/Sabai Vesting.sol\":12806:12841  _token.balanceOf(address(this)).sub */\n      tag_261\n      swap1\n        /* \"contracts/Sabai Vesting.sol\":12806:12870  _token.balanceOf(address(this)).sub(vestingSchedulesTotalAmount) */\n      swap2\n      swap1\n      0xffffffff\n      and\n      jump\t// in\n    tag_280:\n        /* \"contracts/Sabai Vesting.sol\":12799:12870  return _token.balanceOf(address(this)).sub(vestingSchedulesTotalAmount) */\n      swap1\n      pop\n        /* \"contracts/Sabai Vesting.sol\":12704:12877  function getWithdrawableAmount()... */\n      swap1\n      jump\t// out\n        /* \"contracts/Sabai Vesting.sol\":12391:12572  function getVestingSchedule(bytes32 vestingScheduleId)... */\n    tag_98:\n        /* \"contracts/Sabai Vesting.sol\":12490:12512  VestingSchedule memory */\n      tag_285\n      tag_270\n      jump\t// in\n    tag_285:\n        /* \"contracts/Sabai Vesting.sol\":12530:12546  vestingSchedules */\n      0x03\n        /* \"contracts/Sabai Vesting.sol\":12530:12565  vestingSchedules[vestingScheduleId] */\n      0x00\n        /* \"contracts/Sabai Vesting.sol\":12547:12564  vestingScheduleId */\n      dup4\n        /* \"contracts/Sabai Vesting.sol\":12530:12565  vestingSchedules[vestingScheduleId] */\n      dup2\n      mstore\n      0x20\n      add\n      swap1\n      dup2\n      mstore\n      0x20\n      add\n      0x00\n      keccak256\n        /* \"contracts/Sabai Vesting.sol\":12523:12565  return vestingSchedules[vestingScheduleId] */\n      mload(0x40)\n      dup1\n      0x0140\n      add\n      0x40\n      mstore\n      swap1\n      dup2\n      0x00\n      dup3\n      add\n      0x00\n      swap1\n      sload\n      swap1\n      0x0100\n      exp\n      swap1\n      div\n      0xff\n      and\n      iszero\n      iszero\n      iszero\n      iszero\n      dup2\n      mstore\n      0x20\n      add\n      0x00\n      dup3\n      add\n      0x01\n      swap1\n      sload\n      swap1\n      0x0100\n      exp\n      swap1\n      div\n      0xffffffffffffffffffffffffffffffffffffffff\n      and\n      0xffffffffffffffffffffffffffffffffffffffff\n      and\n      0xffffffffffffffffffffffffffffffffffffffff\n      and\n      dup2\n      mstore\n      0x20\n      add\n      0x01\n      dup3\n      add\n      sload\n      dup2\n      mstore\n      0x20\n      add\n      0x02\n      dup3\n      add\n      sload\n      dup2\n      mstore\n      0x20\n      add\n      0x03\n      dup3\n      add\n      sload\n      dup2\n      mstore\n      0x20\n      add\n      0x04\n      dup3\n      add\n      sload\n      dup2\n      mstore\n      0x20\n      add\n      0x05\n      dup3\n      add\n      0x00\n      swap1\n      sload\n      swap1\n      0x0100\n      exp\n      swap1\n      div\n      0xff\n      and\n      iszero\n      iszero\n      iszero\n      iszero\n      dup2\n      mstore\n      0x20\n      add\n      0x06\n      dup3\n      add\n      sload\n      dup2\n      mstore\n      0x20\n      add\n      0x07\n      dup3\n      add\n      sload\n      dup2\n      mstore\n      0x20\n      add\n      0x08\n      dup3\n      add\n      0x00\n      swap1\n      sload\n      swap1\n      0x0100\n      exp\n      swap1\n      div\n      0xff\n      and\n      iszero\n      iszero\n      iszero\n      iszero\n      dup2\n      mstore\n      pop\n      pop\n      swap1\n      pop\n        /* \"contracts/Sabai Vesting.sol\":12391:12572  function getVestingSchedule(bytes32 vestingScheduleId)... */\n      swap2\n      swap1\n      pop\n      jump\t// out\n        /* \"contracts/Sabai Vesting.sol\":9236:9937  function revoke(bytes32 vestingScheduleId)... */\n    tag_103:\n        /* \"@openzeppelin/contracts/access/Ownable.sol\":1094:1107  _checkOwner() */\n      tag_288\n        /* \"@openzeppelin/contracts/access/Ownable.sol\":1094:1105  _checkOwner */\n      tag_131\n        /* \"@openzeppelin/contracts/access/Ownable.sol\":1094:1107  _checkOwner() */\n      jump\t// in\n    tag_288:\n        /* \"contracts/Sabai Vesting.sol\":9352:9369  vestingScheduleId */\n      dup1\n        /* \"contracts/Sabai Vesting.sol\":2177:2181  true */\n      0x01\n        /* \"contracts/Sabai Vesting.sol\":2126:2181  vestingSchedules[vestingScheduleId].initialized == true */\n      iszero\n      iszero\n        /* \"contracts/Sabai Vesting.sol\":2126:2142  vestingSchedules */\n      0x03\n        /* \"contracts/Sabai Vesting.sol\":2126:2161  vestingSchedules[vestingScheduleId] */\n      0x00\n        /* \"contracts/Sabai Vesting.sol\":2143:2160  vestingScheduleId */\n      dup4\n        /* \"contracts/Sabai Vesting.sol\":2126:2161  vestingSchedules[vestingScheduleId] */\n      dup2\n      mstore\n      0x20\n      add\n      swap1\n      dup2\n      mstore\n      0x20\n      add\n      0x00\n      keccak256\n        /* \"contracts/Sabai Vesting.sol\":2126:2173  vestingSchedules[vestingScheduleId].initialized */\n      0x00\n      add\n      0x00\n      swap1\n      sload\n      swap1\n      0x0100\n      exp\n      swap1\n      div\n      0xff\n      and\n        /* \"contracts/Sabai Vesting.sol\":2126:2181  vestingSchedules[vestingScheduleId].initialized == true */\n      iszero\n      iszero\n      eq\n        /* \"contracts/Sabai Vesting.sol\":2118:2182  require(vestingSchedules[vestingScheduleId].initialized == true) */\n      tag_290\n      jumpi\n      0x00\n      dup1\n      revert\n    tag_290:\n        /* \"contracts/Sabai Vesting.sol\":2247:2252  false */\n      0x00\n        /* \"contracts/Sabai Vesting.sol\":2200:2252  vestingSchedules[vestingScheduleId].revoked == false */\n      iszero\n      iszero\n        /* \"contracts/Sabai Vesting.sol\":2200:2216  vestingSchedules */\n      0x03\n        /* \"contracts/Sabai Vesting.sol\":2200:2235  vestingSchedules[vestingScheduleId] */\n      0x00\n        /* \"contracts/Sabai Vesting.sol\":2217:2234  vestingScheduleId */\n      dup4\n        /* \"contracts/Sabai Vesting.sol\":2200:2235  vestingSchedules[vestingScheduleId] */\n      dup2\n      mstore\n      0x20\n      add\n      swap1\n      dup2\n      mstore\n      0x20\n      add\n      0x00\n      keccak256\n        /* \"contracts/Sabai Vesting.sol\":2200:2243  vestingSchedules[vestingScheduleId].revoked */\n      0x08\n      add\n      0x00\n      swap1\n      sload\n      swap1\n      0x0100\n      exp\n      swap1\n      div\n      0xff\n      and\n        /* \"contracts/Sabai Vesting.sol\":2200:2252  vestingSchedules[vestingScheduleId].revoked == false */\n      iszero\n      iszero\n      eq\n        /* \"contracts/Sabai Vesting.sol\":2192:2253  require(vestingSchedules[vestingScheduleId].revoked == false) */\n      tag_291\n      jumpi\n      0x00\n      dup1\n      revert\n    tag_291:\n        /* \"contracts/Sabai Vesting.sol\":9380:9419  VestingSchedule storage vestingSchedule */\n      0x00\n        /* \"contracts/Sabai Vesting.sol\":9422:9438  vestingSchedules */\n      0x03\n        /* \"contracts/Sabai Vesting.sol\":9422:9457  vestingSchedules[vestingScheduleId] */\n      0x00\n        /* \"contracts/Sabai Vesting.sol\":9439:9456  vestingScheduleId */\n      dup5\n        /* \"contracts/Sabai Vesting.sol\":9422:9457  vestingSchedules[vestingScheduleId] */\n      dup2\n      mstore\n      0x20\n      add\n      swap1\n      dup2\n      mstore\n      0x20\n      add\n      0x00\n      keccak256\n        /* \"contracts/Sabai Vesting.sol\":9380:9457  VestingSchedule storage vestingSchedule = vestingSchedules[vestingScheduleId] */\n      swap1\n      pop\n        /* \"contracts/Sabai Vesting.sol\":9504:9508  true */\n      0x01\n        /* \"contracts/Sabai Vesting.sol\":9475:9508  vestingSchedule.revocable == true */\n      iszero\n      iszero\n        /* \"contracts/Sabai Vesting.sol\":9475:9490  vestingSchedule */\n      dup2\n        /* \"contracts/Sabai Vesting.sol\":9475:9500  vestingSchedule.revocable */\n      0x05\n      add\n      0x00\n      swap1\n      sload\n      swap1\n      0x0100\n      exp\n      swap1\n      div\n      0xff\n      and\n        /* \"contracts/Sabai Vesting.sol\":9475:9508  vestingSchedule.revocable == true */\n      iszero\n      iszero\n      eq\n        /* \"contracts/Sabai Vesting.sol\":9467:9551  require(vestingSchedule.revocable == true, \"TokenVesting: vesting is not revocable\") */\n      tag_293\n      jumpi\n      mload(0x40)\n      0x08c379a000000000000000000000000000000000000000000000000000000000\n      dup2\n      mstore\n      0x04\n      add\n      tag_294\n      swap1\n      tag_295\n      jump\t// in\n    tag_294:\n      mload(0x40)\n      dup1\n      swap2\n      sub\n      swap1\n      revert\n    tag_293:\n        /* \"contracts/Sabai Vesting.sol\":9561:9581  uint256 vestedAmount */\n      0x00\n        /* \"contracts/Sabai Vesting.sol\":9584:9625  _computeReleasableAmount(vestingSchedule) */\n      tag_296\n        /* \"contracts/Sabai Vesting.sol\":9609:9624  vestingSchedule */\n      dup3\n        /* \"contracts/Sabai Vesting.sol\":9584:9625  _computeReleasableAmount(vestingSchedule) */\n      mload(0x40)\n      dup1\n      0x0140\n      add\n      0x40\n      mstore\n      swap1\n      dup2\n      0x00\n      dup3\n      add\n      0x00\n      swap1\n      sload\n      swap1\n      0x0100\n      exp\n      swap1\n      div\n      0xff\n      and\n      iszero\n      iszero\n      iszero\n      iszero\n      dup2\n      mstore\n      0x20\n      add\n      0x00\n      dup3\n      add\n      0x01\n      swap1\n      sload\n      swap1\n      0x0100\n      exp\n      swap1\n      div\n      0xffffffffffffffffffffffffffffffffffffffff\n      and\n      0xffffffffffffffffffffffffffffffffffffffff\n      and\n      0xffffffffffffffffffffffffffffffffffffffff\n      and\n      dup2\n      mstore\n      0x20\n      add\n      0x01\n      dup3\n      add\n      sload\n      dup2\n      mstore\n      0x20\n      add\n      0x02\n      dup3\n      add\n      sload\n      dup2\n      mstore\n      0x20\n      add\n      0x03\n      dup3\n      add\n      sload\n      dup2\n      mstore\n      0x20\n      add\n      0x04\n      dup3\n      add\n      sload\n      dup2\n      mstore\n      0x20\n      add\n      0x05\n      dup3\n      add\n      0x00\n      swap1\n      sload\n      swap1\n      0x0100\n      exp\n      swap1\n      div\n      0xff\n      and\n      iszero\n      iszero\n      iszero\n      iszero\n      dup2\n      mstore\n      0x20\n      add\n      0x06\n      dup3\n      add\n      sload\n      dup2\n      mstore\n      0x20\n      add\n      0x07\n      dup3\n      add\n      sload\n      dup2\n      mstore\n      0x20\n      add\n      0x08\n      dup3\n      add\n      0x00\n      swap1\n      sload\n      swap1\n      0x0100\n      exp\n      swap1\n      div\n      0xff\n      and\n      iszero\n      iszero\n      iszero\n      iszero\n      dup2\n      mstore\n      pop\n      pop\n        /* \"contracts/Sabai Vesting.sol\":9584:9608  _computeReleasableAmount */\n      tag_255\n        /* \"contracts/Sabai Vesting.sol\":9584:9625  _computeReleasableAmount(vestingSchedule) */\n      jump\t// in\n    tag_296:\n        /* \"contracts/Sabai Vesting.sol\":9561:9625  uint256 vestedAmount = _computeReleasableAmount(vestingSchedule) */\n      swap1\n      pop\n        /* \"contracts/Sabai Vesting.sol\":9653:9654  0 */\n      0x00\n        /* \"contracts/Sabai Vesting.sol\":9638:9650  vestedAmount */\n      dup2\n        /* \"contracts/Sabai Vesting.sol\":9638:9654  vestedAmount > 0 */\n      gt\n        /* \"contracts/Sabai Vesting.sol\":9635:9720  if(vestedAmount > 0){... */\n      iszero\n      tag_297\n      jumpi\n        /* \"contracts/Sabai Vesting.sol\":9669:9709  release(vestingScheduleId, vestedAmount) */\n      tag_298\n        /* \"contracts/Sabai Vesting.sol\":9677:9694  vestingScheduleId */\n      dup5\n        /* \"contracts/Sabai Vesting.sol\":9696:9708  vestedAmount */\n      dup3\n        /* \"contracts/Sabai Vesting.sol\":9669:9676  release */\n      tag_69\n        /* \"contracts/Sabai Vesting.sol\":9669:9709  release(vestingScheduleId, vestedAmount) */\n      jump\t// in\n    tag_298:\n        /* \"contracts/Sabai Vesting.sol\":9635:9720  if(vestedAmount > 0){... */\n    tag_297:\n        /* \"contracts/Sabai Vesting.sol\":9729:9747  uint256 unreleased */\n      0x00\n        /* \"contracts/Sabai Vesting.sol\":9750:9807  vestingSchedule.amountTotal.sub(vestingSchedule.released) */\n      tag_299\n        /* \"contracts/Sabai Vesting.sol\":9782:9797  vestingSchedule */\n      dup4\n        /* \"contracts/Sabai Vesting.sol\":9782:9806  vestingSchedule.released */\n      0x07\n      add\n      sload\n        /* \"contracts/Sabai Vesting.sol\":9750:9765  vestingSchedule */\n      dup5\n        /* \"contracts/Sabai Vesting.sol\":9750:9777  vestingSchedule.amountTotal */\n      0x06\n      add\n      sload\n        /* \"contracts/Sabai Vesting.sol\":9750:9781  vestingSchedule.amountTotal.sub */\n      tag_261\n      swap1\n        /* \"contracts/Sabai Vesting.sol\":9750:9807  vestingSchedule.amountTotal.sub(vestingSchedule.released) */\n      swap2\n      swap1\n      0xffffffff\n      and\n      jump\t// in\n    tag_299:\n        /* \"contracts/Sabai Vesting.sol\":9729:9807  uint256 unreleased = vestingSchedule.amountTotal.sub(vestingSchedule.released) */\n      swap1\n      pop\n        /* \"contracts/Sabai Vesting.sol\":9847:9890  vestingSchedulesTotalAmount.sub(unreleased) */\n      tag_300\n        /* \"contracts/Sabai Vesting.sol\":9879:9889  unreleased */\n      dup2\n        /* \"contracts/Sabai Vesting.sol\":9847:9874  vestingSchedulesTotalAmount */\n      sload(0x04)\n        /* \"contracts/Sabai Vesting.sol\":9847:9878  vestingSchedulesTotalAmount.sub */\n      tag_261\n      swap1\n        /* \"contracts/Sabai Vesting.sol\":9847:9890  vestingSchedulesTotalAmount.sub(unreleased) */\n      swap2\n      swap1\n      0xffffffff\n      and\n      jump\t// in\n    tag_300:\n        /* \"contracts/Sabai Vesting.sol\":9817:9844  vestingSchedulesTotalAmount */\n      0x04\n        /* \"contracts/Sabai Vesting.sol\":9817:9890  vestingSchedulesTotalAmount = vestingSchedulesTotalAmount.sub(unreleased) */\n      dup2\n      swap1\n      sstore\n      pop\n        /* \"contracts/Sabai Vesting.sol\":9926:9930  true */\n      0x01\n        /* \"contracts/Sabai Vesting.sol\":9900:9915  vestingSchedule */\n      dup4\n        /* \"contracts/Sabai Vesting.sol\":9900:9923  vestingSchedule.revoked */\n      0x08\n      add\n      0x00\n        /* \"contracts/Sabai Vesting.sol\":9900:9930  vestingSchedule.revoked = true */\n      0x0100\n      exp\n      dup2\n      sload\n      dup2\n      0xff\n      mul\n      not\n      and\n      swap1\n      dup4\n      iszero\n      iszero\n      mul\n      or\n      swap1\n      sstore\n      pop\n        /* \"contracts/Sabai Vesting.sol\":9370:9937  {... */\n      pop\n      pop\n      pop\n        /* \"@openzeppelin/contracts/access/Ownable.sol\":1117:1118  _ */\n      pop\n        /* \"contracts/Sabai Vesting.sol\":9236:9937  function revoke(bytes32 vestingScheduleId)... */\n      pop\n      jump\t// out\n        /* \"contracts/Sabai Vesting.sol\":11911:12234  function computeReleasableAmount(bytes32 vestingScheduleId)... */\n    tag_107:\n        /* \"contracts/Sabai Vesting.sol\":12074:12081  uint256 */\n      0x00\n        /* \"contracts/Sabai Vesting.sol\":12026:12043  vestingScheduleId */\n      dup2\n        /* \"contracts/Sabai Vesting.sol\":2177:2181  true */\n      0x01\n        /* \"contracts/Sabai Vesting.sol\":2126:2181  vestingSchedules[vestingScheduleId].initialized == true */\n      iszero\n      iszero\n        /* \"contracts/Sabai Vesting.sol\":2126:2142  vestingSchedules */\n      0x03\n        /* \"contracts/Sabai Vesting.sol\":2126:2161  vestingSchedules[vestingScheduleId] */\n      0x00\n        /* \"contracts/Sabai Vesting.sol\":2143:2160  vestingScheduleId */\n      dup4\n        /* \"contracts/Sabai Vesting.sol\":2126:2161  vestingSchedules[vestingScheduleId] */\n      dup2\n      mstore\n      0x20\n      add\n      swap1\n      dup2\n      mstore\n      0x20\n      add\n      0x00\n      keccak256\n        /* \"contracts/Sabai Vesting.sol\":2126:2173  vestingSchedules[vestingScheduleId].initialized */\n      0x00\n      add\n      0x00\n      swap1\n      sload\n      swap1\n      0x0100\n      exp\n      swap1\n      div\n      0xff\n      and\n        /* \"contracts/Sabai Vesting.sol\":2126:2181  vestingSchedules[vestingScheduleId].initialized == true */\n      iszero\n      iszero\n      eq\n        /* \"contracts/Sabai Vesting.sol\":2118:2182  require(vestingSchedules[vestingScheduleId].initialized == true) */\n      tag_302\n      jumpi\n      0x00\n      dup1\n      revert\n    tag_302:\n        /* \"contracts/Sabai Vesting.sol\":2247:2252  false */\n      0x00\n        /* \"contracts/Sabai Vesting.sol\":2200:2252  vestingSchedules[vestingScheduleId].revoked == false */\n      iszero\n      iszero\n        /* \"contracts/Sabai Vesting.sol\":2200:2216  vestingSchedules */\n      0x03\n        /* \"contracts/Sabai Vesting.sol\":2200:2235  vestingSchedules[vestingScheduleId] */\n      0x00\n        /* \"contracts/Sabai Vesting.sol\":2217:2234  vestingScheduleId */\n      dup4\n        /* \"contracts/Sabai Vesting.sol\":2200:2235  vestingSchedules[vestingScheduleId] */\n      dup2\n      mstore\n      0x20\n      add\n      swap1\n      dup2\n      mstore\n      0x20\n      add\n      0x00\n      keccak256\n        /* \"contracts/Sabai Vesting.sol\":2200:2243  vestingSchedules[vestingScheduleId].revoked */\n      0x08\n      add\n      0x00\n      swap1\n      sload\n      swap1\n      0x0100\n      exp\n      swap1\n      div\n      0xff\n      and\n        /* \"contracts/Sabai Vesting.sol\":2200:2252  vestingSchedules[vestingScheduleId].revoked == false */\n      iszero\n      iszero\n      eq\n        /* \"contracts/Sabai Vesting.sol\":2192:2253  require(vestingSchedules[vestingScheduleId].revoked == false) */\n      tag_303\n      jumpi\n      0x00\n      dup1\n      revert\n    tag_303:\n        /* \"contracts/Sabai Vesting.sol\":12092:12131  VestingSchedule storage vestingSchedule */\n      0x00\n        /* \"contracts/Sabai Vesting.sol\":12134:12150  vestingSchedules */\n      0x03\n        /* \"contracts/Sabai Vesting.sol\":12134:12169  vestingSchedules[vestingScheduleId] */\n      0x00\n        /* \"contracts/Sabai Vesting.sol\":12151:12168  vestingScheduleId */\n      dup6\n        /* \"contracts/Sabai Vesting.sol\":12134:12169  vestingSchedules[vestingScheduleId] */\n      dup2\n      mstore\n      0x20\n      add\n      swap1\n      dup2\n      mstore\n      0x20\n      add\n      0x00\n      keccak256\n        /* \"contracts/Sabai Vesting.sol\":12092:12169  VestingSchedule storage vestingSchedule = vestingSchedules[vestingScheduleId] */\n      swap1\n      pop\n        /* \"contracts/Sabai Vesting.sol\":12186:12227  _computeReleasableAmount(vestingSchedule) */\n      tag_305\n        /* \"contracts/Sabai Vesting.sol\":12211:12226  vestingSchedule */\n      dup2\n        /* \"contracts/Sabai Vesting.sol\":12186:12227  _computeReleasableAmount(vestingSchedule) */\n      mload(0x40)\n      dup1\n      0x0140\n      add\n      0x40\n      mstore\n      swap1\n      dup2\n      0x00\n      dup3\n      add\n      0x00\n      swap1\n      sload\n      swap1\n      0x0100\n      exp\n      swap1\n      div\n      0xff\n      and\n      iszero\n      iszero\n      iszero\n      iszero\n      dup2\n      mstore\n      0x20\n      add\n      0x00\n      dup3\n      add\n      0x01\n      swap1\n      sload\n      swap1\n      0x0100\n      exp\n      swap1\n      div\n      0xffffffffffffffffffffffffffffffffffffffff\n      and\n      0xffffffffffffffffffffffffffffffffffffffff\n      and\n      0xffffffffffffffffffffffffffffffffffffffff\n      and\n      dup2\n      mstore\n      0x20\n      add\n      0x01\n      dup3\n      add\n      sload\n      dup2\n      mstore\n      0x20\n      add\n      0x02\n      dup3\n      add\n      sload\n      dup2\n      mstore\n      0x20\n      add\n      0x03\n      dup3\n      add\n      sload\n      dup2\n      mstore\n      0x20\n      add\n      0x04\n      dup3\n      add\n      sload\n      dup2\n      mstore\n      0x20\n      add\n      0x05\n      dup3\n      add\n      0x00\n      swap1\n      sload\n      swap1\n      0x0100\n      exp\n      swap1\n      div\n      0xff\n      and\n      iszero\n      iszero\n      iszero\n      iszero\n      dup2\n      mstore\n      0x20\n      add\n      0x06\n      dup3\n      add\n      sload\n      dup2\n      mstore\n      0x20\n      add\n      0x07\n      dup3\n      add\n      sload\n      dup2\n      mstore\n      0x20\n      add\n      0x08\n      dup3\n      add\n      0x00\n      swap1\n      sload\n      swap1\n      0x0100\n      exp\n      swap1\n      div\n      0xff\n      and\n      iszero\n      iszero\n      iszero\n      iszero\n      dup2\n      mstore\n      pop\n      pop\n        /* \"contracts/Sabai Vesting.sol\":12186:12210  _computeReleasableAmount */\n      tag_255\n        /* \"contracts/Sabai Vesting.sol\":12186:12227  _computeReleasableAmount(vestingSchedule) */\n      jump\t// in\n    tag_305:\n        /* \"contracts/Sabai Vesting.sol\":12179:12227  return _computeReleasableAmount(vestingSchedule) */\n      swap3\n      pop\n      pop\n        /* \"contracts/Sabai Vesting.sol\":11911:12234  function computeReleasableAmount(bytes32 vestingScheduleId)... */\n      pop\n      swap2\n      swap1\n      pop\n      jump\t// out\n        /* \"@openzeppelin/contracts/access/Ownable.sol\":2081:2279  function transferOwnership(address newOwner) public virtual onlyOwner {... */\n    tag_112:\n        /* \"@openzeppelin/contracts/access/Ownable.sol\":1094:1107  _checkOwner() */\n      tag_307\n        /* \"@openzeppelin/contracts/access/Ownable.sol\":1094:1105  _checkOwner */\n      tag_131\n        /* \"@openzeppelin/contracts/access/Ownable.sol\":1094:1107  _checkOwner() */\n      jump\t// in\n    tag_307:\n        /* \"@openzeppelin/contracts/access/Ownable.sol\":2189:2190  0 */\n      0x00\n        /* \"@openzeppelin/contracts/access/Ownable.sol\":2169:2191  newOwner != address(0) */\n      0xffffffffffffffffffffffffffffffffffffffff\n      and\n        /* \"@openzeppelin/contracts/access/Ownable.sol\":2169:2177  newOwner */\n      dup2\n        /* \"@openzeppelin/contracts/access/Ownable.sol\":2169:2191  newOwner != address(0) */\n      0xffffffffffffffffffffffffffffffffffffffff\n      and\n      sub\n        /* \"@openzeppelin/contracts/access/Ownable.sol\":2161:2234  require(newOwner != address(0), \"Ownable: new owner is the zero address\") */\n      tag_309\n      jumpi\n      mload(0x40)\n      0x08c379a000000000000000000000000000000000000000000000000000000000\n      dup2\n      mstore\n      0x04\n      add\n      tag_310\n      swap1\n      tag_311\n      jump\t// in\n    tag_310:\n      mload(0x40)\n      dup1\n      swap2\n      sub\n      swap1\n      revert\n    tag_309:\n        /* \"@openzeppelin/contracts/access/Ownable.sol\":2244:2272  _transferOwnership(newOwner) */\n      tag_312\n        /* \"@openzeppelin/contracts/access/Ownable.sol\":2263:2271  newOwner */\n      dup2\n        /* \"@openzeppelin/contracts/access/Ownable.sol\":2244:2262  _transferOwnership */\n      tag_268\n        /* \"@openzeppelin/contracts/access/Ownable.sol\":2244:2272  _transferOwnership(newOwner) */\n      jump\t// in\n    tag_312:\n        /* \"@openzeppelin/contracts/access/Ownable.sol\":2081:2279  function transferOwnership(address newOwner) public virtual onlyOwner {... */\n      pop\n      jump\t// out\n        /* \"contracts/Sabai Vesting.sol\":3387:3621  function getVestingScheduleByAddressAndIndex(address holder, uint256 index)... */\n    tag_116:\n        /* \"contracts/Sabai Vesting.sol\":3497:3519  VestingSchedule memory */\n      tag_313\n      tag_270\n      jump\t// in\n    tag_313:\n        /* \"contracts/Sabai Vesting.sol\":3537:3614  getVestingSchedule(computeVestingScheduleIdForAddressAndIndex(holder, index)) */\n      tag_315\n        /* \"contracts/Sabai Vesting.sol\":3556:3613  computeVestingScheduleIdForAddressAndIndex(holder, index) */\n      tag_316\n        /* \"contracts/Sabai Vesting.sol\":3599:3605  holder */\n      dup5\n        /* \"contracts/Sabai Vesting.sol\":3607:3612  index */\n      dup5\n        /* \"contracts/Sabai Vesting.sol\":3556:3598  computeVestingScheduleIdForAddressAndIndex */\n      tag_83\n        /* \"contracts/Sabai Vesting.sol\":3556:3613  computeVestingScheduleIdForAddressAndIndex(holder, index) */\n      jump\t// in\n    tag_316:\n        /* \"contracts/Sabai Vesting.sol\":3537:3555  getVestingSchedule */\n      tag_98\n        /* \"contracts/Sabai Vesting.sol\":3537:3614  getVestingSchedule(computeVestingScheduleIdForAddressAndIndex(holder, index)) */\n      jump\t// in\n    tag_315:\n        /* \"contracts/Sabai Vesting.sol\":3530:3614  return getVestingSchedule(computeVestingScheduleIdForAddressAndIndex(holder, index)) */\n      swap1\n      pop\n        /* \"contracts/Sabai Vesting.sol\":3387:3621  function getVestingScheduleByAddressAndIndex(address holder, uint256 index)... */\n      swap3\n      swap2\n      pop\n      pop\n      jump\t// out\n        /* \"contracts/Sabai Vesting.sol\":12983:13201  function computeNextVestingScheduleIdForHolder(address holder)... */\n    tag_121:\n        /* \"contracts/Sabai Vesting.sol\":13090:13097  bytes32 */\n      0x00\n        /* \"contracts/Sabai Vesting.sol\":13115:13194  computeVestingScheduleIdForAddressAndIndex(holder, holdersVestingCount[holder]) */\n      tag_318\n        /* \"contracts/Sabai Vesting.sol\":13158:13164  holder */\n      dup3\n        /* \"contracts/Sabai Vesting.sol\":13166:13185  holdersVestingCount */\n      0x05\n        /* \"contracts/Sabai Vesting.sol\":13166:13193  holdersVestingCount[holder] */\n      0x00\n        /* \"contracts/Sabai Vesting.sol\":13186:13192  holder */\n      dup6\n        /* \"contracts/Sabai Vesting.sol\":13166:13193  holdersVestingCount[holder] */\n      0xffffffffffffffffffffffffffffffffffffffff\n      and\n      0xffffffffffffffffffffffffffffffffffffffff\n      and\n      dup2\n      mstore\n      0x20\n      add\n      swap1\n      dup2\n      mstore\n      0x20\n      add\n      0x00\n      keccak256\n      sload\n        /* \"contracts/Sabai Vesting.sol\":13115:13157  computeVestingScheduleIdForAddressAndIndex */\n      tag_83\n        /* \"contracts/Sabai Vesting.sol\":13115:13194  computeVestingScheduleIdForAddressAndIndex(holder, holdersVestingCount[holder]) */\n      jump\t// in\n    tag_318:\n        /* \"contracts/Sabai Vesting.sol\":13108:13194  return computeVestingScheduleIdForAddressAndIndex(holder, holdersVestingCount[holder]) */\n      swap1\n      pop\n        /* \"contracts/Sabai Vesting.sol\":12983:13201  function computeNextVestingScheduleIdForHolder(address holder)... */\n      swap2\n      swap1\n      pop\n      jump\t// out\n        /* \"contracts/Sabai Vesting.sol\":2998:3224  function getVestingIdAtIndex(uint256 index)... */\n    tag_126:\n        /* \"contracts/Sabai Vesting.sol\":3076:3083  bytes32 */\n      0x00\n        /* \"contracts/Sabai Vesting.sol\":3110:3136  getVestingSchedulesCount() */\n      tag_320\n        /* \"contracts/Sabai Vesting.sol\":3110:3134  getVestingSchedulesCount */\n      tag_32\n        /* \"contracts/Sabai Vesting.sol\":3110:3136  getVestingSchedulesCount() */\n      jump\t// in\n    tag_320:\n        /* \"contracts/Sabai Vesting.sol\":3102:3107  index */\n      dup3\n        /* \"contracts/Sabai Vesting.sol\":3102:3136  index < getVestingSchedulesCount() */\n      lt\n        /* \"contracts/Sabai Vesting.sol\":3094:3174  require(index < getVestingSchedulesCount(), \"TokenVesting: index out of bounds\") */\n      tag_321\n      jumpi\n      mload(0x40)\n      0x08c379a000000000000000000000000000000000000000000000000000000000\n      dup2\n      mstore\n      0x04\n      add\n      tag_322\n      swap1\n      tag_323\n      jump\t// in\n    tag_322:\n      mload(0x40)\n      dup1\n      swap2\n      sub\n      swap1\n      revert\n    tag_321:\n        /* \"contracts/Sabai Vesting.sol\":3191:3210  vestingSchedulesIds */\n      0x02\n        /* \"contracts/Sabai Vesting.sol\":3211:3216  index */\n      dup3\n        /* \"contracts/Sabai Vesting.sol\":3191:3217  vestingSchedulesIds[index] */\n      dup2\n      sload\n      dup2\n      lt\n      tag_324\n      jumpi\n      tag_325\n      tag_187\n      jump\t// in\n    tag_325:\n    tag_324:\n      swap1\n      0x00\n      mstore\n      keccak256(0x00, 0x20)\n      add\n      sload\n        /* \"contracts/Sabai Vesting.sol\":3184:3217  return vestingSchedulesIds[index] */\n      swap1\n      pop\n        /* \"contracts/Sabai Vesting.sol\":2998:3224  function getVestingIdAtIndex(uint256 index)... */\n      swap2\n      swap1\n      pop\n      jump\t// out\n        /* \"@openzeppelin/contracts/access/Ownable.sol\":1359:1489  function _checkOwner() internal view virtual {... */\n    tag_131:\n        /* \"@openzeppelin/contracts/access/Ownable.sol\":1433:1445  _msgSender() */\n      tag_328\n        /* \"@openzeppelin/contracts/access/Ownable.sol\":1433:1443  _msgSender */\n      tag_329\n        /* \"@openzeppelin/contracts/access/Ownable.sol\":1433:1445  _msgSender() */\n      jump\t// in\n    tag_328:\n        /* \"@openzeppelin/contracts/access/Ownable.sol\":1422:1445  owner() == _msgSender() */\n      0xffffffffffffffffffffffffffffffffffffffff\n      and\n        /* \"@openzeppelin/contracts/access/Ownable.sol\":1422:1429  owner() */\n      tag_330\n        /* \"@openzeppelin/contracts/access/Ownable.sol\":1422:1427  owner */\n      tag_88\n        /* \"@openzeppelin/contracts/access/Ownable.sol\":1422:1429  owner() */\n      jump\t// in\n    tag_330:\n        /* \"@openzeppelin/contracts/access/Ownable.sol\":1422:1445  owner() == _msgSender() */\n      0xffffffffffffffffffffffffffffffffffffffff\n      and\n      eq\n        /* \"@openzeppelin/contracts/access/Ownable.sol\":1414:1482  require(owner() == _msgSender(), \"Ownable: caller is not the owner\") */\n      tag_331\n      jumpi\n      mload(0x40)\n      0x08c379a000000000000000000000000000000000000000000000000000000000\n      dup2\n      mstore\n      0x04\n      add\n      tag_332\n      swap1\n      tag_333\n      jump\t// in\n    tag_332:\n      mload(0x40)\n      dup1\n      swap2\n      sub\n      swap1\n      revert\n    tag_331:\n        /* \"@openzeppelin/contracts/access/Ownable.sol\":1359:1489  function _checkOwner() internal view virtual {... */\n      jump\t// out\n        /* \"@openzeppelin/contracts/utils/math/SafeMath.sol\":2755:2851  function add(uint256 a, uint256 b) internal pure returns (uint256) {... */\n    tag_155:\n        /* \"@openzeppelin/contracts/utils/math/SafeMath.sol\":2813:2820  uint256 */\n      0x00\n        /* \"@openzeppelin/contracts/utils/math/SafeMath.sol\":2843:2844  b */\n      dup2\n        /* \"@openzeppelin/contracts/utils/math/SafeMath.sol\":2839:2840  a */\n      dup4\n        /* \"@openzeppelin/contracts/utils/math/SafeMath.sol\":2839:2844  a + b */\n      tag_335\n      swap2\n      swap1\n      tag_336\n      jump\t// in\n    tag_335:\n        /* \"@openzeppelin/contracts/utils/math/SafeMath.sol\":2832:2844  return a + b */\n      swap1\n      pop\n        /* \"@openzeppelin/contracts/utils/math/SafeMath.sol\":2755:2851  function add(uint256 a, uint256 b) internal pure returns (uint256) {... */\n      swap3\n      swap2\n      pop\n      pop\n      jump\t// out\n        /* \"@openzeppelin/contracts/security/ReentrancyGuard.sol\":2336:2623  function _nonReentrantBefore() private {... */\n    tag_162:\n        /* \"@openzeppelin/contracts/security/ReentrancyGuard.sol\":1759:1760  2 */\n      0x02\n        /* \"@openzeppelin/contracts/security/ReentrancyGuard.sol\":2468:2475  _status */\n      sload(0x01)\n        /* \"@openzeppelin/contracts/security/ReentrancyGuard.sol\":2468:2487  _status != _ENTERED */\n      sub\n        /* \"@openzeppelin/contracts/security/ReentrancyGuard.sol\":2460:2523  require(_status != _ENTERED, \"ReentrancyGuard: reentrant call\") */\n      tag_338\n      jumpi\n      mload(0x40)\n      0x08c379a000000000000000000000000000000000000000000000000000000000\n      dup2\n      mstore\n      0x04\n      add\n      tag_339\n      swap1\n      tag_340\n      jump\t// in\n    tag_339:\n      mload(0x40)\n      dup1\n      swap2\n      sub\n      swap1\n      revert\n    tag_338:\n        /* \"@openzeppelin/contracts/security/ReentrancyGuard.sol\":1759:1760  2 */\n      0x02\n        /* \"@openzeppelin/contracts/security/ReentrancyGuard.sol\":2598:2605  _status */\n      0x01\n        /* \"@openzeppelin/contracts/security/ReentrancyGuard.sol\":2598:2616  _status = _ENTERED */\n      dup2\n      swap1\n      sstore\n      pop\n        /* \"@openzeppelin/contracts/security/ReentrancyGuard.sol\":2336:2623  function _nonReentrantBefore() private {... */\n      jump\t// out\n        /* \"@openzeppelin/contracts/token/ERC20/utils/SafeERC20.sol\":763:968  function safeTransfer(... */\n    tag_174:\n        /* \"@openzeppelin/contracts/token/ERC20/utils/SafeERC20.sol\":875:961  _callOptionalReturn(token, abi.encodeWithSelector(token.transfer.selector, to, value)) */\n      tag_342\n        /* \"@openzeppelin/contracts/token/ERC20/utils/SafeERC20.sol\":895:900  token */\n      dup4\n        /* \"@openzeppelin/contracts/token/ERC20/utils/SafeERC20.sol\":925:948  token.transfer.selector */\n      shl(0xe0, 0xa9059cbb)\n        /* \"@openzeppelin/contracts/token/ERC20/utils/SafeERC20.sol\":950:952  to */\n      dup5\n        /* \"@openzeppelin/contracts/token/ERC20/utils/SafeERC20.sol\":954:959  value */\n      dup5\n        /* \"@openzeppelin/contracts/token/ERC20/utils/SafeERC20.sol\":902:960  abi.encodeWithSelector(token.transfer.selector, to, value) */\n      add(0x24, mload(0x40))\n      tag_343\n      swap3\n      swap2\n      swap1\n      tag_344\n      jump\t// in\n    tag_343:\n      mload(0x40)\n      0x20\n      dup2\n      dup4\n      sub\n      sub\n      dup2\n      mstore\n      swap1\n      0x40\n      mstore\n      swap1\n      not(0xffffffffffffffffffffffffffffffffffffffffffffffffffffffff)\n      and\n      0x20\n      dup3\n      add\n      dup1\n      mload\n      0xffffffffffffffffffffffffffffffffffffffffffffffffffffffff\n      dup4\n      dup2\n      dup4\n      and\n      or\n      dup4\n      mstore\n      pop\n      pop\n      pop\n      pop\n        /* \"@openzeppelin/contracts/token/ERC20/utils/SafeERC20.sol\":875:894  _callOptionalReturn */\n      tag_345\n        /* \"@openzeppelin/contracts/token/ERC20/utils/SafeERC20.sol\":875:961  _callOptionalReturn(token, abi.encodeWithSelector(token.transfer.selector, to, value)) */\n      jump\t// in\n    tag_342:\n        /* \"@openzeppelin/contracts/token/ERC20/utils/SafeERC20.sol\":763:968  function safeTransfer(... */\n      pop\n      pop\n      pop\n      jump\t// out\n        /* \"@openzeppelin/contracts/security/ReentrancyGuard.sol\":2629:2838  function _nonReentrantAfter() private {... */\n    tag_176:\n        /* \"@openzeppelin/contracts/security/ReentrancyGuard.sol\":1716:1717  1 */\n      0x01\n        /* \"@openzeppelin/contracts/security/ReentrancyGuard.sol\":2809:2816  _status */\n      dup1\n        /* \"@openzeppelin/contracts/security/ReentrancyGuard.sol\":2809:2831  _status = _NOT_ENTERED */\n      dup2\n      swap1\n      sstore\n      pop\n        /* \"@openzeppelin/contracts/security/ReentrancyGuard.sol\":2629:2838  function _nonReentrantAfter() private {... */\n      jump\t// out\n        /* \"contracts/Sabai Vesting.sol\":13990:14983  function _computeReleasableAmount(VestingSchedule memory vestingSchedule)... */\n    tag_255:\n        /* \"contracts/Sabai Vesting.sol\":14098:14105  uint256 */\n      0x00\n        /* \"contracts/Sabai Vesting.sol\":14116:14135  uint256 currentTime */\n      dup1\n        /* \"contracts/Sabai Vesting.sol\":14138:14154  getCurrentTime() */\n      tag_348\n        /* \"contracts/Sabai Vesting.sol\":14138:14152  getCurrentTime */\n      tag_349\n        /* \"contracts/Sabai Vesting.sol\":14138:14154  getCurrentTime() */\n      jump\t// in\n    tag_348:\n        /* \"contracts/Sabai Vesting.sol\":14116:14154  uint256 currentTime = getCurrentTime() */\n      swap1\n      pop\n        /* \"contracts/Sabai Vesting.sol\":14183:14198  vestingSchedule */\n      dup3\n        /* \"contracts/Sabai Vesting.sol\":14183:14204  vestingSchedule.cliff */\n      0x40\n      add\n      mload\n        /* \"contracts/Sabai Vesting.sol\":14169:14180  currentTime */\n      dup2\n        /* \"contracts/Sabai Vesting.sol\":14169:14204  currentTime < vestingSchedule.cliff */\n      lt\n        /* \"contracts/Sabai Vesting.sol\":14168:14240  (currentTime < vestingSchedule.cliff) || vestingSchedule.revoked == true */\n      dup1\n      tag_350\n      jumpi\n      pop\n        /* \"contracts/Sabai Vesting.sol\":14236:14240  true */\n      0x01\n        /* \"contracts/Sabai Vesting.sol\":14209:14240  vestingSchedule.revoked == true */\n      iszero\n      iszero\n        /* \"contracts/Sabai Vesting.sol\":14209:14224  vestingSchedule */\n      dup4\n        /* \"contracts/Sabai Vesting.sol\":14209:14232  vestingSchedule.revoked */\n      0x0120\n      add\n      mload\n        /* \"contracts/Sabai Vesting.sol\":14209:14240  vestingSchedule.revoked == true */\n      iszero\n      iszero\n      eq\n        /* \"contracts/Sabai Vesting.sol\":14168:14240  (currentTime < vestingSchedule.cliff) || vestingSchedule.revoked == true */\n    tag_350:\n        /* \"contracts/Sabai Vesting.sol\":14164:14977  if ((currentTime < vestingSchedule.cliff) || vestingSchedule.revoked == true) {... */\n      iszero\n      tag_351\n      jumpi\n        /* \"contracts/Sabai Vesting.sol\":14263:14264  0 */\n      0x00\n        /* \"contracts/Sabai Vesting.sol\":14256:14264  return 0 */\n      swap2\n      pop\n      pop\n      jump(tag_347)\n        /* \"contracts/Sabai Vesting.sol\":14164:14977  if ((currentTime < vestingSchedule.cliff) || vestingSchedule.revoked == true) {... */\n    tag_351:\n        /* \"contracts/Sabai Vesting.sol\":14300:14351  vestingSchedule.start.add(vestingSchedule.duration) */\n      tag_353\n        /* \"contracts/Sabai Vesting.sol\":14326:14341  vestingSchedule */\n      dup4\n        /* \"contracts/Sabai Vesting.sol\":14326:14350  vestingSchedule.duration */\n      0x80\n      add\n      mload\n        /* \"contracts/Sabai Vesting.sol\":14300:14315  vestingSchedule */\n      dup5\n        /* \"contracts/Sabai Vesting.sol\":14300:14321  vestingSchedule.start */\n      0x60\n      add\n      mload\n        /* \"contracts/Sabai Vesting.sol\":14300:14325  vestingSchedule.start.add */\n      tag_155\n      swap1\n        /* \"contracts/Sabai Vesting.sol\":14300:14351  vestingSchedule.start.add(vestingSchedule.duration) */\n      swap2\n      swap1\n      0xffffffff\n      and\n      jump\t// in\n    tag_353:\n        /* \"contracts/Sabai Vesting.sol\":14285:14296  currentTime */\n      dup2\n        /* \"contracts/Sabai Vesting.sol\":14285:14351  currentTime >= vestingSchedule.start.add(vestingSchedule.duration) */\n      lt\n        /* \"contracts/Sabai Vesting.sol\":14281:14977  if (currentTime >= vestingSchedule.start.add(vestingSchedule.duration)) {... */\n      tag_354\n      jumpi\n        /* \"contracts/Sabai Vesting.sol\":14374:14431  vestingSchedule.amountTotal.sub(vestingSchedule.released) */\n      tag_355\n        /* \"contracts/Sabai Vesting.sol\":14406:14421  vestingSchedule */\n      dup4\n        /* \"contracts/Sabai Vesting.sol\":14406:14430  vestingSchedule.released */\n      0x0100\n      add\n      mload\n        /* \"contracts/Sabai Vesting.sol\":14374:14389  vestingSchedule */\n      dup5\n        /* \"contracts/Sabai Vesting.sol\":14374:14401  vestingSchedule.amountTotal */\n      0xe0\n      add\n      mload\n        /* \"contracts/Sabai Vesting.sol\":14374:14405  vestingSchedule.amountTotal.sub */\n      tag_261\n      swap1\n        /* \"contracts/Sabai Vesting.sol\":14374:14431  vestingSchedule.amountTotal.sub(vestingSchedule.released) */\n      swap2\n      swap1\n      0xffffffff\n      and\n      jump\t// in\n    tag_355:\n        /* \"contracts/Sabai Vesting.sol\":14367:14431  return vestingSchedule.amountTotal.sub(vestingSchedule.released) */\n      swap2\n      pop\n      pop\n      jump(tag_347)\n        /* \"contracts/Sabai Vesting.sol\":14281:14977  if (currentTime >= vestingSchedule.start.add(vestingSchedule.duration)) {... */\n    tag_354:\n        /* \"contracts/Sabai Vesting.sol\":14462:14483  uint256 timeFromStart */\n      0x00\n        /* \"contracts/Sabai Vesting.sol\":14486:14524  currentTime.sub(vestingSchedule.start) */\n      tag_357\n        /* \"contracts/Sabai Vesting.sol\":14502:14517  vestingSchedule */\n      dup5\n        /* \"contracts/Sabai Vesting.sol\":14502:14523  vestingSchedule.start */\n      0x60\n      add\n      mload\n        /* \"contracts/Sabai Vesting.sol\":14486:14497  currentTime */\n      dup4\n        /* \"contracts/Sabai Vesting.sol\":14486:14501  currentTime.sub */\n      tag_261\n      swap1\n        /* \"contracts/Sabai Vesting.sol\":14486:14524  currentTime.sub(vestingSchedule.start) */\n      swap2\n      swap1\n      0xffffffff\n      and\n      jump\t// in\n    tag_357:\n        /* \"contracts/Sabai Vesting.sol\":14462:14524  uint256 timeFromStart = currentTime.sub(vestingSchedule.start) */\n      swap1\n      pop\n        /* \"contracts/Sabai Vesting.sol\":14538:14558  uint secondsPerSlice */\n      0x00\n        /* \"contracts/Sabai Vesting.sol\":14561:14576  vestingSchedule */\n      dup5\n        /* \"contracts/Sabai Vesting.sol\":14561:14595  vestingSchedule.slicePeriodSeconds */\n      0xa0\n      add\n      mload\n        /* \"contracts/Sabai Vesting.sol\":14538:14595  uint secondsPerSlice = vestingSchedule.slicePeriodSeconds */\n      swap1\n      pop\n        /* \"contracts/Sabai Vesting.sol\":14609:14635  uint256 vestedSlicePeriods */\n      0x00\n        /* \"contracts/Sabai Vesting.sol\":14638:14672  timeFromStart.div(secondsPerSlice) */\n      tag_358\n        /* \"contracts/Sabai Vesting.sol\":14656:14671  secondsPerSlice */\n      dup3\n        /* \"contracts/Sabai Vesting.sol\":14638:14651  timeFromStart */\n      dup5\n        /* \"contracts/Sabai Vesting.sol\":14638:14655  timeFromStart.div */\n      tag_359\n      swap1\n        /* \"contracts/Sabai Vesting.sol\":14638:14672  timeFromStart.div(secondsPerSlice) */\n      swap2\n      swap1\n      0xffffffff\n      and\n      jump\t// in\n    tag_358:\n        /* \"contracts/Sabai Vesting.sol\":14609:14672  uint256 vestedSlicePeriods = timeFromStart.div(secondsPerSlice) */\n      swap1\n      pop\n        /* \"contracts/Sabai Vesting.sol\":14686:14707  uint256 vestedSeconds */\n      0x00\n        /* \"contracts/Sabai Vesting.sol\":14710:14749  vestedSlicePeriods.mul(secondsPerSlice) */\n      tag_360\n        /* \"contracts/Sabai Vesting.sol\":14733:14748  secondsPerSlice */\n      dup4\n        /* \"contracts/Sabai Vesting.sol\":14710:14728  vestedSlicePeriods */\n      dup4\n        /* \"contracts/Sabai Vesting.sol\":14710:14732  vestedSlicePeriods.mul */\n      tag_361\n      swap1\n        /* \"contracts/Sabai Vesting.sol\":14710:14749  vestedSlicePeriods.mul(secondsPerSlice) */\n      swap2\n      swap1\n      0xffffffff\n      and\n      jump\t// in\n    tag_360:\n        /* \"contracts/Sabai Vesting.sol\":14686:14749  uint256 vestedSeconds = vestedSlicePeriods.mul(secondsPerSlice) */\n      swap1\n      pop\n        /* \"contracts/Sabai Vesting.sol\":14763:14783  uint256 vestedAmount */\n      0x00\n        /* \"contracts/Sabai Vesting.sol\":14786:14862  vestingSchedule.amountTotal.mul(vestedSeconds).div(vestingSchedule.duration) */\n      tag_362\n        /* \"contracts/Sabai Vesting.sol\":14837:14852  vestingSchedule */\n      dup9\n        /* \"contracts/Sabai Vesting.sol\":14837:14861  vestingSchedule.duration */\n      0x80\n      add\n      mload\n        /* \"contracts/Sabai Vesting.sol\":14786:14832  vestingSchedule.amountTotal.mul(vestedSeconds) */\n      tag_363\n        /* \"contracts/Sabai Vesting.sol\":14818:14831  vestedSeconds */\n      dup5\n        /* \"contracts/Sabai Vesting.sol\":14786:14801  vestingSchedule */\n      dup12\n        /* \"contracts/Sabai Vesting.sol\":14786:14813  vestingSchedule.amountTotal */\n      0xe0\n      add\n      mload\n        /* \"contracts/Sabai Vesting.sol\":14786:14817  vestingSchedule.amountTotal.mul */\n      tag_361\n      swap1\n        /* \"contracts/Sabai Vesting.sol\":14786:14832  vestingSchedule.amountTotal.mul(vestedSeconds) */\n      swap2\n      swap1\n      0xffffffff\n      and\n      jump\t// in\n    tag_363:\n        /* \"contracts/Sabai Vesting.sol\":14786:14836  vestingSchedule.amountTotal.mul(vestedSeconds).div */\n      tag_359\n      swap1\n        /* \"contracts/Sabai Vesting.sol\":14786:14862  vestingSchedule.amountTotal.mul(vestedSeconds).div(vestingSchedule.duration) */\n      swap2\n      swap1\n      0xffffffff\n      and\n      jump\t// in\n    tag_362:\n        /* \"contracts/Sabai Vesting.sol\":14763:14862  uint256 vestedAmount = vestingSchedule.amountTotal.mul(vestedSeconds).div(vestingSchedule.duration) */\n      swap1\n      pop\n        /* \"contracts/Sabai Vesting.sol\":14891:14933  vestedAmount.sub(vestingSchedule.released) */\n      tag_364\n        /* \"contracts/Sabai Vesting.sol\":14908:14923  vestingSchedule */\n      dup9\n        /* \"contracts/Sabai Vesting.sol\":14908:14932  vestingSchedule.released */\n      0x0100\n      add\n      mload\n        /* \"contracts/Sabai Vesting.sol\":14891:14903  vestedAmount */\n      dup3\n        /* \"contracts/Sabai Vesting.sol\":14891:14907  vestedAmount.sub */\n      tag_261\n      swap1\n        /* \"contracts/Sabai Vesting.sol\":14891:14933  vestedAmount.sub(vestingSchedule.released) */\n      swap2\n      swap1\n      0xffffffff\n      and\n      jump\t// in\n    tag_364:\n        /* \"contracts/Sabai Vesting.sol\":14876:14933  vestedAmount = vestedAmount.sub(vestingSchedule.released) */\n      swap1\n      pop\n        /* \"contracts/Sabai Vesting.sol\":14954:14966  vestedAmount */\n      dup1\n        /* \"contracts/Sabai Vesting.sol\":14947:14966  return vestedAmount */\n      swap7\n      pop\n      pop\n      pop\n      pop\n      pop\n      pop\n      pop\n        /* \"contracts/Sabai Vesting.sol\":13990:14983  function _computeReleasableAmount(VestingSchedule memory vestingSchedule)... */\n    tag_347:\n      swap2\n      swap1\n      pop\n      jump\t// out\n        /* \"@openzeppelin/contracts/utils/math/SafeMath.sol\":3122:3218  function sub(uint256 a, uint256 b) internal pure returns (uint256) {... */\n    tag_261:\n        /* \"@openzeppelin/contracts/utils/math/SafeMath.sol\":3180:3187  uint256 */\n      0x00\n        /* \"@openzeppelin/contracts/utils/math/SafeMath.sol\":3210:3211  b */\n      dup2\n        /* \"@openzeppelin/contracts/utils/math/SafeMath.sol\":3206:3207  a */\n      dup4\n        /* \"@openzeppelin/contracts/utils/math/SafeMath.sol\":3206:3211  a - b */\n      tag_366\n      swap2\n      swap1\n      tag_274\n      jump\t// in\n    tag_366:\n        /* \"@openzeppelin/contracts/utils/math/SafeMath.sol\":3199:3211  return a - b */\n      swap1\n      pop\n        /* \"@openzeppelin/contracts/utils/math/SafeMath.sol\":3122:3218  function sub(uint256 a, uint256 b) internal pure returns (uint256) {... */\n      swap3\n      swap2\n      pop\n      pop\n      jump\t// out\n        /* \"@openzeppelin/contracts/access/Ownable.sol\":2433:2620  function _transferOwnership(address newOwner) internal virtual {... */\n    tag_268:\n        /* \"@openzeppelin/contracts/access/Ownable.sol\":2506:2522  address oldOwner */\n      0x00\n        /* \"@openzeppelin/contracts/access/Ownable.sol\":2525:2531  _owner */\n      dup1\n      0x00\n      swap1\n      sload\n      swap1\n      0x0100\n      exp\n      swap1\n      div\n      0xffffffffffffffffffffffffffffffffffffffff\n      and\n        /* \"@openzeppelin/contracts/access/Ownable.sol\":2506:2531  address oldOwner = _owner */\n      swap1\n      pop\n        /* \"@openzeppelin/contracts/access/Ownable.sol\":2550:2558  newOwner */\n      dup2\n        /* \"@openzeppelin/contracts/access/Ownable.sol\":2541:2547  _owner */\n      0x00\n      dup1\n        /* \"@openzeppelin/contracts/access/Ownable.sol\":2541:2558  _owner = newOwner */\n      0x0100\n      exp\n      dup2\n      sload\n      dup2\n      0xffffffffffffffffffffffffffffffffffffffff\n      mul\n      not\n      and\n      swap1\n      dup4\n      0xffffffffffffffffffffffffffffffffffffffff\n      and\n      mul\n      or\n      swap1\n      sstore\n      pop\n        /* \"@openzeppelin/contracts/access/Ownable.sol\":2604:2612  newOwner */\n      dup2\n        /* \"@openzeppelin/contracts/access/Ownable.sol\":2573:2613  OwnershipTransferred(oldOwner, newOwner) */\n      0xffffffffffffffffffffffffffffffffffffffff\n      and\n        /* \"@openzeppelin/contracts/access/Ownable.sol\":2594:2602  oldOwner */\n      dup2\n        /* \"@openzeppelin/contracts/access/Ownable.sol\":2573:2613  OwnershipTransferred(oldOwner, newOwner) */\n      0xffffffffffffffffffffffffffffffffffffffff\n      and\n      0x8be0079c531659141344cd1fd0a4f28419497f9722a3daafe3b4186f6b6457e0\n      mload(0x40)\n      mload(0x40)\n      dup1\n      swap2\n      sub\n      swap1\n      log3\n        /* \"@openzeppelin/contracts/access/Ownable.sol\":2496:2620  {... */\n      pop\n        /* \"@openzeppelin/contracts/access/Ownable.sol\":2433:2620  function _transferOwnership(address newOwner) internal virtual {... */\n      pop\n      jump\t// out\n        /* \"@openzeppelin/contracts/utils/Context.sol\":640:736  function _msgSender() internal view virtual returns (address) {... */\n    tag_329:\n        /* \"@openzeppelin/contracts/utils/Context.sol\":693:700  address */\n      0x00\n        /* \"@openzeppelin/contracts/utils/Context.sol\":719:729  msg.sender */\n      caller\n        /* \"@openzeppelin/contracts/utils/Context.sol\":712:729  return msg.sender */\n      swap1\n      pop\n        /* \"@openzeppelin/contracts/utils/Context.sol\":640:736  function _msgSender() internal view virtual returns (address) {... */\n      swap1\n      jump\t// out\n        /* \"@openzeppelin/contracts/token/ERC20/utils/SafeERC20.sol\":3747:4453  function _callOptionalReturn(IERC20 token, bytes memory data) private {... */\n    tag_345:\n        /* \"@openzeppelin/contracts/token/ERC20/utils/SafeERC20.sol\":4166:4189  bytes memory returndata */\n      0x00\n        /* \"@openzeppelin/contracts/token/ERC20/utils/SafeERC20.sol\":4192:4261  address(token).functionCall(data, \"SafeERC20: low-level call failed\") */\n      tag_370\n        /* \"@openzeppelin/contracts/token/ERC20/utils/SafeERC20.sol\":4220:4224  data */\n      dup3\n        /* \"@openzeppelin/contracts/token/ERC20/utils/SafeERC20.sol\":4192:4261  address(token).functionCall(data, \"SafeERC20: low-level call failed\") */\n      mload(0x40)\n      dup1\n      0x40\n      add\n      0x40\n      mstore\n      dup1\n      0x20\n      dup2\n      mstore\n      0x20\n      add\n      0x5361666545524332303a206c6f772d6c6576656c2063616c6c206661696c6564\n      dup2\n      mstore\n      pop\n        /* \"@openzeppelin/contracts/token/ERC20/utils/SafeERC20.sol\":4200:4205  token */\n      dup6\n        /* \"@openzeppelin/contracts/token/ERC20/utils/SafeERC20.sol\":4192:4219  address(token).functionCall */\n      0xffffffffffffffffffffffffffffffffffffffff\n      and\n      tag_371\n      swap1\n        /* \"@openzeppelin/contracts/token/ERC20/utils/SafeERC20.sol\":4192:4261  address(token).functionCall(data, \"SafeERC20: low-level call failed\") */\n      swap3\n      swap2\n      swap1\n      0xffffffff\n      and\n      jump\t// in\n    tag_370:\n        /* \"@openzeppelin/contracts/token/ERC20/utils/SafeERC20.sol\":4166:4261  bytes memory returndata = address(token).functionCall(data, \"SafeERC20: low-level call failed\") */\n      swap1\n      pop\n        /* \"@openzeppelin/contracts/token/ERC20/utils/SafeERC20.sol\":4295:4296  0 */\n      0x00\n        /* \"@openzeppelin/contracts/token/ERC20/utils/SafeERC20.sol\":4275:4285  returndata */\n      dup2\n        /* \"@openzeppelin/contracts/token/ERC20/utils/SafeERC20.sol\":4275:4292  returndata.length */\n      mload\n        /* \"@openzeppelin/contracts/token/ERC20/utils/SafeERC20.sol\":4275:4296  returndata.length > 0 */\n      gt\n        /* \"@openzeppelin/contracts/token/ERC20/utils/SafeERC20.sol\":4271:4447  if (returndata.length > 0) {... */\n      iszero\n      tag_372\n      jumpi\n        /* \"@openzeppelin/contracts/token/ERC20/utils/SafeERC20.sol\":4370:4380  returndata */\n      dup1\n        /* \"@openzeppelin/contracts/token/ERC20/utils/SafeERC20.sol\":4359:4389  abi.decode(returndata, (bool)) */\n      dup1\n      0x20\n      add\n      swap1\n      mload\n      dup2\n      add\n      swap1\n      tag_373\n      swap2\n      swap1\n      tag_374\n      jump\t// in\n    tag_373:\n        /* \"@openzeppelin/contracts/token/ERC20/utils/SafeERC20.sol\":4351:4436  require(abi.decode(returndata, (bool)), \"SafeERC20: ERC20 operation did not succeed\") */\n      tag_375\n      jumpi\n      mload(0x40)\n      0x08c379a000000000000000000000000000000000000000000000000000000000\n      dup2\n      mstore\n      0x04\n      add\n      tag_376\n      swap1\n      tag_377\n      jump\t// in\n    tag_376:\n      mload(0x40)\n      dup1\n      swap2\n      sub\n      swap1\n      revert\n    tag_375:\n        /* \"@openzeppelin/contracts/token/ERC20/utils/SafeERC20.sol\":4271:4447  if (returndata.length > 0) {... */\n    tag_372:\n        /* \"@openzeppelin/contracts/token/ERC20/utils/SafeERC20.sol\":3817:4453  {... */\n      pop\n        /* \"@openzeppelin/contracts/token/ERC20/utils/SafeERC20.sol\":3747:4453  function _callOptionalReturn(IERC20 token, bytes memory data) private {... */\n      pop\n      pop\n      jump\t// out\n        /* \"contracts/Sabai Vesting.sol\":14989:15124  function getCurrentTime()... */\n    tag_349:\n        /* \"contracts/Sabai Vesting.sol\":15077:15084  uint256 */\n      0x00\n        /* \"contracts/Sabai Vesting.sol\":15102:15117  block.timestamp */\n      timestamp\n        /* \"contracts/Sabai Vesting.sol\":15095:15117  return block.timestamp */\n      swap1\n      pop\n        /* \"contracts/Sabai Vesting.sol\":14989:15124  function getCurrentTime()... */\n      swap1\n      jump\t// out\n        /* \"@openzeppelin/contracts/utils/math/SafeMath.sol\":3850:3946  function div(uint256 a, uint256 b) internal pure returns (uint256) {... */\n    tag_359:\n        /* \"@openzeppelin/contracts/utils/math/SafeMath.sol\":3908:3915  uint256 */\n      0x00\n        /* \"@openzeppelin/contracts/utils/math/SafeMath.sol\":3938:3939  b */\n      dup2\n        /* \"@openzeppelin/contracts/utils/math/SafeMath.sol\":3934:3935  a */\n      dup4\n        /* \"@openzeppelin/contracts/utils/math/SafeMath.sol\":3934:3939  a / b */\n      tag_380\n      swap2\n      swap1\n      tag_381\n      jump\t// in\n    tag_380:\n        /* \"@openzeppelin/contracts/utils/math/SafeMath.sol\":3927:3939  return a / b */\n      swap1\n      pop\n        /* \"@openzeppelin/contracts/utils/math/SafeMath.sol\":3850:3946  function div(uint256 a, uint256 b) internal pure returns (uint256) {... */\n      swap3\n      swap2\n      pop\n      pop\n      jump\t// out\n        /* \"@openzeppelin/contracts/utils/math/SafeMath.sol\":3465:3561  function mul(uint256 a, uint256 b) internal pure returns (uint256) {... */\n    tag_361:\n        /* \"@openzeppelin/contracts/utils/math/SafeMath.sol\":3523:3530  uint256 */\n      0x00\n        /* \"@openzeppelin/contracts/utils/math/SafeMath.sol\":3553:3554  b */\n      dup2\n        /* \"@openzeppelin/contracts/utils/math/SafeMath.sol\":3549:3550  a */\n      dup4\n        /* \"@openzeppelin/contracts/utils/math/SafeMath.sol\":3549:3554  a * b */\n      tag_383\n      swap2\n      swap1\n      tag_384\n      jump\t// in\n    tag_383:\n        /* \"@openzeppelin/contracts/utils/math/SafeMath.sol\":3542:3554  return a * b */\n      swap1\n      pop\n        /* \"@openzeppelin/contracts/utils/math/SafeMath.sol\":3465:3561  function mul(uint256 a, uint256 b) internal pure returns (uint256) {... */\n      swap3\n      swap2\n      pop\n      pop\n      jump\t// out\n        /* \"@openzeppelin/contracts/utils/Address.sol\":3873:4096  function functionCall(... */\n    tag_371:\n        /* \"@openzeppelin/contracts/utils/Address.sol\":4006:4018  bytes memory */\n      0x60\n        /* \"@openzeppelin/contracts/utils/Address.sol\":4037:4089  functionCallWithValue(target, data, 0, errorMessage) */\n      tag_386\n        /* \"@openzeppelin/contracts/utils/Address.sol\":4059:4065  target */\n      dup5\n        /* \"@openzeppelin/contracts/utils/Address.sol\":4067:4071  data */\n      dup5\n        /* \"@openzeppelin/contracts/utils/Address.sol\":4073:4074  0 */\n      0x00\n        /* \"@openzeppelin/contracts/utils/Address.sol\":4076:4088  errorMessage */\n      dup6\n        /* \"@openzeppelin/contracts/utils/Address.sol\":4037:4058  functionCallWithValue */\n      tag_387\n        /* \"@openzeppelin/contracts/utils/Address.sol\":4037:4089  functionCallWithValue(target, data, 0, errorMessage) */\n      jump\t// in\n    tag_386:\n        /* \"@openzeppelin/contracts/utils/Address.sol\":4030:4089  return functionCallWithValue(target, data, 0, errorMessage) */\n      swap1\n      pop\n        /* \"@openzeppelin/contracts/utils/Address.sol\":3873:4096  function functionCall(... */\n      swap4\n      swap3\n      pop\n      pop\n      pop\n      jump\t// out\n        /* \"@openzeppelin/contracts/utils/Address.sol\":4960:5406  function functionCallWithValue(... */\n    tag_387:\n        /* \"@openzeppelin/contracts/utils/Address.sol\":5125:5137  bytes memory */\n      0x60\n        /* \"@openzeppelin/contracts/utils/Address.sol\":5182:5187  value */\n      dup3\n        /* \"@openzeppelin/contracts/utils/Address.sol\":5157:5178  address(this).balance */\n      selfbalance\n        /* \"@openzeppelin/contracts/utils/Address.sol\":5157:5187  address(this).balance >= value */\n      lt\n      iszero\n        /* \"@openzeppelin/contracts/utils/Address.sol\":5149:5230  require(address(this).balance >= value, \"Address: insufficient balance for call\") */\n      tag_389\n      jumpi\n      mload(0x40)\n      0x08c379a000000000000000000000000000000000000000000000000000000000\n      dup2\n      mstore\n      0x04\n      add\n      tag_390\n      swap1\n      tag_391\n      jump\t// in\n    tag_390:\n      mload(0x40)\n      dup1\n      swap2\n      sub\n      swap1\n      revert\n    tag_389:\n        /* \"@openzeppelin/contracts/utils/Address.sol\":5241:5253  bool success */\n      0x00\n        /* \"@openzeppelin/contracts/utils/Address.sol\":5255:5278  bytes memory returndata */\n      dup1\n        /* \"@openzeppelin/contracts/utils/Address.sol\":5282:5288  target */\n      dup7\n        /* \"@openzeppelin/contracts/utils/Address.sol\":5282:5293  target.call */\n      0xffffffffffffffffffffffffffffffffffffffff\n      and\n        /* \"@openzeppelin/contracts/utils/Address.sol\":5301:5306  value */\n      dup6\n        /* \"@openzeppelin/contracts/utils/Address.sol\":5308:5312  data */\n      dup8\n        /* \"@openzeppelin/contracts/utils/Address.sol\":5282:5313  target.call{value: value}(data) */\n      mload(0x40)\n      tag_392\n      swap2\n      swap1\n      tag_393\n      jump\t// in\n    tag_392:\n      0x00\n      mload(0x40)\n      dup1\n      dup4\n      sub\n      dup2\n      dup6\n      dup8\n      gas\n      call\n      swap3\n      pop\n      pop\n      pop\n      returndatasize\n      dup1\n      0x00\n      dup2\n      eq\n      tag_396\n      jumpi\n      mload(0x40)\n      swap2\n      pop\n      and(add(returndatasize, 0x3f), not(0x1f))\n      dup3\n      add\n      0x40\n      mstore\n      returndatasize\n      dup3\n      mstore\n      returndatasize\n      0x00\n      0x20\n      dup5\n      add\n      returndatacopy\n      jump(tag_395)\n    tag_396:\n      0x60\n      swap2\n      pop\n    tag_395:\n      pop\n        /* \"@openzeppelin/contracts/utils/Address.sol\":5240:5313  (bool success, bytes memory returndata) = target.call{value: value}(data) */\n      swap2\n      pop\n      swap2\n      pop\n        /* \"@openzeppelin/contracts/utils/Address.sol\":5330:5399  verifyCallResultFromTarget(target, success, returndata, errorMessage) */\n      tag_397\n        /* \"@openzeppelin/contracts/utils/Address.sol\":5357:5363  target */\n      dup8\n        /* \"@openzeppelin/contracts/utils/Address.sol\":5365:5372  success */\n      dup4\n        /* \"@openzeppelin/contracts/utils/Address.sol\":5374:5384  returndata */\n      dup4\n        /* \"@openzeppelin/contracts/utils/Address.sol\":5386:5398  errorMessage */\n      dup8\n        /* \"@openzeppelin/contracts/utils/Address.sol\":5330:5356  verifyCallResultFromTarget */\n      tag_398\n        /* \"@openzeppelin/contracts/utils/Address.sol\":5330:5399  verifyCallResultFromTarget(target, success, returndata, errorMessage) */\n      jump\t// in\n    tag_397:\n        /* \"@openzeppelin/contracts/utils/Address.sol\":5323:5399  return verifyCallResultFromTarget(target, success, returndata, errorMessage) */\n      swap3\n      pop\n      pop\n      pop\n        /* \"@openzeppelin/contracts/utils/Address.sol\":4960:5406  function functionCallWithValue(... */\n      swap5\n      swap4\n      pop\n      pop\n      pop\n      pop\n      jump\t// out\n        /* \"@openzeppelin/contracts/utils/Address.sol\":7466:8094  function verifyCallResultFromTarget(... */\n    tag_398:\n        /* \"@openzeppelin/contracts/utils/Address.sol\":7646:7658  bytes memory */\n      0x60\n        /* \"@openzeppelin/contracts/utils/Address.sol\":7674:7681  success */\n      dup4\n        /* \"@openzeppelin/contracts/utils/Address.sol\":7670:8088  if (success) {... */\n      iszero\n      tag_400\n      jumpi\n        /* \"@openzeppelin/contracts/utils/Address.sol\":7722:7723  0 */\n      0x00\n        /* \"@openzeppelin/contracts/utils/Address.sol\":7701:7711  returndata */\n      dup4\n        /* \"@openzeppelin/contracts/utils/Address.sol\":7701:7718  returndata.length */\n      mload\n        /* \"@openzeppelin/contracts/utils/Address.sol\":7701:7723  returndata.length == 0 */\n      sub\n        /* \"@openzeppelin/contracts/utils/Address.sol\":7697:7983  if (returndata.length == 0) {... */\n      tag_401\n      jumpi\n        /* \"@openzeppelin/contracts/utils/Address.sol\":7916:7934  isContract(target) */\n      tag_402\n        /* \"@openzeppelin/contracts/utils/Address.sol\":7927:7933  target */\n      dup6\n        /* \"@openzeppelin/contracts/utils/Address.sol\":7916:7926  isContract */\n      tag_403\n        /* \"@openzeppelin/contracts/utils/Address.sol\":7916:7934  isContract(target) */\n      jump\t// in\n    tag_402:\n        /* \"@openzeppelin/contracts/utils/Address.sol\":7908:7968  require(isContract(target), \"Address: call to non-contract\") */\n      tag_404\n      jumpi\n      mload(0x40)\n      0x08c379a000000000000000000000000000000000000000000000000000000000\n      dup2\n      mstore\n      0x04\n      add\n      tag_405\n      swap1\n      tag_406\n      jump\t// in\n    tag_405:\n      mload(0x40)\n      dup1\n      swap2\n      sub\n      swap1\n      revert\n    tag_404:\n        /* \"@openzeppelin/contracts/utils/Address.sol\":7697:7983  if (returndata.length == 0) {... */\n    tag_401:\n        /* \"@openzeppelin/contracts/utils/Address.sol\":8003:8013  returndata */\n      dup3\n        /* \"@openzeppelin/contracts/utils/Address.sol\":7996:8013  return returndata */\n      swap1\n      pop\n      jump(tag_399)\n        /* \"@openzeppelin/contracts/utils/Address.sol\":7670:8088  if (success) {... */\n    tag_400:\n        /* \"@openzeppelin/contracts/utils/Address.sol\":8044:8077  _revert(returndata, errorMessage) */\n      tag_408\n        /* \"@openzeppelin/contracts/utils/Address.sol\":8052:8062  returndata */\n      dup4\n        /* \"@openzeppelin/contracts/utils/Address.sol\":8064:8076  errorMessage */\n      dup4\n        /* \"@openzeppelin/contracts/utils/Address.sol\":8044:8051  _revert */\n      tag_409\n        /* \"@openzeppelin/contracts/utils/Address.sol\":8044:8077  _revert(returndata, errorMessage) */\n      jump\t// in\n    tag_408:\n        /* \"@openzeppelin/contracts/utils/Address.sol\":7466:8094  function verifyCallResultFromTarget(... */\n    tag_399:\n      swap5\n      swap4\n      pop\n      pop\n      pop\n      pop\n      jump\t// out\n        /* \"@openzeppelin/contracts/utils/Address.sol\":1175:1495  function isContract(address account) internal view returns (bool) {... */\n    tag_403:\n        /* \"@openzeppelin/contracts/utils/Address.sol\":1235:1239  bool */\n      0x00\n        /* \"@openzeppelin/contracts/utils/Address.sol\":1487:1488  0 */\n      dup1\n        /* \"@openzeppelin/contracts/utils/Address.sol\":1465:1472  account */\n      dup3\n        /* \"@openzeppelin/contracts/utils/Address.sol\":1465:1484  account.code.length */\n      0xffffffffffffffffffffffffffffffffffffffff\n      and\n      extcodesize\n        /* \"@openzeppelin/contracts/utils/Address.sol\":1465:1488  account.code.length > 0 */\n      gt\n        /* \"@openzeppelin/contracts/utils/Address.sol\":1458:1488  return account.code.length > 0 */\n      swap1\n      pop\n        /* \"@openzeppelin/contracts/utils/Address.sol\":1175:1495  function isContract(address account) internal view returns (bool) {... */\n      swap2\n      swap1\n      pop\n      jump\t// out\n        /* \"@openzeppelin/contracts/utils/Address.sol\":8616:9156  function _revert(bytes memory returndata, string memory errorMessage) private pure {... */\n    tag_409:\n        /* \"@openzeppelin/contracts/utils/Address.sol\":8795:8796  0 */\n      0x00\n        /* \"@openzeppelin/contracts/utils/Address.sol\":8775:8785  returndata */\n      dup3\n        /* \"@openzeppelin/contracts/utils/Address.sol\":8775:8792  returndata.length */\n      mload\n        /* \"@openzeppelin/contracts/utils/Address.sol\":8775:8796  returndata.length > 0 */\n      gt\n        /* \"@openzeppelin/contracts/utils/Address.sol\":8771:9150  if (returndata.length > 0) {... */\n      iszero\n      tag_412\n      jumpi\n        /* \"@openzeppelin/contracts/utils/Address.sol\":9003:9013  returndata */\n      dup2\n        /* \"@openzeppelin/contracts/utils/Address.sol\":8997:9014  mload(returndata) */\n      mload\n        /* \"@openzeppelin/contracts/utils/Address.sol\":9059:9074  returndata_size */\n      dup1\n        /* \"@openzeppelin/contracts/utils/Address.sol\":9046:9056  returndata */\n      dup4\n        /* \"@openzeppelin/contracts/utils/Address.sol\":9042:9044  32 */\n      0x20\n        /* \"@openzeppelin/contracts/utils/Address.sol\":9038:9057  add(32, returndata) */\n      add\n        /* \"@openzeppelin/contracts/utils/Address.sol\":9031:9075  revert(add(32, returndata), returndata_size) */\n      revert\n        /* \"@openzeppelin/contracts/utils/Address.sol\":8771:9150  if (returndata.length > 0) {... */\n    tag_412:\n        /* \"@openzeppelin/contracts/utils/Address.sol\":9126:9138  errorMessage */\n      dup1\n        /* \"@openzeppelin/contracts/utils/Address.sol\":9119:9139  revert(errorMessage) */\n      mload(0x40)\n      0x08c379a000000000000000000000000000000000000000000000000000000000\n      dup2\n      mstore\n      0x04\n      add\n      tag_414\n      swap2\n      swap1\n      tag_415\n      jump\t// in\n    tag_414:\n      mload(0x40)\n      dup1\n      swap2\n      sub\n      swap1\n      revert\n    tag_270:\n      mload(0x40)\n      dup1\n      0x0140\n      add\n      0x40\n      mstore\n      dup1\n      iszero(iszero(0x00))\n      dup2\n      mstore\n      0x20\n      add\n      and(0xffffffffffffffffffffffffffffffffffffffff, 0x00)\n      dup2\n      mstore\n      0x20\n      add\n      0x00\n      dup2\n      mstore\n      0x20\n      add\n      0x00\n      dup2\n      mstore\n      0x20\n      add\n      0x00\n      dup2\n      mstore\n      0x20\n      add\n      0x00\n      dup2\n      mstore\n      0x20\n      add\n      iszero(iszero(0x00))\n      dup2\n      mstore\n      0x20\n      add\n      0x00\n      dup2\n      mstore\n      0x20\n      add\n      0x00\n      dup2\n      mstore\n      0x20\n      add\n      iszero(iszero(0x00))\n      dup2\n      mstore\n      pop\n      swap1\n      jump\t// out\n        /* \"#utility.yul\":7:84   */\n    tag_416:\n        /* \"#utility.yul\":44:51   */\n      0x00\n        /* \"#utility.yul\":73:78   */\n      dup2\n        /* \"#utility.yul\":62:78   */\n      swap1\n      pop\n        /* \"#utility.yul\":7:84   */\n      swap2\n      swap1\n      pop\n      jump\t// out\n        /* \"#utility.yul\":90:208   */\n    tag_417:\n        /* \"#utility.yul\":177:201   */\n      tag_502\n        /* \"#utility.yul\":195:200   */\n      dup2\n        /* \"#utility.yul\":177:201   */\n      tag_416\n      jump\t// in\n    tag_502:\n        /* \"#utility.yul\":172:175   */\n      dup3\n        /* \"#utility.yul\":165:202   */\n      mstore\n        /* \"#utility.yul\":90:208   */\n      pop\n      pop\n      jump\t// out\n        /* \"#utility.yul\":214:436   */\n    tag_34:\n        /* \"#utility.yul\":307:311   */\n      0x00\n        /* \"#utility.yul\":345:347   */\n      0x20\n        /* \"#utility.yul\":334:343   */\n      dup3\n        /* \"#utility.yul\":330:348   */\n      add\n        /* \"#utility.yul\":322:348   */\n      swap1\n      pop\n        /* \"#utility.yul\":358:429   */\n      tag_504\n        /* \"#utility.yul\":426:427   */\n      0x00\n        /* \"#utility.yul\":415:424   */\n      dup4\n        /* \"#utility.yul\":411:428   */\n      add\n        /* \"#utility.yul\":402:408   */\n      dup5\n        /* \"#utility.yul\":358:429   */\n      tag_417\n      jump\t// in\n    tag_504:\n        /* \"#utility.yul\":214:436   */\n      swap3\n      swap2\n      pop\n      pop\n      jump\t// out\n        /* \"#utility.yul\":442:517   */\n    tag_418:\n        /* \"#utility.yul\":475:481   */\n      0x00\n        /* \"#utility.yul\":508:510   */\n      0x40\n        /* \"#utility.yul\":502:511   */\n      mload\n        /* \"#utility.yul\":492:511   */\n      swap1\n      pop\n        /* \"#utility.yul\":442:517   */\n      swap1\n      jump\t// out\n        /* \"#utility.yul\":523:640   */\n    tag_419:\n        /* \"#utility.yul\":632:633   */\n      0x00\n        /* \"#utility.yul\":629:630   */\n      dup1\n        /* \"#utility.yul\":622:634   */\n      revert\n        /* \"#utility.yul\":646:763   */\n    tag_420:\n        /* \"#utility.yul\":755:756   */\n      0x00\n        /* \"#utility.yul\":752:753   */\n      dup1\n        /* \"#utility.yul\":745:757   */\n      revert\n        /* \"#utility.yul\":769:895   */\n    tag_421:\n        /* \"#utility.yul\":806:813   */\n      0x00\n        /* \"#utility.yul\":846:888   */\n      0xffffffffffffffffffffffffffffffffffffffff\n        /* \"#utility.yul\":839:844   */\n      dup3\n        /* \"#utility.yul\":835:889   */\n      and\n        /* \"#utility.yul\":824:889   */\n      swap1\n      pop\n        /* \"#utility.yul\":769:895   */\n      swap2\n      swap1\n      pop\n      jump\t// out\n        /* \"#utility.yul\":901:997   */\n    tag_422:\n        /* \"#utility.yul\":938:945   */\n      0x00\n        /* \"#utility.yul\":967:991   */\n      tag_510\n        /* \"#utility.yul\":985:990   */\n      dup3\n        /* \"#utility.yul\":967:991   */\n      tag_421\n      jump\t// in\n    tag_510:\n        /* \"#utility.yul\":956:991   */\n      swap1\n      pop\n        /* \"#utility.yul\":901:997   */\n      swap2\n      swap1\n      pop\n      jump\t// out\n        /* \"#utility.yul\":1003:1125   */\n    tag_423:\n        /* \"#utility.yul\":1076:1100   */\n      tag_512\n        /* \"#utility.yul\":1094:1099   */\n      dup2\n        /* \"#utility.yul\":1076:1100   */\n      tag_422\n      jump\t// in\n    tag_512:\n        /* \"#utility.yul\":1069:1074   */\n      dup2\n        /* \"#utility.yul\":1066:1101   */\n      eq\n        /* \"#utility.yul\":1056:1119   */\n      tag_513\n      jumpi\n        /* \"#utility.yul\":1115:1116   */\n      0x00\n        /* \"#utility.yul\":1112:1113   */\n      dup1\n        /* \"#utility.yul\":1105:1117   */\n      revert\n        /* \"#utility.yul\":1056:1119   */\n    tag_513:\n        /* \"#utility.yul\":1003:1125   */\n      pop\n      jump\t// out\n        /* \"#utility.yul\":1131:1270   */\n    tag_424:\n        /* \"#utility.yul\":1177:1182   */\n      0x00\n        /* \"#utility.yul\":1215:1221   */\n      dup2\n        /* \"#utility.yul\":1202:1222   */\n      calldataload\n        /* \"#utility.yul\":1193:1222   */\n      swap1\n      pop\n        /* \"#utility.yul\":1231:1264   */\n      tag_515\n        /* \"#utility.yul\":1258:1263   */\n      dup2\n        /* \"#utility.yul\":1231:1264   */\n      tag_423\n      jump\t// in\n    tag_515:\n        /* \"#utility.yul\":1131:1270   */\n      swap3\n      swap2\n      pop\n      pop\n      jump\t// out\n        /* \"#utility.yul\":1276:1398   */\n    tag_425:\n        /* \"#utility.yul\":1349:1373   */\n      tag_517\n        /* \"#utility.yul\":1367:1372   */\n      dup2\n        /* \"#utility.yul\":1349:1373   */\n      tag_416\n      jump\t// in\n    tag_517:\n        /* \"#utility.yul\":1342:1347   */\n      dup2\n        /* \"#utility.yul\":1339:1374   */\n      eq\n        /* \"#utility.yul\":1329:1392   */\n      tag_518\n      jumpi\n        /* \"#utility.yul\":1388:1389   */\n      0x00\n        /* \"#utility.yul\":1385:1386   */\n      dup1\n        /* \"#utility.yul\":1378:1390   */\n      revert\n        /* \"#utility.yul\":1329:1392   */\n    tag_518:\n        /* \"#utility.yul\":1276:1398   */\n      pop\n      jump\t// out\n        /* \"#utility.yul\":1404:1543   */\n    tag_426:\n        /* \"#utility.yul\":1450:1455   */\n      0x00\n        /* \"#utility.yul\":1488:1494   */\n      dup2\n        /* \"#utility.yul\":1475:1495   */\n      calldataload\n        /* \"#utility.yul\":1466:1495   */\n      swap1\n      pop\n        /* \"#utility.yul\":1504:1537   */\n      tag_520\n        /* \"#utility.yul\":1531:1536   */\n      dup2\n        /* \"#utility.yul\":1504:1537   */\n      tag_425\n      jump\t// in\n    tag_520:\n        /* \"#utility.yul\":1404:1543   */\n      swap3\n      swap2\n      pop\n      pop\n      jump\t// out\n        /* \"#utility.yul\":1549:1639   */\n    tag_427:\n        /* \"#utility.yul\":1583:1590   */\n      0x00\n        /* \"#utility.yul\":1626:1631   */\n      dup2\n        /* \"#utility.yul\":1619:1632   */\n      iszero\n        /* \"#utility.yul\":1612:1633   */\n      iszero\n        /* \"#utility.yul\":1601:1633   */\n      swap1\n      pop\n        /* \"#utility.yul\":1549:1639   */\n      swap2\n      swap1\n      pop\n      jump\t// out\n        /* \"#utility.yul\":1645:1761   */\n    tag_428:\n        /* \"#utility.yul\":1715:1736   */\n      tag_523\n        /* \"#utility.yul\":1730:1735   */\n      dup2\n        /* \"#utility.yul\":1715:1736   */\n      tag_427\n      jump\t// in\n    tag_523:\n        /* \"#utility.yul\":1708:1713   */\n      dup2\n        /* \"#utility.yul\":1705:1737   */\n      eq\n        /* \"#utility.yul\":1695:1755   */\n      tag_524\n      jumpi\n        /* \"#utility.yul\":1751:1752   */\n      0x00\n        /* \"#utility.yul\":1748:1749   */\n      dup1\n        /* \"#utility.yul\":1741:1753   */\n      revert\n        /* \"#utility.yul\":1695:1755   */\n    tag_524:\n        /* \"#utility.yul\":1645:1761   */\n      pop\n      jump\t// out\n        /* \"#utility.yul\":1767:1900   */\n    tag_429:\n        /* \"#utility.yul\":1810:1815   */\n      0x00\n        /* \"#utility.yul\":1848:1854   */\n      dup2\n        /* \"#utility.yul\":1835:1855   */\n      calldataload\n        /* \"#utility.yul\":1826:1855   */\n      swap1\n      pop\n        /* \"#utility.yul\":1864:1894   */\n      tag_526\n        /* \"#utility.yul\":1888:1893   */\n      dup2\n        /* \"#utility.yul\":1864:1894   */\n      tag_428\n      jump\t// in\n    tag_526:\n        /* \"#utility.yul\":1767:1900   */\n      swap3\n      swap2\n      pop\n      pop\n      jump\t// out\n        /* \"#utility.yul\":1906:3103   */\n    tag_38:\n        /* \"#utility.yul\":2016:2022   */\n      0x00\n        /* \"#utility.yul\":2024:2030   */\n      dup1\n        /* \"#utility.yul\":2032:2038   */\n      0x00\n        /* \"#utility.yul\":2040:2046   */\n      dup1\n        /* \"#utility.yul\":2048:2054   */\n      0x00\n        /* \"#utility.yul\":2056:2062   */\n      dup1\n        /* \"#utility.yul\":2064:2070   */\n      0x00\n        /* \"#utility.yul\":2113:2116   */\n      0xe0\n        /* \"#utility.yul\":2101:2110   */\n      dup9\n        /* \"#utility.yul\":2092:2099   */\n      dup11\n        /* \"#utility.yul\":2088:2111   */\n      sub\n        /* \"#utility.yul\":2084:2117   */\n      slt\n        /* \"#utility.yul\":2081:2201   */\n      iszero\n      tag_528\n      jumpi\n        /* \"#utility.yul\":2120:2199   */\n      tag_529\n      tag_419\n      jump\t// in\n    tag_529:\n        /* \"#utility.yul\":2081:2201   */\n    tag_528:\n        /* \"#utility.yul\":2240:2241   */\n      0x00\n        /* \"#utility.yul\":2265:2318   */\n      tag_530\n        /* \"#utility.yul\":2310:2317   */\n      dup11\n        /* \"#utility.yul\":2301:2307   */\n      dup3\n        /* \"#utility.yul\":2290:2299   */\n      dup12\n        /* \"#utility.yul\":2286:2308   */\n      add\n        /* \"#utility.yul\":2265:2318   */\n      tag_424\n      jump\t// in\n    tag_530:\n        /* \"#utility.yul\":2255:2318   */\n      swap8\n      pop\n        /* \"#utility.yul\":2211:2328   */\n      pop\n        /* \"#utility.yul\":2367:2369   */\n      0x20\n        /* \"#utility.yul\":2393:2446   */\n      tag_531\n        /* \"#utility.yul\":2438:2445   */\n      dup11\n        /* \"#utility.yul\":2429:2435   */\n      dup3\n        /* \"#utility.yul\":2418:2427   */\n      dup12\n        /* \"#utility.yul\":2414:2436   */\n      add\n        /* \"#utility.yul\":2393:2446   */\n      tag_426\n      jump\t// in\n    tag_531:\n        /* \"#utility.yul\":2383:2446   */\n      swap7\n      pop\n        /* \"#utility.yul\":2338:2456   */\n      pop\n        /* \"#utility.yul\":2495:2497   */\n      0x40\n        /* \"#utility.yul\":2521:2574   */\n      tag_532\n        /* \"#utility.yul\":2566:2573   */\n      dup11\n        /* \"#utility.yul\":2557:2563   */\n      dup3\n        /* \"#utility.yul\":2546:2555   */\n      dup12\n        /* \"#utility.yul\":2542:2564   */\n      add\n        /* \"#utility.yul\":2521:2574   */\n      tag_426\n      jump\t// in\n    tag_532:\n        /* \"#utility.yul\":2511:2574   */\n      swap6\n      pop\n        /* \"#utility.yul\":2466:2584   */\n      pop\n        /* \"#utility.yul\":2623:2625   */\n      0x60\n        /* \"#utility.yul\":2649:2702   */\n      tag_533\n        /* \"#utility.yul\":2694:2701   */\n      dup11\n        /* \"#utility.yul\":2685:2691   */\n      dup3\n        /* \"#utility.yul\":2674:2683   */\n      dup12\n        /* \"#utility.yul\":2670:2692   */\n      add\n        /* \"#utility.yul\":2649:2702   */\n      tag_426\n      jump\t// in\n    tag_533:\n        /* \"#utility.yul\":2639:2702   */\n      swap5\n      pop\n        /* \"#utility.yul\":2594:2712   */\n      pop\n        /* \"#utility.yul\":2751:2754   */\n      0x80\n        /* \"#utility.yul\":2778:2831   */\n      tag_534\n        /* \"#utility.yul\":2823:2830   */\n      dup11\n        /* \"#utility.yul\":2814:2820   */\n      dup3\n        /* \"#utility.yul\":2803:2812   */\n      dup12\n        /* \"#utility.yul\":2799:2821   */\n      add\n        /* \"#utility.yul\":2778:2831   */\n      tag_426\n      jump\t// in\n    tag_534:\n        /* \"#utility.yul\":2768:2831   */\n      swap4\n      pop\n        /* \"#utility.yul\":2722:2841   */\n      pop\n        /* \"#utility.yul\":2880:2883   */\n      0xa0\n        /* \"#utility.yul\":2907:2957   */\n      tag_535\n        /* \"#utility.yul\":2949:2956   */\n      dup11\n        /* \"#utility.yul\":2940:2946   */\n      dup3\n        /* \"#utility.yul\":2929:2938   */\n      dup12\n        /* \"#utility.yul\":2925:2947   */\n      add\n        /* \"#utility.yul\":2907:2957   */\n      tag_429\n      jump\t// in\n    tag_535:\n        /* \"#utility.yul\":2897:2957   */\n      swap3\n      pop\n        /* \"#utility.yul\":2851:2967   */\n      pop\n        /* \"#utility.yul\":3006:3009   */\n      0xc0\n        /* \"#utility.yul\":3033:3086   */\n      tag_536\n        /* \"#utility.yul\":3078:3085   */\n      dup11\n        /* \"#utility.yul\":3069:3075   */\n      dup3\n        /* \"#utility.yul\":3058:3067   */\n      dup12\n        /* \"#utility.yul\":3054:3076   */\n      add\n        /* \"#utility.yul\":3033:3086   */\n      tag_426\n      jump\t// in\n    tag_536:\n        /* \"#utility.yul\":3023:3086   */\n      swap2\n      pop\n        /* \"#utility.yul\":2977:3096   */\n      pop\n        /* \"#utility.yul\":1906:3103   */\n      swap3\n      swap6\n      swap9\n      swap2\n      swap5\n      swap8\n      pop\n      swap3\n      swap6\n      pop\n      jump\t// out\n        /* \"#utility.yul\":3109:3227   */\n    tag_430:\n        /* \"#utility.yul\":3196:3220   */\n      tag_538\n        /* \"#utility.yul\":3214:3219   */\n      dup2\n        /* \"#utility.yul\":3196:3220   */\n      tag_422\n      jump\t// in\n    tag_538:\n        /* \"#utility.yul\":3191:3194   */\n      dup3\n        /* \"#utility.yul\":3184:3221   */\n      mstore\n        /* \"#utility.yul\":3109:3227   */\n      pop\n      pop\n      jump\t// out\n        /* \"#utility.yul\":3233:3455   */\n    tag_44:\n        /* \"#utility.yul\":3326:3330   */\n      0x00\n        /* \"#utility.yul\":3364:3366   */\n      0x20\n        /* \"#utility.yul\":3353:3362   */\n      dup3\n        /* \"#utility.yul\":3349:3367   */\n      add\n        /* \"#utility.yul\":3341:3367   */\n      swap1\n      pop\n        /* \"#utility.yul\":3377:3448   */\n      tag_540\n        /* \"#utility.yul\":3445:3446   */\n      0x00\n        /* \"#utility.yul\":3434:3443   */\n      dup4\n        /* \"#utility.yul\":3430:3447   */\n      add\n        /* \"#utility.yul\":3421:3427   */\n      dup5\n        /* \"#utility.yul\":3377:3448   */\n      tag_430\n      jump\t// in\n    tag_540:\n        /* \"#utility.yul\":3233:3455   */\n      swap3\n      swap2\n      pop\n      pop\n      jump\t// out\n        /* \"#utility.yul\":3461:3790   */\n    tag_48:\n        /* \"#utility.yul\":3520:3526   */\n      0x00\n        /* \"#utility.yul\":3569:3571   */\n      0x20\n        /* \"#utility.yul\":3557:3566   */\n      dup3\n        /* \"#utility.yul\":3548:3555   */\n      dup5\n        /* \"#utility.yul\":3544:3567   */\n      sub\n        /* \"#utility.yul\":3540:3572   */\n      slt\n        /* \"#utility.yul\":3537:3656   */\n      iszero\n      tag_542\n      jumpi\n        /* \"#utility.yul\":3575:3654   */\n      tag_543\n      tag_419\n      jump\t// in\n    tag_543:\n        /* \"#utility.yul\":3537:3656   */\n    tag_542:\n        /* \"#utility.yul\":3695:3696   */\n      0x00\n        /* \"#utility.yul\":3720:3773   */\n      tag_544\n        /* \"#utility.yul\":3765:3772   */\n      dup5\n        /* \"#utility.yul\":3756:3762   */\n      dup3\n        /* \"#utility.yul\":3745:3754   */\n      dup6\n        /* \"#utility.yul\":3741:3763   */\n      add\n        /* \"#utility.yul\":3720:3773   */\n      tag_426\n      jump\t// in\n    tag_544:\n        /* \"#utility.yul\":3710:3773   */\n      swap2\n      pop\n        /* \"#utility.yul\":3666:3783   */\n      pop\n        /* \"#utility.yul\":3461:3790   */\n      swap3\n      swap2\n      pop\n      pop\n      jump\t// out\n        /* \"#utility.yul\":3796:4125   */\n    tag_57:\n        /* \"#utility.yul\":3855:3861   */\n      0x00\n        /* \"#utility.yul\":3904:3906   */\n      0x20\n        /* \"#utility.yul\":3892:3901   */\n      dup3\n        /* \"#utility.yul\":3883:3890   */\n      dup5\n        /* \"#utility.yul\":3879:3902   */\n      sub\n        /* \"#utility.yul\":3875:3907   */\n      slt\n        /* \"#utility.yul\":3872:3991   */\n      iszero\n      tag_546\n      jumpi\n        /* \"#utility.yul\":3910:3989   */\n      tag_547\n      tag_419\n      jump\t// in\n    tag_547:\n        /* \"#utility.yul\":3872:3991   */\n    tag_546:\n        /* \"#utility.yul\":4030:4031   */\n      0x00\n        /* \"#utility.yul\":4055:4108   */\n      tag_548\n        /* \"#utility.yul\":4100:4107   */\n      dup5\n        /* \"#utility.yul\":4091:4097   */\n      dup3\n        /* \"#utility.yul\":4080:4089   */\n      dup6\n        /* \"#utility.yul\":4076:4098   */\n      add\n        /* \"#utility.yul\":4055:4108   */\n      tag_424\n      jump\t// in\n    tag_548:\n        /* \"#utility.yul\":4045:4108   */\n      swap2\n      pop\n        /* \"#utility.yul\":4001:4118   */\n      pop\n        /* \"#utility.yul\":3796:4125   */\n      swap3\n      swap2\n      pop\n      pop\n      jump\t// out\n        /* \"#utility.yul\":4131:4248   */\n    tag_431:\n        /* \"#utility.yul\":4240:4241   */\n      0x00\n        /* \"#utility.yul\":4237:4238   */\n      dup1\n        /* \"#utility.yul\":4230:4242   */\n      revert\n        /* \"#utility.yul\":4254:4356   */\n    tag_432:\n        /* \"#utility.yul\":4295:4301   */\n      0x00\n        /* \"#utility.yul\":4346:4348   */\n      0x1f\n        /* \"#utility.yul\":4342:4349   */\n      not\n        /* \"#utility.yul\":4337:4339   */\n      0x1f\n        /* \"#utility.yul\":4330:4335   */\n      dup4\n        /* \"#utility.yul\":4326:4340   */\n      add\n        /* \"#utility.yul\":4322:4350   */\n      and\n        /* \"#utility.yul\":4312:4350   */\n      swap1\n      pop\n        /* \"#utility.yul\":4254:4356   */\n      swap2\n      swap1\n      pop\n      jump\t// out\n        /* \"#utility.yul\":4362:4542   */\n    tag_433:\n        /* \"#utility.yul\":4410:4487   */\n      0x4e487b7100000000000000000000000000000000000000000000000000000000\n        /* \"#utility.yul\":4407:4408   */\n      0x00\n        /* \"#utility.yul\":4400:4488   */\n      mstore\n        /* \"#utility.yul\":4507:4511   */\n      0x41\n        /* \"#utility.yul\":4504:4505   */\n      0x04\n        /* \"#utility.yul\":4497:4512   */\n      mstore\n        /* \"#utility.yul\":4531:4535   */\n      0x24\n        /* \"#utility.yul\":4528:4529   */\n      0x00\n        /* \"#utility.yul\":4521:4536   */\n      revert\n        /* \"#utility.yul\":4548:4829   */\n    tag_434:\n        /* \"#utility.yul\":4631:4658   */\n      tag_553\n        /* \"#utility.yul\":4653:4657   */\n      dup3\n        /* \"#utility.yul\":4631:4658   */\n      tag_432\n      jump\t// in\n    tag_553:\n        /* \"#utility.yul\":4623:4629   */\n      dup2\n        /* \"#utility.yul\":4619:4659   */\n      add\n        /* \"#utility.yul\":4761:4767   */\n      dup2\n        /* \"#utility.yul\":4749:4759   */\n      dup2\n        /* \"#utility.yul\":4746:4768   */\n      lt\n        /* \"#utility.yul\":4725:4743   */\n      0xffffffffffffffff\n        /* \"#utility.yul\":4713:4723   */\n      dup3\n        /* \"#utility.yul\":4710:4744   */\n      gt\n        /* \"#utility.yul\":4707:4769   */\n      or\n        /* \"#utility.yul\":4704:4792   */\n      iszero\n      tag_554\n      jumpi\n        /* \"#utility.yul\":4772:4790   */\n      tag_555\n      tag_433\n      jump\t// in\n    tag_555:\n        /* \"#utility.yul\":4704:4792   */\n    tag_554:\n        /* \"#utility.yul\":4812:4822   */\n      dup1\n        /* \"#utility.yul\":4808:4810   */\n      0x40\n        /* \"#utility.yul\":4801:4823   */\n      mstore\n        /* \"#utility.yul\":4591:4829   */\n      pop\n        /* \"#utility.yul\":4548:4829   */\n      pop\n      pop\n      jump\t// out\n        /* \"#utility.yul\":4835:4964   */\n    tag_435:\n        /* \"#utility.yul\":4869:4875   */\n      0x00\n        /* \"#utility.yul\":4896:4916   */\n      tag_557\n      tag_418\n      jump\t// in\n    tag_557:\n        /* \"#utility.yul\":4886:4916   */\n      swap1\n      pop\n        /* \"#utility.yul\":4925:4958   */\n      tag_558\n        /* \"#utility.yul\":4953:4957   */\n      dup3\n        /* \"#utility.yul\":4945:4951   */\n      dup3\n        /* \"#utility.yul\":4925:4958   */\n      tag_434\n      jump\t// in\n    tag_558:\n        /* \"#utility.yul\":4835:4964   */\n      swap2\n      swap1\n      pop\n      jump\t// out\n        /* \"#utility.yul\":4970:5318   */\n    tag_436:\n        /* \"#utility.yul\":5084:5088   */\n      0x00\n        /* \"#utility.yul\":5174:5192   */\n      0xffffffffffffffff\n        /* \"#utility.yul\":5166:5172   */\n      dup3\n        /* \"#utility.yul\":5163:5193   */\n      gt\n        /* \"#utility.yul\":5160:5216   */\n      iszero\n      tag_560\n      jumpi\n        /* \"#utility.yul\":5196:5214   */\n      tag_561\n      tag_433\n      jump\t// in\n    tag_561:\n        /* \"#utility.yul\":5160:5216   */\n    tag_560:\n        /* \"#utility.yul\":5246:5250   */\n      0x20\n        /* \"#utility.yul\":5238:5244   */\n      dup3\n        /* \"#utility.yul\":5234:5251   */\n      mul\n        /* \"#utility.yul\":5226:5251   */\n      swap1\n      pop\n        /* \"#utility.yul\":5306:5310   */\n      0x20\n        /* \"#utility.yul\":5300:5304   */\n      dup2\n        /* \"#utility.yul\":5296:5311   */\n      add\n        /* \"#utility.yul\":5288:5311   */\n      swap1\n      pop\n        /* \"#utility.yul\":4970:5318   */\n      swap2\n      swap1\n      pop\n      jump\t// out\n        /* \"#utility.yul\":5324:5441   */\n    tag_437:\n        /* \"#utility.yul\":5433:5434   */\n      0x00\n        /* \"#utility.yul\":5430:5431   */\n      dup1\n        /* \"#utility.yul\":5423:5435   */\n      revert\n        /* \"#utility.yul\":5447:5564   */\n    tag_438:\n        /* \"#utility.yul\":5556:5557   */\n      0x00\n        /* \"#utility.yul\":5553:5554   */\n      dup1\n        /* \"#utility.yul\":5546:5558   */\n      revert\n        /* \"#utility.yul\":5740:7165   */\n    tag_440:\n        /* \"#utility.yul\":5826:5831   */\n      0x00\n        /* \"#utility.yul\":5870:5874   */\n      0xe0\n        /* \"#utility.yul\":5858:5867   */\n      dup3\n        /* \"#utility.yul\":5853:5856   */\n      dup5\n        /* \"#utility.yul\":5849:5868   */\n      sub\n        /* \"#utility.yul\":5845:5875   */\n      slt\n        /* \"#utility.yul\":5842:5959   */\n      iszero\n      tag_566\n      jumpi\n        /* \"#utility.yul\":5878:5957   */\n      tag_567\n      tag_438\n      jump\t// in\n    tag_567:\n        /* \"#utility.yul\":5842:5959   */\n    tag_566:\n        /* \"#utility.yul\":5977:5998   */\n      tag_568\n        /* \"#utility.yul\":5993:5997   */\n      0xe0\n        /* \"#utility.yul\":5977:5998   */\n      tag_435\n      jump\t// in\n    tag_568:\n        /* \"#utility.yul\":5968:5998   */\n      swap1\n      pop\n        /* \"#utility.yul\":6064:6065   */\n      0x00\n        /* \"#utility.yul\":6104:6153   */\n      tag_569\n        /* \"#utility.yul\":6149:6152   */\n      dup5\n        /* \"#utility.yul\":6140:6146   */\n      dup3\n        /* \"#utility.yul\":6129:6138   */\n      dup6\n        /* \"#utility.yul\":6125:6147   */\n      add\n        /* \"#utility.yul\":6104:6153   */\n      tag_424\n      jump\t// in\n    tag_569:\n        /* \"#utility.yul\":6097:6101   */\n      0x00\n        /* \"#utility.yul\":6090:6095   */\n      dup4\n        /* \"#utility.yul\":6086:6102   */\n      add\n        /* \"#utility.yul\":6079:6154   */\n      mstore\n        /* \"#utility.yul\":6008:6165   */\n      pop\n        /* \"#utility.yul\":6225:6227   */\n      0x20\n        /* \"#utility.yul\":6266:6315   */\n      tag_570\n        /* \"#utility.yul\":6311:6314   */\n      dup5\n        /* \"#utility.yul\":6302:6308   */\n      dup3\n        /* \"#utility.yul\":6291:6300   */\n      dup6\n        /* \"#utility.yul\":6287:6309   */\n      add\n        /* \"#utility.yul\":6266:6315   */\n      tag_426\n      jump\t// in\n    tag_570:\n        /* \"#utility.yul\":6259:6263   */\n      0x20\n        /* \"#utility.yul\":6252:6257   */\n      dup4\n        /* \"#utility.yul\":6248:6264   */\n      add\n        /* \"#utility.yul\":6241:6316   */\n      mstore\n        /* \"#utility.yul\":6175:6327   */\n      pop\n        /* \"#utility.yul\":6387:6389   */\n      0x40\n        /* \"#utility.yul\":6428:6477   */\n      tag_571\n        /* \"#utility.yul\":6473:6476   */\n      dup5\n        /* \"#utility.yul\":6464:6470   */\n      dup3\n        /* \"#utility.yul\":6453:6462   */\n      dup6\n        /* \"#utility.yul\":6449:6471   */\n      add\n        /* \"#utility.yul\":6428:6477   */\n      tag_426\n      jump\t// in\n    tag_571:\n        /* \"#utility.yul\":6421:6425   */\n      0x40\n        /* \"#utility.yul\":6414:6419   */\n      dup4\n        /* \"#utility.yul\":6410:6426   */\n      add\n        /* \"#utility.yul\":6403:6478   */\n      mstore\n        /* \"#utility.yul\":6337:6489   */\n      pop\n        /* \"#utility.yul\":6552:6554   */\n      0x60\n        /* \"#utility.yul\":6593:6642   */\n      tag_572\n        /* \"#utility.yul\":6638:6641   */\n      dup5\n        /* \"#utility.yul\":6629:6635   */\n      dup3\n        /* \"#utility.yul\":6618:6627   */\n      dup6\n        /* \"#utility.yul\":6614:6636   */\n      add\n        /* \"#utility.yul\":6593:6642   */\n      tag_426\n      jump\t// in\n    tag_572:\n        /* \"#utility.yul\":6586:6590   */\n      0x60\n        /* \"#utility.yul\":6579:6584   */\n      dup4\n        /* \"#utility.yul\":6575:6591   */\n      add\n        /* \"#utility.yul\":6568:6643   */\n      mstore\n        /* \"#utility.yul\":6499:6654   */\n      pop\n        /* \"#utility.yul\":6727:6730   */\n      0x80\n        /* \"#utility.yul\":6769:6818   */\n      tag_573\n        /* \"#utility.yul\":6814:6817   */\n      dup5\n        /* \"#utility.yul\":6805:6811   */\n      dup3\n        /* \"#utility.yul\":6794:6803   */\n      dup6\n        /* \"#utility.yul\":6790:6812   */\n      add\n        /* \"#utility.yul\":6769:6818   */\n      tag_426\n      jump\t// in\n    tag_573:\n        /* \"#utility.yul\":6762:6766   */\n      0x80\n        /* \"#utility.yul\":6755:6760   */\n      dup4\n        /* \"#utility.yul\":6751:6767   */\n      add\n        /* \"#utility.yul\":6744:6819   */\n      mstore\n        /* \"#utility.yul\":6664:6830   */\n      pop\n        /* \"#utility.yul\":6894:6897   */\n      0xa0\n        /* \"#utility.yul\":6936:6982   */\n      tag_574\n        /* \"#utility.yul\":6978:6981   */\n      dup5\n        /* \"#utility.yul\":6969:6975   */\n      dup3\n        /* \"#utility.yul\":6958:6967   */\n      dup6\n        /* \"#utility.yul\":6954:6976   */\n      add\n        /* \"#utility.yul\":6936:6982   */\n      tag_429\n      jump\t// in\n    tag_574:\n        /* \"#utility.yul\":6929:6933   */\n      0xa0\n        /* \"#utility.yul\":6922:6927   */\n      dup4\n        /* \"#utility.yul\":6918:6934   */\n      add\n        /* \"#utility.yul\":6911:6983   */\n      mstore\n        /* \"#utility.yul\":6840:6994   */\n      pop\n        /* \"#utility.yul\":7055:7058   */\n      0xc0\n        /* \"#utility.yul\":7097:7146   */\n      tag_575\n        /* \"#utility.yul\":7142:7145   */\n      dup5\n        /* \"#utility.yul\":7133:7139   */\n      dup3\n        /* \"#utility.yul\":7122:7131   */\n      dup6\n        /* \"#utility.yul\":7118:7140   */\n      add\n        /* \"#utility.yul\":7097:7146   */\n      tag_426\n      jump\t// in\n    tag_575:\n        /* \"#utility.yul\":7090:7094   */\n      0xc0\n        /* \"#utility.yul\":7083:7088   */\n      dup4\n        /* \"#utility.yul\":7079:7095   */\n      add\n        /* \"#utility.yul\":7072:7147   */\n      mstore\n        /* \"#utility.yul\":7004:7158   */\n      pop\n        /* \"#utility.yul\":5740:7165   */\n      swap3\n      swap2\n      pop\n      pop\n      jump\t// out\n        /* \"#utility.yul\":7220:8041   */\n    tag_441:\n        /* \"#utility.yul\":7353:7358   */\n      0x00\n        /* \"#utility.yul\":7378:7496   */\n      tag_577\n        /* \"#utility.yul\":7394:7495   */\n      tag_578\n        /* \"#utility.yul\":7488:7494   */\n      dup5\n        /* \"#utility.yul\":7394:7495   */\n      tag_436\n      jump\t// in\n    tag_578:\n        /* \"#utility.yul\":7378:7496   */\n      tag_435\n      jump\t// in\n    tag_577:\n        /* \"#utility.yul\":7369:7496   */\n      swap1\n      pop\n        /* \"#utility.yul\":7516:7521   */\n      dup1\n        /* \"#utility.yul\":7545:7551   */\n      dup4\n        /* \"#utility.yul\":7538:7543   */\n      dup3\n        /* \"#utility.yul\":7531:7552   */\n      mstore\n        /* \"#utility.yul\":7579:7583   */\n      0x20\n        /* \"#utility.yul\":7572:7577   */\n      dup3\n        /* \"#utility.yul\":7568:7584   */\n      add\n        /* \"#utility.yul\":7561:7584   */\n      swap1\n      pop\n        /* \"#utility.yul\":7632:7636   */\n      0xe0\n        /* \"#utility.yul\":7624:7630   */\n      dup5\n        /* \"#utility.yul\":7620:7637   */\n      mul\n        /* \"#utility.yul\":7612:7618   */\n      dup4\n        /* \"#utility.yul\":7608:7638   */\n      add\n        /* \"#utility.yul\":7661:7664   */\n      dup6\n        /* \"#utility.yul\":7653:7659   */\n      dup2\n        /* \"#utility.yul\":7650:7665   */\n      gt\n        /* \"#utility.yul\":7647:7769   */\n      iszero\n      tag_579\n      jumpi\n        /* \"#utility.yul\":7680:7759   */\n      tag_580\n      tag_437\n      jump\t// in\n    tag_580:\n        /* \"#utility.yul\":7647:7769   */\n    tag_579:\n        /* \"#utility.yul\":7795:7801   */\n      dup4\n        /* \"#utility.yul\":7778:8035   */\n    tag_581:\n        /* \"#utility.yul\":7812:7818   */\n      dup2\n        /* \"#utility.yul\":7807:7810   */\n      dup2\n        /* \"#utility.yul\":7804:7819   */\n      lt\n        /* \"#utility.yul\":7778:8035   */\n      iszero\n      tag_583\n      jumpi\n        /* \"#utility.yul\":7887:7890   */\n      dup1\n        /* \"#utility.yul\":7916:7990   */\n      tag_584\n        /* \"#utility.yul\":7986:7989   */\n      dup9\n        /* \"#utility.yul\":7974:7984   */\n      dup3\n        /* \"#utility.yul\":7916:7990   */\n      tag_440\n      jump\t// in\n    tag_584:\n        /* \"#utility.yul\":7911:7914   */\n      dup5\n        /* \"#utility.yul\":7904:7991   */\n      mstore\n        /* \"#utility.yul\":8020:8024   */\n      0x20\n        /* \"#utility.yul\":8015:8018   */\n      dup5\n        /* \"#utility.yul\":8011:8025   */\n      add\n        /* \"#utility.yul\":8004:8025   */\n      swap4\n      pop\n        /* \"#utility.yul\":7854:8035   */\n      pop\n        /* \"#utility.yul\":7838:7842   */\n      0xe0\n        /* \"#utility.yul\":7833:7836   */\n      dup2\n        /* \"#utility.yul\":7829:7843   */\n      add\n        /* \"#utility.yul\":7822:7843   */\n      swap1\n      pop\n        /* \"#utility.yul\":7778:8035   */\n      jump(tag_581)\n    tag_583:\n        /* \"#utility.yul\":7782:7803   */\n      pop\n        /* \"#utility.yul\":7359:8041   */\n      pop\n      pop\n        /* \"#utility.yul\":7220:8041   */\n      swap4\n      swap3\n      pop\n      pop\n      pop\n      jump\t// out\n        /* \"#utility.yul\":8096:8540   */\n    tag_442:\n        /* \"#utility.yul\":8204:8209   */\n      0x00\n        /* \"#utility.yul\":8253:8256   */\n      dup3\n        /* \"#utility.yul\":8246:8250   */\n      0x1f\n        /* \"#utility.yul\":8238:8244   */\n      dup4\n        /* \"#utility.yul\":8234:8251   */\n      add\n        /* \"#utility.yul\":8230:8257   */\n      slt\n        /* \"#utility.yul\":8220:8342   */\n      tag_586\n      jumpi\n        /* \"#utility.yul\":8261:8340   */\n      tag_587\n      tag_431\n      jump\t// in\n    tag_587:\n        /* \"#utility.yul\":8220:8342   */\n    tag_586:\n        /* \"#utility.yul\":8378:8384   */\n      dup2\n        /* \"#utility.yul\":8365:8385   */\n      calldataload\n        /* \"#utility.yul\":8403:8534   */\n      tag_588\n        /* \"#utility.yul\":8530:8533   */\n      dup5\n        /* \"#utility.yul\":8522:8528   */\n      dup3\n        /* \"#utility.yul\":8515:8519   */\n      0x20\n        /* \"#utility.yul\":8507:8513   */\n      dup7\n        /* \"#utility.yul\":8503:8520   */\n      add\n        /* \"#utility.yul\":8403:8534   */\n      tag_441\n      jump\t// in\n    tag_588:\n        /* \"#utility.yul\":8394:8534   */\n      swap2\n      pop\n        /* \"#utility.yul\":8210:8540   */\n      pop\n        /* \"#utility.yul\":8096:8540   */\n      swap3\n      swap2\n      pop\n      pop\n      jump\t// out\n        /* \"#utility.yul\":8546:9159   */\n    tag_63:\n        /* \"#utility.yul\":8667:8673   */\n      0x00\n        /* \"#utility.yul\":8716:8718   */\n      0x20\n        /* \"#utility.yul\":8704:8713   */\n      dup3\n        /* \"#utility.yul\":8695:8702   */\n      dup5\n        /* \"#utility.yul\":8691:8714   */\n      sub\n        /* \"#utility.yul\":8687:8719   */\n      slt\n        /* \"#utility.yul\":8684:8803   */\n      iszero\n      tag_590\n      jumpi\n        /* \"#utility.yul\":8722:8801   */\n      tag_591\n      tag_419\n      jump\t// in\n    tag_591:\n        /* \"#utility.yul\":8684:8803   */\n    tag_590:\n        /* \"#utility.yul\":8870:8871   */\n      0x00\n        /* \"#utility.yul\":8859:8868   */\n      dup3\n        /* \"#utility.yul\":8855:8872   */\n      add\n        /* \"#utility.yul\":8842:8873   */\n      calldataload\n        /* \"#utility.yul\":8900:8918   */\n      0xffffffffffffffff\n        /* \"#utility.yul\":8892:8898   */\n      dup2\n        /* \"#utility.yul\":8889:8919   */\n      gt\n        /* \"#utility.yul\":8886:9003   */\n      iszero\n      tag_592\n      jumpi\n        /* \"#utility.yul\":8922:9001   */\n      tag_593\n      tag_420\n      jump\t// in\n    tag_593:\n        /* \"#utility.yul\":8886:9003   */\n    tag_592:\n        /* \"#utility.yul\":9027:9142   */\n      tag_594\n        /* \"#utility.yul\":9134:9141   */\n      dup5\n        /* \"#utility.yul\":9125:9131   */\n      dup3\n        /* \"#utility.yul\":9114:9123   */\n      dup6\n        /* \"#utility.yul\":9110:9132   */\n      add\n        /* \"#utility.yul\":9027:9142   */\n      tag_442\n      jump\t// in\n    tag_594:\n        /* \"#utility.yul\":9017:9142   */\n      swap2\n      pop\n        /* \"#utility.yul\":8813:9152   */\n      pop\n        /* \"#utility.yul\":8546:9159   */\n      swap3\n      swap2\n      pop\n      pop\n      jump\t// out\n        /* \"#utility.yul\":9165:9242   */\n    tag_443:\n        /* \"#utility.yul\":9202:9209   */\n      0x00\n        /* \"#utility.yul\":9231:9236   */\n      dup2\n        /* \"#utility.yul\":9220:9236   */\n      swap1\n      pop\n        /* \"#utility.yul\":9165:9242   */\n      swap2\n      swap1\n      pop\n      jump\t// out\n        /* \"#utility.yul\":9248:9370   */\n    tag_444:\n        /* \"#utility.yul\":9321:9345   */\n      tag_597\n        /* \"#utility.yul\":9339:9344   */\n      dup2\n        /* \"#utility.yul\":9321:9345   */\n      tag_443\n      jump\t// in\n    tag_597:\n        /* \"#utility.yul\":9314:9319   */\n      dup2\n        /* \"#utility.yul\":9311:9346   */\n      eq\n        /* \"#utility.yul\":9301:9364   */\n      tag_598\n      jumpi\n        /* \"#utility.yul\":9360:9361   */\n      0x00\n        /* \"#utility.yul\":9357:9358   */\n      dup1\n        /* \"#utility.yul\":9350:9362   */\n      revert\n        /* \"#utility.yul\":9301:9364   */\n    tag_598:\n        /* \"#utility.yul\":9248:9370   */\n      pop\n      jump\t// out\n        /* \"#utility.yul\":9376:9515   */\n    tag_445:\n        /* \"#utility.yul\":9422:9427   */\n      0x00\n        /* \"#utility.yul\":9460:9466   */\n      dup2\n        /* \"#utility.yul\":9447:9467   */\n      calldataload\n        /* \"#utility.yul\":9438:9467   */\n      swap1\n      pop\n        /* \"#utility.yul\":9476:9509   */\n      tag_600\n        /* \"#utility.yul\":9503:9508   */\n      dup2\n        /* \"#utility.yul\":9476:9509   */\n      tag_444\n      jump\t// in\n    tag_600:\n        /* \"#utility.yul\":9376:9515   */\n      swap3\n      swap2\n      pop\n      pop\n      jump\t// out\n        /* \"#utility.yul\":9521:9995   */\n    tag_68:\n        /* \"#utility.yul\":9589:9595   */\n      0x00\n        /* \"#utility.yul\":9597:9603   */\n      dup1\n        /* \"#utility.yul\":9646:9648   */\n      0x40\n        /* \"#utility.yul\":9634:9643   */\n      dup4\n        /* \"#utility.yul\":9625:9632   */\n      dup6\n        /* \"#utility.yul\":9621:9644   */\n      sub\n        /* \"#utility.yul\":9617:9649   */\n      slt\n        /* \"#utility.yul\":9614:9733   */\n      iszero\n      tag_602\n      jumpi\n        /* \"#utility.yul\":9652:9731   */\n      tag_603\n      tag_419\n      jump\t// in\n    tag_603:\n        /* \"#utility.yul\":9614:9733   */\n    tag_602:\n        /* \"#utility.yul\":9772:9773   */\n      0x00\n        /* \"#utility.yul\":9797:9850   */\n      tag_604\n        /* \"#utility.yul\":9842:9849   */\n      dup6\n        /* \"#utility.yul\":9833:9839   */\n      dup3\n        /* \"#utility.yul\":9822:9831   */\n      dup7\n        /* \"#utility.yul\":9818:9840   */\n      add\n        /* \"#utility.yul\":9797:9850   */\n      tag_445\n      jump\t// in\n    tag_604:\n        /* \"#utility.yul\":9787:9850   */\n      swap3\n      pop\n        /* \"#utility.yul\":9743:9860   */\n      pop\n        /* \"#utility.yul\":9899:9901   */\n      0x20\n        /* \"#utility.yul\":9925:9978   */\n      tag_605\n        /* \"#utility.yul\":9970:9977   */\n      dup6\n        /* \"#utility.yul\":9961:9967   */\n      dup3\n        /* \"#utility.yul\":9950:9959   */\n      dup7\n        /* \"#utility.yul\":9946:9968   */\n      add\n        /* \"#utility.yul\":9925:9978   */\n      tag_426\n      jump\t// in\n    tag_605:\n        /* \"#utility.yul\":9915:9978   */\n      swap2\n      pop\n        /* \"#utility.yul\":9870:9988   */\n      pop\n        /* \"#utility.yul\":9521:9995   */\n      swap3\n      pop\n      swap3\n      swap1\n      pop\n      jump\t// out\n        /* \"#utility.yul\":10001:10100   */\n    tag_446:\n        /* \"#utility.yul\":10072:10093   */\n      tag_607\n        /* \"#utility.yul\":10087:10092   */\n      dup2\n        /* \"#utility.yul\":10072:10093   */\n      tag_427\n      jump\t// in\n    tag_607:\n        /* \"#utility.yul\":10067:10070   */\n      dup3\n        /* \"#utility.yul\":10060:10094   */\n      mstore\n        /* \"#utility.yul\":10001:10100   */\n      pop\n      pop\n      jump\t// out\n        /* \"#utility.yul\":10106:10214   */\n    tag_447:\n        /* \"#utility.yul\":10183:10207   */\n      tag_609\n        /* \"#utility.yul\":10201:10206   */\n      dup2\n        /* \"#utility.yul\":10183:10207   */\n      tag_422\n      jump\t// in\n    tag_609:\n        /* \"#utility.yul\":10178:10181   */\n      dup3\n        /* \"#utility.yul\":10171:10208   */\n      mstore\n        /* \"#utility.yul\":10106:10214   */\n      pop\n      pop\n      jump\t// out\n        /* \"#utility.yul\":10220:10328   */\n    tag_448:\n        /* \"#utility.yul\":10297:10321   */\n      tag_611\n        /* \"#utility.yul\":10315:10320   */\n      dup2\n        /* \"#utility.yul\":10297:10321   */\n      tag_416\n      jump\t// in\n    tag_611:\n        /* \"#utility.yul\":10292:10295   */\n      dup3\n        /* \"#utility.yul\":10285:10322   */\n      mstore\n        /* \"#utility.yul\":10220:10328   */\n      pop\n      pop\n      jump\t// out\n        /* \"#utility.yul\":10416:12376   */\n    tag_449:\n        /* \"#utility.yul\":10579:10585   */\n      0x0140\n        /* \"#utility.yul\":10574:10577   */\n      dup3\n        /* \"#utility.yul\":10570:10586   */\n      add\n        /* \"#utility.yul\":10675:10679   */\n      0x00\n        /* \"#utility.yul\":10668:10673   */\n      dup3\n        /* \"#utility.yul\":10664:10680   */\n      add\n        /* \"#utility.yul\":10658:10681   */\n      mload\n        /* \"#utility.yul\":10694:10751   */\n      tag_613\n        /* \"#utility.yul\":10745:10749   */\n      0x00\n        /* \"#utility.yul\":10740:10743   */\n      dup6\n        /* \"#utility.yul\":10736:10750   */\n      add\n        /* \"#utility.yul\":10722:10734   */\n      dup3\n        /* \"#utility.yul\":10694:10751   */\n      tag_446\n      jump\t// in\n    tag_613:\n        /* \"#utility.yul\":10596:10761   */\n      pop\n        /* \"#utility.yul\":10850:10854   */\n      0x20\n        /* \"#utility.yul\":10843:10848   */\n      dup3\n        /* \"#utility.yul\":10839:10855   */\n      add\n        /* \"#utility.yul\":10833:10856   */\n      mload\n        /* \"#utility.yul\":10869:10932   */\n      tag_614\n        /* \"#utility.yul\":10926:10930   */\n      0x20\n        /* \"#utility.yul\":10921:10924   */\n      dup6\n        /* \"#utility.yul\":10917:10931   */\n      add\n        /* \"#utility.yul\":10903:10915   */\n      dup3\n        /* \"#utility.yul\":10869:10932   */\n      tag_447\n      jump\t// in\n    tag_614:\n        /* \"#utility.yul\":10771:10942   */\n      pop\n        /* \"#utility.yul\":11025:11029   */\n      0x40\n        /* \"#utility.yul\":11018:11023   */\n      dup3\n        /* \"#utility.yul\":11014:11030   */\n      add\n        /* \"#utility.yul\":11008:11031   */\n      mload\n        /* \"#utility.yul\":11044:11107   */\n      tag_615\n        /* \"#utility.yul\":11101:11105   */\n      0x40\n        /* \"#utility.yul\":11096:11099   */\n      dup6\n        /* \"#utility.yul\":11092:11106   */\n      add\n        /* \"#utility.yul\":11078:11090   */\n      dup3\n        /* \"#utility.yul\":11044:11107   */\n      tag_448\n      jump\t// in\n    tag_615:\n        /* \"#utility.yul\":10952:11117   */\n      pop\n        /* \"#utility.yul\":11200:11204   */\n      0x60\n        /* \"#utility.yul\":11193:11198   */\n      dup3\n        /* \"#utility.yul\":11189:11205   */\n      add\n        /* \"#utility.yul\":11183:11206   */\n      mload\n        /* \"#utility.yul\":11219:11282   */\n      tag_616\n        /* \"#utility.yul\":11276:11280   */\n      0x60\n        /* \"#utility.yul\":11271:11274   */\n      dup6\n        /* \"#utility.yul\":11267:11281   */\n      add\n        /* \"#utility.yul\":11253:11265   */\n      dup3\n        /* \"#utility.yul\":11219:11282   */\n      tag_448\n      jump\t// in\n    tag_616:\n        /* \"#utility.yul\":11127:11292   */\n      pop\n        /* \"#utility.yul\":11378:11382   */\n      0x80\n        /* \"#utility.yul\":11371:11376   */\n      dup3\n        /* \"#utility.yul\":11367:11383   */\n      add\n        /* \"#utility.yul\":11361:11384   */\n      mload\n        /* \"#utility.yul\":11397:11460   */\n      tag_617\n        /* \"#utility.yul\":11454:11458   */\n      0x80\n        /* \"#utility.yul\":11449:11452   */\n      dup6\n        /* \"#utility.yul\":11445:11459   */\n      add\n        /* \"#utility.yul\":11431:11443   */\n      dup3\n        /* \"#utility.yul\":11397:11460   */\n      tag_448\n      jump\t// in\n    tag_617:\n        /* \"#utility.yul\":11302:11470   */\n      pop\n        /* \"#utility.yul\":11566:11570   */\n      0xa0\n        /* \"#utility.yul\":11559:11564   */\n      dup3\n        /* \"#utility.yul\":11555:11571   */\n      add\n        /* \"#utility.yul\":11549:11572   */\n      mload\n        /* \"#utility.yul\":11585:11648   */\n      tag_618\n        /* \"#utility.yul\":11642:11646   */\n      0xa0\n        /* \"#utility.yul\":11637:11640   */\n      dup6\n        /* \"#utility.yul\":11633:11647   */\n      add\n        /* \"#utility.yul\":11619:11631   */\n      dup3\n        /* \"#utility.yul\":11585:11648   */\n      tag_448\n      jump\t// in\n    tag_618:\n        /* \"#utility.yul\":11480:11658   */\n      pop\n        /* \"#utility.yul\":11745:11749   */\n      0xc0\n        /* \"#utility.yul\":11738:11743   */\n      dup3\n        /* \"#utility.yul\":11734:11750   */\n      add\n        /* \"#utility.yul\":11728:11751   */\n      mload\n        /* \"#utility.yul\":11764:11821   */\n      tag_619\n        /* \"#utility.yul\":11815:11819   */\n      0xc0\n        /* \"#utility.yul\":11810:11813   */\n      dup6\n        /* \"#utility.yul\":11806:11820   */\n      add\n        /* \"#utility.yul\":11792:11804   */\n      dup3\n        /* \"#utility.yul\":11764:11821   */\n      tag_446\n      jump\t// in\n    tag_619:\n        /* \"#utility.yul\":11668:11831   */\n      pop\n        /* \"#utility.yul\":11920:11924   */\n      0xe0\n        /* \"#utility.yul\":11913:11918   */\n      dup3\n        /* \"#utility.yul\":11909:11925   */\n      add\n        /* \"#utility.yul\":11903:11926   */\n      mload\n        /* \"#utility.yul\":11939:12002   */\n      tag_620\n        /* \"#utility.yul\":11996:12000   */\n      0xe0\n        /* \"#utility.yul\":11991:11994   */\n      dup6\n        /* \"#utility.yul\":11987:12001   */\n      add\n        /* \"#utility.yul\":11973:11985   */\n      dup3\n        /* \"#utility.yul\":11939:12002   */\n      tag_448\n      jump\t// in\n    tag_620:\n        /* \"#utility.yul\":11841:12012   */\n      pop\n        /* \"#utility.yul\":12098:12104   */\n      0x0100\n        /* \"#utility.yul\":12091:12096   */\n      dup3\n        /* \"#utility.yul\":12087:12105   */\n      add\n        /* \"#utility.yul\":12081:12106   */\n      mload\n        /* \"#utility.yul\":12119:12184   */\n      tag_621\n        /* \"#utility.yul\":12176:12182   */\n      0x0100\n        /* \"#utility.yul\":12171:12174   */\n      dup6\n        /* \"#utility.yul\":12167:12183   */\n      add\n        /* \"#utility.yul\":12153:12165   */\n      dup3\n        /* \"#utility.yul\":12119:12184   */\n      tag_448\n      jump\t// in\n    tag_621:\n        /* \"#utility.yul\":12022:12194   */\n      pop\n        /* \"#utility.yul\":12279:12285   */\n      0x0120\n        /* \"#utility.yul\":12272:12277   */\n      dup3\n        /* \"#utility.yul\":12268:12286   */\n      add\n        /* \"#utility.yul\":12262:12287   */\n      mload\n        /* \"#utility.yul\":12300:12359   */\n      tag_622\n        /* \"#utility.yul\":12351:12357   */\n      0x0120\n        /* \"#utility.yul\":12346:12349   */\n      dup6\n        /* \"#utility.yul\":12342:12358   */\n      add\n        /* \"#utility.yul\":12328:12340   */\n      dup3\n        /* \"#utility.yul\":12300:12359   */\n      tag_446\n      jump\t// in\n    tag_622:\n        /* \"#utility.yul\":12204:12369   */\n      pop\n        /* \"#utility.yul\":10548:12376   */\n      pop\n        /* \"#utility.yul\":10416:12376   */\n      pop\n      pop\n      jump\t// out\n        /* \"#utility.yul\":12382:12737   */\n    tag_78:\n        /* \"#utility.yul\":12541:12545   */\n      0x00\n        /* \"#utility.yul\":12579:12582   */\n      0x0140\n        /* \"#utility.yul\":12568:12577   */\n      dup3\n        /* \"#utility.yul\":12564:12583   */\n      add\n        /* \"#utility.yul\":12556:12583   */\n      swap1\n      pop\n        /* \"#utility.yul\":12593:12730   */\n      tag_624\n        /* \"#utility.yul\":12727:12728   */\n      0x00\n        /* \"#utility.yul\":12716:12725   */\n      dup4\n        /* \"#utility.yul\":12712:12729   */\n      add\n        /* \"#utility.yul\":12703:12709   */\n      dup5\n        /* \"#utility.yul\":12593:12730   */\n      tag_449\n      jump\t// in\n    tag_624:\n        /* \"#utility.yul\":12382:12737   */\n      swap3\n      swap2\n      pop\n      pop\n      jump\t// out\n        /* \"#utility.yul\":12743:13217   */\n    tag_82:\n        /* \"#utility.yul\":12811:12817   */\n      0x00\n        /* \"#utility.yul\":12819:12825   */\n      dup1\n        /* \"#utility.yul\":12868:12870   */\n      0x40\n        /* \"#utility.yul\":12856:12865   */\n      dup4\n        /* \"#utility.yul\":12847:12854   */\n      dup6\n        /* \"#utility.yul\":12843:12866   */\n      sub\n        /* \"#utility.yul\":12839:12871   */\n      slt\n        /* \"#utility.yul\":12836:12955   */\n      iszero\n      tag_626\n      jumpi\n        /* \"#utility.yul\":12874:12953   */\n      tag_627\n      tag_419\n      jump\t// in\n    tag_627:\n        /* \"#utility.yul\":12836:12955   */\n    tag_626:\n        /* \"#utility.yul\":12994:12995   */\n      0x00\n        /* \"#utility.yul\":13019:13072   */\n      tag_628\n        /* \"#utility.yul\":13064:13071   */\n      dup6\n        /* \"#utility.yul\":13055:13061   */\n      dup3\n        /* \"#utility.yul\":13044:13053   */\n      dup7\n        /* \"#utility.yul\":13040:13062   */\n      add\n        /* \"#utility.yul\":13019:13072   */\n      tag_424\n      jump\t// in\n    tag_628:\n        /* \"#utility.yul\":13009:13072   */\n      swap3\n      pop\n        /* \"#utility.yul\":12965:13082   */\n      pop\n        /* \"#utility.yul\":13121:13123   */\n      0x20\n        /* \"#utility.yul\":13147:13200   */\n      tag_629\n        /* \"#utility.yul\":13192:13199   */\n      dup6\n        /* \"#utility.yul\":13183:13189   */\n      dup3\n        /* \"#utility.yul\":13172:13181   */\n      dup7\n        /* \"#utility.yul\":13168:13190   */\n      add\n        /* \"#utility.yul\":13147:13200   */\n      tag_426\n      jump\t// in\n    tag_629:\n        /* \"#utility.yul\":13137:13200   */\n      swap2\n      pop\n        /* \"#utility.yul\":13092:13210   */\n      pop\n        /* \"#utility.yul\":12743:13217   */\n      swap3\n      pop\n      swap3\n      swap1\n      pop\n      jump\t// out\n        /* \"#utility.yul\":13223:13341   */\n    tag_450:\n        /* \"#utility.yul\":13310:13334   */\n      tag_631\n        /* \"#utility.yul\":13328:13333   */\n      dup2\n        /* \"#utility.yul\":13310:13334   */\n      tag_443\n      jump\t// in\n    tag_631:\n        /* \"#utility.yul\":13305:13308   */\n      dup3\n        /* \"#utility.yul\":13298:13335   */\n      mstore\n        /* \"#utility.yul\":13223:13341   */\n      pop\n      pop\n      jump\t// out\n        /* \"#utility.yul\":13347:13569   */\n    tag_85:\n        /* \"#utility.yul\":13440:13444   */\n      0x00\n        /* \"#utility.yul\":13478:13480   */\n      0x20\n        /* \"#utility.yul\":13467:13476   */\n      dup3\n        /* \"#utility.yul\":13463:13481   */\n      add\n        /* \"#utility.yul\":13455:13481   */\n      swap1\n      pop\n        /* \"#utility.yul\":13491:13562   */\n      tag_633\n        /* \"#utility.yul\":13559:13560   */\n      0x00\n        /* \"#utility.yul\":13548:13557   */\n      dup4\n        /* \"#utility.yul\":13544:13561   */\n      add\n        /* \"#utility.yul\":13535:13541   */\n      dup5\n        /* \"#utility.yul\":13491:13562   */\n      tag_450\n      jump\t// in\n    tag_633:\n        /* \"#utility.yul\":13347:13569   */\n      swap3\n      swap2\n      pop\n      pop\n      jump\t// out\n        /* \"#utility.yul\":13575:13904   */\n    tag_97:\n        /* \"#utility.yul\":13634:13640   */\n      0x00\n        /* \"#utility.yul\":13683:13685   */\n      0x20\n        /* \"#utility.yul\":13671:13680   */\n      dup3\n        /* \"#utility.yul\":13662:13669   */\n      dup5\n        /* \"#utility.yul\":13658:13681   */\n      sub\n        /* \"#utility.yul\":13654:13686   */\n      slt\n        /* \"#utility.yul\":13651:13770   */\n      iszero\n      tag_635\n      jumpi\n        /* \"#utility.yul\":13689:13768   */\n      tag_636\n      tag_419\n      jump\t// in\n    tag_636:\n        /* \"#utility.yul\":13651:13770   */\n    tag_635:\n        /* \"#utility.yul\":13809:13810   */\n      0x00\n        /* \"#utility.yul\":13834:13887   */\n      tag_637\n        /* \"#utility.yul\":13879:13886   */\n      dup5\n        /* \"#utility.yul\":13870:13876   */\n      dup3\n        /* \"#utility.yul\":13859:13868   */\n      dup6\n        /* \"#utility.yul\":13855:13877   */\n      add\n        /* \"#utility.yul\":13834:13887   */\n      tag_445\n      jump\t// in\n    tag_637:\n        /* \"#utility.yul\":13824:13887   */\n      swap2\n      pop\n        /* \"#utility.yul\":13780:13897   */\n      pop\n        /* \"#utility.yul\":13575:13904   */\n      swap3\n      swap2\n      pop\n      pop\n      jump\t// out\n        /* \"#utility.yul\":13910:14053   */\n    tag_451:\n        /* \"#utility.yul\":13967:13972   */\n      0x00\n        /* \"#utility.yul\":13998:14004   */\n      dup2\n        /* \"#utility.yul\":13992:14005   */\n      mload\n        /* \"#utility.yul\":13983:14005   */\n      swap1\n      pop\n        /* \"#utility.yul\":14014:14047   */\n      tag_639\n        /* \"#utility.yul\":14041:14046   */\n      dup2\n        /* \"#utility.yul\":14014:14047   */\n      tag_425\n      jump\t// in\n    tag_639:\n        /* \"#utility.yul\":13910:14053   */\n      swap3\n      swap2\n      pop\n      pop\n      jump\t// out\n        /* \"#utility.yul\":14059:14410   */\n    tag_136:\n        /* \"#utility.yul\":14129:14135   */\n      0x00\n        /* \"#utility.yul\":14178:14180   */\n      0x20\n        /* \"#utility.yul\":14166:14175   */\n      dup3\n        /* \"#utility.yul\":14157:14164   */\n      dup5\n        /* \"#utility.yul\":14153:14176   */\n      sub\n        /* \"#utility.yul\":14149:14181   */\n      slt\n        /* \"#utility.yul\":14146:14265   */\n      iszero\n      tag_641\n      jumpi\n        /* \"#utility.yul\":14184:14263   */\n      tag_642\n      tag_419\n      jump\t// in\n    tag_642:\n        /* \"#utility.yul\":14146:14265   */\n    tag_641:\n        /* \"#utility.yul\":14304:14305   */\n      0x00\n        /* \"#utility.yul\":14329:14393   */\n      tag_643\n        /* \"#utility.yul\":14385:14392   */\n      dup5\n        /* \"#utility.yul\":14376:14382   */\n      dup3\n        /* \"#utility.yul\":14365:14374   */\n      dup6\n        /* \"#utility.yul\":14361:14383   */\n      add\n        /* \"#utility.yul\":14329:14393   */\n      tag_451\n      jump\t// in\n    tag_643:\n        /* \"#utility.yul\":14319:14393   */\n      swap2\n      pop\n        /* \"#utility.yul\":14275:14403   */\n      pop\n        /* \"#utility.yul\":14059:14410   */\n      swap3\n      swap2\n      pop\n      pop\n      jump\t// out\n        /* \"#utility.yul\":14416:14585   */\n    tag_452:\n        /* \"#utility.yul\":14500:14511   */\n      0x00\n        /* \"#utility.yul\":14534:14540   */\n      dup3\n        /* \"#utility.yul\":14529:14532   */\n      dup3\n        /* \"#utility.yul\":14522:14541   */\n      mstore\n        /* \"#utility.yul\":14574:14578   */\n      0x20\n        /* \"#utility.yul\":14569:14572   */\n      dup3\n        /* \"#utility.yul\":14565:14579   */\n      add\n        /* \"#utility.yul\":14550:14579   */\n      swap1\n      pop\n        /* \"#utility.yul\":14416:14585   */\n      swap3\n      swap2\n      pop\n      pop\n      jump\t// out\n        /* \"#utility.yul\":14591:14889   */\n    tag_453:\n        /* \"#utility.yul\":14731:14765   */\n      0x546f6b656e56657374696e673a2063616e6e6f74206372656174652076657374\n        /* \"#utility.yul\":14727:14728   */\n      0x00\n        /* \"#utility.yul\":14719:14725   */\n      dup3\n        /* \"#utility.yul\":14715:14729   */\n      add\n        /* \"#utility.yul\":14708:14766   */\n      mstore\n        /* \"#utility.yul\":14800:14834   */\n      0x696e67207363686564756c652062656361757365206e6f742073756666696369\n        /* \"#utility.yul\":14795:14797   */\n      0x20\n        /* \"#utility.yul\":14787:14793   */\n      dup3\n        /* \"#utility.yul\":14783:14798   */\n      add\n        /* \"#utility.yul\":14776:14835   */\n      mstore\n        /* \"#utility.yul\":14869:14881   */\n      0x656e7420746f6b656e7300000000000000000000000000000000000000000000\n        /* \"#utility.yul\":14864:14866   */\n      0x40\n        /* \"#utility.yul\":14856:14862   */\n      dup3\n        /* \"#utility.yul\":14852:14867   */\n      add\n        /* \"#utility.yul\":14845:14882   */\n      mstore\n        /* \"#utility.yul\":14591:14889   */\n      pop\n      jump\t// out\n        /* \"#utility.yul\":14895:15261   */\n    tag_454:\n        /* \"#utility.yul\":15037:15040   */\n      0x00\n        /* \"#utility.yul\":15058:15125   */\n      tag_647\n        /* \"#utility.yul\":15122:15124   */\n      0x4a\n        /* \"#utility.yul\":15117:15120   */\n      dup4\n        /* \"#utility.yul\":15058:15125   */\n      tag_452\n      jump\t// in\n    tag_647:\n        /* \"#utility.yul\":15051:15125   */\n      swap2\n      pop\n        /* \"#utility.yul\":15134:15227   */\n      tag_648\n        /* \"#utility.yul\":15223:15226   */\n      dup3\n        /* \"#utility.yul\":15134:15227   */\n      tag_453\n      jump\t// in\n    tag_648:\n        /* \"#utility.yul\":15252:15254   */\n      0x60\n        /* \"#utility.yul\":15247:15250   */\n      dup3\n        /* \"#utility.yul\":15243:15255   */\n      add\n        /* \"#utility.yul\":15236:15255   */\n      swap1\n      pop\n        /* \"#utility.yul\":14895:15261   */\n      swap2\n      swap1\n      pop\n      jump\t// out\n        /* \"#utility.yul\":15267:15686   */\n    tag_139:\n        /* \"#utility.yul\":15433:15437   */\n      0x00\n        /* \"#utility.yul\":15471:15473   */\n      0x20\n        /* \"#utility.yul\":15460:15469   */\n      dup3\n        /* \"#utility.yul\":15456:15474   */\n      add\n        /* \"#utility.yul\":15448:15474   */\n      swap1\n      pop\n        /* \"#utility.yul\":15520:15529   */\n      dup2\n        /* \"#utility.yul\":15514:15518   */\n      dup2\n        /* \"#utility.yul\":15510:15530   */\n      sub\n        /* \"#utility.yul\":15506:15507   */\n      0x00\n        /* \"#utility.yul\":15495:15504   */\n      dup4\n        /* \"#utility.yul\":15491:15508   */\n      add\n        /* \"#utility.yul\":15484:15531   */\n      mstore\n        /* \"#utility.yul\":15548:15679   */\n      tag_650\n        /* \"#utility.yul\":15674:15678   */\n      dup2\n        /* \"#utility.yul\":15548:15679   */\n      tag_454\n      jump\t// in\n    tag_650:\n        /* \"#utility.yul\":15540:15679   */\n      swap1\n      pop\n        /* \"#utility.yul\":15267:15686   */\n      swap2\n      swap1\n      pop\n      jump\t// out\n        /* \"#utility.yul\":15692:15913   */\n    tag_455:\n        /* \"#utility.yul\":15832:15866   */\n      0x546f6b656e56657374696e673a206475726174696f6e206d757374206265203e\n        /* \"#utility.yul\":15828:15829   */\n      0x00\n        /* \"#utility.yul\":15820:15826   */\n      dup3\n        /* \"#utility.yul\":15816:15830   */\n      add\n        /* \"#utility.yul\":15809:15867   */\n      mstore\n        /* \"#utility.yul\":15901:15905   */\n      0x2030000000000000000000000000000000000000000000000000000000000000\n        /* \"#utility.yul\":15896:15898   */\n      0x20\n        /* \"#utility.yul\":15888:15894   */\n      dup3\n        /* \"#utility.yul\":15884:15899   */\n      add\n        /* \"#utility.yul\":15877:15906   */\n      mstore\n        /* \"#utility.yul\":15692:15913   */\n      pop\n      jump\t// out\n        /* \"#utility.yul\":15919:16285   */\n    tag_456:\n        /* \"#utility.yul\":16061:16064   */\n      0x00\n        /* \"#utility.yul\":16082:16149   */\n      tag_653\n        /* \"#utility.yul\":16146:16148   */\n      0x22\n        /* \"#utility.yul\":16141:16144   */\n      dup4\n        /* \"#utility.yul\":16082:16149   */\n      tag_452\n      jump\t// in\n    tag_653:\n        /* \"#utility.yul\":16075:16149   */\n      swap2\n      pop\n        /* \"#utility.yul\":16158:16251   */\n      tag_654\n        /* \"#utility.yul\":16247:16250   */\n      dup3\n        /* \"#utility.yul\":16158:16251   */\n      tag_455\n      jump\t// in\n    tag_654:\n        /* \"#utility.yul\":16276:16278   */\n      0x40\n        /* \"#utility.yul\":16271:16274   */\n      dup3\n        /* \"#utility.yul\":16267:16279   */\n      add\n        /* \"#utility.yul\":16260:16279   */\n      swap1\n      pop\n        /* \"#utility.yul\":15919:16285   */\n      swap2\n      swap1\n      pop\n      jump\t// out\n        /* \"#utility.yul\":16291:16710   */\n    tag_142:\n        /* \"#utility.yul\":16457:16461   */\n      0x00\n        /* \"#utility.yul\":16495:16497   */\n      0x20\n        /* \"#utility.yul\":16484:16493   */\n      dup3\n        /* \"#utility.yul\":16480:16498   */\n      add\n        /* \"#utility.yul\":16472:16498   */\n      swap1\n      pop\n        /* \"#utility.yul\":16544:16553   */\n      dup2\n        /* \"#utility.yul\":16538:16542   */\n      dup2\n        /* \"#utility.yul\":16534:16554   */\n      sub\n        /* \"#utility.yul\":16530:16531   */\n      0x00\n        /* \"#utility.yul\":16519:16528   */\n      dup4\n        /* \"#utility.yul\":16515:16532   */\n      add\n        /* \"#utility.yul\":16508:16555   */\n      mstore\n        /* \"#utility.yul\":16572:16703   */\n      tag_656\n        /* \"#utility.yul\":16698:16702   */\n      dup2\n        /* \"#utility.yul\":16572:16703   */\n      tag_456\n      jump\t// in\n    tag_656:\n        /* \"#utility.yul\":16564:16703   */\n      swap1\n      pop\n        /* \"#utility.yul\":16291:16710   */\n      swap2\n      swap1\n      pop\n      jump\t// out\n        /* \"#utility.yul\":16716:16898   */\n    tag_457:\n        /* \"#utility.yul\":16856:16890   */\n      0x546f6b656e56657374696e673a20616d6f756e74206d757374206265203e2030\n        /* \"#utility.yul\":16852:16853   */\n      0x00\n        /* \"#utility.yul\":16844:16850   */\n      dup3\n        /* \"#utility.yul\":16840:16854   */\n      add\n        /* \"#utility.yul\":16833:16891   */\n      mstore\n        /* \"#utility.yul\":16716:16898   */\n      pop\n      jump\t// out\n        /* \"#utility.yul\":16904:17270   */\n    tag_458:\n        /* \"#utility.yul\":17046:17049   */\n      0x00\n        /* \"#utility.yul\":17067:17134   */\n      tag_659\n        /* \"#utility.yul\":17131:17133   */\n      0x20\n        /* \"#utility.yul\":17126:17129   */\n      dup4\n        /* \"#utility.yul\":17067:17134   */\n      tag_452\n      jump\t// in\n    tag_659:\n        /* \"#utility.yul\":17060:17134   */\n      swap2\n      pop\n        /* \"#utility.yul\":17143:17236   */\n      tag_660\n        /* \"#utility.yul\":17232:17235   */\n      dup3\n        /* \"#utility.yul\":17143:17236   */\n      tag_457\n      jump\t// in\n    tag_660:\n        /* \"#utility.yul\":17261:17263   */\n      0x20\n        /* \"#utility.yul\":17256:17259   */\n      dup3\n        /* \"#utility.yul\":17252:17264   */\n      add\n        /* \"#utility.yul\":17245:17264   */\n      swap1\n      pop\n        /* \"#utility.yul\":16904:17270   */\n      swap2\n      swap1\n      pop\n      jump\t// out\n        /* \"#utility.yul\":17276:17695   */\n    tag_145:\n        /* \"#utility.yul\":17442:17446   */\n      0x00\n        /* \"#utility.yul\":17480:17482   */\n      0x20\n        /* \"#utility.yul\":17469:17478   */\n      dup3\n        /* \"#utility.yul\":17465:17483   */\n      add\n        /* \"#utility.yul\":17457:17483   */\n      swap1\n      pop\n        /* \"#utility.yul\":17529:17538   */\n      dup2\n        /* \"#utility.yul\":17523:17527   */\n      dup2\n        /* \"#utility.yul\":17519:17539   */\n      sub\n        /* \"#utility.yul\":17515:17516   */\n      0x00\n        /* \"#utility.yul\":17504:17513   */\n      dup4\n        /* \"#utility.yul\":17500:17517   */\n      add\n        /* \"#utility.yul\":17493:17540   */\n      mstore\n        /* \"#utility.yul\":17557:17688   */\n      tag_662\n        /* \"#utility.yul\":17683:17687   */\n      dup2\n        /* \"#utility.yul\":17557:17688   */\n      tag_458\n      jump\t// in\n    tag_662:\n        /* \"#utility.yul\":17549:17688   */\n      swap1\n      pop\n        /* \"#utility.yul\":17276:17695   */\n      swap2\n      swap1\n      pop\n      jump\t// out\n        /* \"#utility.yul\":17701:17933   */\n    tag_459:\n        /* \"#utility.yul\":17841:17875   */\n      0x546f6b656e56657374696e673a20736c696365506572696f645365636f6e6473\n        /* \"#utility.yul\":17837:17838   */\n      0x00\n        /* \"#utility.yul\":17829:17835   */\n      dup3\n        /* \"#utility.yul\":17825:17839   */\n      add\n        /* \"#utility.yul\":17818:17876   */\n      mstore\n        /* \"#utility.yul\":17910:17925   */\n      0x206d757374206265203e3d203100000000000000000000000000000000000000\n        /* \"#utility.yul\":17905:17907   */\n      0x20\n        /* \"#utility.yul\":17897:17903   */\n      dup3\n        /* \"#utility.yul\":17893:17908   */\n      add\n        /* \"#utility.yul\":17886:17926   */\n      mstore\n        /* \"#utility.yul\":17701:17933   */\n      pop\n      jump\t// out\n        /* \"#utility.yul\":17939:18305   */\n    tag_460:\n        /* \"#utility.yul\":18081:18084   */\n      0x00\n        /* \"#utility.yul\":18102:18169   */\n      tag_665\n        /* \"#utility.yul\":18166:18168   */\n      0x2d\n        /* \"#utility.yul\":18161:18164   */\n      dup4\n        /* \"#utility.yul\":18102:18169   */\n      tag_452\n      jump\t// in\n    tag_665:\n        /* \"#utility.yul\":18095:18169   */\n      swap2\n      pop\n        /* \"#utility.yul\":18178:18271   */\n      tag_666\n        /* \"#utility.yul\":18267:18270   */\n      dup3\n        /* \"#utility.yul\":18178:18271   */\n      tag_459\n      jump\t// in\n    tag_666:\n        /* \"#utility.yul\":18296:18298   */\n      0x40\n        /* \"#utility.yul\":18291:18294   */\n      dup3\n        /* \"#utility.yul\":18287:18299   */\n      add\n        /* \"#utility.yul\":18280:18299   */\n      swap1\n      pop\n        /* \"#utility.yul\":17939:18305   */\n      swap2\n      swap1\n      pop\n      jump\t// out\n        /* \"#utility.yul\":18311:18730   */\n    tag_148:\n        /* \"#utility.yul\":18477:18481   */\n      0x00\n        /* \"#utility.yul\":18515:18517   */\n      0x20\n        /* \"#utility.yul\":18504:18513   */\n      dup3\n        /* \"#utility.yul\":18500:18518   */\n      add\n        /* \"#utility.yul\":18492:18518   */\n      swap1\n      pop\n        /* \"#utility.yul\":18564:18573   */\n      dup2\n        /* \"#utility.yul\":18558:18562   */\n      dup2\n        /* \"#utility.yul\":18554:18574   */\n      sub\n        /* \"#utility.yul\":18550:18551   */\n      0x00\n        /* \"#utility.yul\":18539:18548   */\n      dup4\n        /* \"#utility.yul\":18535:18552   */\n      add\n        /* \"#utility.yul\":18528:18575   */\n      mstore\n        /* \"#utility.yul\":18592:18723   */\n      tag_668\n        /* \"#utility.yul\":18718:18722   */\n      dup2\n        /* \"#utility.yul\":18592:18723   */\n      tag_460\n      jump\t// in\n    tag_668:\n        /* \"#utility.yul\":18584:18723   */\n      swap1\n      pop\n        /* \"#utility.yul\":18311:18730   */\n      swap2\n      swap1\n      pop\n      jump\t// out\n        /* \"#utility.yul\":18736:18879   */\n    tag_461:\n        /* \"#utility.yul\":18793:18798   */\n      0x00\n        /* \"#utility.yul\":18824:18830   */\n      dup2\n        /* \"#utility.yul\":18818:18831   */\n      mload\n        /* \"#utility.yul\":18809:18831   */\n      swap1\n      pop\n        /* \"#utility.yul\":18840:18873   */\n      tag_670\n        /* \"#utility.yul\":18867:18872   */\n      dup2\n        /* \"#utility.yul\":18840:18873   */\n      tag_444\n      jump\t// in\n    tag_670:\n        /* \"#utility.yul\":18736:18879   */\n      swap3\n      swap2\n      pop\n      pop\n      jump\t// out\n        /* \"#utility.yul\":18885:19236   */\n    tag_153:\n        /* \"#utility.yul\":18955:18961   */\n      0x00\n        /* \"#utility.yul\":19004:19006   */\n      0x20\n        /* \"#utility.yul\":18992:19001   */\n      dup3\n        /* \"#utility.yul\":18983:18990   */\n      dup5\n        /* \"#utility.yul\":18979:19002   */\n      sub\n        /* \"#utility.yul\":18975:19007   */\n      slt\n        /* \"#utility.yul\":18972:19091   */\n      iszero\n      tag_672\n      jumpi\n        /* \"#utility.yul\":19010:19089   */\n      tag_673\n      tag_419\n      jump\t// in\n    tag_673:\n        /* \"#utility.yul\":18972:19091   */\n    tag_672:\n        /* \"#utility.yul\":19130:19131   */\n      0x00\n        /* \"#utility.yul\":19155:19219   */\n      tag_674\n        /* \"#utility.yul\":19211:19218   */\n      dup5\n        /* \"#utility.yul\":19202:19208   */\n      dup3\n        /* \"#utility.yul\":19191:19200   */\n      dup6\n        /* \"#utility.yul\":19187:19209   */\n      add\n        /* \"#utility.yul\":19155:19219   */\n      tag_461\n      jump\t// in\n    tag_674:\n        /* \"#utility.yul\":19145:19219   */\n      swap2\n      pop\n        /* \"#utility.yul\":19101:19229   */\n      pop\n        /* \"#utility.yul\":18885:19236   */\n      swap3\n      swap2\n      pop\n      pop\n      jump\t// out\n        /* \"#utility.yul\":19242:19472   */\n    tag_462:\n        /* \"#utility.yul\":19382:19416   */\n      0x546f6b656e56657374696e673a206e6f7420656e6f7567682077697468647261\n        /* \"#utility.yul\":19378:19379   */\n      0x00\n        /* \"#utility.yul\":19370:19376   */\n      dup3\n        /* \"#utility.yul\":19366:19380   */\n      add\n        /* \"#utility.yul\":19359:19417   */\n      mstore\n        /* \"#utility.yul\":19451:19464   */\n      0x7761626c652066756e6473000000000000000000000000000000000000000000\n        /* \"#utility.yul\":19446:19448   */\n      0x20\n        /* \"#utility.yul\":19438:19444   */\n      dup3\n        /* \"#utility.yul\":19434:19449   */\n      add\n        /* \"#utility.yul\":19427:19465   */\n      mstore\n        /* \"#utility.yul\":19242:19472   */\n      pop\n      jump\t// out\n        /* \"#utility.yul\":19478:19844   */\n    tag_463:\n        /* \"#utility.yul\":19620:19623   */\n      0x00\n        /* \"#utility.yul\":19641:19708   */\n      tag_677\n        /* \"#utility.yul\":19705:19707   */\n      0x2b\n        /* \"#utility.yul\":19700:19703   */\n      dup4\n        /* \"#utility.yul\":19641:19708   */\n      tag_452\n      jump\t// in\n    tag_677:\n        /* \"#utility.yul\":19634:19708   */\n      swap2\n      pop\n        /* \"#utility.yul\":19717:19810   */\n      tag_678\n        /* \"#utility.yul\":19806:19809   */\n      dup3\n        /* \"#utility.yul\":19717:19810   */\n      tag_462\n      jump\t// in\n    tag_678:\n        /* \"#utility.yul\":19835:19837   */\n      0x40\n        /* \"#utility.yul\":19830:19833   */\n      dup3\n        /* \"#utility.yul\":19826:19838   */\n      add\n        /* \"#utility.yul\":19819:19838   */\n      swap1\n      pop\n        /* \"#utility.yul\":19478:19844   */\n      swap2\n      swap1\n      pop\n      jump\t// out\n        /* \"#utility.yul\":19850:20269   */\n    tag_171:\n        /* \"#utility.yul\":20016:20020   */\n      0x00\n        /* \"#utility.yul\":20054:20056   */\n      0x20\n        /* \"#utility.yul\":20043:20052   */\n      dup3\n        /* \"#utility.yul\":20039:20057   */\n      add\n        /* \"#utility.yul\":20031:20057   */\n      swap1\n      pop\n        /* \"#utility.yul\":20103:20112   */\n      dup2\n        /* \"#utility.yul\":20097:20101   */\n      dup2\n        /* \"#utility.yul\":20093:20113   */\n      sub\n        /* \"#utility.yul\":20089:20090   */\n      0x00\n        /* \"#utility.yul\":20078:20087   */\n      dup4\n        /* \"#utility.yul\":20074:20091   */\n      add\n        /* \"#utility.yul\":20067:20114   */\n      mstore\n        /* \"#utility.yul\":20131:20262   */\n      tag_680\n        /* \"#utility.yul\":20257:20261   */\n      dup2\n        /* \"#utility.yul\":20131:20262   */\n      tag_463\n      jump\t// in\n    tag_680:\n        /* \"#utility.yul\":20123:20262   */\n      swap1\n      pop\n        /* \"#utility.yul\":19850:20269   */\n      swap2\n      swap1\n      pop\n      jump\t// out\n        /* \"#utility.yul\":20275:20455   */\n    tag_187:\n        /* \"#utility.yul\":20323:20400   */\n      0x4e487b7100000000000000000000000000000000000000000000000000000000\n        /* \"#utility.yul\":20320:20321   */\n      0x00\n        /* \"#utility.yul\":20313:20401   */\n      mstore\n        /* \"#utility.yul\":20420:20424   */\n      0x32\n        /* \"#utility.yul\":20417:20418   */\n      0x04\n        /* \"#utility.yul\":20410:20425   */\n      mstore\n        /* \"#utility.yul\":20444:20448   */\n      0x24\n        /* \"#utility.yul\":20441:20442   */\n      0x00\n        /* \"#utility.yul\":20434:20449   */\n      revert\n        /* \"#utility.yul\":20461:20641   */\n    tag_464:\n        /* \"#utility.yul\":20509:20586   */\n      0x4e487b7100000000000000000000000000000000000000000000000000000000\n        /* \"#utility.yul\":20506:20507   */\n      0x00\n        /* \"#utility.yul\":20499:20587   */\n      mstore\n        /* \"#utility.yul\":20606:20610   */\n      0x11\n        /* \"#utility.yul\":20603:20604   */\n      0x04\n        /* \"#utility.yul\":20596:20611   */\n      mstore\n        /* \"#utility.yul\":20630:20634   */\n      0x24\n        /* \"#utility.yul\":20627:20628   */\n      0x00\n        /* \"#utility.yul\":20620:20635   */\n      revert\n        /* \"#utility.yul\":20647:20880   */\n    tag_206:\n        /* \"#utility.yul\":20686:20689   */\n      0x00\n        /* \"#utility.yul\":20709:20733   */\n      tag_684\n        /* \"#utility.yul\":20727:20732   */\n      dup3\n        /* \"#utility.yul\":20709:20733   */\n      tag_416\n      jump\t// in\n    tag_684:\n        /* \"#utility.yul\":20700:20733   */\n      swap2\n      pop\n        /* \"#utility.yul\":20755:20821   */\n      0xffffffffffffffffffffffffffffffffffffffffffffffffffffffffffffffff\n        /* \"#utility.yul\":20748:20753   */\n      dup3\n        /* \"#utility.yul\":20745:20822   */\n      sub\n        /* \"#utility.yul\":20742:20845   */\n      tag_685\n      jumpi\n        /* \"#utility.yul\":20825:20843   */\n      tag_686\n      tag_464\n      jump\t// in\n    tag_686:\n        /* \"#utility.yul\":20742:20845   */\n    tag_685:\n        /* \"#utility.yul\":20872:20873   */\n      0x01\n        /* \"#utility.yul\":20865:20870   */\n      dup3\n        /* \"#utility.yul\":20861:20874   */\n      add\n        /* \"#utility.yul\":20854:20874   */\n      swap1\n      pop\n        /* \"#utility.yul\":20647:20880   */\n      swap2\n      swap1\n      pop\n      jump\t// out\n        /* \"#utility.yul\":20886:21176   */\n    tag_465:\n        /* \"#utility.yul\":21026:21060   */\n      0x546f6b656e56657374696e673a206f6e6c792062656e65666963696172792061\n        /* \"#utility.yul\":21022:21023   */\n      0x00\n        /* \"#utility.yul\":21014:21020   */\n      dup3\n        /* \"#utility.yul\":21010:21024   */\n      add\n        /* \"#utility.yul\":21003:21061   */\n      mstore\n        /* \"#utility.yul\":21095:21129   */\n      0x6e64206f776e65722063616e2072656c656173652076657374656420746f6b65\n        /* \"#utility.yul\":21090:21092   */\n      0x20\n        /* \"#utility.yul\":21082:21088   */\n      dup3\n        /* \"#utility.yul\":21078:21093   */\n      add\n        /* \"#utility.yul\":21071:21130   */\n      mstore\n        /* \"#utility.yul\":21164:21168   */\n      0x6e73000000000000000000000000000000000000000000000000000000000000\n        /* \"#utility.yul\":21159:21161   */\n      0x40\n        /* \"#utility.yul\":21151:21157   */\n      dup3\n        /* \"#utility.yul\":21147:21162   */\n      add\n        /* \"#utility.yul\":21140:21169   */\n      mstore\n        /* \"#utility.yul\":20886:21176   */\n      pop\n      jump\t// out\n        /* \"#utility.yul\":21182:21548   */\n    tag_466:\n        /* \"#utility.yul\":21324:21327   */\n      0x00\n        /* \"#utility.yul\":21345:21412   */\n      tag_689\n        /* \"#utility.yul\":21409:21411   */\n      0x42\n        /* \"#utility.yul\":21404:21407   */\n      dup4\n        /* \"#utility.yul\":21345:21412   */\n      tag_452\n      jump\t// in\n    tag_689:\n        /* \"#utility.yul\":21338:21412   */\n      swap2\n      pop\n        /* \"#utility.yul\":21421:21514   */\n      tag_690\n        /* \"#utility.yul\":21510:21513   */\n      dup3\n        /* \"#utility.yul\":21421:21514   */\n      tag_465\n      jump\t// in\n    tag_690:\n        /* \"#utility.yul\":21539:21541   */\n      0x60\n        /* \"#utility.yul\":21534:21537   */\n      dup3\n        /* \"#utility.yul\":21530:21542   */\n      add\n        /* \"#utility.yul\":21523:21542   */\n      swap1\n      pop\n        /* \"#utility.yul\":21182:21548   */\n      swap2\n      swap1\n      pop\n      jump\t// out\n        /* \"#utility.yul\":21554:21973   */\n    tag_253:\n        /* \"#utility.yul\":21720:21724   */\n      0x00\n        /* \"#utility.yul\":21758:21760   */\n      0x20\n        /* \"#utility.yul\":21747:21756   */\n      dup3\n        /* \"#utility.yul\":21743:21761   */\n      add\n        /* \"#utility.yul\":21735:21761   */\n      swap1\n      pop\n        /* \"#utility.yul\":21807:21816   */\n      dup2\n        /* \"#utility.yul\":21801:21805   */\n      dup2\n        /* \"#utility.yul\":21797:21817   */\n      sub\n        /* \"#utility.yul\":21793:21794   */\n      0x00\n        /* \"#utility.yul\":21782:21791   */\n      dup4\n        /* \"#utility.yul\":21778:21795   */\n      add\n        /* \"#utility.yul\":21771:21818   */\n      mstore\n        /* \"#utility.yul\":21835:21966   */\n      tag_692\n        /* \"#utility.yul\":21961:21965   */\n      dup2\n        /* \"#utility.yul\":21835:21966   */\n      tag_466\n      jump\t// in\n    tag_692:\n        /* \"#utility.yul\":21827:21966   */\n      swap1\n      pop\n        /* \"#utility.yul\":21554:21973   */\n      swap2\n      swap1\n      pop\n      jump\t// out\n        /* \"#utility.yul\":21979:22227   */\n    tag_467:\n        /* \"#utility.yul\":22119:22153   */\n      0x546f6b656e56657374696e673a2063616e6e6f742072656c6561736520746f6b\n        /* \"#utility.yul\":22115:22116   */\n      0x00\n        /* \"#utility.yul\":22107:22113   */\n      dup3\n        /* \"#utility.yul\":22103:22117   */\n      add\n        /* \"#utility.yul\":22096:22154   */\n      mstore\n        /* \"#utility.yul\":22188:22219   */\n      0x656e732c206e6f7420656e6f7567682076657374656420746f6b656e73000000\n        /* \"#utility.yul\":22183:22185   */\n      0x20\n        /* \"#utility.yul\":22175:22181   */\n      dup3\n        /* \"#utility.yul\":22171:22186   */\n      add\n        /* \"#utility.yul\":22164:22220   */\n      mstore\n        /* \"#utility.yul\":21979:22227   */\n      pop\n      jump\t// out\n        /* \"#utility.yul\":22233:22599   */\n    tag_468:\n        /* \"#utility.yul\":22375:22378   */\n      0x00\n        /* \"#utility.yul\":22396:22463   */\n      tag_695\n        /* \"#utility.yul\":22460:22462   */\n      0x3d\n        /* \"#utility.yul\":22455:22458   */\n      dup4\n        /* \"#utility.yul\":22396:22463   */\n      tag_452\n      jump\t// in\n    tag_695:\n        /* \"#utility.yul\":22389:22463   */\n      swap2\n      pop\n        /* \"#utility.yul\":22472:22565   */\n      tag_696\n        /* \"#utility.yul\":22561:22564   */\n      dup3\n        /* \"#utility.yul\":22472:22565   */\n      tag_467\n      jump\t// in\n    tag_696:\n        /* \"#utility.yul\":22590:22592   */\n      0x40\n        /* \"#utility.yul\":22585:22588   */\n      dup3\n        /* \"#utility.yul\":22581:22593   */\n      add\n        /* \"#utility.yul\":22574:22593   */\n      swap1\n      pop\n        /* \"#utility.yul\":22233:22599   */\n      swap2\n      swap1\n      pop\n      jump\t// out\n        /* \"#utility.yul\":22605:23024   */\n    tag_258:\n        /* \"#utility.yul\":22771:22775   */\n      0x00\n        /* \"#utility.yul\":22809:22811   */\n      0x20\n        /* \"#utility.yul\":22798:22807   */\n      dup3\n        /* \"#utility.yul\":22794:22812   */\n      add\n        /* \"#utility.yul\":22786:22812   */\n      swap1\n      pop\n        /* \"#utility.yul\":22858:22867   */\n      dup2\n        /* \"#utility.yul\":22852:22856   */\n      dup2\n        /* \"#utility.yul\":22848:22868   */\n      sub\n        /* \"#utility.yul\":22844:22845   */\n      0x00\n        /* \"#utility.yul\":22833:22842   */\n      dup4\n        /* \"#utility.yul\":22829:22846   */\n      add\n        /* \"#utility.yul\":22822:22869   */\n      mstore\n        /* \"#utility.yul\":22886:23017   */\n      tag_698\n        /* \"#utility.yul\":23012:23016   */\n      dup2\n        /* \"#utility.yul\":22886:23017   */\n      tag_468\n      jump\t// in\n    tag_698:\n        /* \"#utility.yul\":22878:23017   */\n      swap1\n      pop\n        /* \"#utility.yul\":22605:23024   */\n      swap2\n      swap1\n      pop\n      jump\t// out\n        /* \"#utility.yul\":23030:23224   */\n    tag_274:\n        /* \"#utility.yul\":23070:23074   */\n      0x00\n        /* \"#utility.yul\":23090:23110   */\n      tag_700\n        /* \"#utility.yul\":23108:23109   */\n      dup3\n        /* \"#utility.yul\":23090:23110   */\n      tag_416\n      jump\t// in\n    tag_700:\n        /* \"#utility.yul\":23085:23110   */\n      swap2\n      pop\n        /* \"#utility.yul\":23124:23144   */\n      tag_701\n        /* \"#utility.yul\":23142:23143   */\n      dup4\n        /* \"#utility.yul\":23124:23144   */\n      tag_416\n      jump\t// in\n    tag_701:\n        /* \"#utility.yul\":23119:23144   */\n      swap3\n      pop\n        /* \"#utility.yul\":23168:23169   */\n      dup3\n        /* \"#utility.yul\":23165:23166   */\n      dup3\n        /* \"#utility.yul\":23161:23170   */\n      sub\n        /* \"#utility.yul\":23153:23170   */\n      swap1\n      pop\n        /* \"#utility.yul\":23192:23193   */\n      dup2\n        /* \"#utility.yul\":23186:23190   */\n      dup2\n        /* \"#utility.yul\":23183:23194   */\n      gt\n        /* \"#utility.yul\":23180:23217   */\n      iszero\n      tag_702\n      jumpi\n        /* \"#utility.yul\":23197:23215   */\n      tag_703\n      tag_464\n      jump\t// in\n    tag_703:\n        /* \"#utility.yul\":23180:23217   */\n    tag_702:\n        /* \"#utility.yul\":23030:23224   */\n      swap3\n      swap2\n      pop\n      pop\n      jump\t// out\n        /* \"#utility.yul\":23230:23324   */\n    tag_469:\n        /* \"#utility.yul\":23263:23271   */\n      0x00\n        /* \"#utility.yul\":23311:23316   */\n      dup2\n        /* \"#utility.yul\":23307:23309   */\n      0x60\n        /* \"#utility.yul\":23303:23317   */\n      shl\n        /* \"#utility.yul\":23282:23317   */\n      swap1\n      pop\n        /* \"#utility.yul\":23230:23324   */\n      swap2\n      swap1\n      pop\n      jump\t// out\n        /* \"#utility.yul\":23330:23424   */\n    tag_470:\n        /* \"#utility.yul\":23369:23376   */\n      0x00\n        /* \"#utility.yul\":23398:23418   */\n      tag_706\n        /* \"#utility.yul\":23412:23417   */\n      dup3\n        /* \"#utility.yul\":23398:23418   */\n      tag_469\n      jump\t// in\n    tag_706:\n        /* \"#utility.yul\":23387:23418   */\n      swap1\n      pop\n        /* \"#utility.yul\":23330:23424   */\n      swap2\n      swap1\n      pop\n      jump\t// out\n        /* \"#utility.yul\":23430:23530   */\n    tag_471:\n        /* \"#utility.yul\":23469:23476   */\n      0x00\n        /* \"#utility.yul\":23498:23524   */\n      tag_708\n        /* \"#utility.yul\":23518:23523   */\n      dup3\n        /* \"#utility.yul\":23498:23524   */\n      tag_470\n      jump\t// in\n    tag_708:\n        /* \"#utility.yul\":23487:23524   */\n      swap1\n      pop\n        /* \"#utility.yul\":23430:23530   */\n      swap2\n      swap1\n      pop\n      jump\t// out\n        /* \"#utility.yul\":23536:23693   */\n    tag_472:\n        /* \"#utility.yul\":23641:23686   */\n      tag_710\n        /* \"#utility.yul\":23661:23685   */\n      tag_711\n        /* \"#utility.yul\":23679:23684   */\n      dup3\n        /* \"#utility.yul\":23661:23685   */\n      tag_422\n      jump\t// in\n    tag_711:\n        /* \"#utility.yul\":23641:23686   */\n      tag_471\n      jump\t// in\n    tag_710:\n        /* \"#utility.yul\":23636:23639   */\n      dup3\n        /* \"#utility.yul\":23629:23687   */\n      mstore\n        /* \"#utility.yul\":23536:23693   */\n      pop\n      pop\n      jump\t// out\n        /* \"#utility.yul\":23699:23778   */\n    tag_473:\n        /* \"#utility.yul\":23738:23745   */\n      0x00\n        /* \"#utility.yul\":23767:23772   */\n      dup2\n        /* \"#utility.yul\":23756:23772   */\n      swap1\n      pop\n        /* \"#utility.yul\":23699:23778   */\n      swap2\n      swap1\n      pop\n      jump\t// out\n        /* \"#utility.yul\":23784:23941   */\n    tag_474:\n        /* \"#utility.yul\":23889:23934   */\n      tag_714\n        /* \"#utility.yul\":23909:23933   */\n      tag_715\n        /* \"#utility.yul\":23927:23932   */\n      dup3\n        /* \"#utility.yul\":23909:23933   */\n      tag_416\n      jump\t// in\n    tag_715:\n        /* \"#utility.yul\":23889:23934   */\n      tag_473\n      jump\t// in\n    tag_714:\n        /* \"#utility.yul\":23884:23887   */\n      dup3\n        /* \"#utility.yul\":23877:23935   */\n      mstore\n        /* \"#utility.yul\":23784:23941   */\n      pop\n      pop\n      jump\t// out\n        /* \"#utility.yul\":23947:24344   */\n    tag_277:\n        /* \"#utility.yul\":24087:24090   */\n      0x00\n        /* \"#utility.yul\":24102:24177   */\n      tag_717\n        /* \"#utility.yul\":24173:24176   */\n      dup3\n        /* \"#utility.yul\":24164:24170   */\n      dup6\n        /* \"#utility.yul\":24102:24177   */\n      tag_472\n      jump\t// in\n    tag_717:\n        /* \"#utility.yul\":24202:24204   */\n      0x14\n        /* \"#utility.yul\":24197:24200   */\n      dup3\n        /* \"#utility.yul\":24193:24205   */\n      add\n        /* \"#utility.yul\":24186:24205   */\n      swap2\n      pop\n        /* \"#utility.yul\":24215:24290   */\n      tag_718\n        /* \"#utility.yul\":24286:24289   */\n      dup3\n        /* \"#utility.yul\":24277:24283   */\n      dup5\n        /* \"#utility.yul\":24215:24290   */\n      tag_474\n      jump\t// in\n    tag_718:\n        /* \"#utility.yul\":24315:24317   */\n      0x20\n        /* \"#utility.yul\":24310:24313   */\n      dup3\n        /* \"#utility.yul\":24306:24318   */\n      add\n        /* \"#utility.yul\":24299:24318   */\n      swap2\n      pop\n        /* \"#utility.yul\":24335:24338   */\n      dup2\n        /* \"#utility.yul\":24328:24338   */\n      swap1\n      pop\n        /* \"#utility.yul\":23947:24344   */\n      swap4\n      swap3\n      pop\n      pop\n      pop\n      jump\t// out\n        /* \"#utility.yul\":24350:24575   */\n    tag_475:\n        /* \"#utility.yul\":24490:24524   */\n      0x546f6b656e56657374696e673a2076657374696e67206973206e6f7420726576\n        /* \"#utility.yul\":24486:24487   */\n      0x00\n        /* \"#utility.yul\":24478:24484   */\n      dup3\n        /* \"#utility.yul\":24474:24488   */\n      add\n        /* \"#utility.yul\":24467:24525   */\n      mstore\n        /* \"#utility.yul\":24559:24567   */\n      0x6f6361626c650000000000000000000000000000000000000000000000000000\n        /* \"#utility.yul\":24554:24556   */\n      0x20\n        /* \"#utility.yul\":24546:24552   */\n      dup3\n        /* \"#utility.yul\":24542:24557   */\n      add\n        /* \"#utility.yul\":24535:24568   */\n      mstore\n        /* \"#utility.yul\":24350:24575   */\n      pop\n      jump\t// out\n        /* \"#utility.yul\":24581:24947   */\n    tag_476:\n        /* \"#utility.yul\":24723:24726   */\n      0x00\n        /* \"#utility.yul\":24744:24811   */\n      tag_721\n        /* \"#utility.yul\":24808:24810   */\n      0x26\n        /* \"#utility.yul\":24803:24806   */\n      dup4\n        /* \"#utility.yul\":24744:24811   */\n      tag_452\n      jump\t// in\n    tag_721:\n        /* \"#utility.yul\":24737:24811   */\n      swap2\n      pop\n        /* \"#utility.yul\":24820:24913   */\n      tag_722\n        /* \"#utility.yul\":24909:24912   */\n      dup3\n        /* \"#utility.yul\":24820:24913   */\n      tag_475\n      jump\t// in\n    tag_722:\n        /* \"#utility.yul\":24938:24940   */\n      0x40\n        /* \"#utility.yul\":24933:24936   */\n      dup3\n        /* \"#utility.yul\":24929:24941   */\n      add\n        /* \"#utility.yul\":24922:24941   */\n      swap1\n      pop\n        /* \"#utility.yul\":24581:24947   */\n      swap2\n      swap1\n      pop\n      jump\t// out\n        /* \"#utility.yul\":24953:25372   */\n    tag_295:\n        /* \"#utility.yul\":25119:25123   */\n      0x00\n        /* \"#utility.yul\":25157:25159   */\n      0x20\n        /* \"#utility.yul\":25146:25155   */\n      dup3\n        /* \"#utility.yul\":25142:25160   */\n      add\n        /* \"#utility.yul\":25134:25160   */\n      swap1\n      pop\n        /* \"#utility.yul\":25206:25215   */\n      dup2\n        /* \"#utility.yul\":25200:25204   */\n      dup2\n        /* \"#utility.yul\":25196:25216   */\n      sub\n        /* \"#utility.yul\":25192:25193   */\n      0x00\n        /* \"#utility.yul\":25181:25190   */\n      dup4\n        /* \"#utility.yul\":25177:25194   */\n      add\n        /* \"#utility.yul\":25170:25217   */\n      mstore\n        /* \"#utility.yul\":25234:25365   */\n      tag_724\n        /* \"#utility.yul\":25360:25364   */\n      dup2\n        /* \"#utility.yul\":25234:25365   */\n      tag_476\n      jump\t// in\n    tag_724:\n        /* \"#utility.yul\":25226:25365   */\n      swap1\n      pop\n        /* \"#utility.yul\":24953:25372   */\n      swap2\n      swap1\n      pop\n      jump\t// out\n        /* \"#utility.yul\":25378:25603   */\n    tag_477:\n        /* \"#utility.yul\":25518:25552   */\n      0x4f776e61626c653a206e6577206f776e657220697320746865207a65726f2061\n        /* \"#utility.yul\":25514:25515   */\n      0x00\n        /* \"#utility.yul\":25506:25512   */\n      dup3\n        /* \"#utility.yul\":25502:25516   */\n      add\n        /* \"#utility.yul\":25495:25553   */\n      mstore\n        /* \"#utility.yul\":25587:25595   */\n      0x6464726573730000000000000000000000000000000000000000000000000000\n        /* \"#utility.yul\":25582:25584   */\n      0x20\n        /* \"#utility.yul\":25574:25580   */\n      dup3\n        /* \"#utility.yul\":25570:25585   */\n      add\n        /* \"#utility.yul\":25563:25596   */\n      mstore\n        /* \"#utility.yul\":25378:25603   */\n      pop\n      jump\t// out\n        /* \"#utility.yul\":25609:25975   */\n    tag_478:\n        /* \"#utility.yul\":25751:25754   */\n      0x00\n        /* \"#utility.yul\":25772:25839   */\n      tag_727\n        /* \"#utility.yul\":25836:25838   */\n      0x26\n        /* \"#utility.yul\":25831:25834   */\n      dup4\n        /* \"#utility.yul\":25772:25839   */\n      tag_452\n      jump\t// in\n    tag_727:\n        /* \"#utility.yul\":25765:25839   */\n      swap2\n      pop\n        /* \"#utility.yul\":25848:25941   */\n      tag_728\n        /* \"#utility.yul\":25937:25940   */\n      dup3\n        /* \"#utility.yul\":25848:25941   */\n      tag_477\n      jump\t// in\n    tag_728:\n        /* \"#utility.yul\":25966:25968   */\n      0x40\n        /* \"#utility.yul\":25961:25964   */\n      dup3\n        /* \"#utility.yul\":25957:25969   */\n      add\n        /* \"#utility.yul\":25950:25969   */\n      swap1\n      pop\n        /* \"#utility.yul\":25609:25975   */\n      swap2\n      swap1\n      pop\n      jump\t// out\n        /* \"#utility.yul\":25981:26400   */\n    tag_311:\n        /* \"#utility.yul\":26147:26151   */\n      0x00\n        /* \"#utility.yul\":26185:26187   */\n      0x20\n        /* \"#utility.yul\":26174:26183   */\n      dup3\n        /* \"#utility.yul\":26170:26188   */\n      add\n        /* \"#utility.yul\":26162:26188   */\n      swap1\n      pop\n        /* \"#utility.yul\":26234:26243   */\n      dup2\n        /* \"#utility.yul\":26228:26232   */\n      dup2\n        /* \"#utility.yul\":26224:26244   */\n      sub\n        /* \"#utility.yul\":26220:26221   */\n      0x00\n        /* \"#utility.yul\":26209:26218   */\n      dup4\n        /* \"#utility.yul\":26205:26222   */\n      add\n        /* \"#utility.yul\":26198:26245   */\n      mstore\n        /* \"#utility.yul\":26262:26393   */\n      tag_730\n        /* \"#utility.yul\":26388:26392   */\n      dup2\n        /* \"#utility.yul\":26262:26393   */\n      tag_478\n      jump\t// in\n    tag_730:\n        /* \"#utility.yul\":26254:26393   */\n      swap1\n      pop\n        /* \"#utility.yul\":25981:26400   */\n      swap2\n      swap1\n      pop\n      jump\t// out\n        /* \"#utility.yul\":26406:26626   */\n    tag_479:\n        /* \"#utility.yul\":26546:26580   */\n      0x546f6b656e56657374696e673a20696e646578206f7574206f6620626f756e64\n        /* \"#utility.yul\":26542:26543   */\n      0x00\n        /* \"#utility.yul\":26534:26540   */\n      dup3\n        /* \"#utility.yul\":26530:26544   */\n      add\n        /* \"#utility.yul\":26523:26581   */\n      mstore\n        /* \"#utility.yul\":26615:26618   */\n      0x7300000000000000000000000000000000000000000000000000000000000000\n        /* \"#utility.yul\":26610:26612   */\n      0x20\n        /* \"#utility.yul\":26602:26608   */\n      dup3\n        /* \"#utility.yul\":26598:26613   */\n      add\n        /* \"#utility.yul\":26591:26619   */\n      mstore\n        /* \"#utility.yul\":26406:26626   */\n      pop\n      jump\t// out\n        /* \"#utility.yul\":26632:26998   */\n    tag_480:\n        /* \"#utility.yul\":26774:26777   */\n      0x00\n        /* \"#utility.yul\":26795:26862   */\n      tag_733\n        /* \"#utility.yul\":26859:26861   */\n      0x21\n        /* \"#utility.yul\":26854:26857   */\n      dup4\n        /* \"#utility.yul\":26795:26862   */\n      tag_452\n      jump\t// in\n    tag_733:\n        /* \"#utility.yul\":26788:26862   */\n      swap2\n      pop\n        /* \"#utility.yul\":26871:26964   */\n      tag_734\n        /* \"#utility.yul\":26960:26963   */\n      dup3\n        /* \"#utility.yul\":26871:26964   */\n      tag_479\n      jump\t// in\n    tag_734:\n        /* \"#utility.yul\":26989:26991   */\n      0x40\n        /* \"#utility.yul\":26984:26987   */\n      dup3\n        /* \"#utility.yul\":26980:26992   */\n      add\n        /* \"#utility.yul\":26973:26992   */\n      swap1\n      pop\n        /* \"#utility.yul\":26632:26998   */\n      swap2\n      swap1\n      pop\n      jump\t// out\n        /* \"#utility.yul\":27004:27423   */\n    tag_323:\n        /* \"#utility.yul\":27170:27174   */\n      0x00\n        /* \"#utility.yul\":27208:27210   */\n      0x20\n        /* \"#utility.yul\":27197:27206   */\n      dup3\n        /* \"#utility.yul\":27193:27211   */\n      add\n        /* \"#utility.yul\":27185:27211   */\n      swap1\n      pop\n        /* \"#utility.yul\":27257:27266   */\n      dup2\n        /* \"#utility.yul\":27251:27255   */\n      dup2\n        /* \"#utility.yul\":27247:27267   */\n      sub\n        /* \"#utility.yul\":27243:27244   */\n      0x00\n        /* \"#utility.yul\":27232:27241   */\n      dup4\n        /* \"#utility.yul\":27228:27245   */\n      add\n        /* \"#utility.yul\":27221:27268   */\n      mstore\n        /* \"#utility.yul\":27285:27416   */\n      tag_736\n        /* \"#utility.yul\":27411:27415   */\n      dup2\n        /* \"#utility.yul\":27285:27416   */\n      tag_480\n      jump\t// in\n    tag_736:\n        /* \"#utility.yul\":27277:27416   */\n      swap1\n      pop\n        /* \"#utility.yul\":27004:27423   */\n      swap2\n      swap1\n      pop\n      jump\t// out\n        /* \"#utility.yul\":27429:27611   */\n    tag_481:\n        /* \"#utility.yul\":27569:27603   */\n      0x4f776e61626c653a2063616c6c6572206973206e6f7420746865206f776e6572\n        /* \"#utility.yul\":27565:27566   */\n      0x00\n        /* \"#utility.yul\":27557:27563   */\n      dup3\n        /* \"#utility.yul\":27553:27567   */\n      add\n        /* \"#utility.yul\":27546:27604   */\n      mstore\n        /* \"#utility.yul\":27429:27611   */\n      pop\n      jump\t// out\n        /* \"#utility.yul\":27617:27983   */\n    tag_482:\n        /* \"#utility.yul\":27759:27762   */\n      0x00\n        /* \"#utility.yul\":27780:27847   */\n      tag_739\n        /* \"#utility.yul\":27844:27846   */\n      0x20\n        /* \"#utility.yul\":27839:27842   */\n      dup4\n        /* \"#utility.yul\":27780:27847   */\n      tag_452\n      jump\t// in\n    tag_739:\n        /* \"#utility.yul\":27773:27847   */\n      swap2\n      pop\n        /* \"#utility.yul\":27856:27949   */\n      tag_740\n        /* \"#utility.yul\":27945:27948   */\n      dup3\n        /* \"#utility.yul\":27856:27949   */\n      tag_481\n      jump\t// in\n    tag_740:\n        /* \"#utility.yul\":27974:27976   */\n      0x20\n        /* \"#utility.yul\":27969:27972   */\n      dup3\n        /* \"#utility.yul\":27965:27977   */\n      add\n        /* \"#utility.yul\":27958:27977   */\n      swap1\n      pop\n        /* \"#utility.yul\":27617:27983   */\n      swap2\n      swap1\n      pop\n      jump\t// out\n        /* \"#utility.yul\":27989:28408   */\n    tag_333:\n        /* \"#utility.yul\":28155:28159   */\n      0x00\n        /* \"#utility.yul\":28193:28195   */\n      0x20\n        /* \"#utility.yul\":28182:28191   */\n      dup3\n        /* \"#utility.yul\":28178:28196   */\n      add\n        /* \"#utility.yul\":28170:28196   */\n      swap1\n      pop\n        /* \"#utility.yul\":28242:28251   */\n      dup2\n        /* \"#utility.yul\":28236:28240   */\n      dup2\n        /* \"#utility.yul\":28232:28252   */\n      sub\n        /* \"#utility.yul\":28228:28229   */\n      0x00\n        /* \"#utility.yul\":28217:28226   */\n      dup4\n        /* \"#utility.yul\":28213:28230   */\n      add\n        /* \"#utility.yul\":28206:28253   */\n      mstore\n        /* \"#utility.yul\":28270:28401   */\n      tag_742\n        /* \"#utility.yul\":28396:28400   */\n      dup2\n        /* \"#utility.yul\":28270:28401   */\n      tag_482\n      jump\t// in\n    tag_742:\n        /* \"#utility.yul\":28262:28401   */\n      swap1\n      pop\n        /* \"#utility.yul\":27989:28408   */\n      swap2\n      swap1\n      pop\n      jump\t// out\n        /* \"#utility.yul\":28414:28605   */\n    tag_336:\n        /* \"#utility.yul\":28454:28457   */\n      0x00\n        /* \"#utility.yul\":28473:28493   */\n      tag_744\n        /* \"#utility.yul\":28491:28492   */\n      dup3\n        /* \"#utility.yul\":28473:28493   */\n      tag_416\n      jump\t// in\n    tag_744:\n        /* \"#utility.yul\":28468:28493   */\n      swap2\n      pop\n        /* \"#utility.yul\":28507:28527   */\n      tag_745\n        /* \"#utility.yul\":28525:28526   */\n      dup4\n        /* \"#utility.yul\":28507:28527   */\n      tag_416\n      jump\t// in\n    tag_745:\n        /* \"#utility.yul\":28502:28527   */\n      swap3\n      pop\n        /* \"#utility.yul\":28550:28551   */\n      dup3\n        /* \"#utility.yul\":28547:28548   */\n      dup3\n        /* \"#utility.yul\":28543:28552   */\n      add\n        /* \"#utility.yul\":28536:28552   */\n      swap1\n      pop\n        /* \"#utility.yul\":28571:28574   */\n      dup1\n        /* \"#utility.yul\":28568:28569   */\n      dup3\n        /* \"#utility.yul\":28565:28575   */\n      gt\n        /* \"#utility.yul\":28562:28598   */\n      iszero\n      tag_746\n      jumpi\n        /* \"#utility.yul\":28578:28596   */\n      tag_747\n      tag_464\n      jump\t// in\n    tag_747:\n        /* \"#utility.yul\":28562:28598   */\n    tag_746:\n        /* \"#utility.yul\":28414:28605   */\n      swap3\n      swap2\n      pop\n      pop\n      jump\t// out\n        /* \"#utility.yul\":28611:28792   */\n    tag_483:\n        /* \"#utility.yul\":28751:28784   */\n      0x5265656e7472616e637947756172643a207265656e7472616e742063616c6c00\n        /* \"#utility.yul\":28747:28748   */\n      0x00\n        /* \"#utility.yul\":28739:28745   */\n      dup3\n        /* \"#utility.yul\":28735:28749   */\n      add\n        /* \"#utility.yul\":28728:28785   */\n      mstore\n        /* \"#utility.yul\":28611:28792   */\n      pop\n      jump\t// out\n        /* \"#utility.yul\":28798:29164   */\n    tag_484:\n        /* \"#utility.yul\":28940:28943   */\n      0x00\n        /* \"#utility.yul\":28961:29028   */\n      tag_750\n        /* \"#utility.yul\":29025:29027   */\n      0x1f\n        /* \"#utility.yul\":29020:29023   */\n      dup4\n        /* \"#utility.yul\":28961:29028   */\n      tag_452\n      jump\t// in\n    tag_750:\n        /* \"#utility.yul\":28954:29028   */\n      swap2\n      pop\n        /* \"#utility.yul\":29037:29130   */\n      tag_751\n        /* \"#utility.yul\":29126:29129   */\n      dup3\n        /* \"#utility.yul\":29037:29130   */\n      tag_483\n      jump\t// in\n    tag_751:\n        /* \"#utility.yul\":29155:29157   */\n      0x20\n        /* \"#utility.yul\":29150:29153   */\n      dup3\n        /* \"#utility.yul\":29146:29158   */\n      add\n        /* \"#utility.yul\":29139:29158   */\n      swap1\n      pop\n        /* \"#utility.yul\":28798:29164   */\n      swap2\n      swap1\n      pop\n      jump\t// out\n        /* \"#utility.yul\":29170:29589   */\n    tag_340:\n        /* \"#utility.yul\":29336:29340   */\n      0x00\n        /* \"#utility.yul\":29374:29376   */\n      0x20\n        /* \"#utility.yul\":29363:29372   */\n      dup3\n        /* \"#utility.yul\":29359:29377   */\n      add\n        /* \"#utility.yul\":29351:29377   */\n      swap1\n      pop\n        /* \"#utility.yul\":29423:29432   */\n      dup2\n        /* \"#utility.yul\":29417:29421   */\n      dup2\n        /* \"#utility.yul\":29413:29433   */\n      sub\n        /* \"#utility.yul\":29409:29410   */\n      0x00\n        /* \"#utility.yul\":29398:29407   */\n      dup4\n        /* \"#utility.yul\":29394:29411   */\n      add\n        /* \"#utility.yul\":29387:29434   */\n      mstore\n        /* \"#utility.yul\":29451:29582   */\n      tag_753\n        /* \"#utility.yul\":29577:29581   */\n      dup2\n        /* \"#utility.yul\":29451:29582   */\n      tag_484\n      jump\t// in\n    tag_753:\n        /* \"#utility.yul\":29443:29582   */\n      swap1\n      pop\n        /* \"#utility.yul\":29170:29589   */\n      swap2\n      swap1\n      pop\n      jump\t// out\n        /* \"#utility.yul\":29595:29927   */\n    tag_344:\n        /* \"#utility.yul\":29716:29720   */\n      0x00\n        /* \"#utility.yul\":29754:29756   */\n      0x40\n        /* \"#utility.yul\":29743:29752   */\n      dup3\n        /* \"#utility.yul\":29739:29757   */\n      add\n        /* \"#utility.yul\":29731:29757   */\n      swap1\n      pop\n        /* \"#utility.yul\":29767:29838   */\n      tag_755\n        /* \"#utility.yul\":29835:29836   */\n      0x00\n        /* \"#utility.yul\":29824:29833   */\n      dup4\n        /* \"#utility.yul\":29820:29837   */\n      add\n        /* \"#utility.yul\":29811:29817   */\n      dup6\n        /* \"#utility.yul\":29767:29838   */\n      tag_430\n      jump\t// in\n    tag_755:\n        /* \"#utility.yul\":29848:29920   */\n      tag_756\n        /* \"#utility.yul\":29916:29918   */\n      0x20\n        /* \"#utility.yul\":29905:29914   */\n      dup4\n        /* \"#utility.yul\":29901:29919   */\n      add\n        /* \"#utility.yul\":29892:29898   */\n      dup5\n        /* \"#utility.yul\":29848:29920   */\n      tag_417\n      jump\t// in\n    tag_756:\n        /* \"#utility.yul\":29595:29927   */\n      swap4\n      swap3\n      pop\n      pop\n      pop\n      jump\t// out\n        /* \"#utility.yul\":29933:30070   */\n    tag_485:\n        /* \"#utility.yul\":29987:29992   */\n      0x00\n        /* \"#utility.yul\":30018:30024   */\n      dup2\n        /* \"#utility.yul\":30012:30025   */\n      mload\n        /* \"#utility.yul\":30003:30025   */\n      swap1\n      pop\n        /* \"#utility.yul\":30034:30064   */\n      tag_758\n        /* \"#utility.yul\":30058:30063   */\n      dup2\n        /* \"#utility.yul\":30034:30064   */\n      tag_428\n      jump\t// in\n    tag_758:\n        /* \"#utility.yul\":29933:30070   */\n      swap3\n      swap2\n      pop\n      pop\n      jump\t// out\n        /* \"#utility.yul\":30076:30421   */\n    tag_374:\n        /* \"#utility.yul\":30143:30149   */\n      0x00\n        /* \"#utility.yul\":30192:30194   */\n      0x20\n        /* \"#utility.yul\":30180:30189   */\n      dup3\n        /* \"#utility.yul\":30171:30178   */\n      dup5\n        /* \"#utility.yul\":30167:30190   */\n      sub\n        /* \"#utility.yul\":30163:30195   */\n      slt\n        /* \"#utility.yul\":30160:30279   */\n      iszero\n      tag_760\n      jumpi\n        /* \"#utility.yul\":30198:30277   */\n      tag_761\n      tag_419\n      jump\t// in\n    tag_761:\n        /* \"#utility.yul\":30160:30279   */\n    tag_760:\n        /* \"#utility.yul\":30318:30319   */\n      0x00\n        /* \"#utility.yul\":30343:30404   */\n      tag_762\n        /* \"#utility.yul\":30396:30403   */\n      dup5\n        /* \"#utility.yul\":30387:30393   */\n      dup3\n        /* \"#utility.yul\":30376:30385   */\n      dup6\n        /* \"#utility.yul\":30372:30394   */\n      add\n        /* \"#utility.yul\":30343:30404   */\n      tag_485\n      jump\t// in\n    tag_762:\n        /* \"#utility.yul\":30333:30404   */\n      swap2\n      pop\n        /* \"#utility.yul\":30289:30414   */\n      pop\n        /* \"#utility.yul\":30076:30421   */\n      swap3\n      swap2\n      pop\n      pop\n      jump\t// out\n        /* \"#utility.yul\":30427:30656   */\n    tag_486:\n        /* \"#utility.yul\":30567:30601   */\n      0x5361666545524332303a204552433230206f7065726174696f6e20646964206e\n        /* \"#utility.yul\":30563:30564   */\n      0x00\n        /* \"#utility.yul\":30555:30561   */\n      dup3\n        /* \"#utility.yul\":30551:30565   */\n      add\n        /* \"#utility.yul\":30544:30602   */\n      mstore\n        /* \"#utility.yul\":30636:30648   */\n      0x6f74207375636365656400000000000000000000000000000000000000000000\n        /* \"#utility.yul\":30631:30633   */\n      0x20\n        /* \"#utility.yul\":30623:30629   */\n      dup3\n        /* \"#utility.yul\":30619:30634   */\n      add\n        /* \"#utility.yul\":30612:30649   */\n      mstore\n        /* \"#utility.yul\":30427:30656   */\n      pop\n      jump\t// out\n        /* \"#utility.yul\":30662:31028   */\n    tag_487:\n        /* \"#utility.yul\":30804:30807   */\n      0x00\n        /* \"#utility.yul\":30825:30892   */\n      tag_765\n        /* \"#utility.yul\":30889:30891   */\n      0x2a\n        /* \"#utility.yul\":30884:30887   */\n      dup4\n        /* \"#utility.yul\":30825:30892   */\n      tag_452\n      jump\t// in\n    tag_765:\n        /* \"#utility.yul\":30818:30892   */\n      swap2\n      pop\n        /* \"#utility.yul\":30901:30994   */\n      tag_766\n        /* \"#utility.yul\":30990:30993   */\n      dup3\n        /* \"#utility.yul\":30901:30994   */\n      tag_486\n      jump\t// in\n    tag_766:\n        /* \"#utility.yul\":31019:31021   */\n      0x40\n        /* \"#utility.yul\":31014:31017   */\n      dup3\n        /* \"#utility.yul\":31010:31022   */\n      add\n        /* \"#utility.yul\":31003:31022   */\n      swap1\n      pop\n        /* \"#utility.yul\":30662:31028   */\n      swap2\n      swap1\n      pop\n      jump\t// out\n        /* \"#utility.yul\":31034:31453   */\n    tag_377:\n        /* \"#utility.yul\":31200:31204   */\n      0x00\n        /* \"#utility.yul\":31238:31240   */\n      0x20\n        /* \"#utility.yul\":31227:31236   */\n      dup3\n        /* \"#utility.yul\":31223:31241   */\n      add\n        /* \"#utility.yul\":31215:31241   */\n      swap1\n      pop\n        /* \"#utility.yul\":31287:31296   */\n      dup2\n        /* \"#utility.yul\":31281:31285   */\n      dup2\n        /* \"#utility.yul\":31277:31297   */\n      sub\n        /* \"#utility.yul\":31273:31274   */\n      0x00\n        /* \"#utility.yul\":31262:31271   */\n      dup4\n        /* \"#utility.yul\":31258:31275   */\n      add\n        /* \"#utility.yul\":31251:31298   */\n      mstore\n        /* \"#utility.yul\":31315:31446   */\n      tag_768\n        /* \"#utility.yul\":31441:31445   */\n      dup2\n        /* \"#utility.yul\":31315:31446   */\n      tag_487\n      jump\t// in\n    tag_768:\n        /* \"#utility.yul\":31307:31446   */\n      swap1\n      pop\n        /* \"#utility.yul\":31034:31453   */\n      swap2\n      swap1\n      pop\n      jump\t// out\n        /* \"#utility.yul\":31459:31639   */\n    tag_488:\n        /* \"#utility.yul\":31507:31584   */\n      0x4e487b7100000000000000000000000000000000000000000000000000000000\n        /* \"#utility.yul\":31504:31505   */\n      0x00\n        /* \"#utility.yul\":31497:31585   */\n      mstore\n        /* \"#utility.yul\":31604:31608   */\n      0x12\n        /* \"#utility.yul\":31601:31602   */\n      0x04\n        /* \"#utility.yul\":31594:31609   */\n      mstore\n        /* \"#utility.yul\":31628:31632   */\n      0x24\n        /* \"#utility.yul\":31625:31626   */\n      0x00\n        /* \"#utility.yul\":31618:31633   */\n      revert\n        /* \"#utility.yul\":31645:31830   */\n    tag_381:\n        /* \"#utility.yul\":31685:31686   */\n      0x00\n        /* \"#utility.yul\":31702:31722   */\n      tag_771\n        /* \"#utility.yul\":31720:31721   */\n      dup3\n        /* \"#utility.yul\":31702:31722   */\n      tag_416\n      jump\t// in\n    tag_771:\n        /* \"#utility.yul\":31697:31722   */\n      swap2\n      pop\n        /* \"#utility.yul\":31736:31756   */\n      tag_772\n        /* \"#utility.yul\":31754:31755   */\n      dup4\n        /* \"#utility.yul\":31736:31756   */\n      tag_416\n      jump\t// in\n    tag_772:\n        /* \"#utility.yul\":31731:31756   */\n      swap3\n      pop\n        /* \"#utility.yul\":31775:31776   */\n      dup3\n        /* \"#utility.yul\":31765:31800   */\n      tag_773\n      jumpi\n        /* \"#utility.yul\":31780:31798   */\n      tag_774\n      tag_488\n      jump\t// in\n    tag_774:\n        /* \"#utility.yul\":31765:31800   */\n    tag_773:\n        /* \"#utility.yul\":31822:31823   */\n      dup3\n        /* \"#utility.yul\":31819:31820   */\n      dup3\n        /* \"#utility.yul\":31815:31824   */\n      div\n        /* \"#utility.yul\":31810:31824   */\n      swap1\n      pop\n        /* \"#utility.yul\":31645:31830   */\n      swap3\n      swap2\n      pop\n      pop\n      jump\t// out\n        /* \"#utility.yul\":31836:32246   */\n    tag_384:\n        /* \"#utility.yul\":31876:31883   */\n      0x00\n        /* \"#utility.yul\":31899:31919   */\n      tag_776\n        /* \"#utility.yul\":31917:31918   */\n      dup3\n        /* \"#utility.yul\":31899:31919   */\n      tag_416\n      jump\t// in\n    tag_776:\n        /* \"#utility.yul\":31894:31919   */\n      swap2\n      pop\n        /* \"#utility.yul\":31933:31953   */\n      tag_777\n        /* \"#utility.yul\":31951:31952   */\n      dup4\n        /* \"#utility.yul\":31933:31953   */\n      tag_416\n      jump\t// in\n    tag_777:\n        /* \"#utility.yul\":31928:31953   */\n      swap3\n      pop\n        /* \"#utility.yul\":31988:31989   */\n      dup3\n        /* \"#utility.yul\":31985:31986   */\n      dup3\n        /* \"#utility.yul\":31981:31990   */\n      mul\n        /* \"#utility.yul\":32010:32040   */\n      tag_778\n        /* \"#utility.yul\":32028:32039   */\n      dup2\n        /* \"#utility.yul\":32010:32040   */\n      tag_416\n      jump\t// in\n    tag_778:\n        /* \"#utility.yul\":31999:32040   */\n      swap2\n      pop\n        /* \"#utility.yul\":32189:32190   */\n      dup3\n        /* \"#utility.yul\":32180:32187   */\n      dup3\n        /* \"#utility.yul\":32176:32191   */\n      div\n        /* \"#utility.yul\":32173:32174   */\n      dup5\n        /* \"#utility.yul\":32170:32192   */\n      eq\n        /* \"#utility.yul\":32150:32151   */\n      dup4\n        /* \"#utility.yul\":32143:32152   */\n      iszero\n        /* \"#utility.yul\":32123:32206   */\n      or\n        /* \"#utility.yul\":32100:32239   */\n      tag_779\n      jumpi\n        /* \"#utility.yul\":32219:32237   */\n      tag_780\n      tag_464\n      jump\t// in\n    tag_780:\n        /* \"#utility.yul\":32100:32239   */\n    tag_779:\n        /* \"#utility.yul\":31884:32246   */\n      pop\n        /* \"#utility.yul\":31836:32246   */\n      swap3\n      swap2\n      pop\n      pop\n      jump\t// out\n        /* \"#utility.yul\":32252:32477   */\n    tag_489:\n        /* \"#utility.yul\":32392:32426   */\n      0x416464726573733a20696e73756666696369656e742062616c616e636520666f\n        /* \"#utility.yul\":32388:32389   */\n      0x00\n        /* \"#utility.yul\":32380:32386   */\n      dup3\n        /* \"#utility.yul\":32376:32390   */\n      add\n        /* \"#utility.yul\":32369:32427   */\n      mstore\n        /* \"#utility.yul\":32461:32469   */\n      0x722063616c6c0000000000000000000000000000000000000000000000000000\n        /* \"#utility.yul\":32456:32458   */\n      0x20\n        /* \"#utility.yul\":32448:32454   */\n      dup3\n        /* \"#utility.yul\":32444:32459   */\n      add\n        /* \"#utility.yul\":32437:32470   */\n      mstore\n        /* \"#utility.yul\":32252:32477   */\n      pop\n      jump\t// out\n        /* \"#utility.yul\":32483:32849   */\n    tag_490:\n        /* \"#utility.yul\":32625:32628   */\n      0x00\n        /* \"#utility.yul\":32646:32713   */\n      tag_783\n        /* \"#utility.yul\":32710:32712   */\n      0x26\n        /* \"#utility.yul\":32705:32708   */\n      dup4\n        /* \"#utility.yul\":32646:32713   */\n      tag_452\n      jump\t// in\n    tag_783:\n        /* \"#utility.yul\":32639:32713   */\n      swap2\n      pop\n        /* \"#utility.yul\":32722:32815   */\n      tag_784\n        /* \"#utility.yul\":32811:32814   */\n      dup3\n        /* \"#utility.yul\":32722:32815   */\n      tag_489\n      jump\t// in\n    tag_784:\n        /* \"#utility.yul\":32840:32842   */\n      0x40\n        /* \"#utility.yul\":32835:32838   */\n      dup3\n        /* \"#utility.yul\":32831:32843   */\n      add\n        /* \"#utility.yul\":32824:32843   */\n      swap1\n      pop\n        /* \"#utility.yul\":32483:32849   */\n      swap2\n      swap1\n      pop\n      jump\t// out\n        /* \"#utility.yul\":32855:33274   */\n    tag_391:\n        /* \"#utility.yul\":33021:33025   */\n      0x00\n        /* \"#utility.yul\":33059:33061   */\n      0x20\n        /* \"#utility.yul\":33048:33057   */\n      dup3\n        /* \"#utility.yul\":33044:33062   */\n      add\n        /* \"#utility.yul\":33036:33062   */\n      swap1\n      pop\n        /* \"#utility.yul\":33108:33117   */\n      dup2\n        /* \"#utility.yul\":33102:33106   */\n      dup2\n        /* \"#utility.yul\":33098:33118   */\n      sub\n        /* \"#utility.yul\":33094:33095   */\n      0x00\n        /* \"#utility.yul\":33083:33092   */\n      dup4\n        /* \"#utility.yul\":33079:33096   */\n      add\n        /* \"#utility.yul\":33072:33119   */\n      mstore\n        /* \"#utility.yul\":33136:33267   */\n      tag_786\n        /* \"#utility.yul\":33262:33266   */\n      dup2\n        /* \"#utility.yul\":33136:33267   */\n      tag_490\n      jump\t// in\n    tag_786:\n        /* \"#utility.yul\":33128:33267   */\n      swap1\n      pop\n        /* \"#utility.yul\":32855:33274   */\n      swap2\n      swap1\n      pop\n      jump\t// out\n        /* \"#utility.yul\":33280:33378   */\n    tag_491:\n        /* \"#utility.yul\":33331:33337   */\n      0x00\n        /* \"#utility.yul\":33365:33370   */\n      dup2\n        /* \"#utility.yul\":33359:33371   */\n      mload\n        /* \"#utility.yul\":33349:33371   */\n      swap1\n      pop\n        /* \"#utility.yul\":33280:33378   */\n      swap2\n      swap1\n      pop\n      jump\t// out\n        /* \"#utility.yul\":33384:33531   */\n    tag_492:\n        /* \"#utility.yul\":33485:33496   */\n      0x00\n        /* \"#utility.yul\":33522:33525   */\n      dup2\n        /* \"#utility.yul\":33507:33525   */\n      swap1\n      pop\n        /* \"#utility.yul\":33384:33531   */\n      swap3\n      swap2\n      pop\n      pop\n      jump\t// out\n        /* \"#utility.yul\":33537:33783   */\n    tag_493:\n        /* \"#utility.yul\":33618:33619   */\n      0x00\n        /* \"#utility.yul\":33628:33741   */\n    tag_790:\n        /* \"#utility.yul\":33642:33648   */\n      dup4\n        /* \"#utility.yul\":33639:33640   */\n      dup2\n        /* \"#utility.yul\":33636:33649   */\n      lt\n        /* \"#utility.yul\":33628:33741   */\n      iszero\n      tag_792\n      jumpi\n        /* \"#utility.yul\":33727:33728   */\n      dup1\n        /* \"#utility.yul\":33722:33725   */\n      dup3\n        /* \"#utility.yul\":33718:33729   */\n      add\n        /* \"#utility.yul\":33712:33730   */\n      mload\n        /* \"#utility.yul\":33708:33709   */\n      dup2\n        /* \"#utility.yul\":33703:33706   */\n      dup5\n        /* \"#utility.yul\":33699:33710   */\n      add\n        /* \"#utility.yul\":33692:33731   */\n      mstore\n        /* \"#utility.yul\":33664:33666   */\n      0x20\n        /* \"#utility.yul\":33661:33662   */\n      dup2\n        /* \"#utility.yul\":33657:33667   */\n      add\n        /* \"#utility.yul\":33652:33667   */\n      swap1\n      pop\n        /* \"#utility.yul\":33628:33741   */\n      jump(tag_790)\n    tag_792:\n        /* \"#utility.yul\":33775:33776   */\n      0x00\n        /* \"#utility.yul\":33766:33772   */\n      dup5\n        /* \"#utility.yul\":33761:33764   */\n      dup5\n        /* \"#utility.yul\":33757:33773   */\n      add\n        /* \"#utility.yul\":33750:33777   */\n      mstore\n        /* \"#utility.yul\":33599:33783   */\n      pop\n        /* \"#utility.yul\":33537:33783   */\n      pop\n      pop\n      pop\n      jump\t// out\n        /* \"#utility.yul\":33789:34175   */\n    tag_494:\n        /* \"#utility.yul\":33893:33896   */\n      0x00\n        /* \"#utility.yul\":33921:33959   */\n      tag_794\n        /* \"#utility.yul\":33953:33958   */\n      dup3\n        /* \"#utility.yul\":33921:33959   */\n      tag_491\n      jump\t// in\n    tag_794:\n        /* \"#utility.yul\":33975:34063   */\n      tag_795\n        /* \"#utility.yul\":34056:34062   */\n      dup2\n        /* \"#utility.yul\":34051:34054   */\n      dup6\n        /* \"#utility.yul\":33975:34063   */\n      tag_492\n      jump\t// in\n    tag_795:\n        /* \"#utility.yul\":33968:34063   */\n      swap4\n      pop\n        /* \"#utility.yul\":34072:34137   */\n      tag_796\n        /* \"#utility.yul\":34130:34136   */\n      dup2\n        /* \"#utility.yul\":34125:34128   */\n      dup6\n        /* \"#utility.yul\":34118:34122   */\n      0x20\n        /* \"#utility.yul\":34111:34116   */\n      dup7\n        /* \"#utility.yul\":34107:34123   */\n      add\n        /* \"#utility.yul\":34072:34137   */\n      tag_493\n      jump\t// in\n    tag_796:\n        /* \"#utility.yul\":34162:34168   */\n      dup1\n        /* \"#utility.yul\":34157:34160   */\n      dup5\n        /* \"#utility.yul\":34153:34169   */\n      add\n        /* \"#utility.yul\":34146:34169   */\n      swap2\n      pop\n        /* \"#utility.yul\":33897:34175   */\n      pop\n        /* \"#utility.yul\":33789:34175   */\n      swap3\n      swap2\n      pop\n      pop\n      jump\t// out\n        /* \"#utility.yul\":34181:34452   */\n    tag_393:\n        /* \"#utility.yul\":34311:34314   */\n      0x00\n        /* \"#utility.yul\":34333:34426   */\n      tag_798\n        /* \"#utility.yul\":34422:34425   */\n      dup3\n        /* \"#utility.yul\":34413:34419   */\n      dup5\n        /* \"#utility.yul\":34333:34426   */\n      tag_494\n      jump\t// in\n    tag_798:\n        /* \"#utility.yul\":34326:34426   */\n      swap2\n      pop\n        /* \"#utility.yul\":34443:34446   */\n      dup2\n        /* \"#utility.yul\":34436:34446   */\n      swap1\n      pop\n        /* \"#utility.yul\":34181:34452   */\n      swap3\n      swap2\n      pop\n      pop\n      jump\t// out\n        /* \"#utility.yul\":34458:34637   */\n    tag_495:\n        /* \"#utility.yul\":34598:34629   */\n      0x416464726573733a2063616c6c20746f206e6f6e2d636f6e7472616374000000\n        /* \"#utility.yul\":34594:34595   */\n      0x00\n        /* \"#utility.yul\":34586:34592   */\n      dup3\n        /* \"#utility.yul\":34582:34596   */\n      add\n        /* \"#utility.yul\":34575:34630   */\n      mstore\n        /* \"#utility.yul\":34458:34637   */\n      pop\n      jump\t// out\n        /* \"#utility.yul\":34643:35009   */\n    tag_496:\n        /* \"#utility.yul\":34785:34788   */\n      0x00\n        /* \"#utility.yul\":34806:34873   */\n      tag_801\n        /* \"#utility.yul\":34870:34872   */\n      0x1d\n        /* \"#utility.yul\":34865:34868   */\n      dup4\n        /* \"#utility.yul\":34806:34873   */\n      tag_452\n      jump\t// in\n    tag_801:\n        /* \"#utility.yul\":34799:34873   */\n      swap2\n      pop\n        /* \"#utility.yul\":34882:34975   */\n      tag_802\n        /* \"#utility.yul\":34971:34974   */\n      dup3\n        /* \"#utility.yul\":34882:34975   */\n      tag_495\n      jump\t// in\n    tag_802:\n        /* \"#utility.yul\":35000:35002   */\n      0x20\n        /* \"#utility.yul\":34995:34998   */\n      dup3\n        /* \"#utility.yul\":34991:35003   */\n      add\n        /* \"#utility.yul\":34984:35003   */\n      swap1\n      pop\n        /* \"#utility.yul\":34643:35009   */\n      swap2\n      swap1\n      pop\n      jump\t// out\n        /* \"#utility.yul\":35015:35434   */\n    tag_406:\n        /* \"#utility.yul\":35181:35185   */\n      0x00\n        /* \"#utility.yul\":35219:35221   */\n      0x20\n        /* \"#utility.yul\":35208:35217   */\n      dup3\n        /* \"#utility.yul\":35204:35222   */\n      add\n        /* \"#utility.yul\":35196:35222   */\n      swap1\n      pop\n        /* \"#utility.yul\":35268:35277   */\n      dup2\n        /* \"#utility.yul\":35262:35266   */\n      dup2\n        /* \"#utility.yul\":35258:35278   */\n      sub\n        /* \"#utility.yul\":35254:35255   */\n      0x00\n        /* \"#utility.yul\":35243:35252   */\n      dup4\n        /* \"#utility.yul\":35239:35256   */\n      add\n        /* \"#utility.yul\":35232:35279   */\n      mstore\n        /* \"#utility.yul\":35296:35427   */\n      tag_804\n        /* \"#utility.yul\":35422:35426   */\n      dup2\n        /* \"#utility.yul\":35296:35427   */\n      tag_496\n      jump\t// in\n    tag_804:\n        /* \"#utility.yul\":35288:35427   */\n      swap1\n      pop\n        /* \"#utility.yul\":35015:35434   */\n      swap2\n      swap1\n      pop\n      jump\t// out\n        /* \"#utility.yul\":35440:35539   */\n    tag_497:\n        /* \"#utility.yul\":35492:35498   */\n      0x00\n        /* \"#utility.yul\":35526:35531   */\n      dup2\n        /* \"#utility.yul\":35520:35532   */\n      mload\n        /* \"#utility.yul\":35510:35532   */\n      swap1\n      pop\n        /* \"#utility.yul\":35440:35539   */\n      swap2\n      swap1\n      pop\n      jump\t// out\n        /* \"#utility.yul\":35545:35922   */\n    tag_498:\n        /* \"#utility.yul\":35633:35636   */\n      0x00\n        /* \"#utility.yul\":35661:35700   */\n      tag_807\n        /* \"#utility.yul\":35694:35699   */\n      dup3\n        /* \"#utility.yul\":35661:35700   */\n      tag_497\n      jump\t// in\n    tag_807:\n        /* \"#utility.yul\":35716:35787   */\n      tag_808\n        /* \"#utility.yul\":35780:35786   */\n      dup2\n        /* \"#utility.yul\":35775:35778   */\n      dup6\n        /* \"#utility.yul\":35716:35787   */\n      tag_452\n      jump\t// in\n    tag_808:\n        /* \"#utility.yul\":35709:35787   */\n      swap4\n      pop\n        /* \"#utility.yul\":35796:35861   */\n      tag_809\n        /* \"#utility.yul\":35854:35860   */\n      dup2\n        /* \"#utility.yul\":35849:35852   */\n      dup6\n        /* \"#utility.yul\":35842:35846   */\n      0x20\n        /* \"#utility.yul\":35835:35840   */\n      dup7\n        /* \"#utility.yul\":35831:35847   */\n      add\n        /* \"#utility.yul\":35796:35861   */\n      tag_493\n      jump\t// in\n    tag_809:\n        /* \"#utility.yul\":35886:35915   */\n      tag_810\n        /* \"#utility.yul\":35908:35914   */\n      dup2\n        /* \"#utility.yul\":35886:35915   */\n      tag_432\n      jump\t// in\n    tag_810:\n        /* \"#utility.yul\":35881:35884   */\n      dup5\n        /* \"#utility.yul\":35877:35916   */\n      add\n        /* \"#utility.yul\":35870:35916   */\n      swap2\n      pop\n        /* \"#utility.yul\":35637:35922   */\n      pop\n        /* \"#utility.yul\":35545:35922   */\n      swap3\n      swap2\n      pop\n      pop\n      jump\t// out\n        /* \"#utility.yul\":35928:36241   */\n    tag_415:\n        /* \"#utility.yul\":36041:36045   */\n      0x00\n        /* \"#utility.yul\":36079:36081   */\n      0x20\n        /* \"#utility.yul\":36068:36077   */\n      dup3\n        /* \"#utility.yul\":36064:36082   */\n      add\n        /* \"#utility.yul\":36056:36082   */\n      swap1\n      pop\n        /* \"#utility.yul\":36128:36137   */\n      dup2\n        /* \"#utility.yul\":36122:36126   */\n      dup2\n        /* \"#utility.yul\":36118:36138   */\n      sub\n        /* \"#utility.yul\":36114:36115   */\n      0x00\n        /* \"#utility.yul\":36103:36112   */\n      dup4\n        /* \"#utility.yul\":36099:36116   */\n      add\n        /* \"#utility.yul\":36092:36139   */\n      mstore\n        /* \"#utility.yul\":36156:36234   */\n      tag_812\n        /* \"#utility.yul\":36229:36233   */\n      dup2\n        /* \"#utility.yul\":36220:36226   */\n      dup5\n        /* \"#utility.yul\":36156:36234   */\n      tag_498\n      jump\t// in\n    tag_812:\n        /* \"#utility.yul\":36148:36234   */\n      swap1\n      pop\n        /* \"#utility.yul\":35928:36241   */\n      swap3\n      swap2\n      pop\n      pop\n      jump\t// out\n\n    auxdata: 0xa2646970667358221220833d0157d0fd5637e02719a0c2724ee294e4b3d2df1cbc96855d4d55d159c82b64736f6c63430008110033\n}\n",
				"bytecode": {
					"linkReferences": {},
					"object": "60a06040523480156200001157600080fd5b5060405162003a2938038062003a29833981810160405281019062000037919062000209565b620000576200004b620000d360201b60201c565b620000db60201b60201c565b60018081905550600073ffffffffffffffffffffffffffffffffffffffff168173ffffffffffffffffffffffffffffffffffffffff16036200009857600080fd5b8073ffffffffffffffffffffffffffffffffffffffff1660808173ffffffffffffffffffffffffffffffffffffffff1681525050506200023b565b600033905090565b60008060009054906101000a900473ffffffffffffffffffffffffffffffffffffffff169050816000806101000a81548173ffffffffffffffffffffffffffffffffffffffff021916908373ffffffffffffffffffffffffffffffffffffffff1602179055508173ffffffffffffffffffffffffffffffffffffffff168173ffffffffffffffffffffffffffffffffffffffff167f8be0079c531659141344cd1fd0a4f28419497f9722a3daafe3b4186f6b6457e060405160405180910390a35050565b600080fd5b600073ffffffffffffffffffffffffffffffffffffffff82169050919050565b6000620001d182620001a4565b9050919050565b620001e381620001c4565b8114620001ef57600080fd5b50565b6000815190506200020381620001d8565b92915050565b6000602082840312156200022257620002216200019f565b5b60006200023284828501620001f2565b91505092915050565b6080516137bd6200026c6000396000818161096c01528181610a5f0152818161148801526116bd01526137bd6000f3fe6080604052600436106101235760003560e01c80638af104da116100a0578063ea1bb3d511610064578063ea1bb3d5146103db578063f2fde38b14610418578063f51321d714610441578063f7c469f01461047e578063f9079b37146104bb5761012a565b80638af104da146102e25780638da5cb5b1461031f57806390be10cc1461034a5780639ef346b414610375578063b75c7dc6146103b25761012a565b80635a7bb69a116100e75780635a7bb69a146101ff5780635d69f8051461023c57806366afd8ef14610265578063715018a61461028e5780637e913dc6146102a55761012a565b8063130836171461012c57806317e289e91461015757806321df0da7146101805780632e1a7d4d146101ab57806348deb471146101d45761012a565b3661012a57005b005b34801561013857600080fd5b506101416104f8565b60405161014e919061247e565b60405180910390f35b34801561016357600080fd5b5061017e6004803603810190610179919061256f565b610505565b005b34801561018c57600080fd5b50610195610968565b6040516101a29190612620565b60405180910390f35b3480156101b757600080fd5b506101d260048036038101906101cd919061263b565b610990565b005b3480156101e057600080fd5b506101e9610aae565b6040516101f6919061247e565b60405180910390f35b34801561020b57600080fd5b5061022660048036038101906102219190612668565b610ab8565b604051610233919061247e565b60405180910390f35b34801561024857600080fd5b50610263600480360381019061025e91906128a7565b610b01565b005b34801561027157600080fd5b5061028c60048036038101906102879190612926565b61117e565b005b34801561029a57600080fd5b506102a36114de565b005b3480156102b157600080fd5b506102cc60048036038101906102c79190612668565b6114f2565b6040516102d99190612a5f565b60405180910390f35b3480156102ee57600080fd5b5061030960048036038101906103049190612a7b565b611657565b6040516103169190612aca565b60405180910390f35b34801561032b57600080fd5b5061033461168a565b6040516103419190612620565b60405180910390f35b34801561035657600080fd5b5061035f6116b3565b60405161036c919061247e565b60405180910390f35b34801561038157600080fd5b5061039c60048036038101906103979190612ae5565b611768565b6040516103a99190612a5f565b60405180910390f35b3480156103be57600080fd5b506103d960048036038101906103d49190612ae5565b611879565b005b3480156103e757600080fd5b5061040260048036038101906103fd9190612ae5565b611ac7565b60405161040f919061247e565b60405180910390f35b34801561042457600080fd5b5061043f600480360381019061043a9190612668565b611c4a565b005b34801561044d57600080fd5b5061046860048036038101906104639190612a7b565b611ccd565b6040516104759190612a5f565b60405180910390f35b34801561048a57600080fd5b506104a560048036038101906104a09190612668565b611cef565b6040516104b29190612aca565b60405180910390f35b3480156104c757600080fd5b506104e260048036038101906104dd919061263b565b611d41565b6040516104ef9190612aca565b60405180910390f35b6000600280549050905090565b61050d611db2565b803073ffffffffffffffffffffffffffffffffffffffff166390be10cc6040518163ffffffff1660e01b8152600401602060405180830381865afa158015610559573d6000803e3d6000fd5b505050506040513d601f19601f8201168201806040525081019061057d9190612b27565b10156105be576040517f08c379a00000000000000000000000000000000000000000000000000000000081526004016105b590612bfd565b60405180910390fd5b60008411610601576040517f08c379a00000000000000000000000000000000000000000000000000000000081526004016105f890612c8f565b60405180910390fd5b60008111610644576040517f08c379a000000000000000000000000000000000000000000000000000000000815260040161063b90612cfb565b60405180910390fd5b6001831015610688576040517f08c379a000000000000000000000000000000000000000000000000000000000815260040161067f90612d8d565b60405180910390fd5b60003073ffffffffffffffffffffffffffffffffffffffff1663f7c469f0896040518263ffffffff1660e01b81526004016106c39190612620565b602060405180830381865afa1580156106e0573d6000803e3d6000fd5b505050506040513d601f19601f820116820180604052508101906107049190612dc2565b9050600061071b8789611e3090919063ffffffff16565b90506040518061014001604052806001151581526020018a73ffffffffffffffffffffffffffffffffffffffff168152602001828152602001898152602001878152602001868152602001851515815260200184815260200160008152602001600015158152506003600084815260200190815260200160002060008201518160000160006101000a81548160ff02191690831515021790555060208201518160000160016101000a81548173ffffffffffffffffffffffffffffffffffffffff021916908373ffffffffffffffffffffffffffffffffffffffff16021790555060408201518160010155606082015181600201556080820151816003015560a0820151816004015560c08201518160050160006101000a81548160ff02191690831515021790555060e0820151816006015561010082015181600701556101208201518160080160006101000a81548160ff02191690831515021790555090505061089283600454611e3090919063ffffffff16565b60048190555060028290806001815401808255809150506001900390600052602060002001600090919091909150556000600560008b73ffffffffffffffffffffffffffffffffffffffff1673ffffffffffffffffffffffffffffffffffffffff168152602001908152602001600020549050610919600182611e3090919063ffffffff16565b600560008c73ffffffffffffffffffffffffffffffffffffffff1673ffffffffffffffffffffffffffffffffffffffff1681526020019081526020016000208190555050505050505050505050565b60007f0000000000000000000000000000000000000000000000000000000000000000905090565b610998611e46565b6109a0611db2565b803073ffffffffffffffffffffffffffffffffffffffff166390be10cc6040518163ffffffff1660e01b8152600401602060405180830381865afa1580156109ec573d6000803e3d6000fd5b505050506040513d601f19601f82011682018060405250810190610a109190612b27565b1015610a51576040517f08c379a0000000000000000000000000000000000000000000000000000000008152600401610a4890612e61565b60405180910390fd5b610aa3610a5c61168a565b827f000000000000000000000000000000000000000000000000000000000000000073ffffffffffffffffffffffffffffffffffffffff16611e959092919063ffffffff16565b610aab611f1b565b50565b6000600454905090565b6000600560008373ffffffffffffffffffffffffffffffffffffffff1673ffffffffffffffffffffffffffffffffffffffff168152602001908152602001600020549050919050565b610b09611db2565b60005b8151811015610d1b57818181518110610b2857610b27612e81565b5b602002602001015160c001513073ffffffffffffffffffffffffffffffffffffffff166390be10cc6040518163ffffffff1660e01b8152600401602060405180830381865afa158015610b7f573d6000803e3d6000fd5b505050506040513d601f19601f82011682018060405250810190610ba39190612b27565b1015610be4576040517f08c379a0000000000000000000000000000000000000000000000000000000008152600401610bdb90612bfd565b60405180910390fd5b6000828281518110610bf957610bf8612e81565b5b60200260200101516060015111610c45576040517f08c379a0000000000000000000000000000000000000000000000000000000008152600401610c3c90612c8f565b60405180910390fd5b6000828281518110610c5a57610c59612e81565b5b602002602001015160c0015111610ca6576040517f08c379a0000000000000000000000000000000000000000000000000000000008152600401610c9d90612cfb565b60405180910390fd5b6001828281518110610cbb57610cba612e81565b5b6020026020010151608001511015610d08576040517f08c379a0000000000000000000000000000000000000000000000000000000008152600401610cff90612d8d565b60405180910390fd5b8080610d1390612edf565b915050610b0c565b5060005b815181101561117a5760003073ffffffffffffffffffffffffffffffffffffffff1663f7c469f0848481518110610d5957610d58612e81565b5b6020026020010151600001516040518263ffffffff1660e01b8152600401610d819190612620565b602060405180830381865afa158015610d9e573d6000803e3d6000fd5b505050506040513d601f19601f82011682018060405250810190610dc29190612dc2565b90506000610e15848481518110610ddc57610ddb612e81565b5b602002602001015160200151858581518110610dfb57610dfa612e81565b5b602002602001015160400151611e3090919063ffffffff16565b9050604051806101400160405280600115158152602001858581518110610e3f57610e3e612e81565b5b60200260200101516000015173ffffffffffffffffffffffffffffffffffffffff168152602001828152602001858581518110610e7f57610e7e612e81565b5b6020026020010151604001518152602001858581518110610ea357610ea2612e81565b5b6020026020010151606001518152602001858581518110610ec757610ec6612e81565b5b6020026020010151608001518152602001858581518110610eeb57610eea612e81565b5b602002602001015160a0015115158152602001858581518110610f1157610f10612e81565b5b602002602001015160c00151815260200160008152602001600015158152506003600084815260200190815260200160002060008201518160000160006101000a81548160ff02191690831515021790555060208201518160000160016101000a81548173ffffffffffffffffffffffffffffffffffffffff021916908373ffffffffffffffffffffffffffffffffffffffff16021790555060408201518160010155606082015181600201556080820151816003015560a0820151816004015560c08201518160050160006101000a81548160ff02191690831515021790555060e0820151816006015561010082015181600701556101208201518160080160006101000a81548160ff02191690831515021790555090505061105e84848151811061104157611040612e81565b5b602002602001015160c00151600454611e3090919063ffffffff16565b60048190555060028290806001815401808255809150506001900390600052602060002001600090919091909150556000600560008686815181106110a6576110a5612e81565b5b60200260200101516000015173ffffffffffffffffffffffffffffffffffffffff1673ffffffffffffffffffffffffffffffffffffffff168152602001908152602001600020549050611103600182611e3090919063ffffffff16565b6005600087878151811061111a57611119612e81565b5b60200260200101516000015173ffffffffffffffffffffffffffffffffffffffff1673ffffffffffffffffffffffffffffffffffffffff16815260200190815260200160002081905550505050808061117290612edf565b915050610d1f565b5050565b611186611e46565b81600115156003600083815260200190815260200160002060000160009054906101000a900460ff161515146111bb57600080fd5b600015156003600083815260200190815260200160002060080160009054906101000a900460ff161515146111ef57600080fd5b600060036000858152602001908152602001600020905060008160000160019054906101000a900473ffffffffffffffffffffffffffffffffffffffff1673ffffffffffffffffffffffffffffffffffffffff163373ffffffffffffffffffffffffffffffffffffffff16149050600061126761168a565b73ffffffffffffffffffffffffffffffffffffffff163373ffffffffffffffffffffffffffffffffffffffff1614905081806112a05750805b6112df576040517f08c379a00000000000000000000000000000000000000000000000000000000081526004016112d690612fbf565b60405180910390fd5b60006113d984604051806101400160405290816000820160009054906101000a900460ff161515151581526020016000820160019054906101000a900473ffffffffffffffffffffffffffffffffffffffff1673ffffffffffffffffffffffffffffffffffffffff1673ffffffffffffffffffffffffffffffffffffffff168152602001600182015481526020016002820154815260200160038201548152602001600482015481526020016005820160009054906101000a900460ff1615151515815260200160068201548152602001600782015481526020016008820160009054906101000a900460ff161515151581525050611f24565b90508581101561141e576040517f08c379a000000000000000000000000000000000000000000000000000000000815260040161141590613051565b60405180910390fd5b611435868560070154611e3090919063ffffffff16565b846007018190555060008460000160019054906101000a900473ffffffffffffffffffffffffffffffffffffffff16905061147b8760045461204c90919063ffffffff16565b6004819055506114cc81887f000000000000000000000000000000000000000000000000000000000000000073ffffffffffffffffffffffffffffffffffffffff16611e959092919063ffffffff16565b5050505050506114da611f1b565b5050565b6114e6611db2565b6114f06000612062565b565b6114fa6123f6565b60036000611553846001600560008873ffffffffffffffffffffffffffffffffffffffff1673ffffffffffffffffffffffffffffffffffffffff1681526020019081526020016000205461154e9190613071565b611657565b8152602001908152602001600020604051806101400160405290816000820160009054906101000a900460ff161515151581526020016000820160019054906101000a900473ffffffffffffffffffffffffffffffffffffffff1673ffffffffffffffffffffffffffffffffffffffff1673ffffffffffffffffffffffffffffffffffffffff168152602001600182015481526020016002820154815260200160038201548152602001600482015481526020016005820160009054906101000a900460ff1615151515815260200160068201548152602001600782015481526020016008820160009054906101000a900460ff1615151515815250509050919050565b6000828260405160200161166c92919061310e565b60405160208183030381529060405280519060200120905092915050565b60008060009054906101000a900473ffffffffffffffffffffffffffffffffffffffff16905090565b60006117636004547f000000000000000000000000000000000000000000000000000000000000000073ffffffffffffffffffffffffffffffffffffffff166370a08231306040518263ffffffff1660e01b81526004016117149190612620565b602060405180830381865afa158015611731573d6000803e3d6000fd5b505050506040513d601f19601f820116820180604052508101906117559190612b27565b61204c90919063ffffffff16565b905090565b6117706123f6565b60036000838152602001908152602001600020604051806101400160405290816000820160009054906101000a900460ff161515151581526020016000820160019054906101000a900473ffffffffffffffffffffffffffffffffffffffff1673ffffffffffffffffffffffffffffffffffffffff1673ffffffffffffffffffffffffffffffffffffffff168152602001600182015481526020016002820154815260200160038201548152602001600482015481526020016005820160009054906101000a900460ff1615151515815260200160068201548152602001600782015481526020016008820160009054906101000a900460ff1615151515815250509050919050565b611881611db2565b80600115156003600083815260200190815260200160002060000160009054906101000a900460ff161515146118b657600080fd5b600015156003600083815260200190815260200160002060080160009054906101000a900460ff161515146118ea57600080fd5b6000600360008481526020019081526020016000209050600115158160050160009054906101000a900460ff16151514611959576040517f08c379a0000000000000000000000000000000000000000000000000000000008152600401611950906131ac565b60405180910390fd5b6000611a5382604051806101400160405290816000820160009054906101000a900460ff161515151581526020016000820160019054906101000a900473ffffffffffffffffffffffffffffffffffffffff1673ffffffffffffffffffffffffffffffffffffffff1673ffffffffffffffffffffffffffffffffffffffff168152602001600182015481526020016002820154815260200160038201548152602001600482015481526020016005820160009054906101000a900460ff1615151515815260200160068201548152602001600782015481526020016008820160009054906101000a900460ff161515151581525050611f24565b90506000811115611a6957611a68848261117e565b5b6000611a868360070154846006015461204c90919063ffffffff16565b9050611a9d8160045461204c90919063ffffffff16565b60048190555060018360080160006101000a81548160ff0219169083151502179055505050505050565b600081600115156003600083815260200190815260200160002060000160009054906101000a900460ff16151514611afe57600080fd5b600015156003600083815260200190815260200160002060080160009054906101000a900460ff16151514611b3257600080fd5b6000600360008581526020019081526020016000209050611c4181604051806101400160405290816000820160009054906101000a900460ff161515151581526020016000820160019054906101000a900473ffffffffffffffffffffffffffffffffffffffff1673ffffffffffffffffffffffffffffffffffffffff1673ffffffffffffffffffffffffffffffffffffffff168152602001600182015481526020016002820154815260200160038201548152602001600482015481526020016005820160009054906101000a900460ff1615151515815260200160068201548152602001600782015481526020016008820160009054906101000a900460ff161515151581525050611f24565b92505050919050565b611c52611db2565b600073ffffffffffffffffffffffffffffffffffffffff168173ffffffffffffffffffffffffffffffffffffffff1603611cc1576040517f08c379a0000000000000000000000000000000000000000000000000000000008152600401611cb89061323e565b60405180910390fd5b611cca81612062565b50565b611cd56123f6565b611ce7611ce28484611657565b611768565b905092915050565b6000611d3a82600560008573ffffffffffffffffffffffffffffffffffffffff1673ffffffffffffffffffffffffffffffffffffffff16815260200190815260200160002054611657565b9050919050565b6000611d4b6104f8565b8210611d8c576040517f08c379a0000000000000000000000000000000000000000000000000000000008152600401611d83906132d0565b60405180910390fd5b60028281548110611da057611d9f612e81565b5b90600052602060002001549050919050565b611dba612126565b73ffffffffffffffffffffffffffffffffffffffff16611dd861168a565b73ffffffffffffffffffffffffffffffffffffffff1614611e2e576040517f08c379a0000000000000000000000000000000000000000000000000000000008152600401611e259061333c565b60405180910390fd5b565b60008183611e3e919061335c565b905092915050565b600260015403611e8b576040517f08c379a0000000000000000000000000000000000000000000000000000000008152600401611e82906133dc565b60405180910390fd5b6002600181905550565b611f168363a9059cbb60e01b8484604051602401611eb49291906133fc565b604051602081830303815290604052907bffffffffffffffffffffffffffffffffffffffffffffffffffffffff19166020820180517bffffffffffffffffffffffffffffffffffffffffffffffffffffffff838183161783525050505061212e565b505050565b60018081905550565b600080611f2f6121f5565b90508260400151811080611f4c5750600115158361012001511515145b15611f5b576000915050612047565b611f7683608001518460600151611e3090919063ffffffff16565b8110611fa057611f988361010001518460e0015161204c90919063ffffffff16565b915050612047565b6000611fb984606001518361204c90919063ffffffff16565b905060008460a0015190506000611fd982846121fd90919063ffffffff16565b90506000611ff0838361221390919063ffffffff16565b905060006120218860800151612013848b60e0015161221390919063ffffffff16565b6121fd90919063ffffffff16565b905061203b8861010001518261204c90919063ffffffff16565b90508096505050505050505b919050565b6000818361205a9190613071565b905092915050565b60008060009054906101000a900473ffffffffffffffffffffffffffffffffffffffff169050816000806101000a81548173ffffffffffffffffffffffffffffffffffffffff021916908373ffffffffffffffffffffffffffffffffffffffff1602179055508173ffffffffffffffffffffffffffffffffffffffff168173ffffffffffffffffffffffffffffffffffffffff167f8be0079c531659141344cd1fd0a4f28419497f9722a3daafe3b4186f6b6457e060405160405180910390a35050565b600033905090565b6000612190826040518060400160405280602081526020017f5361666545524332303a206c6f772d6c6576656c2063616c6c206661696c65648152508573ffffffffffffffffffffffffffffffffffffffff166122299092919063ffffffff16565b90506000815111156121f057808060200190518101906121b0919061343a565b6121ef576040517f08c379a00000000000000000000000000000000000000000000000000000000081526004016121e6906134d9565b60405180910390fd5b5b505050565b600042905090565b6000818361220b9190613528565b905092915050565b600081836122219190613559565b905092915050565b60606122388484600085612241565b90509392505050565b606082471015612286576040517f08c379a000000000000000000000000000000000000000000000000000000000815260040161227d9061360d565b60405180910390fd5b6000808673ffffffffffffffffffffffffffffffffffffffff1685876040516122af919061369e565b60006040518083038185875af1925050503d80600081146122ec576040519150601f19603f3d011682016040523d82523d6000602084013e6122f1565b606091505b50915091506123028783838761230e565b92505050949350505050565b606083156123705760008351036123685761232885612383565b612367576040517f08c379a000000000000000000000000000000000000000000000000000000000815260040161235e90613701565b60405180910390fd5b5b82905061237b565b61237a83836123a6565b5b949350505050565b6000808273ffffffffffffffffffffffffffffffffffffffff163b119050919050565b6000825111156123b95781518083602001fd5b806040517f08c379a00000000000000000000000000000000000000000000000000000000081526004016123ed9190613765565b60405180910390fd5b604051806101400160405280600015158152602001600073ffffffffffffffffffffffffffffffffffffffff1681526020016000815260200160008152602001600081526020016000815260200160001515815260200160008152602001600081526020016000151581525090565b6000819050919050565b61247881612465565b82525050565b6000602082019050612493600083018461246f565b92915050565b6000604051905090565b600080fd5b600080fd5b600073ffffffffffffffffffffffffffffffffffffffff82169050919050565b60006124d8826124ad565b9050919050565b6124e8816124cd565b81146124f357600080fd5b50565b600081359050612505816124df565b92915050565b61251481612465565b811461251f57600080fd5b50565b6000813590506125318161250b565b92915050565b60008115159050919050565b61254c81612537565b811461255757600080fd5b50565b60008135905061256981612543565b92915050565b600080600080600080600060e0888a03121561258e5761258d6124a3565b5b600061259c8a828b016124f6565b97505060206125ad8a828b01612522565b96505060406125be8a828b01612522565b95505060606125cf8a828b01612522565b94505060806125e08a828b01612522565b93505060a06125f18a828b0161255a565b92505060c06126028a828b01612522565b91505092959891949750929550565b61261a816124cd565b82525050565b60006020820190506126356000830184612611565b92915050565b600060208284031215612651576126506124a3565b5b600061265f84828501612522565b91505092915050565b60006020828403121561267e5761267d6124a3565b5b600061268c848285016124f6565b91505092915050565b600080fd5b6000601f19601f8301169050919050565b7f4e487b7100000000000000000000000000000000000000000000000000000000600052604160045260246000fd5b6126e38261269a565b810181811067ffffffffffffffff82111715612702576127016126ab565b5b80604052505050565b6000612715612499565b905061272182826126da565b919050565b600067ffffffffffffffff821115612741576127406126ab565b5b602082029050602081019050919050565b600080fd5b600080fd5b600060e0828403121561277257612771612757565b5b61277c60e061270b565b9050600061278c848285016124f6565b60008301525060206127a084828501612522565b60208301525060406127b484828501612522565b60408301525060606127c884828501612522565b60608301525060806127dc84828501612522565b60808301525060a06127f08482850161255a565b60a08301525060c061280484828501612522565b60c08301525092915050565b600061282361281e84612726565b61270b565b90508083825260208201905060e0840283018581111561284657612845612752565b5b835b8181101561286f578061285b888261275c565b84526020840193505060e081019050612848565b5050509392505050565b600082601f83011261288e5761288d612695565b5b813561289e848260208601612810565b91505092915050565b6000602082840312156128bd576128bc6124a3565b5b600082013567ffffffffffffffff8111156128db576128da6124a8565b5b6128e784828501612879565b91505092915050565b6000819050919050565b612903816128f0565b811461290e57600080fd5b50565b600081359050612920816128fa565b92915050565b6000806040838503121561293d5761293c6124a3565b5b600061294b85828601612911565b925050602061295c85828601612522565b9150509250929050565b61296f81612537565b82525050565b61297e816124cd565b82525050565b61298d81612465565b82525050565b610140820160008201516129aa6000850182612966565b5060208201516129bd6020850182612975565b5060408201516129d06040850182612984565b5060608201516129e36060850182612984565b5060808201516129f66080850182612984565b5060a0820151612a0960a0850182612984565b5060c0820151612a1c60c0850182612966565b5060e0820151612a2f60e0850182612984565b50610100820151612a44610100850182612984565b50610120820151612a59610120850182612966565b50505050565b600061014082019050612a756000830184612993565b92915050565b60008060408385031215612a9257612a916124a3565b5b6000612aa0858286016124f6565b9250506020612ab185828601612522565b9150509250929050565b612ac4816128f0565b82525050565b6000602082019050612adf6000830184612abb565b92915050565b600060208284031215612afb57612afa6124a3565b5b6000612b0984828501612911565b91505092915050565b600081519050612b218161250b565b92915050565b600060208284031215612b3d57612b3c6124a3565b5b6000612b4b84828501612b12565b91505092915050565b600082825260208201905092915050565b7f546f6b656e56657374696e673a2063616e6e6f7420637265617465207665737460008201527f696e67207363686564756c652062656361757365206e6f74207375666669636960208201527f656e7420746f6b656e7300000000000000000000000000000000000000000000604082015250565b6000612be7604a83612b54565b9150612bf282612b65565b606082019050919050565b60006020820190508181036000830152612c1681612bda565b9050919050565b7f546f6b656e56657374696e673a206475726174696f6e206d757374206265203e60008201527f2030000000000000000000000000000000000000000000000000000000000000602082015250565b6000612c79602283612b54565b9150612c8482612c1d565b604082019050919050565b60006020820190508181036000830152612ca881612c6c565b9050919050565b7f546f6b656e56657374696e673a20616d6f756e74206d757374206265203e2030600082015250565b6000612ce5602083612b54565b9150612cf082612caf565b602082019050919050565b60006020820190508181036000830152612d1481612cd8565b9050919050565b7f546f6b656e56657374696e673a20736c696365506572696f645365636f6e647360008201527f206d757374206265203e3d203100000000000000000000000000000000000000602082015250565b6000612d77602d83612b54565b9150612d8282612d1b565b604082019050919050565b60006020820190508181036000830152612da681612d6a565b9050919050565b600081519050612dbc816128fa565b92915050565b600060208284031215612dd857612dd76124a3565b5b6000612de684828501612dad565b91505092915050565b7f546f6b656e56657374696e673a206e6f7420656e6f756768207769746864726160008201527f7761626c652066756e6473000000000000000000000000000000000000000000602082015250565b6000612e4b602b83612b54565b9150612e5682612def565b604082019050919050565b60006020820190508181036000830152612e7a81612e3e565b9050919050565b7f4e487b7100000000000000000000000000000000000000000000000000000000600052603260045260246000fd5b7f4e487b7100000000000000000000000000000000000000000000000000000000600052601160045260246000fd5b6000612eea82612465565b91507fffffffffffffffffffffffffffffffffffffffffffffffffffffffffffffffff8203612f1c57612f1b612eb0565b5b600182019050919050565b7f546f6b656e56657374696e673a206f6e6c792062656e6566696369617279206160008201527f6e64206f776e65722063616e2072656c656173652076657374656420746f6b6560208201527f6e73000000000000000000000000000000000000000000000000000000000000604082015250565b6000612fa9604283612b54565b9150612fb482612f27565b606082019050919050565b60006020820190508181036000830152612fd881612f9c565b9050919050565b7f546f6b656e56657374696e673a2063616e6e6f742072656c6561736520746f6b60008201527f656e732c206e6f7420656e6f7567682076657374656420746f6b656e73000000602082015250565b600061303b603d83612b54565b915061304682612fdf565b604082019050919050565b6000602082019050818103600083015261306a8161302e565b9050919050565b600061307c82612465565b915061308783612465565b925082820390508181111561309f5761309e612eb0565b5b92915050565b60008160601b9050919050565b60006130bd826130a5565b9050919050565b60006130cf826130b2565b9050919050565b6130e76130e2826124cd565b6130c4565b82525050565b6000819050919050565b61310861310382612465565b6130ed565b82525050565b600061311a82856130d6565b60148201915061312a82846130f7565b6020820191508190509392505050565b7f546f6b656e56657374696e673a2076657374696e67206973206e6f742072657660008201527f6f6361626c650000000000000000000000000000000000000000000000000000602082015250565b6000613196602683612b54565b91506131a18261313a565b604082019050919050565b600060208201905081810360008301526131c581613189565b9050919050565b7f4f776e61626c653a206e6577206f776e657220697320746865207a65726f206160008201527f6464726573730000000000000000000000000000000000000000000000000000602082015250565b6000613228602683612b54565b9150613233826131cc565b604082019050919050565b600060208201905081810360008301526132578161321b565b9050919050565b7f546f6b656e56657374696e673a20696e646578206f7574206f6620626f756e6460008201527f7300000000000000000000000000000000000000000000000000000000000000602082015250565b60006132ba602183612b54565b91506132c58261325e565b604082019050919050565b600060208201905081810360008301526132e9816132ad565b9050919050565b7f4f776e61626c653a2063616c6c6572206973206e6f7420746865206f776e6572600082015250565b6000613326602083612b54565b9150613331826132f0565b602082019050919050565b6000602082019050818103600083015261335581613319565b9050919050565b600061336782612465565b915061337283612465565b925082820190508082111561338a57613389612eb0565b5b92915050565b7f5265656e7472616e637947756172643a207265656e7472616e742063616c6c00600082015250565b60006133c6601f83612b54565b91506133d182613390565b602082019050919050565b600060208201905081810360008301526133f5816133b9565b9050919050565b60006040820190506134116000830185612611565b61341e602083018461246f565b9392505050565b60008151905061343481612543565b92915050565b6000602082840312156134505761344f6124a3565b5b600061345e84828501613425565b91505092915050565b7f5361666545524332303a204552433230206f7065726174696f6e20646964206e60008201527f6f74207375636365656400000000000000000000000000000000000000000000602082015250565b60006134c3602a83612b54565b91506134ce82613467565b604082019050919050565b600060208201905081810360008301526134f2816134b6565b9050919050565b7f4e487b7100000000000000000000000000000000000000000000000000000000600052601260045260246000fd5b600061353382612465565b915061353e83612465565b92508261354e5761354d6134f9565b5b828204905092915050565b600061356482612465565b915061356f83612465565b925082820261357d81612465565b9150828204841483151761359457613593612eb0565b5b5092915050565b7f416464726573733a20696e73756666696369656e742062616c616e636520666f60008201527f722063616c6c0000000000000000000000000000000000000000000000000000602082015250565b60006135f7602683612b54565b91506136028261359b565b604082019050919050565b60006020820190508181036000830152613626816135ea565b9050919050565b600081519050919050565b600081905092915050565b60005b83811015613661578082015181840152602081019050613646565b60008484015250505050565b60006136788261362d565b6136828185613638565b9350613692818560208601613643565b80840191505092915050565b60006136aa828461366d565b915081905092915050565b7f416464726573733a2063616c6c20746f206e6f6e2d636f6e7472616374000000600082015250565b60006136eb601d83612b54565b91506136f6826136b5565b602082019050919050565b6000602082019050818103600083015261371a816136de565b9050919050565b600081519050919050565b600061373782613721565b6137418185612b54565b9350613751818560208601613643565b61375a8161269a565b840191505092915050565b6000602082019050818103600083015261377f818461372c565b90509291505056fea2646970667358221220833d0157d0fd5637e02719a0c2724ee294e4b3d2df1cbc96855d4d55d159c82b64736f6c63430008110033",
					"opcodes": "PUSH1 0xA0 PUSH1 0x40 MSTORE CALLVALUE DUP1 ISZERO PUSH3 0x11 JUMPI PUSH1 0x0 DUP1 REVERT JUMPDEST POP PUSH1 0x40 MLOAD PUSH3 0x3A29 CODESIZE SUB DUP1 PUSH3 0x3A29 DUP4 CODECOPY DUP2 DUP2 ADD PUSH1 0x40 MSTORE DUP2 ADD SWAP1 PUSH3 0x37 SWAP2 SWAP1 PUSH3 0x209 JUMP JUMPDEST PUSH3 0x57 PUSH3 0x4B PUSH3 0xD3 PUSH1 0x20 SHL PUSH1 0x20 SHR JUMP JUMPDEST PUSH3 0xDB PUSH1 0x20 SHL PUSH1 0x20 SHR JUMP JUMPDEST PUSH1 0x1 DUP1 DUP2 SWAP1 SSTORE POP PUSH1 0x0 PUSH20 0xFFFFFFFFFFFFFFFFFFFFFFFFFFFFFFFFFFFFFFFF AND DUP2 PUSH20 0xFFFFFFFFFFFFFFFFFFFFFFFFFFFFFFFFFFFFFFFF AND SUB PUSH3 0x98 JUMPI PUSH1 0x0 DUP1 REVERT JUMPDEST DUP1 PUSH20 0xFFFFFFFFFFFFFFFFFFFFFFFFFFFFFFFFFFFFFFFF AND PUSH1 0x80 DUP2 PUSH20 0xFFFFFFFFFFFFFFFFFFFFFFFFFFFFFFFFFFFFFFFF AND DUP2 MSTORE POP POP POP PUSH3 0x23B JUMP JUMPDEST PUSH1 0x0 CALLER SWAP1 POP SWAP1 JUMP JUMPDEST PUSH1 0x0 DUP1 PUSH1 0x0 SWAP1 SLOAD SWAP1 PUSH2 0x100 EXP SWAP1 DIV PUSH20 0xFFFFFFFFFFFFFFFFFFFFFFFFFFFFFFFFFFFFFFFF AND SWAP1 POP DUP2 PUSH1 0x0 DUP1 PUSH2 0x100 EXP DUP2 SLOAD DUP2 PUSH20 0xFFFFFFFFFFFFFFFFFFFFFFFFFFFFFFFFFFFFFFFF MUL NOT AND SWAP1 DUP4 PUSH20 0xFFFFFFFFFFFFFFFFFFFFFFFFFFFFFFFFFFFFFFFF AND MUL OR SWAP1 SSTORE POP DUP2 PUSH20 0xFFFFFFFFFFFFFFFFFFFFFFFFFFFFFFFFFFFFFFFF AND DUP2 PUSH20 0xFFFFFFFFFFFFFFFFFFFFFFFFFFFFFFFFFFFFFFFF AND PUSH32 0x8BE0079C531659141344CD1FD0A4F28419497F9722A3DAAFE3B4186F6B6457E0 PUSH1 0x40 MLOAD PUSH1 0x40 MLOAD DUP1 SWAP2 SUB SWAP1 LOG3 POP POP JUMP JUMPDEST PUSH1 0x0 DUP1 REVERT JUMPDEST PUSH1 0x0 PUSH20 0xFFFFFFFFFFFFFFFFFFFFFFFFFFFFFFFFFFFFFFFF DUP3 AND SWAP1 POP SWAP2 SWAP1 POP JUMP JUMPDEST PUSH1 0x0 PUSH3 0x1D1 DUP3 PUSH3 0x1A4 JUMP JUMPDEST SWAP1 POP SWAP2 SWAP1 POP JUMP JUMPDEST PUSH3 0x1E3 DUP2 PUSH3 0x1C4 JUMP JUMPDEST DUP2 EQ PUSH3 0x1EF JUMPI PUSH1 0x0 DUP1 REVERT JUMPDEST POP JUMP JUMPDEST PUSH1 0x0 DUP2 MLOAD SWAP1 POP PUSH3 0x203 DUP2 PUSH3 0x1D8 JUMP JUMPDEST SWAP3 SWAP2 POP POP JUMP JUMPDEST PUSH1 0x0 PUSH1 0x20 DUP3 DUP5 SUB SLT ISZERO PUSH3 0x222 JUMPI PUSH3 0x221 PUSH3 0x19F JUMP JUMPDEST JUMPDEST PUSH1 0x0 PUSH3 0x232 DUP5 DUP3 DUP6 ADD PUSH3 0x1F2 JUMP JUMPDEST SWAP2 POP POP SWAP3 SWAP2 POP POP JUMP JUMPDEST PUSH1 0x80 MLOAD PUSH2 0x37BD PUSH3 0x26C PUSH1 0x0 CODECOPY PUSH1 0x0 DUP2 DUP2 PUSH2 0x96C ADD MSTORE DUP2 DUP2 PUSH2 0xA5F ADD MSTORE DUP2 DUP2 PUSH2 0x1488 ADD MSTORE PUSH2 0x16BD ADD MSTORE PUSH2 0x37BD PUSH1 0x0 RETURN INVALID PUSH1 0x80 PUSH1 0x40 MSTORE PUSH1 0x4 CALLDATASIZE LT PUSH2 0x123 JUMPI PUSH1 0x0 CALLDATALOAD PUSH1 0xE0 SHR DUP1 PUSH4 0x8AF104DA GT PUSH2 0xA0 JUMPI DUP1 PUSH4 0xEA1BB3D5 GT PUSH2 0x64 JUMPI DUP1 PUSH4 0xEA1BB3D5 EQ PUSH2 0x3DB JUMPI DUP1 PUSH4 0xF2FDE38B EQ PUSH2 0x418 JUMPI DUP1 PUSH4 0xF51321D7 EQ PUSH2 0x441 JUMPI DUP1 PUSH4 0xF7C469F0 EQ PUSH2 0x47E JUMPI DUP1 PUSH4 0xF9079B37 EQ PUSH2 0x4BB JUMPI PUSH2 0x12A JUMP JUMPDEST DUP1 PUSH4 0x8AF104DA EQ PUSH2 0x2E2 JUMPI DUP1 PUSH4 0x8DA5CB5B EQ PUSH2 0x31F JUMPI DUP1 PUSH4 0x90BE10CC EQ PUSH2 0x34A JUMPI DUP1 PUSH4 0x9EF346B4 EQ PUSH2 0x375 JUMPI DUP1 PUSH4 0xB75C7DC6 EQ PUSH2 0x3B2 JUMPI PUSH2 0x12A JUMP JUMPDEST DUP1 PUSH4 0x5A7BB69A GT PUSH2 0xE7 JUMPI DUP1 PUSH4 0x5A7BB69A EQ PUSH2 0x1FF JUMPI DUP1 PUSH4 0x5D69F805 EQ PUSH2 0x23C JUMPI DUP1 PUSH4 0x66AFD8EF EQ PUSH2 0x265 JUMPI DUP1 PUSH4 0x715018A6 EQ PUSH2 0x28E JUMPI DUP1 PUSH4 0x7E913DC6 EQ PUSH2 0x2A5 JUMPI PUSH2 0x12A JUMP JUMPDEST DUP1 PUSH4 0x13083617 EQ PUSH2 0x12C JUMPI DUP1 PUSH4 0x17E289E9 EQ PUSH2 0x157 JUMPI DUP1 PUSH4 0x21DF0DA7 EQ PUSH2 0x180 JUMPI DUP1 PUSH4 0x2E1A7D4D EQ PUSH2 0x1AB JUMPI DUP1 PUSH4 0x48DEB471 EQ PUSH2 0x1D4 JUMPI PUSH2 0x12A JUMP JUMPDEST CALLDATASIZE PUSH2 0x12A JUMPI STOP JUMPDEST STOP JUMPDEST CALLVALUE DUP1 ISZERO PUSH2 0x138 JUMPI PUSH1 0x0 DUP1 REVERT JUMPDEST POP PUSH2 0x141 PUSH2 0x4F8 JUMP JUMPDEST PUSH1 0x40 MLOAD PUSH2 0x14E SWAP2 SWAP1 PUSH2 0x247E JUMP JUMPDEST PUSH1 0x40 MLOAD DUP1 SWAP2 SUB SWAP1 RETURN JUMPDEST CALLVALUE DUP1 ISZERO PUSH2 0x163 JUMPI PUSH1 0x0 DUP1 REVERT JUMPDEST POP PUSH2 0x17E PUSH1 0x4 DUP1 CALLDATASIZE SUB DUP2 ADD SWAP1 PUSH2 0x179 SWAP2 SWAP1 PUSH2 0x256F JUMP JUMPDEST PUSH2 0x505 JUMP JUMPDEST STOP JUMPDEST CALLVALUE DUP1 ISZERO PUSH2 0x18C JUMPI PUSH1 0x0 DUP1 REVERT JUMPDEST POP PUSH2 0x195 PUSH2 0x968 JUMP JUMPDEST PUSH1 0x40 MLOAD PUSH2 0x1A2 SWAP2 SWAP1 PUSH2 0x2620 JUMP JUMPDEST PUSH1 0x40 MLOAD DUP1 SWAP2 SUB SWAP1 RETURN JUMPDEST CALLVALUE DUP1 ISZERO PUSH2 0x1B7 JUMPI PUSH1 0x0 DUP1 REVERT JUMPDEST POP PUSH2 0x1D2 PUSH1 0x4 DUP1 CALLDATASIZE SUB DUP2 ADD SWAP1 PUSH2 0x1CD SWAP2 SWAP1 PUSH2 0x263B JUMP JUMPDEST PUSH2 0x990 JUMP JUMPDEST STOP JUMPDEST CALLVALUE DUP1 ISZERO PUSH2 0x1E0 JUMPI PUSH1 0x0 DUP1 REVERT JUMPDEST POP PUSH2 0x1E9 PUSH2 0xAAE JUMP JUMPDEST PUSH1 0x40 MLOAD PUSH2 0x1F6 SWAP2 SWAP1 PUSH2 0x247E JUMP JUMPDEST PUSH1 0x40 MLOAD DUP1 SWAP2 SUB SWAP1 RETURN JUMPDEST CALLVALUE DUP1 ISZERO PUSH2 0x20B JUMPI PUSH1 0x0 DUP1 REVERT JUMPDEST POP PUSH2 0x226 PUSH1 0x4 DUP1 CALLDATASIZE SUB DUP2 ADD SWAP1 PUSH2 0x221 SWAP2 SWAP1 PUSH2 0x2668 JUMP JUMPDEST PUSH2 0xAB8 JUMP JUMPDEST PUSH1 0x40 MLOAD PUSH2 0x233 SWAP2 SWAP1 PUSH2 0x247E JUMP JUMPDEST PUSH1 0x40 MLOAD DUP1 SWAP2 SUB SWAP1 RETURN JUMPDEST CALLVALUE DUP1 ISZERO PUSH2 0x248 JUMPI PUSH1 0x0 DUP1 REVERT JUMPDEST POP PUSH2 0x263 PUSH1 0x4 DUP1 CALLDATASIZE SUB DUP2 ADD SWAP1 PUSH2 0x25E SWAP2 SWAP1 PUSH2 0x28A7 JUMP JUMPDEST PUSH2 0xB01 JUMP JUMPDEST STOP JUMPDEST CALLVALUE DUP1 ISZERO PUSH2 0x271 JUMPI PUSH1 0x0 DUP1 REVERT JUMPDEST POP PUSH2 0x28C PUSH1 0x4 DUP1 CALLDATASIZE SUB DUP2 ADD SWAP1 PUSH2 0x287 SWAP2 SWAP1 PUSH2 0x2926 JUMP JUMPDEST PUSH2 0x117E JUMP JUMPDEST STOP JUMPDEST CALLVALUE DUP1 ISZERO PUSH2 0x29A JUMPI PUSH1 0x0 DUP1 REVERT JUMPDEST POP PUSH2 0x2A3 PUSH2 0x14DE JUMP JUMPDEST STOP JUMPDEST CALLVALUE DUP1 ISZERO PUSH2 0x2B1 JUMPI PUSH1 0x0 DUP1 REVERT JUMPDEST POP PUSH2 0x2CC PUSH1 0x4 DUP1 CALLDATASIZE SUB DUP2 ADD SWAP1 PUSH2 0x2C7 SWAP2 SWAP1 PUSH2 0x2668 JUMP JUMPDEST PUSH2 0x14F2 JUMP JUMPDEST PUSH1 0x40 MLOAD PUSH2 0x2D9 SWAP2 SWAP1 PUSH2 0x2A5F JUMP JUMPDEST PUSH1 0x40 MLOAD DUP1 SWAP2 SUB SWAP1 RETURN JUMPDEST CALLVALUE DUP1 ISZERO PUSH2 0x2EE JUMPI PUSH1 0x0 DUP1 REVERT JUMPDEST POP PUSH2 0x309 PUSH1 0x4 DUP1 CALLDATASIZE SUB DUP2 ADD SWAP1 PUSH2 0x304 SWAP2 SWAP1 PUSH2 0x2A7B JUMP JUMPDEST PUSH2 0x1657 JUMP JUMPDEST PUSH1 0x40 MLOAD PUSH2 0x316 SWAP2 SWAP1 PUSH2 0x2ACA JUMP JUMPDEST PUSH1 0x40 MLOAD DUP1 SWAP2 SUB SWAP1 RETURN JUMPDEST CALLVALUE DUP1 ISZERO PUSH2 0x32B JUMPI PUSH1 0x0 DUP1 REVERT JUMPDEST POP PUSH2 0x334 PUSH2 0x168A JUMP JUMPDEST PUSH1 0x40 MLOAD PUSH2 0x341 SWAP2 SWAP1 PUSH2 0x2620 JUMP JUMPDEST PUSH1 0x40 MLOAD DUP1 SWAP2 SUB SWAP1 RETURN JUMPDEST CALLVALUE DUP1 ISZERO PUSH2 0x356 JUMPI PUSH1 0x0 DUP1 REVERT JUMPDEST POP PUSH2 0x35F PUSH2 0x16B3 JUMP JUMPDEST PUSH1 0x40 MLOAD PUSH2 0x36C SWAP2 SWAP1 PUSH2 0x247E JUMP JUMPDEST PUSH1 0x40 MLOAD DUP1 SWAP2 SUB SWAP1 RETURN JUMPDEST CALLVALUE DUP1 ISZERO PUSH2 0x381 JUMPI PUSH1 0x0 DUP1 REVERT JUMPDEST POP PUSH2 0x39C PUSH1 0x4 DUP1 CALLDATASIZE SUB DUP2 ADD SWAP1 PUSH2 0x397 SWAP2 SWAP1 PUSH2 0x2AE5 JUMP JUMPDEST PUSH2 0x1768 JUMP JUMPDEST PUSH1 0x40 MLOAD PUSH2 0x3A9 SWAP2 SWAP1 PUSH2 0x2A5F JUMP JUMPDEST PUSH1 0x40 MLOAD DUP1 SWAP2 SUB SWAP1 RETURN JUMPDEST CALLVALUE DUP1 ISZERO PUSH2 0x3BE JUMPI PUSH1 0x0 DUP1 REVERT JUMPDEST POP PUSH2 0x3D9 PUSH1 0x4 DUP1 CALLDATASIZE SUB DUP2 ADD SWAP1 PUSH2 0x3D4 SWAP2 SWAP1 PUSH2 0x2AE5 JUMP JUMPDEST PUSH2 0x1879 JUMP JUMPDEST STOP JUMPDEST CALLVALUE DUP1 ISZERO PUSH2 0x3E7 JUMPI PUSH1 0x0 DUP1 REVERT JUMPDEST POP PUSH2 0x402 PUSH1 0x4 DUP1 CALLDATASIZE SUB DUP2 ADD SWAP1 PUSH2 0x3FD SWAP2 SWAP1 PUSH2 0x2AE5 JUMP JUMPDEST PUSH2 0x1AC7 JUMP JUMPDEST PUSH1 0x40 MLOAD PUSH2 0x40F SWAP2 SWAP1 PUSH2 0x247E JUMP JUMPDEST PUSH1 0x40 MLOAD DUP1 SWAP2 SUB SWAP1 RETURN JUMPDEST CALLVALUE DUP1 ISZERO PUSH2 0x424 JUMPI PUSH1 0x0 DUP1 REVERT JUMPDEST POP PUSH2 0x43F PUSH1 0x4 DUP1 CALLDATASIZE SUB DUP2 ADD SWAP1 PUSH2 0x43A SWAP2 SWAP1 PUSH2 0x2668 JUMP JUMPDEST PUSH2 0x1C4A JUMP JUMPDEST STOP JUMPDEST CALLVALUE DUP1 ISZERO PUSH2 0x44D JUMPI PUSH1 0x0 DUP1 REVERT JUMPDEST POP PUSH2 0x468 PUSH1 0x4 DUP1 CALLDATASIZE SUB DUP2 ADD SWAP1 PUSH2 0x463 SWAP2 SWAP1 PUSH2 0x2A7B JUMP JUMPDEST PUSH2 0x1CCD JUMP JUMPDEST PUSH1 0x40 MLOAD PUSH2 0x475 SWAP2 SWAP1 PUSH2 0x2A5F JUMP JUMPDEST PUSH1 0x40 MLOAD DUP1 SWAP2 SUB SWAP1 RETURN JUMPDEST CALLVALUE DUP1 ISZERO PUSH2 0x48A JUMPI PUSH1 0x0 DUP1 REVERT JUMPDEST POP PUSH2 0x4A5 PUSH1 0x4 DUP1 CALLDATASIZE SUB DUP2 ADD SWAP1 PUSH2 0x4A0 SWAP2 SWAP1 PUSH2 0x2668 JUMP JUMPDEST PUSH2 0x1CEF JUMP JUMPDEST PUSH1 0x40 MLOAD PUSH2 0x4B2 SWAP2 SWAP1 PUSH2 0x2ACA JUMP JUMPDEST PUSH1 0x40 MLOAD DUP1 SWAP2 SUB SWAP1 RETURN JUMPDEST CALLVALUE DUP1 ISZERO PUSH2 0x4C7 JUMPI PUSH1 0x0 DUP1 REVERT JUMPDEST POP PUSH2 0x4E2 PUSH1 0x4 DUP1 CALLDATASIZE SUB DUP2 ADD SWAP1 PUSH2 0x4DD SWAP2 SWAP1 PUSH2 0x263B JUMP JUMPDEST PUSH2 0x1D41 JUMP JUMPDEST PUSH1 0x40 MLOAD PUSH2 0x4EF SWAP2 SWAP1 PUSH2 0x2ACA JUMP JUMPDEST PUSH1 0x40 MLOAD DUP1 SWAP2 SUB SWAP1 RETURN JUMPDEST PUSH1 0x0 PUSH1 0x2 DUP1 SLOAD SWAP1 POP SWAP1 POP SWAP1 JUMP JUMPDEST PUSH2 0x50D PUSH2 0x1DB2 JUMP JUMPDEST DUP1 ADDRESS PUSH20 0xFFFFFFFFFFFFFFFFFFFFFFFFFFFFFFFFFFFFFFFF AND PUSH4 0x90BE10CC PUSH1 0x40 MLOAD DUP2 PUSH4 0xFFFFFFFF AND PUSH1 0xE0 SHL DUP2 MSTORE PUSH1 0x4 ADD PUSH1 0x20 PUSH1 0x40 MLOAD DUP1 DUP4 SUB DUP2 DUP7 GAS STATICCALL ISZERO DUP1 ISZERO PUSH2 0x559 JUMPI RETURNDATASIZE PUSH1 0x0 DUP1 RETURNDATACOPY RETURNDATASIZE PUSH1 0x0 REVERT JUMPDEST POP POP POP POP PUSH1 0x40 MLOAD RETURNDATASIZE PUSH1 0x1F NOT PUSH1 0x1F DUP3 ADD AND DUP3 ADD DUP1 PUSH1 0x40 MSTORE POP DUP2 ADD SWAP1 PUSH2 0x57D SWAP2 SWAP1 PUSH2 0x2B27 JUMP JUMPDEST LT ISZERO PUSH2 0x5BE JUMPI PUSH1 0x40 MLOAD PUSH32 0x8C379A000000000000000000000000000000000000000000000000000000000 DUP2 MSTORE PUSH1 0x4 ADD PUSH2 0x5B5 SWAP1 PUSH2 0x2BFD JUMP JUMPDEST PUSH1 0x40 MLOAD DUP1 SWAP2 SUB SWAP1 REVERT JUMPDEST PUSH1 0x0 DUP5 GT PUSH2 0x601 JUMPI PUSH1 0x40 MLOAD PUSH32 0x8C379A000000000000000000000000000000000000000000000000000000000 DUP2 MSTORE PUSH1 0x4 ADD PUSH2 0x5F8 SWAP1 PUSH2 0x2C8F JUMP JUMPDEST PUSH1 0x40 MLOAD DUP1 SWAP2 SUB SWAP1 REVERT JUMPDEST PUSH1 0x0 DUP2 GT PUSH2 0x644 JUMPI PUSH1 0x40 MLOAD PUSH32 0x8C379A000000000000000000000000000000000000000000000000000000000 DUP2 MSTORE PUSH1 0x4 ADD PUSH2 0x63B SWAP1 PUSH2 0x2CFB JUMP JUMPDEST PUSH1 0x40 MLOAD DUP1 SWAP2 SUB SWAP1 REVERT JUMPDEST PUSH1 0x1 DUP4 LT ISZERO PUSH2 0x688 JUMPI PUSH1 0x40 MLOAD PUSH32 0x8C379A000000000000000000000000000000000000000000000000000000000 DUP2 MSTORE PUSH1 0x4 ADD PUSH2 0x67F SWAP1 PUSH2 0x2D8D JUMP JUMPDEST PUSH1 0x40 MLOAD DUP1 SWAP2 SUB SWAP1 REVERT JUMPDEST PUSH1 0x0 ADDRESS PUSH20 0xFFFFFFFFFFFFFFFFFFFFFFFFFFFFFFFFFFFFFFFF AND PUSH4 0xF7C469F0 DUP10 PUSH1 0x40 MLOAD DUP3 PUSH4 0xFFFFFFFF AND PUSH1 0xE0 SHL DUP2 MSTORE PUSH1 0x4 ADD PUSH2 0x6C3 SWAP2 SWAP1 PUSH2 0x2620 JUMP JUMPDEST PUSH1 0x20 PUSH1 0x40 MLOAD DUP1 DUP4 SUB DUP2 DUP7 GAS STATICCALL ISZERO DUP1 ISZERO PUSH2 0x6E0 JUMPI RETURNDATASIZE PUSH1 0x0 DUP1 RETURNDATACOPY RETURNDATASIZE PUSH1 0x0 REVERT JUMPDEST POP POP POP POP PUSH1 0x40 MLOAD RETURNDATASIZE PUSH1 0x1F NOT PUSH1 0x1F DUP3 ADD AND DUP3 ADD DUP1 PUSH1 0x40 MSTORE POP DUP2 ADD SWAP1 PUSH2 0x704 SWAP2 SWAP1 PUSH2 0x2DC2 JUMP JUMPDEST SWAP1 POP PUSH1 0x0 PUSH2 0x71B DUP8 DUP10 PUSH2 0x1E30 SWAP1 SWAP2 SWAP1 PUSH4 0xFFFFFFFF AND JUMP JUMPDEST SWAP1 POP PUSH1 0x40 MLOAD DUP1 PUSH2 0x140 ADD PUSH1 0x40 MSTORE DUP1 PUSH1 0x1 ISZERO ISZERO DUP2 MSTORE PUSH1 0x20 ADD DUP11 PUSH20 0xFFFFFFFFFFFFFFFFFFFFFFFFFFFFFFFFFFFFFFFF AND DUP2 MSTORE PUSH1 0x20 ADD DUP3 DUP2 MSTORE PUSH1 0x20 ADD DUP10 DUP2 MSTORE PUSH1 0x20 ADD DUP8 DUP2 MSTORE PUSH1 0x20 ADD DUP7 DUP2 MSTORE PUSH1 0x20 ADD DUP6 ISZERO ISZERO DUP2 MSTORE PUSH1 0x20 ADD DUP5 DUP2 MSTORE PUSH1 0x20 ADD PUSH1 0x0 DUP2 MSTORE PUSH1 0x20 ADD PUSH1 0x0 ISZERO ISZERO DUP2 MSTORE POP PUSH1 0x3 PUSH1 0x0 DUP5 DUP2 MSTORE PUSH1 0x20 ADD SWAP1 DUP2 MSTORE PUSH1 0x20 ADD PUSH1 0x0 KECCAK256 PUSH1 0x0 DUP3 ADD MLOAD DUP2 PUSH1 0x0 ADD PUSH1 0x0 PUSH2 0x100 EXP DUP2 SLOAD DUP2 PUSH1 0xFF MUL NOT AND SWAP1 DUP4 ISZERO ISZERO MUL OR SWAP1 SSTORE POP PUSH1 0x20 DUP3 ADD MLOAD DUP2 PUSH1 0x0 ADD PUSH1 0x1 PUSH2 0x100 EXP DUP2 SLOAD DUP2 PUSH20 0xFFFFFFFFFFFFFFFFFFFFFFFFFFFFFFFFFFFFFFFF MUL NOT AND SWAP1 DUP4 PUSH20 0xFFFFFFFFFFFFFFFFFFFFFFFFFFFFFFFFFFFFFFFF AND MUL OR SWAP1 SSTORE POP PUSH1 0x40 DUP3 ADD MLOAD DUP2 PUSH1 0x1 ADD SSTORE PUSH1 0x60 DUP3 ADD MLOAD DUP2 PUSH1 0x2 ADD SSTORE PUSH1 0x80 DUP3 ADD MLOAD DUP2 PUSH1 0x3 ADD SSTORE PUSH1 0xA0 DUP3 ADD MLOAD DUP2 PUSH1 0x4 ADD SSTORE PUSH1 0xC0 DUP3 ADD MLOAD DUP2 PUSH1 0x5 ADD PUSH1 0x0 PUSH2 0x100 EXP DUP2 SLOAD DUP2 PUSH1 0xFF MUL NOT AND SWAP1 DUP4 ISZERO ISZERO MUL OR SWAP1 SSTORE POP PUSH1 0xE0 DUP3 ADD MLOAD DUP2 PUSH1 0x6 ADD SSTORE PUSH2 0x100 DUP3 ADD MLOAD DUP2 PUSH1 0x7 ADD SSTORE PUSH2 0x120 DUP3 ADD MLOAD DUP2 PUSH1 0x8 ADD PUSH1 0x0 PUSH2 0x100 EXP DUP2 SLOAD DUP2 PUSH1 0xFF MUL NOT AND SWAP1 DUP4 ISZERO ISZERO MUL OR SWAP1 SSTORE POP SWAP1 POP POP PUSH2 0x892 DUP4 PUSH1 0x4 SLOAD PUSH2 0x1E30 SWAP1 SWAP2 SWAP1 PUSH4 0xFFFFFFFF AND JUMP JUMPDEST PUSH1 0x4 DUP2 SWAP1 SSTORE POP PUSH1 0x2 DUP3 SWAP1 DUP1 PUSH1 0x1 DUP2 SLOAD ADD DUP1 DUP3 SSTORE DUP1 SWAP2 POP POP PUSH1 0x1 SWAP1 SUB SWAP1 PUSH1 0x0 MSTORE PUSH1 0x20 PUSH1 0x0 KECCAK256 ADD PUSH1 0x0 SWAP1 SWAP2 SWAP1 SWAP2 SWAP1 SWAP2 POP SSTORE PUSH1 0x0 PUSH1 0x5 PUSH1 0x0 DUP12 PUSH20 0xFFFFFFFFFFFFFFFFFFFFFFFFFFFFFFFFFFFFFFFF AND PUSH20 0xFFFFFFFFFFFFFFFFFFFFFFFFFFFFFFFFFFFFFFFF AND DUP2 MSTORE PUSH1 0x20 ADD SWAP1 DUP2 MSTORE PUSH1 0x20 ADD PUSH1 0x0 KECCAK256 SLOAD SWAP1 POP PUSH2 0x919 PUSH1 0x1 DUP3 PUSH2 0x1E30 SWAP1 SWAP2 SWAP1 PUSH4 0xFFFFFFFF AND JUMP JUMPDEST PUSH1 0x5 PUSH1 0x0 DUP13 PUSH20 0xFFFFFFFFFFFFFFFFFFFFFFFFFFFFFFFFFFFFFFFF AND PUSH20 0xFFFFFFFFFFFFFFFFFFFFFFFFFFFFFFFFFFFFFFFF AND DUP2 MSTORE PUSH1 0x20 ADD SWAP1 DUP2 MSTORE PUSH1 0x20 ADD PUSH1 0x0 KECCAK256 DUP2 SWAP1 SSTORE POP POP POP POP POP POP POP POP POP POP POP JUMP JUMPDEST PUSH1 0x0 PUSH32 0x0 SWAP1 POP SWAP1 JUMP JUMPDEST PUSH2 0x998 PUSH2 0x1E46 JUMP JUMPDEST PUSH2 0x9A0 PUSH2 0x1DB2 JUMP JUMPDEST DUP1 ADDRESS PUSH20 0xFFFFFFFFFFFFFFFFFFFFFFFFFFFFFFFFFFFFFFFF AND PUSH4 0x90BE10CC PUSH1 0x40 MLOAD DUP2 PUSH4 0xFFFFFFFF AND PUSH1 0xE0 SHL DUP2 MSTORE PUSH1 0x4 ADD PUSH1 0x20 PUSH1 0x40 MLOAD DUP1 DUP4 SUB DUP2 DUP7 GAS STATICCALL ISZERO DUP1 ISZERO PUSH2 0x9EC JUMPI RETURNDATASIZE PUSH1 0x0 DUP1 RETURNDATACOPY RETURNDATASIZE PUSH1 0x0 REVERT JUMPDEST POP POP POP POP PUSH1 0x40 MLOAD RETURNDATASIZE PUSH1 0x1F NOT PUSH1 0x1F DUP3 ADD AND DUP3 ADD DUP1 PUSH1 0x40 MSTORE POP DUP2 ADD SWAP1 PUSH2 0xA10 SWAP2 SWAP1 PUSH2 0x2B27 JUMP JUMPDEST LT ISZERO PUSH2 0xA51 JUMPI PUSH1 0x40 MLOAD PUSH32 0x8C379A000000000000000000000000000000000000000000000000000000000 DUP2 MSTORE PUSH1 0x4 ADD PUSH2 0xA48 SWAP1 PUSH2 0x2E61 JUMP JUMPDEST PUSH1 0x40 MLOAD DUP1 SWAP2 SUB SWAP1 REVERT JUMPDEST PUSH2 0xAA3 PUSH2 0xA5C PUSH2 0x168A JUMP JUMPDEST DUP3 PUSH32 0x0 PUSH20 0xFFFFFFFFFFFFFFFFFFFFFFFFFFFFFFFFFFFFFFFF AND PUSH2 0x1E95 SWAP1 SWAP3 SWAP2 SWAP1 PUSH4 0xFFFFFFFF AND JUMP JUMPDEST PUSH2 0xAAB PUSH2 0x1F1B JUMP JUMPDEST POP JUMP JUMPDEST PUSH1 0x0 PUSH1 0x4 SLOAD SWAP1 POP SWAP1 JUMP JUMPDEST PUSH1 0x0 PUSH1 0x5 PUSH1 0x0 DUP4 PUSH20 0xFFFFFFFFFFFFFFFFFFFFFFFFFFFFFFFFFFFFFFFF AND PUSH20 0xFFFFFFFFFFFFFFFFFFFFFFFFFFFFFFFFFFFFFFFF AND DUP2 MSTORE PUSH1 0x20 ADD SWAP1 DUP2 MSTORE PUSH1 0x20 ADD PUSH1 0x0 KECCAK256 SLOAD SWAP1 POP SWAP2 SWAP1 POP JUMP JUMPDEST PUSH2 0xB09 PUSH2 0x1DB2 JUMP JUMPDEST PUSH1 0x0 JUMPDEST DUP2 MLOAD DUP2 LT ISZERO PUSH2 0xD1B JUMPI DUP2 DUP2 DUP2 MLOAD DUP2 LT PUSH2 0xB28 JUMPI PUSH2 0xB27 PUSH2 0x2E81 JUMP JUMPDEST JUMPDEST PUSH1 0x20 MUL PUSH1 0x20 ADD ADD MLOAD PUSH1 0xC0 ADD MLOAD ADDRESS PUSH20 0xFFFFFFFFFFFFFFFFFFFFFFFFFFFFFFFFFFFFFFFF AND PUSH4 0x90BE10CC PUSH1 0x40 MLOAD DUP2 PUSH4 0xFFFFFFFF AND PUSH1 0xE0 SHL DUP2 MSTORE PUSH1 0x4 ADD PUSH1 0x20 PUSH1 0x40 MLOAD DUP1 DUP4 SUB DUP2 DUP7 GAS STATICCALL ISZERO DUP1 ISZERO PUSH2 0xB7F JUMPI RETURNDATASIZE PUSH1 0x0 DUP1 RETURNDATACOPY RETURNDATASIZE PUSH1 0x0 REVERT JUMPDEST POP POP POP POP PUSH1 0x40 MLOAD RETURNDATASIZE PUSH1 0x1F NOT PUSH1 0x1F DUP3 ADD AND DUP3 ADD DUP1 PUSH1 0x40 MSTORE POP DUP2 ADD SWAP1 PUSH2 0xBA3 SWAP2 SWAP1 PUSH2 0x2B27 JUMP JUMPDEST LT ISZERO PUSH2 0xBE4 JUMPI PUSH1 0x40 MLOAD PUSH32 0x8C379A000000000000000000000000000000000000000000000000000000000 DUP2 MSTORE PUSH1 0x4 ADD PUSH2 0xBDB SWAP1 PUSH2 0x2BFD JUMP JUMPDEST PUSH1 0x40 MLOAD DUP1 SWAP2 SUB SWAP1 REVERT JUMPDEST PUSH1 0x0 DUP3 DUP3 DUP2 MLOAD DUP2 LT PUSH2 0xBF9 JUMPI PUSH2 0xBF8 PUSH2 0x2E81 JUMP JUMPDEST JUMPDEST PUSH1 0x20 MUL PUSH1 0x20 ADD ADD MLOAD PUSH1 0x60 ADD MLOAD GT PUSH2 0xC45 JUMPI PUSH1 0x40 MLOAD PUSH32 0x8C379A000000000000000000000000000000000000000000000000000000000 DUP2 MSTORE PUSH1 0x4 ADD PUSH2 0xC3C SWAP1 PUSH2 0x2C8F JUMP JUMPDEST PUSH1 0x40 MLOAD DUP1 SWAP2 SUB SWAP1 REVERT JUMPDEST PUSH1 0x0 DUP3 DUP3 DUP2 MLOAD DUP2 LT PUSH2 0xC5A JUMPI PUSH2 0xC59 PUSH2 0x2E81 JUMP JUMPDEST JUMPDEST PUSH1 0x20 MUL PUSH1 0x20 ADD ADD MLOAD PUSH1 0xC0 ADD MLOAD GT PUSH2 0xCA6 JUMPI PUSH1 0x40 MLOAD PUSH32 0x8C379A000000000000000000000000000000000000000000000000000000000 DUP2 MSTORE PUSH1 0x4 ADD PUSH2 0xC9D SWAP1 PUSH2 0x2CFB JUMP JUMPDEST PUSH1 0x40 MLOAD DUP1 SWAP2 SUB SWAP1 REVERT JUMPDEST PUSH1 0x1 DUP3 DUP3 DUP2 MLOAD DUP2 LT PUSH2 0xCBB JUMPI PUSH2 0xCBA PUSH2 0x2E81 JUMP JUMPDEST JUMPDEST PUSH1 0x20 MUL PUSH1 0x20 ADD ADD MLOAD PUSH1 0x80 ADD MLOAD LT ISZERO PUSH2 0xD08 JUMPI PUSH1 0x40 MLOAD PUSH32 0x8C379A000000000000000000000000000000000000000000000000000000000 DUP2 MSTORE PUSH1 0x4 ADD PUSH2 0xCFF SWAP1 PUSH2 0x2D8D JUMP JUMPDEST PUSH1 0x40 MLOAD DUP1 SWAP2 SUB SWAP1 REVERT JUMPDEST DUP1 DUP1 PUSH2 0xD13 SWAP1 PUSH2 0x2EDF JUMP JUMPDEST SWAP2 POP POP PUSH2 0xB0C JUMP JUMPDEST POP PUSH1 0x0 JUMPDEST DUP2 MLOAD DUP2 LT ISZERO PUSH2 0x117A JUMPI PUSH1 0x0 ADDRESS PUSH20 0xFFFFFFFFFFFFFFFFFFFFFFFFFFFFFFFFFFFFFFFF AND PUSH4 0xF7C469F0 DUP5 DUP5 DUP2 MLOAD DUP2 LT PUSH2 0xD59 JUMPI PUSH2 0xD58 PUSH2 0x2E81 JUMP JUMPDEST JUMPDEST PUSH1 0x20 MUL PUSH1 0x20 ADD ADD MLOAD PUSH1 0x0 ADD MLOAD PUSH1 0x40 MLOAD DUP3 PUSH4 0xFFFFFFFF AND PUSH1 0xE0 SHL DUP2 MSTORE PUSH1 0x4 ADD PUSH2 0xD81 SWAP2 SWAP1 PUSH2 0x2620 JUMP JUMPDEST PUSH1 0x20 PUSH1 0x40 MLOAD DUP1 DUP4 SUB DUP2 DUP7 GAS STATICCALL ISZERO DUP1 ISZERO PUSH2 0xD9E JUMPI RETURNDATASIZE PUSH1 0x0 DUP1 RETURNDATACOPY RETURNDATASIZE PUSH1 0x0 REVERT JUMPDEST POP POP POP POP PUSH1 0x40 MLOAD RETURNDATASIZE PUSH1 0x1F NOT PUSH1 0x1F DUP3 ADD AND DUP3 ADD DUP1 PUSH1 0x40 MSTORE POP DUP2 ADD SWAP1 PUSH2 0xDC2 SWAP2 SWAP1 PUSH2 0x2DC2 JUMP JUMPDEST SWAP1 POP PUSH1 0x0 PUSH2 0xE15 DUP5 DUP5 DUP2 MLOAD DUP2 LT PUSH2 0xDDC JUMPI PUSH2 0xDDB PUSH2 0x2E81 JUMP JUMPDEST JUMPDEST PUSH1 0x20 MUL PUSH1 0x20 ADD ADD MLOAD PUSH1 0x20 ADD MLOAD DUP6 DUP6 DUP2 MLOAD DUP2 LT PUSH2 0xDFB JUMPI PUSH2 0xDFA PUSH2 0x2E81 JUMP JUMPDEST JUMPDEST PUSH1 0x20 MUL PUSH1 0x20 ADD ADD MLOAD PUSH1 0x40 ADD MLOAD PUSH2 0x1E30 SWAP1 SWAP2 SWAP1 PUSH4 0xFFFFFFFF AND JUMP JUMPDEST SWAP1 POP PUSH1 0x40 MLOAD DUP1 PUSH2 0x140 ADD PUSH1 0x40 MSTORE DUP1 PUSH1 0x1 ISZERO ISZERO DUP2 MSTORE PUSH1 0x20 ADD DUP6 DUP6 DUP2 MLOAD DUP2 LT PUSH2 0xE3F JUMPI PUSH2 0xE3E PUSH2 0x2E81 JUMP JUMPDEST JUMPDEST PUSH1 0x20 MUL PUSH1 0x20 ADD ADD MLOAD PUSH1 0x0 ADD MLOAD PUSH20 0xFFFFFFFFFFFFFFFFFFFFFFFFFFFFFFFFFFFFFFFF AND DUP2 MSTORE PUSH1 0x20 ADD DUP3 DUP2 MSTORE PUSH1 0x20 ADD DUP6 DUP6 DUP2 MLOAD DUP2 LT PUSH2 0xE7F JUMPI PUSH2 0xE7E PUSH2 0x2E81 JUMP JUMPDEST JUMPDEST PUSH1 0x20 MUL PUSH1 0x20 ADD ADD MLOAD PUSH1 0x40 ADD MLOAD DUP2 MSTORE PUSH1 0x20 ADD DUP6 DUP6 DUP2 MLOAD DUP2 LT PUSH2 0xEA3 JUMPI PUSH2 0xEA2 PUSH2 0x2E81 JUMP JUMPDEST JUMPDEST PUSH1 0x20 MUL PUSH1 0x20 ADD ADD MLOAD PUSH1 0x60 ADD MLOAD DUP2 MSTORE PUSH1 0x20 ADD DUP6 DUP6 DUP2 MLOAD DUP2 LT PUSH2 0xEC7 JUMPI PUSH2 0xEC6 PUSH2 0x2E81 JUMP JUMPDEST JUMPDEST PUSH1 0x20 MUL PUSH1 0x20 ADD ADD MLOAD PUSH1 0x80 ADD MLOAD DUP2 MSTORE PUSH1 0x20 ADD DUP6 DUP6 DUP2 MLOAD DUP2 LT PUSH2 0xEEB JUMPI PUSH2 0xEEA PUSH2 0x2E81 JUMP JUMPDEST JUMPDEST PUSH1 0x20 MUL PUSH1 0x20 ADD ADD MLOAD PUSH1 0xA0 ADD MLOAD ISZERO ISZERO DUP2 MSTORE PUSH1 0x20 ADD DUP6 DUP6 DUP2 MLOAD DUP2 LT PUSH2 0xF11 JUMPI PUSH2 0xF10 PUSH2 0x2E81 JUMP JUMPDEST JUMPDEST PUSH1 0x20 MUL PUSH1 0x20 ADD ADD MLOAD PUSH1 0xC0 ADD MLOAD DUP2 MSTORE PUSH1 0x20 ADD PUSH1 0x0 DUP2 MSTORE PUSH1 0x20 ADD PUSH1 0x0 ISZERO ISZERO DUP2 MSTORE POP PUSH1 0x3 PUSH1 0x0 DUP5 DUP2 MSTORE PUSH1 0x20 ADD SWAP1 DUP2 MSTORE PUSH1 0x20 ADD PUSH1 0x0 KECCAK256 PUSH1 0x0 DUP3 ADD MLOAD DUP2 PUSH1 0x0 ADD PUSH1 0x0 PUSH2 0x100 EXP DUP2 SLOAD DUP2 PUSH1 0xFF MUL NOT AND SWAP1 DUP4 ISZERO ISZERO MUL OR SWAP1 SSTORE POP PUSH1 0x20 DUP3 ADD MLOAD DUP2 PUSH1 0x0 ADD PUSH1 0x1 PUSH2 0x100 EXP DUP2 SLOAD DUP2 PUSH20 0xFFFFFFFFFFFFFFFFFFFFFFFFFFFFFFFFFFFFFFFF MUL NOT AND SWAP1 DUP4 PUSH20 0xFFFFFFFFFFFFFFFFFFFFFFFFFFFFFFFFFFFFFFFF AND MUL OR SWAP1 SSTORE POP PUSH1 0x40 DUP3 ADD MLOAD DUP2 PUSH1 0x1 ADD SSTORE PUSH1 0x60 DUP3 ADD MLOAD DUP2 PUSH1 0x2 ADD SSTORE PUSH1 0x80 DUP3 ADD MLOAD DUP2 PUSH1 0x3 ADD SSTORE PUSH1 0xA0 DUP3 ADD MLOAD DUP2 PUSH1 0x4 ADD SSTORE PUSH1 0xC0 DUP3 ADD MLOAD DUP2 PUSH1 0x5 ADD PUSH1 0x0 PUSH2 0x100 EXP DUP2 SLOAD DUP2 PUSH1 0xFF MUL NOT AND SWAP1 DUP4 ISZERO ISZERO MUL OR SWAP1 SSTORE POP PUSH1 0xE0 DUP3 ADD MLOAD DUP2 PUSH1 0x6 ADD SSTORE PUSH2 0x100 DUP3 ADD MLOAD DUP2 PUSH1 0x7 ADD SSTORE PUSH2 0x120 DUP3 ADD MLOAD DUP2 PUSH1 0x8 ADD PUSH1 0x0 PUSH2 0x100 EXP DUP2 SLOAD DUP2 PUSH1 0xFF MUL NOT AND SWAP1 DUP4 ISZERO ISZERO MUL OR SWAP1 SSTORE POP SWAP1 POP POP PUSH2 0x105E DUP5 DUP5 DUP2 MLOAD DUP2 LT PUSH2 0x1041 JUMPI PUSH2 0x1040 PUSH2 0x2E81 JUMP JUMPDEST JUMPDEST PUSH1 0x20 MUL PUSH1 0x20 ADD ADD MLOAD PUSH1 0xC0 ADD MLOAD PUSH1 0x4 SLOAD PUSH2 0x1E30 SWAP1 SWAP2 SWAP1 PUSH4 0xFFFFFFFF AND JUMP JUMPDEST PUSH1 0x4 DUP2 SWAP1 SSTORE POP PUSH1 0x2 DUP3 SWAP1 DUP1 PUSH1 0x1 DUP2 SLOAD ADD DUP1 DUP3 SSTORE DUP1 SWAP2 POP POP PUSH1 0x1 SWAP1 SUB SWAP1 PUSH1 0x0 MSTORE PUSH1 0x20 PUSH1 0x0 KECCAK256 ADD PUSH1 0x0 SWAP1 SWAP2 SWAP1 SWAP2 SWAP1 SWAP2 POP SSTORE PUSH1 0x0 PUSH1 0x5 PUSH1 0x0 DUP7 DUP7 DUP2 MLOAD DUP2 LT PUSH2 0x10A6 JUMPI PUSH2 0x10A5 PUSH2 0x2E81 JUMP JUMPDEST JUMPDEST PUSH1 0x20 MUL PUSH1 0x20 ADD ADD MLOAD PUSH1 0x0 ADD MLOAD PUSH20 0xFFFFFFFFFFFFFFFFFFFFFFFFFFFFFFFFFFFFFFFF AND PUSH20 0xFFFFFFFFFFFFFFFFFFFFFFFFFFFFFFFFFFFFFFFF AND DUP2 MSTORE PUSH1 0x20 ADD SWAP1 DUP2 MSTORE PUSH1 0x20 ADD PUSH1 0x0 KECCAK256 SLOAD SWAP1 POP PUSH2 0x1103 PUSH1 0x1 DUP3 PUSH2 0x1E30 SWAP1 SWAP2 SWAP1 PUSH4 0xFFFFFFFF AND JUMP JUMPDEST PUSH1 0x5 PUSH1 0x0 DUP8 DUP8 DUP2 MLOAD DUP2 LT PUSH2 0x111A JUMPI PUSH2 0x1119 PUSH2 0x2E81 JUMP JUMPDEST JUMPDEST PUSH1 0x20 MUL PUSH1 0x20 ADD ADD MLOAD PUSH1 0x0 ADD MLOAD PUSH20 0xFFFFFFFFFFFFFFFFFFFFFFFFFFFFFFFFFFFFFFFF AND PUSH20 0xFFFFFFFFFFFFFFFFFFFFFFFFFFFFFFFFFFFFFFFF AND DUP2 MSTORE PUSH1 0x20 ADD SWAP1 DUP2 MSTORE PUSH1 0x20 ADD PUSH1 0x0 KECCAK256 DUP2 SWAP1 SSTORE POP POP POP POP DUP1 DUP1 PUSH2 0x1172 SWAP1 PUSH2 0x2EDF JUMP JUMPDEST SWAP2 POP POP PUSH2 0xD1F JUMP JUMPDEST POP POP JUMP JUMPDEST PUSH2 0x1186 PUSH2 0x1E46 JUMP JUMPDEST DUP2 PUSH1 0x1 ISZERO ISZERO PUSH1 0x3 PUSH1 0x0 DUP4 DUP2 MSTORE PUSH1 0x20 ADD SWAP1 DUP2 MSTORE PUSH1 0x20 ADD PUSH1 0x0 KECCAK256 PUSH1 0x0 ADD PUSH1 0x0 SWAP1 SLOAD SWAP1 PUSH2 0x100 EXP SWAP1 DIV PUSH1 0xFF AND ISZERO ISZERO EQ PUSH2 0x11BB JUMPI PUSH1 0x0 DUP1 REVERT JUMPDEST PUSH1 0x0 ISZERO ISZERO PUSH1 0x3 PUSH1 0x0 DUP4 DUP2 MSTORE PUSH1 0x20 ADD SWAP1 DUP2 MSTORE PUSH1 0x20 ADD PUSH1 0x0 KECCAK256 PUSH1 0x8 ADD PUSH1 0x0 SWAP1 SLOAD SWAP1 PUSH2 0x100 EXP SWAP1 DIV PUSH1 0xFF AND ISZERO ISZERO EQ PUSH2 0x11EF JUMPI PUSH1 0x0 DUP1 REVERT JUMPDEST PUSH1 0x0 PUSH1 0x3 PUSH1 0x0 DUP6 DUP2 MSTORE PUSH1 0x20 ADD SWAP1 DUP2 MSTORE PUSH1 0x20 ADD PUSH1 0x0 KECCAK256 SWAP1 POP PUSH1 0x0 DUP2 PUSH1 0x0 ADD PUSH1 0x1 SWAP1 SLOAD SWAP1 PUSH2 0x100 EXP SWAP1 DIV PUSH20 0xFFFFFFFFFFFFFFFFFFFFFFFFFFFFFFFFFFFFFFFF AND PUSH20 0xFFFFFFFFFFFFFFFFFFFFFFFFFFFFFFFFFFFFFFFF AND CALLER PUSH20 0xFFFFFFFFFFFFFFFFFFFFFFFFFFFFFFFFFFFFFFFF AND EQ SWAP1 POP PUSH1 0x0 PUSH2 0x1267 PUSH2 0x168A JUMP JUMPDEST PUSH20 0xFFFFFFFFFFFFFFFFFFFFFFFFFFFFFFFFFFFFFFFF AND CALLER PUSH20 0xFFFFFFFFFFFFFFFFFFFFFFFFFFFFFFFFFFFFFFFF AND EQ SWAP1 POP DUP2 DUP1 PUSH2 0x12A0 JUMPI POP DUP1 JUMPDEST PUSH2 0x12DF JUMPI PUSH1 0x40 MLOAD PUSH32 0x8C379A000000000000000000000000000000000000000000000000000000000 DUP2 MSTORE PUSH1 0x4 ADD PUSH2 0x12D6 SWAP1 PUSH2 0x2FBF JUMP JUMPDEST PUSH1 0x40 MLOAD DUP1 SWAP2 SUB SWAP1 REVERT JUMPDEST PUSH1 0x0 PUSH2 0x13D9 DUP5 PUSH1 0x40 MLOAD DUP1 PUSH2 0x140 ADD PUSH1 0x40 MSTORE SWAP1 DUP2 PUSH1 0x0 DUP3 ADD PUSH1 0x0 SWAP1 SLOAD SWAP1 PUSH2 0x100 EXP SWAP1 DIV PUSH1 0xFF AND ISZERO ISZERO ISZERO ISZERO DUP2 MSTORE PUSH1 0x20 ADD PUSH1 0x0 DUP3 ADD PUSH1 0x1 SWAP1 SLOAD SWAP1 PUSH2 0x100 EXP SWAP1 DIV PUSH20 0xFFFFFFFFFFFFFFFFFFFFFFFFFFFFFFFFFFFFFFFF AND PUSH20 0xFFFFFFFFFFFFFFFFFFFFFFFFFFFFFFFFFFFFFFFF AND PUSH20 0xFFFFFFFFFFFFFFFFFFFFFFFFFFFFFFFFFFFFFFFF AND DUP2 MSTORE PUSH1 0x20 ADD PUSH1 0x1 DUP3 ADD SLOAD DUP2 MSTORE PUSH1 0x20 ADD PUSH1 0x2 DUP3 ADD SLOAD DUP2 MSTORE PUSH1 0x20 ADD PUSH1 0x3 DUP3 ADD SLOAD DUP2 MSTORE PUSH1 0x20 ADD PUSH1 0x4 DUP3 ADD SLOAD DUP2 MSTORE PUSH1 0x20 ADD PUSH1 0x5 DUP3 ADD PUSH1 0x0 SWAP1 SLOAD SWAP1 PUSH2 0x100 EXP SWAP1 DIV PUSH1 0xFF AND ISZERO ISZERO ISZERO ISZERO DUP2 MSTORE PUSH1 0x20 ADD PUSH1 0x6 DUP3 ADD SLOAD DUP2 MSTORE PUSH1 0x20 ADD PUSH1 0x7 DUP3 ADD SLOAD DUP2 MSTORE PUSH1 0x20 ADD PUSH1 0x8 DUP3 ADD PUSH1 0x0 SWAP1 SLOAD SWAP1 PUSH2 0x100 EXP SWAP1 DIV PUSH1 0xFF AND ISZERO ISZERO ISZERO ISZERO DUP2 MSTORE POP POP PUSH2 0x1F24 JUMP JUMPDEST SWAP1 POP DUP6 DUP2 LT ISZERO PUSH2 0x141E JUMPI PUSH1 0x40 MLOAD PUSH32 0x8C379A000000000000000000000000000000000000000000000000000000000 DUP2 MSTORE PUSH1 0x4 ADD PUSH2 0x1415 SWAP1 PUSH2 0x3051 JUMP JUMPDEST PUSH1 0x40 MLOAD DUP1 SWAP2 SUB SWAP1 REVERT JUMPDEST PUSH2 0x1435 DUP7 DUP6 PUSH1 0x7 ADD SLOAD PUSH2 0x1E30 SWAP1 SWAP2 SWAP1 PUSH4 0xFFFFFFFF AND JUMP JUMPDEST DUP5 PUSH1 0x7 ADD DUP2 SWAP1 SSTORE POP PUSH1 0x0 DUP5 PUSH1 0x0 ADD PUSH1 0x1 SWAP1 SLOAD SWAP1 PUSH2 0x100 EXP SWAP1 DIV PUSH20 0xFFFFFFFFFFFFFFFFFFFFFFFFFFFFFFFFFFFFFFFF AND SWAP1 POP PUSH2 0x147B DUP8 PUSH1 0x4 SLOAD PUSH2 0x204C SWAP1 SWAP2 SWAP1 PUSH4 0xFFFFFFFF AND JUMP JUMPDEST PUSH1 0x4 DUP2 SWAP1 SSTORE POP PUSH2 0x14CC DUP2 DUP9 PUSH32 0x0 PUSH20 0xFFFFFFFFFFFFFFFFFFFFFFFFFFFFFFFFFFFFFFFF AND PUSH2 0x1E95 SWAP1 SWAP3 SWAP2 SWAP1 PUSH4 0xFFFFFFFF AND JUMP JUMPDEST POP POP POP POP POP POP PUSH2 0x14DA PUSH2 0x1F1B JUMP JUMPDEST POP POP JUMP JUMPDEST PUSH2 0x14E6 PUSH2 0x1DB2 JUMP JUMPDEST PUSH2 0x14F0 PUSH1 0x0 PUSH2 0x2062 JUMP JUMPDEST JUMP JUMPDEST PUSH2 0x14FA PUSH2 0x23F6 JUMP JUMPDEST PUSH1 0x3 PUSH1 0x0 PUSH2 0x1553 DUP5 PUSH1 0x1 PUSH1 0x5 PUSH1 0x0 DUP9 PUSH20 0xFFFFFFFFFFFFFFFFFFFFFFFFFFFFFFFFFFFFFFFF AND PUSH20 0xFFFFFFFFFFFFFFFFFFFFFFFFFFFFFFFFFFFFFFFF AND DUP2 MSTORE PUSH1 0x20 ADD SWAP1 DUP2 MSTORE PUSH1 0x20 ADD PUSH1 0x0 KECCAK256 SLOAD PUSH2 0x154E SWAP2 SWAP1 PUSH2 0x3071 JUMP JUMPDEST PUSH2 0x1657 JUMP JUMPDEST DUP2 MSTORE PUSH1 0x20 ADD SWAP1 DUP2 MSTORE PUSH1 0x20 ADD PUSH1 0x0 KECCAK256 PUSH1 0x40 MLOAD DUP1 PUSH2 0x140 ADD PUSH1 0x40 MSTORE SWAP1 DUP2 PUSH1 0x0 DUP3 ADD PUSH1 0x0 SWAP1 SLOAD SWAP1 PUSH2 0x100 EXP SWAP1 DIV PUSH1 0xFF AND ISZERO ISZERO ISZERO ISZERO DUP2 MSTORE PUSH1 0x20 ADD PUSH1 0x0 DUP3 ADD PUSH1 0x1 SWAP1 SLOAD SWAP1 PUSH2 0x100 EXP SWAP1 DIV PUSH20 0xFFFFFFFFFFFFFFFFFFFFFFFFFFFFFFFFFFFFFFFF AND PUSH20 0xFFFFFFFFFFFFFFFFFFFFFFFFFFFFFFFFFFFFFFFF AND PUSH20 0xFFFFFFFFFFFFFFFFFFFFFFFFFFFFFFFFFFFFFFFF AND DUP2 MSTORE PUSH1 0x20 ADD PUSH1 0x1 DUP3 ADD SLOAD DUP2 MSTORE PUSH1 0x20 ADD PUSH1 0x2 DUP3 ADD SLOAD DUP2 MSTORE PUSH1 0x20 ADD PUSH1 0x3 DUP3 ADD SLOAD DUP2 MSTORE PUSH1 0x20 ADD PUSH1 0x4 DUP3 ADD SLOAD DUP2 MSTORE PUSH1 0x20 ADD PUSH1 0x5 DUP3 ADD PUSH1 0x0 SWAP1 SLOAD SWAP1 PUSH2 0x100 EXP SWAP1 DIV PUSH1 0xFF AND ISZERO ISZERO ISZERO ISZERO DUP2 MSTORE PUSH1 0x20 ADD PUSH1 0x6 DUP3 ADD SLOAD DUP2 MSTORE PUSH1 0x20 ADD PUSH1 0x7 DUP3 ADD SLOAD DUP2 MSTORE PUSH1 0x20 ADD PUSH1 0x8 DUP3 ADD PUSH1 0x0 SWAP1 SLOAD SWAP1 PUSH2 0x100 EXP SWAP1 DIV PUSH1 0xFF AND ISZERO ISZERO ISZERO ISZERO DUP2 MSTORE POP POP SWAP1 POP SWAP2 SWAP1 POP JUMP JUMPDEST PUSH1 0x0 DUP3 DUP3 PUSH1 0x40 MLOAD PUSH1 0x20 ADD PUSH2 0x166C SWAP3 SWAP2 SWAP1 PUSH2 0x310E JUMP JUMPDEST PUSH1 0x40 MLOAD PUSH1 0x20 DUP2 DUP4 SUB SUB DUP2 MSTORE SWAP1 PUSH1 0x40 MSTORE DUP1 MLOAD SWAP1 PUSH1 0x20 ADD KECCAK256 SWAP1 POP SWAP3 SWAP2 POP POP JUMP JUMPDEST PUSH1 0x0 DUP1 PUSH1 0x0 SWAP1 SLOAD SWAP1 PUSH2 0x100 EXP SWAP1 DIV PUSH20 0xFFFFFFFFFFFFFFFFFFFFFFFFFFFFFFFFFFFFFFFF AND SWAP1 POP SWAP1 JUMP JUMPDEST PUSH1 0x0 PUSH2 0x1763 PUSH1 0x4 SLOAD PUSH32 0x0 PUSH20 0xFFFFFFFFFFFFFFFFFFFFFFFFFFFFFFFFFFFFFFFF AND PUSH4 0x70A08231 ADDRESS PUSH1 0x40 MLOAD DUP3 PUSH4 0xFFFFFFFF AND PUSH1 0xE0 SHL DUP2 MSTORE PUSH1 0x4 ADD PUSH2 0x1714 SWAP2 SWAP1 PUSH2 0x2620 JUMP JUMPDEST PUSH1 0x20 PUSH1 0x40 MLOAD DUP1 DUP4 SUB DUP2 DUP7 GAS STATICCALL ISZERO DUP1 ISZERO PUSH2 0x1731 JUMPI RETURNDATASIZE PUSH1 0x0 DUP1 RETURNDATACOPY RETURNDATASIZE PUSH1 0x0 REVERT JUMPDEST POP POP POP POP PUSH1 0x40 MLOAD RETURNDATASIZE PUSH1 0x1F NOT PUSH1 0x1F DUP3 ADD AND DUP3 ADD DUP1 PUSH1 0x40 MSTORE POP DUP2 ADD SWAP1 PUSH2 0x1755 SWAP2 SWAP1 PUSH2 0x2B27 JUMP JUMPDEST PUSH2 0x204C SWAP1 SWAP2 SWAP1 PUSH4 0xFFFFFFFF AND JUMP JUMPDEST SWAP1 POP SWAP1 JUMP JUMPDEST PUSH2 0x1770 PUSH2 0x23F6 JUMP JUMPDEST PUSH1 0x3 PUSH1 0x0 DUP4 DUP2 MSTORE PUSH1 0x20 ADD SWAP1 DUP2 MSTORE PUSH1 0x20 ADD PUSH1 0x0 KECCAK256 PUSH1 0x40 MLOAD DUP1 PUSH2 0x140 ADD PUSH1 0x40 MSTORE SWAP1 DUP2 PUSH1 0x0 DUP3 ADD PUSH1 0x0 SWAP1 SLOAD SWAP1 PUSH2 0x100 EXP SWAP1 DIV PUSH1 0xFF AND ISZERO ISZERO ISZERO ISZERO DUP2 MSTORE PUSH1 0x20 ADD PUSH1 0x0 DUP3 ADD PUSH1 0x1 SWAP1 SLOAD SWAP1 PUSH2 0x100 EXP SWAP1 DIV PUSH20 0xFFFFFFFFFFFFFFFFFFFFFFFFFFFFFFFFFFFFFFFF AND PUSH20 0xFFFFFFFFFFFFFFFFFFFFFFFFFFFFFFFFFFFFFFFF AND PUSH20 0xFFFFFFFFFFFFFFFFFFFFFFFFFFFFFFFFFFFFFFFF AND DUP2 MSTORE PUSH1 0x20 ADD PUSH1 0x1 DUP3 ADD SLOAD DUP2 MSTORE PUSH1 0x20 ADD PUSH1 0x2 DUP3 ADD SLOAD DUP2 MSTORE PUSH1 0x20 ADD PUSH1 0x3 DUP3 ADD SLOAD DUP2 MSTORE PUSH1 0x20 ADD PUSH1 0x4 DUP3 ADD SLOAD DUP2 MSTORE PUSH1 0x20 ADD PUSH1 0x5 DUP3 ADD PUSH1 0x0 SWAP1 SLOAD SWAP1 PUSH2 0x100 EXP SWAP1 DIV PUSH1 0xFF AND ISZERO ISZERO ISZERO ISZERO DUP2 MSTORE PUSH1 0x20 ADD PUSH1 0x6 DUP3 ADD SLOAD DUP2 MSTORE PUSH1 0x20 ADD PUSH1 0x7 DUP3 ADD SLOAD DUP2 MSTORE PUSH1 0x20 ADD PUSH1 0x8 DUP3 ADD PUSH1 0x0 SWAP1 SLOAD SWAP1 PUSH2 0x100 EXP SWAP1 DIV PUSH1 0xFF AND ISZERO ISZERO ISZERO ISZERO DUP2 MSTORE POP POP SWAP1 POP SWAP2 SWAP1 POP JUMP JUMPDEST PUSH2 0x1881 PUSH2 0x1DB2 JUMP JUMPDEST DUP1 PUSH1 0x1 ISZERO ISZERO PUSH1 0x3 PUSH1 0x0 DUP4 DUP2 MSTORE PUSH1 0x20 ADD SWAP1 DUP2 MSTORE PUSH1 0x20 ADD PUSH1 0x0 KECCAK256 PUSH1 0x0 ADD PUSH1 0x0 SWAP1 SLOAD SWAP1 PUSH2 0x100 EXP SWAP1 DIV PUSH1 0xFF AND ISZERO ISZERO EQ PUSH2 0x18B6 JUMPI PUSH1 0x0 DUP1 REVERT JUMPDEST PUSH1 0x0 ISZERO ISZERO PUSH1 0x3 PUSH1 0x0 DUP4 DUP2 MSTORE PUSH1 0x20 ADD SWAP1 DUP2 MSTORE PUSH1 0x20 ADD PUSH1 0x0 KECCAK256 PUSH1 0x8 ADD PUSH1 0x0 SWAP1 SLOAD SWAP1 PUSH2 0x100 EXP SWAP1 DIV PUSH1 0xFF AND ISZERO ISZERO EQ PUSH2 0x18EA JUMPI PUSH1 0x0 DUP1 REVERT JUMPDEST PUSH1 0x0 PUSH1 0x3 PUSH1 0x0 DUP5 DUP2 MSTORE PUSH1 0x20 ADD SWAP1 DUP2 MSTORE PUSH1 0x20 ADD PUSH1 0x0 KECCAK256 SWAP1 POP PUSH1 0x1 ISZERO ISZERO DUP2 PUSH1 0x5 ADD PUSH1 0x0 SWAP1 SLOAD SWAP1 PUSH2 0x100 EXP SWAP1 DIV PUSH1 0xFF AND ISZERO ISZERO EQ PUSH2 0x1959 JUMPI PUSH1 0x40 MLOAD PUSH32 0x8C379A000000000000000000000000000000000000000000000000000000000 DUP2 MSTORE PUSH1 0x4 ADD PUSH2 0x1950 SWAP1 PUSH2 0x31AC JUMP JUMPDEST PUSH1 0x40 MLOAD DUP1 SWAP2 SUB SWAP1 REVERT JUMPDEST PUSH1 0x0 PUSH2 0x1A53 DUP3 PUSH1 0x40 MLOAD DUP1 PUSH2 0x140 ADD PUSH1 0x40 MSTORE SWAP1 DUP2 PUSH1 0x0 DUP3 ADD PUSH1 0x0 SWAP1 SLOAD SWAP1 PUSH2 0x100 EXP SWAP1 DIV PUSH1 0xFF AND ISZERO ISZERO ISZERO ISZERO DUP2 MSTORE PUSH1 0x20 ADD PUSH1 0x0 DUP3 ADD PUSH1 0x1 SWAP1 SLOAD SWAP1 PUSH2 0x100 EXP SWAP1 DIV PUSH20 0xFFFFFFFFFFFFFFFFFFFFFFFFFFFFFFFFFFFFFFFF AND PUSH20 0xFFFFFFFFFFFFFFFFFFFFFFFFFFFFFFFFFFFFFFFF AND PUSH20 0xFFFFFFFFFFFFFFFFFFFFFFFFFFFFFFFFFFFFFFFF AND DUP2 MSTORE PUSH1 0x20 ADD PUSH1 0x1 DUP3 ADD SLOAD DUP2 MSTORE PUSH1 0x20 ADD PUSH1 0x2 DUP3 ADD SLOAD DUP2 MSTORE PUSH1 0x20 ADD PUSH1 0x3 DUP3 ADD SLOAD DUP2 MSTORE PUSH1 0x20 ADD PUSH1 0x4 DUP3 ADD SLOAD DUP2 MSTORE PUSH1 0x20 ADD PUSH1 0x5 DUP3 ADD PUSH1 0x0 SWAP1 SLOAD SWAP1 PUSH2 0x100 EXP SWAP1 DIV PUSH1 0xFF AND ISZERO ISZERO ISZERO ISZERO DUP2 MSTORE PUSH1 0x20 ADD PUSH1 0x6 DUP3 ADD SLOAD DUP2 MSTORE PUSH1 0x20 ADD PUSH1 0x7 DUP3 ADD SLOAD DUP2 MSTORE PUSH1 0x20 ADD PUSH1 0x8 DUP3 ADD PUSH1 0x0 SWAP1 SLOAD SWAP1 PUSH2 0x100 EXP SWAP1 DIV PUSH1 0xFF AND ISZERO ISZERO ISZERO ISZERO DUP2 MSTORE POP POP PUSH2 0x1F24 JUMP JUMPDEST SWAP1 POP PUSH1 0x0 DUP2 GT ISZERO PUSH2 0x1A69 JUMPI PUSH2 0x1A68 DUP5 DUP3 PUSH2 0x117E JUMP JUMPDEST JUMPDEST PUSH1 0x0 PUSH2 0x1A86 DUP4 PUSH1 0x7 ADD SLOAD DUP5 PUSH1 0x6 ADD SLOAD PUSH2 0x204C SWAP1 SWAP2 SWAP1 PUSH4 0xFFFFFFFF AND JUMP JUMPDEST SWAP1 POP PUSH2 0x1A9D DUP2 PUSH1 0x4 SLOAD PUSH2 0x204C SWAP1 SWAP2 SWAP1 PUSH4 0xFFFFFFFF AND JUMP JUMPDEST PUSH1 0x4 DUP2 SWAP1 SSTORE POP PUSH1 0x1 DUP4 PUSH1 0x8 ADD PUSH1 0x0 PUSH2 0x100 EXP DUP2 SLOAD DUP2 PUSH1 0xFF MUL NOT AND SWAP1 DUP4 ISZERO ISZERO MUL OR SWAP1 SSTORE POP POP POP POP POP POP JUMP JUMPDEST PUSH1 0x0 DUP2 PUSH1 0x1 ISZERO ISZERO PUSH1 0x3 PUSH1 0x0 DUP4 DUP2 MSTORE PUSH1 0x20 ADD SWAP1 DUP2 MSTORE PUSH1 0x20 ADD PUSH1 0x0 KECCAK256 PUSH1 0x0 ADD PUSH1 0x0 SWAP1 SLOAD SWAP1 PUSH2 0x100 EXP SWAP1 DIV PUSH1 0xFF AND ISZERO ISZERO EQ PUSH2 0x1AFE JUMPI PUSH1 0x0 DUP1 REVERT JUMPDEST PUSH1 0x0 ISZERO ISZERO PUSH1 0x3 PUSH1 0x0 DUP4 DUP2 MSTORE PUSH1 0x20 ADD SWAP1 DUP2 MSTORE PUSH1 0x20 ADD PUSH1 0x0 KECCAK256 PUSH1 0x8 ADD PUSH1 0x0 SWAP1 SLOAD SWAP1 PUSH2 0x100 EXP SWAP1 DIV PUSH1 0xFF AND ISZERO ISZERO EQ PUSH2 0x1B32 JUMPI PUSH1 0x0 DUP1 REVERT JUMPDEST PUSH1 0x0 PUSH1 0x3 PUSH1 0x0 DUP6 DUP2 MSTORE PUSH1 0x20 ADD SWAP1 DUP2 MSTORE PUSH1 0x20 ADD PUSH1 0x0 KECCAK256 SWAP1 POP PUSH2 0x1C41 DUP2 PUSH1 0x40 MLOAD DUP1 PUSH2 0x140 ADD PUSH1 0x40 MSTORE SWAP1 DUP2 PUSH1 0x0 DUP3 ADD PUSH1 0x0 SWAP1 SLOAD SWAP1 PUSH2 0x100 EXP SWAP1 DIV PUSH1 0xFF AND ISZERO ISZERO ISZERO ISZERO DUP2 MSTORE PUSH1 0x20 ADD PUSH1 0x0 DUP3 ADD PUSH1 0x1 SWAP1 SLOAD SWAP1 PUSH2 0x100 EXP SWAP1 DIV PUSH20 0xFFFFFFFFFFFFFFFFFFFFFFFFFFFFFFFFFFFFFFFF AND PUSH20 0xFFFFFFFFFFFFFFFFFFFFFFFFFFFFFFFFFFFFFFFF AND PUSH20 0xFFFFFFFFFFFFFFFFFFFFFFFFFFFFFFFFFFFFFFFF AND DUP2 MSTORE PUSH1 0x20 ADD PUSH1 0x1 DUP3 ADD SLOAD DUP2 MSTORE PUSH1 0x20 ADD PUSH1 0x2 DUP3 ADD SLOAD DUP2 MSTORE PUSH1 0x20 ADD PUSH1 0x3 DUP3 ADD SLOAD DUP2 MSTORE PUSH1 0x20 ADD PUSH1 0x4 DUP3 ADD SLOAD DUP2 MSTORE PUSH1 0x20 ADD PUSH1 0x5 DUP3 ADD PUSH1 0x0 SWAP1 SLOAD SWAP1 PUSH2 0x100 EXP SWAP1 DIV PUSH1 0xFF AND ISZERO ISZERO ISZERO ISZERO DUP2 MSTORE PUSH1 0x20 ADD PUSH1 0x6 DUP3 ADD SLOAD DUP2 MSTORE PUSH1 0x20 ADD PUSH1 0x7 DUP3 ADD SLOAD DUP2 MSTORE PUSH1 0x20 ADD PUSH1 0x8 DUP3 ADD PUSH1 0x0 SWAP1 SLOAD SWAP1 PUSH2 0x100 EXP SWAP1 DIV PUSH1 0xFF AND ISZERO ISZERO ISZERO ISZERO DUP2 MSTORE POP POP PUSH2 0x1F24 JUMP JUMPDEST SWAP3 POP POP POP SWAP2 SWAP1 POP JUMP JUMPDEST PUSH2 0x1C52 PUSH2 0x1DB2 JUMP JUMPDEST PUSH1 0x0 PUSH20 0xFFFFFFFFFFFFFFFFFFFFFFFFFFFFFFFFFFFFFFFF AND DUP2 PUSH20 0xFFFFFFFFFFFFFFFFFFFFFFFFFFFFFFFFFFFFFFFF AND SUB PUSH2 0x1CC1 JUMPI PUSH1 0x40 MLOAD PUSH32 0x8C379A000000000000000000000000000000000000000000000000000000000 DUP2 MSTORE PUSH1 0x4 ADD PUSH2 0x1CB8 SWAP1 PUSH2 0x323E JUMP JUMPDEST PUSH1 0x40 MLOAD DUP1 SWAP2 SUB SWAP1 REVERT JUMPDEST PUSH2 0x1CCA DUP2 PUSH2 0x2062 JUMP JUMPDEST POP JUMP JUMPDEST PUSH2 0x1CD5 PUSH2 0x23F6 JUMP JUMPDEST PUSH2 0x1CE7 PUSH2 0x1CE2 DUP5 DUP5 PUSH2 0x1657 JUMP JUMPDEST PUSH2 0x1768 JUMP JUMPDEST SWAP1 POP SWAP3 SWAP2 POP POP JUMP JUMPDEST PUSH1 0x0 PUSH2 0x1D3A DUP3 PUSH1 0x5 PUSH1 0x0 DUP6 PUSH20 0xFFFFFFFFFFFFFFFFFFFFFFFFFFFFFFFFFFFFFFFF AND PUSH20 0xFFFFFFFFFFFFFFFFFFFFFFFFFFFFFFFFFFFFFFFF AND DUP2 MSTORE PUSH1 0x20 ADD SWAP1 DUP2 MSTORE PUSH1 0x20 ADD PUSH1 0x0 KECCAK256 SLOAD PUSH2 0x1657 JUMP JUMPDEST SWAP1 POP SWAP2 SWAP1 POP JUMP JUMPDEST PUSH1 0x0 PUSH2 0x1D4B PUSH2 0x4F8 JUMP JUMPDEST DUP3 LT PUSH2 0x1D8C JUMPI PUSH1 0x40 MLOAD PUSH32 0x8C379A000000000000000000000000000000000000000000000000000000000 DUP2 MSTORE PUSH1 0x4 ADD PUSH2 0x1D83 SWAP1 PUSH2 0x32D0 JUMP JUMPDEST PUSH1 0x40 MLOAD DUP1 SWAP2 SUB SWAP1 REVERT JUMPDEST PUSH1 0x2 DUP3 DUP2 SLOAD DUP2 LT PUSH2 0x1DA0 JUMPI PUSH2 0x1D9F PUSH2 0x2E81 JUMP JUMPDEST JUMPDEST SWAP1 PUSH1 0x0 MSTORE PUSH1 0x20 PUSH1 0x0 KECCAK256 ADD SLOAD SWAP1 POP SWAP2 SWAP1 POP JUMP JUMPDEST PUSH2 0x1DBA PUSH2 0x2126 JUMP JUMPDEST PUSH20 0xFFFFFFFFFFFFFFFFFFFFFFFFFFFFFFFFFFFFFFFF AND PUSH2 0x1DD8 PUSH2 0x168A JUMP JUMPDEST PUSH20 0xFFFFFFFFFFFFFFFFFFFFFFFFFFFFFFFFFFFFFFFF AND EQ PUSH2 0x1E2E JUMPI PUSH1 0x40 MLOAD PUSH32 0x8C379A000000000000000000000000000000000000000000000000000000000 DUP2 MSTORE PUSH1 0x4 ADD PUSH2 0x1E25 SWAP1 PUSH2 0x333C JUMP JUMPDEST PUSH1 0x40 MLOAD DUP1 SWAP2 SUB SWAP1 REVERT JUMPDEST JUMP JUMPDEST PUSH1 0x0 DUP2 DUP4 PUSH2 0x1E3E SWAP2 SWAP1 PUSH2 0x335C JUMP JUMPDEST SWAP1 POP SWAP3 SWAP2 POP POP JUMP JUMPDEST PUSH1 0x2 PUSH1 0x1 SLOAD SUB PUSH2 0x1E8B JUMPI PUSH1 0x40 MLOAD PUSH32 0x8C379A000000000000000000000000000000000000000000000000000000000 DUP2 MSTORE PUSH1 0x4 ADD PUSH2 0x1E82 SWAP1 PUSH2 0x33DC JUMP JUMPDEST PUSH1 0x40 MLOAD DUP1 SWAP2 SUB SWAP1 REVERT JUMPDEST PUSH1 0x2 PUSH1 0x1 DUP2 SWAP1 SSTORE POP JUMP JUMPDEST PUSH2 0x1F16 DUP4 PUSH4 0xA9059CBB PUSH1 0xE0 SHL DUP5 DUP5 PUSH1 0x40 MLOAD PUSH1 0x24 ADD PUSH2 0x1EB4 SWAP3 SWAP2 SWAP1 PUSH2 0x33FC JUMP JUMPDEST PUSH1 0x40 MLOAD PUSH1 0x20 DUP2 DUP4 SUB SUB DUP2 MSTORE SWAP1 PUSH1 0x40 MSTORE SWAP1 PUSH28 0xFFFFFFFFFFFFFFFFFFFFFFFFFFFFFFFFFFFFFFFFFFFFFFFFFFFFFFFF NOT AND PUSH1 0x20 DUP3 ADD DUP1 MLOAD PUSH28 0xFFFFFFFFFFFFFFFFFFFFFFFFFFFFFFFFFFFFFFFFFFFFFFFFFFFFFFFF DUP4 DUP2 DUP4 AND OR DUP4 MSTORE POP POP POP POP PUSH2 0x212E JUMP JUMPDEST POP POP POP JUMP JUMPDEST PUSH1 0x1 DUP1 DUP2 SWAP1 SSTORE POP JUMP JUMPDEST PUSH1 0x0 DUP1 PUSH2 0x1F2F PUSH2 0x21F5 JUMP JUMPDEST SWAP1 POP DUP3 PUSH1 0x40 ADD MLOAD DUP2 LT DUP1 PUSH2 0x1F4C JUMPI POP PUSH1 0x1 ISZERO ISZERO DUP4 PUSH2 0x120 ADD MLOAD ISZERO ISZERO EQ JUMPDEST ISZERO PUSH2 0x1F5B JUMPI PUSH1 0x0 SWAP2 POP POP PUSH2 0x2047 JUMP JUMPDEST PUSH2 0x1F76 DUP4 PUSH1 0x80 ADD MLOAD DUP5 PUSH1 0x60 ADD MLOAD PUSH2 0x1E30 SWAP1 SWAP2 SWAP1 PUSH4 0xFFFFFFFF AND JUMP JUMPDEST DUP2 LT PUSH2 0x1FA0 JUMPI PUSH2 0x1F98 DUP4 PUSH2 0x100 ADD MLOAD DUP5 PUSH1 0xE0 ADD MLOAD PUSH2 0x204C SWAP1 SWAP2 SWAP1 PUSH4 0xFFFFFFFF AND JUMP JUMPDEST SWAP2 POP POP PUSH2 0x2047 JUMP JUMPDEST PUSH1 0x0 PUSH2 0x1FB9 DUP5 PUSH1 0x60 ADD MLOAD DUP4 PUSH2 0x204C SWAP1 SWAP2 SWAP1 PUSH4 0xFFFFFFFF AND JUMP JUMPDEST SWAP1 POP PUSH1 0x0 DUP5 PUSH1 0xA0 ADD MLOAD SWAP1 POP PUSH1 0x0 PUSH2 0x1FD9 DUP3 DUP5 PUSH2 0x21FD SWAP1 SWAP2 SWAP1 PUSH4 0xFFFFFFFF AND JUMP JUMPDEST SWAP1 POP PUSH1 0x0 PUSH2 0x1FF0 DUP4 DUP4 PUSH2 0x2213 SWAP1 SWAP2 SWAP1 PUSH4 0xFFFFFFFF AND JUMP JUMPDEST SWAP1 POP PUSH1 0x0 PUSH2 0x2021 DUP9 PUSH1 0x80 ADD MLOAD PUSH2 0x2013 DUP5 DUP12 PUSH1 0xE0 ADD MLOAD PUSH2 0x2213 SWAP1 SWAP2 SWAP1 PUSH4 0xFFFFFFFF AND JUMP JUMPDEST PUSH2 0x21FD SWAP1 SWAP2 SWAP1 PUSH4 0xFFFFFFFF AND JUMP JUMPDEST SWAP1 POP PUSH2 0x203B DUP9 PUSH2 0x100 ADD MLOAD DUP3 PUSH2 0x204C SWAP1 SWAP2 SWAP1 PUSH4 0xFFFFFFFF AND JUMP JUMPDEST SWAP1 POP DUP1 SWAP7 POP POP POP POP POP POP POP JUMPDEST SWAP2 SWAP1 POP JUMP JUMPDEST PUSH1 0x0 DUP2 DUP4 PUSH2 0x205A SWAP2 SWAP1 PUSH2 0x3071 JUMP JUMPDEST SWAP1 POP SWAP3 SWAP2 POP POP JUMP JUMPDEST PUSH1 0x0 DUP1 PUSH1 0x0 SWAP1 SLOAD SWAP1 PUSH2 0x100 EXP SWAP1 DIV PUSH20 0xFFFFFFFFFFFFFFFFFFFFFFFFFFFFFFFFFFFFFFFF AND SWAP1 POP DUP2 PUSH1 0x0 DUP1 PUSH2 0x100 EXP DUP2 SLOAD DUP2 PUSH20 0xFFFFFFFFFFFFFFFFFFFFFFFFFFFFFFFFFFFFFFFF MUL NOT AND SWAP1 DUP4 PUSH20 0xFFFFFFFFFFFFFFFFFFFFFFFFFFFFFFFFFFFFFFFF AND MUL OR SWAP1 SSTORE POP DUP2 PUSH20 0xFFFFFFFFFFFFFFFFFFFFFFFFFFFFFFFFFFFFFFFF AND DUP2 PUSH20 0xFFFFFFFFFFFFFFFFFFFFFFFFFFFFFFFFFFFFFFFF AND PUSH32 0x8BE0079C531659141344CD1FD0A4F28419497F9722A3DAAFE3B4186F6B6457E0 PUSH1 0x40 MLOAD PUSH1 0x40 MLOAD DUP1 SWAP2 SUB SWAP1 LOG3 POP POP JUMP JUMPDEST PUSH1 0x0 CALLER SWAP1 POP SWAP1 JUMP JUMPDEST PUSH1 0x0 PUSH2 0x2190 DUP3 PUSH1 0x40 MLOAD DUP1 PUSH1 0x40 ADD PUSH1 0x40 MSTORE DUP1 PUSH1 0x20 DUP2 MSTORE PUSH1 0x20 ADD PUSH32 0x5361666545524332303A206C6F772D6C6576656C2063616C6C206661696C6564 DUP2 MSTORE POP DUP6 PUSH20 0xFFFFFFFFFFFFFFFFFFFFFFFFFFFFFFFFFFFFFFFF AND PUSH2 0x2229 SWAP1 SWAP3 SWAP2 SWAP1 PUSH4 0xFFFFFFFF AND JUMP JUMPDEST SWAP1 POP PUSH1 0x0 DUP2 MLOAD GT ISZERO PUSH2 0x21F0 JUMPI DUP1 DUP1 PUSH1 0x20 ADD SWAP1 MLOAD DUP2 ADD SWAP1 PUSH2 0x21B0 SWAP2 SWAP1 PUSH2 0x343A JUMP JUMPDEST PUSH2 0x21EF JUMPI PUSH1 0x40 MLOAD PUSH32 0x8C379A000000000000000000000000000000000000000000000000000000000 DUP2 MSTORE PUSH1 0x4 ADD PUSH2 0x21E6 SWAP1 PUSH2 0x34D9 JUMP JUMPDEST PUSH1 0x40 MLOAD DUP1 SWAP2 SUB SWAP1 REVERT JUMPDEST JUMPDEST POP POP POP JUMP JUMPDEST PUSH1 0x0 TIMESTAMP SWAP1 POP SWAP1 JUMP JUMPDEST PUSH1 0x0 DUP2 DUP4 PUSH2 0x220B SWAP2 SWAP1 PUSH2 0x3528 JUMP JUMPDEST SWAP1 POP SWAP3 SWAP2 POP POP JUMP JUMPDEST PUSH1 0x0 DUP2 DUP4 PUSH2 0x2221 SWAP2 SWAP1 PUSH2 0x3559 JUMP JUMPDEST SWAP1 POP SWAP3 SWAP2 POP POP JUMP JUMPDEST PUSH1 0x60 PUSH2 0x2238 DUP5 DUP5 PUSH1 0x0 DUP6 PUSH2 0x2241 JUMP JUMPDEST SWAP1 POP SWAP4 SWAP3 POP POP POP JUMP JUMPDEST PUSH1 0x60 DUP3 SELFBALANCE LT ISZERO PUSH2 0x2286 JUMPI PUSH1 0x40 MLOAD PUSH32 0x8C379A000000000000000000000000000000000000000000000000000000000 DUP2 MSTORE PUSH1 0x4 ADD PUSH2 0x227D SWAP1 PUSH2 0x360D JUMP JUMPDEST PUSH1 0x40 MLOAD DUP1 SWAP2 SUB SWAP1 REVERT JUMPDEST PUSH1 0x0 DUP1 DUP7 PUSH20 0xFFFFFFFFFFFFFFFFFFFFFFFFFFFFFFFFFFFFFFFF AND DUP6 DUP8 PUSH1 0x40 MLOAD PUSH2 0x22AF SWAP2 SWAP1 PUSH2 0x369E JUMP JUMPDEST PUSH1 0x0 PUSH1 0x40 MLOAD DUP1 DUP4 SUB DUP2 DUP6 DUP8 GAS CALL SWAP3 POP POP POP RETURNDATASIZE DUP1 PUSH1 0x0 DUP2 EQ PUSH2 0x22EC JUMPI PUSH1 0x40 MLOAD SWAP2 POP PUSH1 0x1F NOT PUSH1 0x3F RETURNDATASIZE ADD AND DUP3 ADD PUSH1 0x40 MSTORE RETURNDATASIZE DUP3 MSTORE RETURNDATASIZE PUSH1 0x0 PUSH1 0x20 DUP5 ADD RETURNDATACOPY PUSH2 0x22F1 JUMP JUMPDEST PUSH1 0x60 SWAP2 POP JUMPDEST POP SWAP2 POP SWAP2 POP PUSH2 0x2302 DUP8 DUP4 DUP4 DUP8 PUSH2 0x230E JUMP JUMPDEST SWAP3 POP POP POP SWAP5 SWAP4 POP POP POP POP JUMP JUMPDEST PUSH1 0x60 DUP4 ISZERO PUSH2 0x2370 JUMPI PUSH1 0x0 DUP4 MLOAD SUB PUSH2 0x2368 JUMPI PUSH2 0x2328 DUP6 PUSH2 0x2383 JUMP JUMPDEST PUSH2 0x2367 JUMPI PUSH1 0x40 MLOAD PUSH32 0x8C379A000000000000000000000000000000000000000000000000000000000 DUP2 MSTORE PUSH1 0x4 ADD PUSH2 0x235E SWAP1 PUSH2 0x3701 JUMP JUMPDEST PUSH1 0x40 MLOAD DUP1 SWAP2 SUB SWAP1 REVERT JUMPDEST JUMPDEST DUP3 SWAP1 POP PUSH2 0x237B JUMP JUMPDEST PUSH2 0x237A DUP4 DUP4 PUSH2 0x23A6 JUMP JUMPDEST JUMPDEST SWAP5 SWAP4 POP POP POP POP JUMP JUMPDEST PUSH1 0x0 DUP1 DUP3 PUSH20 0xFFFFFFFFFFFFFFFFFFFFFFFFFFFFFFFFFFFFFFFF AND EXTCODESIZE GT SWAP1 POP SWAP2 SWAP1 POP JUMP JUMPDEST PUSH1 0x0 DUP3 MLOAD GT ISZERO PUSH2 0x23B9 JUMPI DUP2 MLOAD DUP1 DUP4 PUSH1 0x20 ADD REVERT JUMPDEST DUP1 PUSH1 0x40 MLOAD PUSH32 0x8C379A000000000000000000000000000000000000000000000000000000000 DUP2 MSTORE PUSH1 0x4 ADD PUSH2 0x23ED SWAP2 SWAP1 PUSH2 0x3765 JUMP JUMPDEST PUSH1 0x40 MLOAD DUP1 SWAP2 SUB SWAP1 REVERT JUMPDEST PUSH1 0x40 MLOAD DUP1 PUSH2 0x140 ADD PUSH1 0x40 MSTORE DUP1 PUSH1 0x0 ISZERO ISZERO DUP2 MSTORE PUSH1 0x20 ADD PUSH1 0x0 PUSH20 0xFFFFFFFFFFFFFFFFFFFFFFFFFFFFFFFFFFFFFFFF AND DUP2 MSTORE PUSH1 0x20 ADD PUSH1 0x0 DUP2 MSTORE PUSH1 0x20 ADD PUSH1 0x0 DUP2 MSTORE PUSH1 0x20 ADD PUSH1 0x0 DUP2 MSTORE PUSH1 0x20 ADD PUSH1 0x0 DUP2 MSTORE PUSH1 0x20 ADD PUSH1 0x0 ISZERO ISZERO DUP2 MSTORE PUSH1 0x20 ADD PUSH1 0x0 DUP2 MSTORE PUSH1 0x20 ADD PUSH1 0x0 DUP2 MSTORE PUSH1 0x20 ADD PUSH1 0x0 ISZERO ISZERO DUP2 MSTORE POP SWAP1 JUMP JUMPDEST PUSH1 0x0 DUP2 SWAP1 POP SWAP2 SWAP1 POP JUMP JUMPDEST PUSH2 0x2478 DUP2 PUSH2 0x2465 JUMP JUMPDEST DUP3 MSTORE POP POP JUMP JUMPDEST PUSH1 0x0 PUSH1 0x20 DUP3 ADD SWAP1 POP PUSH2 0x2493 PUSH1 0x0 DUP4 ADD DUP5 PUSH2 0x246F JUMP JUMPDEST SWAP3 SWAP2 POP POP JUMP JUMPDEST PUSH1 0x0 PUSH1 0x40 MLOAD SWAP1 POP SWAP1 JUMP JUMPDEST PUSH1 0x0 DUP1 REVERT JUMPDEST PUSH1 0x0 DUP1 REVERT JUMPDEST PUSH1 0x0 PUSH20 0xFFFFFFFFFFFFFFFFFFFFFFFFFFFFFFFFFFFFFFFF DUP3 AND SWAP1 POP SWAP2 SWAP1 POP JUMP JUMPDEST PUSH1 0x0 PUSH2 0x24D8 DUP3 PUSH2 0x24AD JUMP JUMPDEST SWAP1 POP SWAP2 SWAP1 POP JUMP JUMPDEST PUSH2 0x24E8 DUP2 PUSH2 0x24CD JUMP JUMPDEST DUP2 EQ PUSH2 0x24F3 JUMPI PUSH1 0x0 DUP1 REVERT JUMPDEST POP JUMP JUMPDEST PUSH1 0x0 DUP2 CALLDATALOAD SWAP1 POP PUSH2 0x2505 DUP2 PUSH2 0x24DF JUMP JUMPDEST SWAP3 SWAP2 POP POP JUMP JUMPDEST PUSH2 0x2514 DUP2 PUSH2 0x2465 JUMP JUMPDEST DUP2 EQ PUSH2 0x251F JUMPI PUSH1 0x0 DUP1 REVERT JUMPDEST POP JUMP JUMPDEST PUSH1 0x0 DUP2 CALLDATALOAD SWAP1 POP PUSH2 0x2531 DUP2 PUSH2 0x250B JUMP JUMPDEST SWAP3 SWAP2 POP POP JUMP JUMPDEST PUSH1 0x0 DUP2 ISZERO ISZERO SWAP1 POP SWAP2 SWAP1 POP JUMP JUMPDEST PUSH2 0x254C DUP2 PUSH2 0x2537 JUMP JUMPDEST DUP2 EQ PUSH2 0x2557 JUMPI PUSH1 0x0 DUP1 REVERT JUMPDEST POP JUMP JUMPDEST PUSH1 0x0 DUP2 CALLDATALOAD SWAP1 POP PUSH2 0x2569 DUP2 PUSH2 0x2543 JUMP JUMPDEST SWAP3 SWAP2 POP POP JUMP JUMPDEST PUSH1 0x0 DUP1 PUSH1 0x0 DUP1 PUSH1 0x0 DUP1 PUSH1 0x0 PUSH1 0xE0 DUP9 DUP11 SUB SLT ISZERO PUSH2 0x258E JUMPI PUSH2 0x258D PUSH2 0x24A3 JUMP JUMPDEST JUMPDEST PUSH1 0x0 PUSH2 0x259C DUP11 DUP3 DUP12 ADD PUSH2 0x24F6 JUMP JUMPDEST SWAP8 POP POP PUSH1 0x20 PUSH2 0x25AD DUP11 DUP3 DUP12 ADD PUSH2 0x2522 JUMP JUMPDEST SWAP7 POP POP PUSH1 0x40 PUSH2 0x25BE DUP11 DUP3 DUP12 ADD PUSH2 0x2522 JUMP JUMPDEST SWAP6 POP POP PUSH1 0x60 PUSH2 0x25CF DUP11 DUP3 DUP12 ADD PUSH2 0x2522 JUMP JUMPDEST SWAP5 POP POP PUSH1 0x80 PUSH2 0x25E0 DUP11 DUP3 DUP12 ADD PUSH2 0x2522 JUMP JUMPDEST SWAP4 POP POP PUSH1 0xA0 PUSH2 0x25F1 DUP11 DUP3 DUP12 ADD PUSH2 0x255A JUMP JUMPDEST SWAP3 POP POP PUSH1 0xC0 PUSH2 0x2602 DUP11 DUP3 DUP12 ADD PUSH2 0x2522 JUMP JUMPDEST SWAP2 POP POP SWAP3 SWAP6 SWAP9 SWAP2 SWAP5 SWAP8 POP SWAP3 SWAP6 POP JUMP JUMPDEST PUSH2 0x261A DUP2 PUSH2 0x24CD JUMP JUMPDEST DUP3 MSTORE POP POP JUMP JUMPDEST PUSH1 0x0 PUSH1 0x20 DUP3 ADD SWAP1 POP PUSH2 0x2635 PUSH1 0x0 DUP4 ADD DUP5 PUSH2 0x2611 JUMP JUMPDEST SWAP3 SWAP2 POP POP JUMP JUMPDEST PUSH1 0x0 PUSH1 0x20 DUP3 DUP5 SUB SLT ISZERO PUSH2 0x2651 JUMPI PUSH2 0x2650 PUSH2 0x24A3 JUMP JUMPDEST JUMPDEST PUSH1 0x0 PUSH2 0x265F DUP5 DUP3 DUP6 ADD PUSH2 0x2522 JUMP JUMPDEST SWAP2 POP POP SWAP3 SWAP2 POP POP JUMP JUMPDEST PUSH1 0x0 PUSH1 0x20 DUP3 DUP5 SUB SLT ISZERO PUSH2 0x267E JUMPI PUSH2 0x267D PUSH2 0x24A3 JUMP JUMPDEST JUMPDEST PUSH1 0x0 PUSH2 0x268C DUP5 DUP3 DUP6 ADD PUSH2 0x24F6 JUMP JUMPDEST SWAP2 POP POP SWAP3 SWAP2 POP POP JUMP JUMPDEST PUSH1 0x0 DUP1 REVERT JUMPDEST PUSH1 0x0 PUSH1 0x1F NOT PUSH1 0x1F DUP4 ADD AND SWAP1 POP SWAP2 SWAP1 POP JUMP JUMPDEST PUSH32 0x4E487B7100000000000000000000000000000000000000000000000000000000 PUSH1 0x0 MSTORE PUSH1 0x41 PUSH1 0x4 MSTORE PUSH1 0x24 PUSH1 0x0 REVERT JUMPDEST PUSH2 0x26E3 DUP3 PUSH2 0x269A JUMP JUMPDEST DUP2 ADD DUP2 DUP2 LT PUSH8 0xFFFFFFFFFFFFFFFF DUP3 GT OR ISZERO PUSH2 0x2702 JUMPI PUSH2 0x2701 PUSH2 0x26AB JUMP JUMPDEST JUMPDEST DUP1 PUSH1 0x40 MSTORE POP POP POP JUMP JUMPDEST PUSH1 0x0 PUSH2 0x2715 PUSH2 0x2499 JUMP JUMPDEST SWAP1 POP PUSH2 0x2721 DUP3 DUP3 PUSH2 0x26DA JUMP JUMPDEST SWAP2 SWAP1 POP JUMP JUMPDEST PUSH1 0x0 PUSH8 0xFFFFFFFFFFFFFFFF DUP3 GT ISZERO PUSH2 0x2741 JUMPI PUSH2 0x2740 PUSH2 0x26AB JUMP JUMPDEST JUMPDEST PUSH1 0x20 DUP3 MUL SWAP1 POP PUSH1 0x20 DUP2 ADD SWAP1 POP SWAP2 SWAP1 POP JUMP JUMPDEST PUSH1 0x0 DUP1 REVERT JUMPDEST PUSH1 0x0 DUP1 REVERT JUMPDEST PUSH1 0x0 PUSH1 0xE0 DUP3 DUP5 SUB SLT ISZERO PUSH2 0x2772 JUMPI PUSH2 0x2771 PUSH2 0x2757 JUMP JUMPDEST JUMPDEST PUSH2 0x277C PUSH1 0xE0 PUSH2 0x270B JUMP JUMPDEST SWAP1 POP PUSH1 0x0 PUSH2 0x278C DUP5 DUP3 DUP6 ADD PUSH2 0x24F6 JUMP JUMPDEST PUSH1 0x0 DUP4 ADD MSTORE POP PUSH1 0x20 PUSH2 0x27A0 DUP5 DUP3 DUP6 ADD PUSH2 0x2522 JUMP JUMPDEST PUSH1 0x20 DUP4 ADD MSTORE POP PUSH1 0x40 PUSH2 0x27B4 DUP5 DUP3 DUP6 ADD PUSH2 0x2522 JUMP JUMPDEST PUSH1 0x40 DUP4 ADD MSTORE POP PUSH1 0x60 PUSH2 0x27C8 DUP5 DUP3 DUP6 ADD PUSH2 0x2522 JUMP JUMPDEST PUSH1 0x60 DUP4 ADD MSTORE POP PUSH1 0x80 PUSH2 0x27DC DUP5 DUP3 DUP6 ADD PUSH2 0x2522 JUMP JUMPDEST PUSH1 0x80 DUP4 ADD MSTORE POP PUSH1 0xA0 PUSH2 0x27F0 DUP5 DUP3 DUP6 ADD PUSH2 0x255A JUMP JUMPDEST PUSH1 0xA0 DUP4 ADD MSTORE POP PUSH1 0xC0 PUSH2 0x2804 DUP5 DUP3 DUP6 ADD PUSH2 0x2522 JUMP JUMPDEST PUSH1 0xC0 DUP4 ADD MSTORE POP SWAP3 SWAP2 POP POP JUMP JUMPDEST PUSH1 0x0 PUSH2 0x2823 PUSH2 0x281E DUP5 PUSH2 0x2726 JUMP JUMPDEST PUSH2 0x270B JUMP JUMPDEST SWAP1 POP DUP1 DUP4 DUP3 MSTORE PUSH1 0x20 DUP3 ADD SWAP1 POP PUSH1 0xE0 DUP5 MUL DUP4 ADD DUP6 DUP2 GT ISZERO PUSH2 0x2846 JUMPI PUSH2 0x2845 PUSH2 0x2752 JUMP JUMPDEST JUMPDEST DUP4 JUMPDEST DUP2 DUP2 LT ISZERO PUSH2 0x286F JUMPI DUP1 PUSH2 0x285B DUP9 DUP3 PUSH2 0x275C JUMP JUMPDEST DUP5 MSTORE PUSH1 0x20 DUP5 ADD SWAP4 POP POP PUSH1 0xE0 DUP2 ADD SWAP1 POP PUSH2 0x2848 JUMP JUMPDEST POP POP POP SWAP4 SWAP3 POP POP POP JUMP JUMPDEST PUSH1 0x0 DUP3 PUSH1 0x1F DUP4 ADD SLT PUSH2 0x288E JUMPI PUSH2 0x288D PUSH2 0x2695 JUMP JUMPDEST JUMPDEST DUP2 CALLDATALOAD PUSH2 0x289E DUP5 DUP3 PUSH1 0x20 DUP7 ADD PUSH2 0x2810 JUMP JUMPDEST SWAP2 POP POP SWAP3 SWAP2 POP POP JUMP JUMPDEST PUSH1 0x0 PUSH1 0x20 DUP3 DUP5 SUB SLT ISZERO PUSH2 0x28BD JUMPI PUSH2 0x28BC PUSH2 0x24A3 JUMP JUMPDEST JUMPDEST PUSH1 0x0 DUP3 ADD CALLDATALOAD PUSH8 0xFFFFFFFFFFFFFFFF DUP2 GT ISZERO PUSH2 0x28DB JUMPI PUSH2 0x28DA PUSH2 0x24A8 JUMP JUMPDEST JUMPDEST PUSH2 0x28E7 DUP5 DUP3 DUP6 ADD PUSH2 0x2879 JUMP JUMPDEST SWAP2 POP POP SWAP3 SWAP2 POP POP JUMP JUMPDEST PUSH1 0x0 DUP2 SWAP1 POP SWAP2 SWAP1 POP JUMP JUMPDEST PUSH2 0x2903 DUP2 PUSH2 0x28F0 JUMP JUMPDEST DUP2 EQ PUSH2 0x290E JUMPI PUSH1 0x0 DUP1 REVERT JUMPDEST POP JUMP JUMPDEST PUSH1 0x0 DUP2 CALLDATALOAD SWAP1 POP PUSH2 0x2920 DUP2 PUSH2 0x28FA JUMP JUMPDEST SWAP3 SWAP2 POP POP JUMP JUMPDEST PUSH1 0x0 DUP1 PUSH1 0x40 DUP4 DUP6 SUB SLT ISZERO PUSH2 0x293D JUMPI PUSH2 0x293C PUSH2 0x24A3 JUMP JUMPDEST JUMPDEST PUSH1 0x0 PUSH2 0x294B DUP6 DUP3 DUP7 ADD PUSH2 0x2911 JUMP JUMPDEST SWAP3 POP POP PUSH1 0x20 PUSH2 0x295C DUP6 DUP3 DUP7 ADD PUSH2 0x2522 JUMP JUMPDEST SWAP2 POP POP SWAP3 POP SWAP3 SWAP1 POP JUMP JUMPDEST PUSH2 0x296F DUP2 PUSH2 0x2537 JUMP JUMPDEST DUP3 MSTORE POP POP JUMP JUMPDEST PUSH2 0x297E DUP2 PUSH2 0x24CD JUMP JUMPDEST DUP3 MSTORE POP POP JUMP JUMPDEST PUSH2 0x298D DUP2 PUSH2 0x2465 JUMP JUMPDEST DUP3 MSTORE POP POP JUMP JUMPDEST PUSH2 0x140 DUP3 ADD PUSH1 0x0 DUP3 ADD MLOAD PUSH2 0x29AA PUSH1 0x0 DUP6 ADD DUP3 PUSH2 0x2966 JUMP JUMPDEST POP PUSH1 0x20 DUP3 ADD MLOAD PUSH2 0x29BD PUSH1 0x20 DUP6 ADD DUP3 PUSH2 0x2975 JUMP JUMPDEST POP PUSH1 0x40 DUP3 ADD MLOAD PUSH2 0x29D0 PUSH1 0x40 DUP6 ADD DUP3 PUSH2 0x2984 JUMP JUMPDEST POP PUSH1 0x60 DUP3 ADD MLOAD PUSH2 0x29E3 PUSH1 0x60 DUP6 ADD DUP3 PUSH2 0x2984 JUMP JUMPDEST POP PUSH1 0x80 DUP3 ADD MLOAD PUSH2 0x29F6 PUSH1 0x80 DUP6 ADD DUP3 PUSH2 0x2984 JUMP JUMPDEST POP PUSH1 0xA0 DUP3 ADD MLOAD PUSH2 0x2A09 PUSH1 0xA0 DUP6 ADD DUP3 PUSH2 0x2984 JUMP JUMPDEST POP PUSH1 0xC0 DUP3 ADD MLOAD PUSH2 0x2A1C PUSH1 0xC0 DUP6 ADD DUP3 PUSH2 0x2966 JUMP JUMPDEST POP PUSH1 0xE0 DUP3 ADD MLOAD PUSH2 0x2A2F PUSH1 0xE0 DUP6 ADD DUP3 PUSH2 0x2984 JUMP JUMPDEST POP PUSH2 0x100 DUP3 ADD MLOAD PUSH2 0x2A44 PUSH2 0x100 DUP6 ADD DUP3 PUSH2 0x2984 JUMP JUMPDEST POP PUSH2 0x120 DUP3 ADD MLOAD PUSH2 0x2A59 PUSH2 0x120 DUP6 ADD DUP3 PUSH2 0x2966 JUMP JUMPDEST POP POP POP POP JUMP JUMPDEST PUSH1 0x0 PUSH2 0x140 DUP3 ADD SWAP1 POP PUSH2 0x2A75 PUSH1 0x0 DUP4 ADD DUP5 PUSH2 0x2993 JUMP JUMPDEST SWAP3 SWAP2 POP POP JUMP JUMPDEST PUSH1 0x0 DUP1 PUSH1 0x40 DUP4 DUP6 SUB SLT ISZERO PUSH2 0x2A92 JUMPI PUSH2 0x2A91 PUSH2 0x24A3 JUMP JUMPDEST JUMPDEST PUSH1 0x0 PUSH2 0x2AA0 DUP6 DUP3 DUP7 ADD PUSH2 0x24F6 JUMP JUMPDEST SWAP3 POP POP PUSH1 0x20 PUSH2 0x2AB1 DUP6 DUP3 DUP7 ADD PUSH2 0x2522 JUMP JUMPDEST SWAP2 POP POP SWAP3 POP SWAP3 SWAP1 POP JUMP JUMPDEST PUSH2 0x2AC4 DUP2 PUSH2 0x28F0 JUMP JUMPDEST DUP3 MSTORE POP POP JUMP JUMPDEST PUSH1 0x0 PUSH1 0x20 DUP3 ADD SWAP1 POP PUSH2 0x2ADF PUSH1 0x0 DUP4 ADD DUP5 PUSH2 0x2ABB JUMP JUMPDEST SWAP3 SWAP2 POP POP JUMP JUMPDEST PUSH1 0x0 PUSH1 0x20 DUP3 DUP5 SUB SLT ISZERO PUSH2 0x2AFB JUMPI PUSH2 0x2AFA PUSH2 0x24A3 JUMP JUMPDEST JUMPDEST PUSH1 0x0 PUSH2 0x2B09 DUP5 DUP3 DUP6 ADD PUSH2 0x2911 JUMP JUMPDEST SWAP2 POP POP SWAP3 SWAP2 POP POP JUMP JUMPDEST PUSH1 0x0 DUP2 MLOAD SWAP1 POP PUSH2 0x2B21 DUP2 PUSH2 0x250B JUMP JUMPDEST SWAP3 SWAP2 POP POP JUMP JUMPDEST PUSH1 0x0 PUSH1 0x20 DUP3 DUP5 SUB SLT ISZERO PUSH2 0x2B3D JUMPI PUSH2 0x2B3C PUSH2 0x24A3 JUMP JUMPDEST JUMPDEST PUSH1 0x0 PUSH2 0x2B4B DUP5 DUP3 DUP6 ADD PUSH2 0x2B12 JUMP JUMPDEST SWAP2 POP POP SWAP3 SWAP2 POP POP JUMP JUMPDEST PUSH1 0x0 DUP3 DUP3 MSTORE PUSH1 0x20 DUP3 ADD SWAP1 POP SWAP3 SWAP2 POP POP JUMP JUMPDEST PUSH32 0x546F6B656E56657374696E673A2063616E6E6F74206372656174652076657374 PUSH1 0x0 DUP3 ADD MSTORE PUSH32 0x696E67207363686564756C652062656361757365206E6F742073756666696369 PUSH1 0x20 DUP3 ADD MSTORE PUSH32 0x656E7420746F6B656E7300000000000000000000000000000000000000000000 PUSH1 0x40 DUP3 ADD MSTORE POP JUMP JUMPDEST PUSH1 0x0 PUSH2 0x2BE7 PUSH1 0x4A DUP4 PUSH2 0x2B54 JUMP JUMPDEST SWAP2 POP PUSH2 0x2BF2 DUP3 PUSH2 0x2B65 JUMP JUMPDEST PUSH1 0x60 DUP3 ADD SWAP1 POP SWAP2 SWAP1 POP JUMP JUMPDEST PUSH1 0x0 PUSH1 0x20 DUP3 ADD SWAP1 POP DUP2 DUP2 SUB PUSH1 0x0 DUP4 ADD MSTORE PUSH2 0x2C16 DUP2 PUSH2 0x2BDA JUMP JUMPDEST SWAP1 POP SWAP2 SWAP1 POP JUMP JUMPDEST PUSH32 0x546F6B656E56657374696E673A206475726174696F6E206D757374206265203E PUSH1 0x0 DUP3 ADD MSTORE PUSH32 0x2030000000000000000000000000000000000000000000000000000000000000 PUSH1 0x20 DUP3 ADD MSTORE POP JUMP JUMPDEST PUSH1 0x0 PUSH2 0x2C79 PUSH1 0x22 DUP4 PUSH2 0x2B54 JUMP JUMPDEST SWAP2 POP PUSH2 0x2C84 DUP3 PUSH2 0x2C1D JUMP JUMPDEST PUSH1 0x40 DUP3 ADD SWAP1 POP SWAP2 SWAP1 POP JUMP JUMPDEST PUSH1 0x0 PUSH1 0x20 DUP3 ADD SWAP1 POP DUP2 DUP2 SUB PUSH1 0x0 DUP4 ADD MSTORE PUSH2 0x2CA8 DUP2 PUSH2 0x2C6C JUMP JUMPDEST SWAP1 POP SWAP2 SWAP1 POP JUMP JUMPDEST PUSH32 0x546F6B656E56657374696E673A20616D6F756E74206D757374206265203E2030 PUSH1 0x0 DUP3 ADD MSTORE POP JUMP JUMPDEST PUSH1 0x0 PUSH2 0x2CE5 PUSH1 0x20 DUP4 PUSH2 0x2B54 JUMP JUMPDEST SWAP2 POP PUSH2 0x2CF0 DUP3 PUSH2 0x2CAF JUMP JUMPDEST PUSH1 0x20 DUP3 ADD SWAP1 POP SWAP2 SWAP1 POP JUMP JUMPDEST PUSH1 0x0 PUSH1 0x20 DUP3 ADD SWAP1 POP DUP2 DUP2 SUB PUSH1 0x0 DUP4 ADD MSTORE PUSH2 0x2D14 DUP2 PUSH2 0x2CD8 JUMP JUMPDEST SWAP1 POP SWAP2 SWAP1 POP JUMP JUMPDEST PUSH32 0x546F6B656E56657374696E673A20736C696365506572696F645365636F6E6473 PUSH1 0x0 DUP3 ADD MSTORE PUSH32 0x206D757374206265203E3D203100000000000000000000000000000000000000 PUSH1 0x20 DUP3 ADD MSTORE POP JUMP JUMPDEST PUSH1 0x0 PUSH2 0x2D77 PUSH1 0x2D DUP4 PUSH2 0x2B54 JUMP JUMPDEST SWAP2 POP PUSH2 0x2D82 DUP3 PUSH2 0x2D1B JUMP JUMPDEST PUSH1 0x40 DUP3 ADD SWAP1 POP SWAP2 SWAP1 POP JUMP JUMPDEST PUSH1 0x0 PUSH1 0x20 DUP3 ADD SWAP1 POP DUP2 DUP2 SUB PUSH1 0x0 DUP4 ADD MSTORE PUSH2 0x2DA6 DUP2 PUSH2 0x2D6A JUMP JUMPDEST SWAP1 POP SWAP2 SWAP1 POP JUMP JUMPDEST PUSH1 0x0 DUP2 MLOAD SWAP1 POP PUSH2 0x2DBC DUP2 PUSH2 0x28FA JUMP JUMPDEST SWAP3 SWAP2 POP POP JUMP JUMPDEST PUSH1 0x0 PUSH1 0x20 DUP3 DUP5 SUB SLT ISZERO PUSH2 0x2DD8 JUMPI PUSH2 0x2DD7 PUSH2 0x24A3 JUMP JUMPDEST JUMPDEST PUSH1 0x0 PUSH2 0x2DE6 DUP5 DUP3 DUP6 ADD PUSH2 0x2DAD JUMP JUMPDEST SWAP2 POP POP SWAP3 SWAP2 POP POP JUMP JUMPDEST PUSH32 0x546F6B656E56657374696E673A206E6F7420656E6F7567682077697468647261 PUSH1 0x0 DUP3 ADD MSTORE PUSH32 0x7761626C652066756E6473000000000000000000000000000000000000000000 PUSH1 0x20 DUP3 ADD MSTORE POP JUMP JUMPDEST PUSH1 0x0 PUSH2 0x2E4B PUSH1 0x2B DUP4 PUSH2 0x2B54 JUMP JUMPDEST SWAP2 POP PUSH2 0x2E56 DUP3 PUSH2 0x2DEF JUMP JUMPDEST PUSH1 0x40 DUP3 ADD SWAP1 POP SWAP2 SWAP1 POP JUMP JUMPDEST PUSH1 0x0 PUSH1 0x20 DUP3 ADD SWAP1 POP DUP2 DUP2 SUB PUSH1 0x0 DUP4 ADD MSTORE PUSH2 0x2E7A DUP2 PUSH2 0x2E3E JUMP JUMPDEST SWAP1 POP SWAP2 SWAP1 POP JUMP JUMPDEST PUSH32 0x4E487B7100000000000000000000000000000000000000000000000000000000 PUSH1 0x0 MSTORE PUSH1 0x32 PUSH1 0x4 MSTORE PUSH1 0x24 PUSH1 0x0 REVERT JUMPDEST PUSH32 0x4E487B7100000000000000000000000000000000000000000000000000000000 PUSH1 0x0 MSTORE PUSH1 0x11 PUSH1 0x4 MSTORE PUSH1 0x24 PUSH1 0x0 REVERT JUMPDEST PUSH1 0x0 PUSH2 0x2EEA DUP3 PUSH2 0x2465 JUMP JUMPDEST SWAP2 POP PUSH32 0xFFFFFFFFFFFFFFFFFFFFFFFFFFFFFFFFFFFFFFFFFFFFFFFFFFFFFFFFFFFFFFFF DUP3 SUB PUSH2 0x2F1C JUMPI PUSH2 0x2F1B PUSH2 0x2EB0 JUMP JUMPDEST JUMPDEST PUSH1 0x1 DUP3 ADD SWAP1 POP SWAP2 SWAP1 POP JUMP JUMPDEST PUSH32 0x546F6B656E56657374696E673A206F6E6C792062656E65666963696172792061 PUSH1 0x0 DUP3 ADD MSTORE PUSH32 0x6E64206F776E65722063616E2072656C656173652076657374656420746F6B65 PUSH1 0x20 DUP3 ADD MSTORE PUSH32 0x6E73000000000000000000000000000000000000000000000000000000000000 PUSH1 0x40 DUP3 ADD MSTORE POP JUMP JUMPDEST PUSH1 0x0 PUSH2 0x2FA9 PUSH1 0x42 DUP4 PUSH2 0x2B54 JUMP JUMPDEST SWAP2 POP PUSH2 0x2FB4 DUP3 PUSH2 0x2F27 JUMP JUMPDEST PUSH1 0x60 DUP3 ADD SWAP1 POP SWAP2 SWAP1 POP JUMP JUMPDEST PUSH1 0x0 PUSH1 0x20 DUP3 ADD SWAP1 POP DUP2 DUP2 SUB PUSH1 0x0 DUP4 ADD MSTORE PUSH2 0x2FD8 DUP2 PUSH2 0x2F9C JUMP JUMPDEST SWAP1 POP SWAP2 SWAP1 POP JUMP JUMPDEST PUSH32 0x546F6B656E56657374696E673A2063616E6E6F742072656C6561736520746F6B PUSH1 0x0 DUP3 ADD MSTORE PUSH32 0x656E732C206E6F7420656E6F7567682076657374656420746F6B656E73000000 PUSH1 0x20 DUP3 ADD MSTORE POP JUMP JUMPDEST PUSH1 0x0 PUSH2 0x303B PUSH1 0x3D DUP4 PUSH2 0x2B54 JUMP JUMPDEST SWAP2 POP PUSH2 0x3046 DUP3 PUSH2 0x2FDF JUMP JUMPDEST PUSH1 0x40 DUP3 ADD SWAP1 POP SWAP2 SWAP1 POP JUMP JUMPDEST PUSH1 0x0 PUSH1 0x20 DUP3 ADD SWAP1 POP DUP2 DUP2 SUB PUSH1 0x0 DUP4 ADD MSTORE PUSH2 0x306A DUP2 PUSH2 0x302E JUMP JUMPDEST SWAP1 POP SWAP2 SWAP1 POP JUMP JUMPDEST PUSH1 0x0 PUSH2 0x307C DUP3 PUSH2 0x2465 JUMP JUMPDEST SWAP2 POP PUSH2 0x3087 DUP4 PUSH2 0x2465 JUMP JUMPDEST SWAP3 POP DUP3 DUP3 SUB SWAP1 POP DUP2 DUP2 GT ISZERO PUSH2 0x309F JUMPI PUSH2 0x309E PUSH2 0x2EB0 JUMP JUMPDEST JUMPDEST SWAP3 SWAP2 POP POP JUMP JUMPDEST PUSH1 0x0 DUP2 PUSH1 0x60 SHL SWAP1 POP SWAP2 SWAP1 POP JUMP JUMPDEST PUSH1 0x0 PUSH2 0x30BD DUP3 PUSH2 0x30A5 JUMP JUMPDEST SWAP1 POP SWAP2 SWAP1 POP JUMP JUMPDEST PUSH1 0x0 PUSH2 0x30CF DUP3 PUSH2 0x30B2 JUMP JUMPDEST SWAP1 POP SWAP2 SWAP1 POP JUMP JUMPDEST PUSH2 0x30E7 PUSH2 0x30E2 DUP3 PUSH2 0x24CD JUMP JUMPDEST PUSH2 0x30C4 JUMP JUMPDEST DUP3 MSTORE POP POP JUMP JUMPDEST PUSH1 0x0 DUP2 SWAP1 POP SWAP2 SWAP1 POP JUMP JUMPDEST PUSH2 0x3108 PUSH2 0x3103 DUP3 PUSH2 0x2465 JUMP JUMPDEST PUSH2 0x30ED JUMP JUMPDEST DUP3 MSTORE POP POP JUMP JUMPDEST PUSH1 0x0 PUSH2 0x311A DUP3 DUP6 PUSH2 0x30D6 JUMP JUMPDEST PUSH1 0x14 DUP3 ADD SWAP2 POP PUSH2 0x312A DUP3 DUP5 PUSH2 0x30F7 JUMP JUMPDEST PUSH1 0x20 DUP3 ADD SWAP2 POP DUP2 SWAP1 POP SWAP4 SWAP3 POP POP POP JUMP JUMPDEST PUSH32 0x546F6B656E56657374696E673A2076657374696E67206973206E6F7420726576 PUSH1 0x0 DUP3 ADD MSTORE PUSH32 0x6F6361626C650000000000000000000000000000000000000000000000000000 PUSH1 0x20 DUP3 ADD MSTORE POP JUMP JUMPDEST PUSH1 0x0 PUSH2 0x3196 PUSH1 0x26 DUP4 PUSH2 0x2B54 JUMP JUMPDEST SWAP2 POP PUSH2 0x31A1 DUP3 PUSH2 0x313A JUMP JUMPDEST PUSH1 0x40 DUP3 ADD SWAP1 POP SWAP2 SWAP1 POP JUMP JUMPDEST PUSH1 0x0 PUSH1 0x20 DUP3 ADD SWAP1 POP DUP2 DUP2 SUB PUSH1 0x0 DUP4 ADD MSTORE PUSH2 0x31C5 DUP2 PUSH2 0x3189 JUMP JUMPDEST SWAP1 POP SWAP2 SWAP1 POP JUMP JUMPDEST PUSH32 0x4F776E61626C653A206E6577206F776E657220697320746865207A65726F2061 PUSH1 0x0 DUP3 ADD MSTORE PUSH32 0x6464726573730000000000000000000000000000000000000000000000000000 PUSH1 0x20 DUP3 ADD MSTORE POP JUMP JUMPDEST PUSH1 0x0 PUSH2 0x3228 PUSH1 0x26 DUP4 PUSH2 0x2B54 JUMP JUMPDEST SWAP2 POP PUSH2 0x3233 DUP3 PUSH2 0x31CC JUMP JUMPDEST PUSH1 0x40 DUP3 ADD SWAP1 POP SWAP2 SWAP1 POP JUMP JUMPDEST PUSH1 0x0 PUSH1 0x20 DUP3 ADD SWAP1 POP DUP2 DUP2 SUB PUSH1 0x0 DUP4 ADD MSTORE PUSH2 0x3257 DUP2 PUSH2 0x321B JUMP JUMPDEST SWAP1 POP SWAP2 SWAP1 POP JUMP JUMPDEST PUSH32 0x546F6B656E56657374696E673A20696E646578206F7574206F6620626F756E64 PUSH1 0x0 DUP3 ADD MSTORE PUSH32 0x7300000000000000000000000000000000000000000000000000000000000000 PUSH1 0x20 DUP3 ADD MSTORE POP JUMP JUMPDEST PUSH1 0x0 PUSH2 0x32BA PUSH1 0x21 DUP4 PUSH2 0x2B54 JUMP JUMPDEST SWAP2 POP PUSH2 0x32C5 DUP3 PUSH2 0x325E JUMP JUMPDEST PUSH1 0x40 DUP3 ADD SWAP1 POP SWAP2 SWAP1 POP JUMP JUMPDEST PUSH1 0x0 PUSH1 0x20 DUP3 ADD SWAP1 POP DUP2 DUP2 SUB PUSH1 0x0 DUP4 ADD MSTORE PUSH2 0x32E9 DUP2 PUSH2 0x32AD JUMP JUMPDEST SWAP1 POP SWAP2 SWAP1 POP JUMP JUMPDEST PUSH32 0x4F776E61626C653A2063616C6C6572206973206E6F7420746865206F776E6572 PUSH1 0x0 DUP3 ADD MSTORE POP JUMP JUMPDEST PUSH1 0x0 PUSH2 0x3326 PUSH1 0x20 DUP4 PUSH2 0x2B54 JUMP JUMPDEST SWAP2 POP PUSH2 0x3331 DUP3 PUSH2 0x32F0 JUMP JUMPDEST PUSH1 0x20 DUP3 ADD SWAP1 POP SWAP2 SWAP1 POP JUMP JUMPDEST PUSH1 0x0 PUSH1 0x20 DUP3 ADD SWAP1 POP DUP2 DUP2 SUB PUSH1 0x0 DUP4 ADD MSTORE PUSH2 0x3355 DUP2 PUSH2 0x3319 JUMP JUMPDEST SWAP1 POP SWAP2 SWAP1 POP JUMP JUMPDEST PUSH1 0x0 PUSH2 0x3367 DUP3 PUSH2 0x2465 JUMP JUMPDEST SWAP2 POP PUSH2 0x3372 DUP4 PUSH2 0x2465 JUMP JUMPDEST SWAP3 POP DUP3 DUP3 ADD SWAP1 POP DUP1 DUP3 GT ISZERO PUSH2 0x338A JUMPI PUSH2 0x3389 PUSH2 0x2EB0 JUMP JUMPDEST JUMPDEST SWAP3 SWAP2 POP POP JUMP JUMPDEST PUSH32 0x5265656E7472616E637947756172643A207265656E7472616E742063616C6C00 PUSH1 0x0 DUP3 ADD MSTORE POP JUMP JUMPDEST PUSH1 0x0 PUSH2 0x33C6 PUSH1 0x1F DUP4 PUSH2 0x2B54 JUMP JUMPDEST SWAP2 POP PUSH2 0x33D1 DUP3 PUSH2 0x3390 JUMP JUMPDEST PUSH1 0x20 DUP3 ADD SWAP1 POP SWAP2 SWAP1 POP JUMP JUMPDEST PUSH1 0x0 PUSH1 0x20 DUP3 ADD SWAP1 POP DUP2 DUP2 SUB PUSH1 0x0 DUP4 ADD MSTORE PUSH2 0x33F5 DUP2 PUSH2 0x33B9 JUMP JUMPDEST SWAP1 POP SWAP2 SWAP1 POP JUMP JUMPDEST PUSH1 0x0 PUSH1 0x40 DUP3 ADD SWAP1 POP PUSH2 0x3411 PUSH1 0x0 DUP4 ADD DUP6 PUSH2 0x2611 JUMP JUMPDEST PUSH2 0x341E PUSH1 0x20 DUP4 ADD DUP5 PUSH2 0x246F JUMP JUMPDEST SWAP4 SWAP3 POP POP POP JUMP JUMPDEST PUSH1 0x0 DUP2 MLOAD SWAP1 POP PUSH2 0x3434 DUP2 PUSH2 0x2543 JUMP JUMPDEST SWAP3 SWAP2 POP POP JUMP JUMPDEST PUSH1 0x0 PUSH1 0x20 DUP3 DUP5 SUB SLT ISZERO PUSH2 0x3450 JUMPI PUSH2 0x344F PUSH2 0x24A3 JUMP JUMPDEST JUMPDEST PUSH1 0x0 PUSH2 0x345E DUP5 DUP3 DUP6 ADD PUSH2 0x3425 JUMP JUMPDEST SWAP2 POP POP SWAP3 SWAP2 POP POP JUMP JUMPDEST PUSH32 0x5361666545524332303A204552433230206F7065726174696F6E20646964206E PUSH1 0x0 DUP3 ADD MSTORE PUSH32 0x6F74207375636365656400000000000000000000000000000000000000000000 PUSH1 0x20 DUP3 ADD MSTORE POP JUMP JUMPDEST PUSH1 0x0 PUSH2 0x34C3 PUSH1 0x2A DUP4 PUSH2 0x2B54 JUMP JUMPDEST SWAP2 POP PUSH2 0x34CE DUP3 PUSH2 0x3467 JUMP JUMPDEST PUSH1 0x40 DUP3 ADD SWAP1 POP SWAP2 SWAP1 POP JUMP JUMPDEST PUSH1 0x0 PUSH1 0x20 DUP3 ADD SWAP1 POP DUP2 DUP2 SUB PUSH1 0x0 DUP4 ADD MSTORE PUSH2 0x34F2 DUP2 PUSH2 0x34B6 JUMP JUMPDEST SWAP1 POP SWAP2 SWAP1 POP JUMP JUMPDEST PUSH32 0x4E487B7100000000000000000000000000000000000000000000000000000000 PUSH1 0x0 MSTORE PUSH1 0x12 PUSH1 0x4 MSTORE PUSH1 0x24 PUSH1 0x0 REVERT JUMPDEST PUSH1 0x0 PUSH2 0x3533 DUP3 PUSH2 0x2465 JUMP JUMPDEST SWAP2 POP PUSH2 0x353E DUP4 PUSH2 0x2465 JUMP JUMPDEST SWAP3 POP DUP3 PUSH2 0x354E JUMPI PUSH2 0x354D PUSH2 0x34F9 JUMP JUMPDEST JUMPDEST DUP3 DUP3 DIV SWAP1 POP SWAP3 SWAP2 POP POP JUMP JUMPDEST PUSH1 0x0 PUSH2 0x3564 DUP3 PUSH2 0x2465 JUMP JUMPDEST SWAP2 POP PUSH2 0x356F DUP4 PUSH2 0x2465 JUMP JUMPDEST SWAP3 POP DUP3 DUP3 MUL PUSH2 0x357D DUP2 PUSH2 0x2465 JUMP JUMPDEST SWAP2 POP DUP3 DUP3 DIV DUP5 EQ DUP4 ISZERO OR PUSH2 0x3594 JUMPI PUSH2 0x3593 PUSH2 0x2EB0 JUMP JUMPDEST JUMPDEST POP SWAP3 SWAP2 POP POP JUMP JUMPDEST PUSH32 0x416464726573733A20696E73756666696369656E742062616C616E636520666F PUSH1 0x0 DUP3 ADD MSTORE PUSH32 0x722063616C6C0000000000000000000000000000000000000000000000000000 PUSH1 0x20 DUP3 ADD MSTORE POP JUMP JUMPDEST PUSH1 0x0 PUSH2 0x35F7 PUSH1 0x26 DUP4 PUSH2 0x2B54 JUMP JUMPDEST SWAP2 POP PUSH2 0x3602 DUP3 PUSH2 0x359B JUMP JUMPDEST PUSH1 0x40 DUP3 ADD SWAP1 POP SWAP2 SWAP1 POP JUMP JUMPDEST PUSH1 0x0 PUSH1 0x20 DUP3 ADD SWAP1 POP DUP2 DUP2 SUB PUSH1 0x0 DUP4 ADD MSTORE PUSH2 0x3626 DUP2 PUSH2 0x35EA JUMP JUMPDEST SWAP1 POP SWAP2 SWAP1 POP JUMP JUMPDEST PUSH1 0x0 DUP2 MLOAD SWAP1 POP SWAP2 SWAP1 POP JUMP JUMPDEST PUSH1 0x0 DUP2 SWAP1 POP SWAP3 SWAP2 POP POP JUMP JUMPDEST PUSH1 0x0 JUMPDEST DUP4 DUP2 LT ISZERO PUSH2 0x3661 JUMPI DUP1 DUP3 ADD MLOAD DUP2 DUP5 ADD MSTORE PUSH1 0x20 DUP2 ADD SWAP1 POP PUSH2 0x3646 JUMP JUMPDEST PUSH1 0x0 DUP5 DUP5 ADD MSTORE POP POP POP POP JUMP JUMPDEST PUSH1 0x0 PUSH2 0x3678 DUP3 PUSH2 0x362D JUMP JUMPDEST PUSH2 0x3682 DUP2 DUP6 PUSH2 0x3638 JUMP JUMPDEST SWAP4 POP PUSH2 0x3692 DUP2 DUP6 PUSH1 0x20 DUP7 ADD PUSH2 0x3643 JUMP JUMPDEST DUP1 DUP5 ADD SWAP2 POP POP SWAP3 SWAP2 POP POP JUMP JUMPDEST PUSH1 0x0 PUSH2 0x36AA DUP3 DUP5 PUSH2 0x366D JUMP JUMPDEST SWAP2 POP DUP2 SWAP1 POP SWAP3 SWAP2 POP POP JUMP JUMPDEST PUSH32 0x416464726573733A2063616C6C20746F206E6F6E2D636F6E7472616374000000 PUSH1 0x0 DUP3 ADD MSTORE POP JUMP JUMPDEST PUSH1 0x0 PUSH2 0x36EB PUSH1 0x1D DUP4 PUSH2 0x2B54 JUMP JUMPDEST SWAP2 POP PUSH2 0x36F6 DUP3 PUSH2 0x36B5 JUMP JUMPDEST PUSH1 0x20 DUP3 ADD SWAP1 POP SWAP2 SWAP1 POP JUMP JUMPDEST PUSH1 0x0 PUSH1 0x20 DUP3 ADD SWAP1 POP DUP2 DUP2 SUB PUSH1 0x0 DUP4 ADD MSTORE PUSH2 0x371A DUP2 PUSH2 0x36DE JUMP JUMPDEST SWAP1 POP SWAP2 SWAP1 POP JUMP JUMPDEST PUSH1 0x0 DUP2 MLOAD SWAP1 POP SWAP2 SWAP1 POP JUMP JUMPDEST PUSH1 0x0 PUSH2 0x3737 DUP3 PUSH2 0x3721 JUMP JUMPDEST PUSH2 0x3741 DUP2 DUP6 PUSH2 0x2B54 JUMP JUMPDEST SWAP4 POP PUSH2 0x3751 DUP2 DUP6 PUSH1 0x20 DUP7 ADD PUSH2 0x3643 JUMP JUMPDEST PUSH2 0x375A DUP2 PUSH2 0x269A JUMP JUMPDEST DUP5 ADD SWAP2 POP POP SWAP3 SWAP2 POP POP JUMP JUMPDEST PUSH1 0x0 PUSH1 0x20 DUP3 ADD SWAP1 POP DUP2 DUP2 SUB PUSH1 0x0 DUP4 ADD MSTORE PUSH2 0x377F DUP2 DUP5 PUSH2 0x372C JUMP JUMPDEST SWAP1 POP SWAP3 SWAP2 POP POP JUMP INVALID LOG2 PUSH5 0x6970667358 0x22 SLT KECCAK256 DUP4 RETURNDATASIZE ADD JUMPI 0xD0 REVERT JUMP CALLDATACOPY 0xE0 0x27 NOT LOG0 0xC2 PUSH19 0x4EE294E4B3D2DF1CBC96855D4D55D159C82B64 PUSH20 0x6F6C634300081100330000000000000000000000 "
				},
				"gasEstimates": {
					"creation": {
						"codeDepositCost": "2853800",
						"executionCost": "infinite",
						"totalCost": "infinite"
					},
					"external": {
						"": "219",
						"computeNextVestingScheduleIdForHolder(address)": "infinite",
						"computeReleasableAmount(bytes32)": "infinite",
						"computeVestingScheduleIdForAddressAndIndex(address,uint256)": "infinite",
						"createVestingSchedule(address,uint256,uint256,uint256,uint256,bool,uint256)": "infinite",
						"createVestingScheduleMany((address,uint256,uint256,uint256,uint256,bool,uint256)[])": "infinite",
						"getLastVestingScheduleForHolder(address)": "infinite",
						"getToken()": "infinite",
						"getVestingIdAtIndex(uint256)": "7158",
						"getVestingSchedule(bytes32)": "infinite",
						"getVestingScheduleByAddressAndIndex(address,uint256)": "infinite",
						"getVestingSchedulesCount()": "2469",
						"getVestingSchedulesCountByBeneficiary(address)": "2864",
						"getVestingSchedulesTotalAmount()": "2549",
						"getWithdrawableAmount()": "infinite",
						"owner()": "2567",
						"release(bytes32,uint256)": "infinite",
						"renounceOwnership()": "30487",
						"revoke(bytes32)": "infinite",
						"transferOwnership(address)": "30788",
						"withdraw(uint256)": "infinite"
					},
					"internal": {
						"_computeReleasableAmount(struct SabaiVesting.VestingSchedule memory)": "infinite",
						"getCurrentTime()": "22"
					}
				},
				"methodIdentifiers": {
					"computeNextVestingScheduleIdForHolder(address)": "f7c469f0",
					"computeReleasableAmount(bytes32)": "ea1bb3d5",
					"computeVestingScheduleIdForAddressAndIndex(address,uint256)": "8af104da",
					"createVestingSchedule(address,uint256,uint256,uint256,uint256,bool,uint256)": "17e289e9",
					"createVestingScheduleMany((address,uint256,uint256,uint256,uint256,bool,uint256)[])": "5d69f805",
					"getLastVestingScheduleForHolder(address)": "7e913dc6",
					"getToken()": "21df0da7",
					"getVestingIdAtIndex(uint256)": "f9079b37",
					"getVestingSchedule(bytes32)": "9ef346b4",
					"getVestingScheduleByAddressAndIndex(address,uint256)": "f51321d7",
					"getVestingSchedulesCount()": "13083617",
					"getVestingSchedulesCountByBeneficiary(address)": "5a7bb69a",
					"getVestingSchedulesTotalAmount()": "48deb471",
					"getWithdrawableAmount()": "90be10cc",
					"owner()": "8da5cb5b",
					"release(bytes32,uint256)": "66afd8ef",
					"renounceOwnership()": "715018a6",
					"revoke(bytes32)": "b75c7dc6",
					"transferOwnership(address)": "f2fde38b",
					"withdraw(uint256)": "2e1a7d4d"
				}
			},
			"storageLayout": {
				"storage": [
					{
						"astId": 7,
						"contract": "contracts/Sabai Vesting.sol:SabaiVesting",
						"label": "_owner",
						"offset": 0,
						"slot": "0",
						"type": "t_address"
					},
					{
						"astId": 123,
						"contract": "contracts/Sabai Vesting.sol:SabaiVesting",
						"label": "_status",
						"offset": 0,
						"slot": "1",
						"type": "t_uint256"
					},
					{
						"astId": 2137,
						"contract": "contracts/Sabai Vesting.sol:SabaiVesting",
						"label": "vestingSchedulesIds",
						"offset": 0,
						"slot": "2",
						"type": "t_array(t_bytes32)dyn_storage"
					},
					{
						"astId": 2142,
						"contract": "contracts/Sabai Vesting.sol:SabaiVesting",
						"label": "vestingSchedules",
						"offset": 0,
						"slot": "3",
						"type": "t_mapping(t_bytes32,t_struct(VestingSchedule)2131_storage)"
					},
					{
						"astId": 2144,
						"contract": "contracts/Sabai Vesting.sol:SabaiVesting",
						"label": "vestingSchedulesTotalAmount",
						"offset": 0,
						"slot": "4",
						"type": "t_uint256"
					},
					{
						"astId": 2148,
						"contract": "contracts/Sabai Vesting.sol:SabaiVesting",
						"label": "holdersVestingCount",
						"offset": 0,
						"slot": "5",
						"type": "t_mapping(t_address,t_uint256)"
					}
				],
				"types": {
					"t_address": {
						"encoding": "inplace",
						"label": "address",
						"numberOfBytes": "20"
					},
					"t_array(t_bytes32)dyn_storage": {
						"base": "t_bytes32",
						"encoding": "dynamic_array",
						"label": "bytes32[]",
						"numberOfBytes": "32"
					},
					"t_bool": {
						"encoding": "inplace",
						"label": "bool",
						"numberOfBytes": "1"
					},
					"t_bytes32": {
						"encoding": "inplace",
						"label": "bytes32",
						"numberOfBytes": "32"
					},
					"t_mapping(t_address,t_uint256)": {
						"encoding": "mapping",
						"key": "t_address",
						"label": "mapping(address => uint256)",
						"numberOfBytes": "32",
						"value": "t_uint256"
					},
					"t_mapping(t_bytes32,t_struct(VestingSchedule)2131_storage)": {
						"encoding": "mapping",
						"key": "t_bytes32",
						"label": "mapping(bytes32 => struct SabaiVesting.VestingSchedule)",
						"numberOfBytes": "32",
						"value": "t_struct(VestingSchedule)2131_storage"
					},
					"t_struct(VestingSchedule)2131_storage": {
						"encoding": "inplace",
						"label": "struct SabaiVesting.VestingSchedule",
						"members": [
							{
								"astId": 2112,
								"contract": "contracts/Sabai Vesting.sol:SabaiVesting",
								"label": "initialized",
								"offset": 0,
								"slot": "0",
								"type": "t_bool"
							},
							{
								"astId": 2114,
								"contract": "contracts/Sabai Vesting.sol:SabaiVesting",
								"label": "beneficiary",
								"offset": 1,
								"slot": "0",
								"type": "t_address"
							},
							{
								"astId": 2116,
								"contract": "contracts/Sabai Vesting.sol:SabaiVesting",
								"label": "cliff",
								"offset": 0,
								"slot": "1",
								"type": "t_uint256"
							},
							{
								"astId": 2118,
								"contract": "contracts/Sabai Vesting.sol:SabaiVesting",
								"label": "start",
								"offset": 0,
								"slot": "2",
								"type": "t_uint256"
							},
							{
								"astId": 2120,
								"contract": "contracts/Sabai Vesting.sol:SabaiVesting",
								"label": "duration",
								"offset": 0,
								"slot": "3",
								"type": "t_uint256"
							},
							{
								"astId": 2122,
								"contract": "contracts/Sabai Vesting.sol:SabaiVesting",
								"label": "slicePeriodSeconds",
								"offset": 0,
								"slot": "4",
								"type": "t_uint256"
							},
							{
								"astId": 2124,
								"contract": "contracts/Sabai Vesting.sol:SabaiVesting",
								"label": "revocable",
								"offset": 0,
								"slot": "5",
								"type": "t_bool"
							},
							{
								"astId": 2126,
								"contract": "contracts/Sabai Vesting.sol:SabaiVesting",
								"label": "amountTotal",
								"offset": 0,
								"slot": "6",
								"type": "t_uint256"
							},
							{
								"astId": 2128,
								"contract": "contracts/Sabai Vesting.sol:SabaiVesting",
								"label": "released",
								"offset": 0,
								"slot": "7",
								"type": "t_uint256"
							},
							{
								"astId": 2130,
								"contract": "contracts/Sabai Vesting.sol:SabaiVesting",
								"label": "revoked",
								"offset": 0,
								"slot": "8",
								"type": "t_bool"
							}
						],
						"numberOfBytes": "288"
					},
					"t_uint256": {
						"encoding": "inplace",
						"label": "uint256",
						"numberOfBytes": "32"
					}
				}
			},
			"userdoc": {
				"kind": "user",
				"methods": {
					"computeReleasableAmount(bytes32)": {
						"notice": "Computes the vested amount of tokens for the given vesting schedule identifier."
					},
					"createVestingSchedule(address,uint256,uint256,uint256,uint256,bool,uint256)": {
						"notice": "Creates a new vesting schedule for a beneficiary."
					},
					"getVestingSchedule(bytes32)": {
						"notice": "Returns the vesting schedule information for a given identifier."
					},
					"getVestingScheduleByAddressAndIndex(address,uint256)": {
						"notice": "Returns the vesting schedule information for a given holder and index."
					},
					"getVestingSchedulesTotalAmount()": {
						"notice": "Returns the total amount of vesting schedules."
					},
					"release(bytes32,uint256)": {
						"notice": "Release vested amount of tokens."
					},
					"revoke(bytes32)": {
						"notice": "Revokes the vesting schedule for given identifier."
					},
					"withdraw(uint256)": {
						"notice": "Withdraw the specified amount if possible."
					}
				},
				"version": 1
			}
		}
	}
}